S015000041544D454C2D455334393530332E73726563D2
S10E3000636F6E7374206461746100E0
S113400060300020E9920000E5920000E592000093
S1134010000000000000000000000000000000009C
S1134020000000000000000000000000E592000015
S11340300000000000000000E5920000E59200008E
S1134040E59200001D410000E5920000C97D0000DA
S1134050E5920000E5920000E5920000E592000080
S1134060E5920000FD8400000D8500001D85000020
S11340702D8500003D8500004D850000C54D0000E4
S1134080E5920000E5920000E5920000E592000050
S1134090E5920000E5920000E5920000E592000040
S11340A0E5920000E5920000E5920000E592000030
S11340B0E5920000E5920000E592000010B5064C80
S11340C02378002B07D1054B002B02D0044800E0D5
S11340D000BF0123237010BD100000200000000069
S11340E0249E0000084B10B5002B03D00749084854
S11340F000E000BF07480368002B00D110BD064B49
S1134100002BFBD09847F9E70000000014000020C2
S1134110249E0000249E00000000000010B501222F
S1134120034B9A71034B1B68002B00D0984710BDBA
S113413000200040A40C002010B58CB00BA9012372
S11341404B7000248C700B702620134B9847402230
S1134150124B5A616846124B984703236A465370C0
S11341601471072393700F4C0F4920000F4B98478D
S11341702268138C9BB2002BFBD10733137193710C
S11341801178053B0B431370064B1A68138C9BB2D2
S1134190002BFBD10CB010BD9D82000080000041BB
S11341A021740000A80C0020004400426574000043
S11341B0094B98420BD8094A0232012311888142E3
S11341C006D90133DBB202328D2BF7D100E0002394
S11341D0034AD0567047C046983B0000D49700006D
S11341E0F098000070B5254C8823E05C0002013390
S11341F0E35C181880B2224DA847224B18708A231A
S1134200E05C00020133E35C181880B2A8471E4B3F
S113421018708C23E05C00020133E35C181880B250
S1134220A8471A4B18708E23E05C00020133E35C4C
S1134230181880B2A847164B18709023E05C00024F
S11342400133E35C181880B2A847124B18709A2304
S1134250E35C1B029B22A25CD3180F4A13808623C3
S1134260E35C1B028722A25CD3189BB20B4A138027
S11342700B4A13800B4A138070BDC046900D00207A
S1134280B14100008E0D00204D0E00207E0E002056
S1134290460E0020440E0020AA0E00207C0E0020B2
S11342A0320000202E000020F0B589B04D4B1B7861
S11342B0002B16D101224B4B1A704B4A4B49080074
S11342C0403015002035002413889B080B800B8494
S11342D0038003841480023202310230AA42F3D1F3
S11342E00FE0434B18784001404BC01800233E4D6B
S11342F0002459190A889208C2520C800233202BD8
S1134300F7D13B4B1B780133DBB2032B02D8384A7D
S1134310137002E00022364B1A7034480021070063
S1134320314ECA19048C0388E3188D192C881B1983
S11343301400403424881B19603212889B189BB2E5
S11343402B806A468B52023102302029E9D10F2793
S113435014E051006846085A511C4D006C462D5B10
S1134360A84203D952001553490008530133DBB264
S11343701A1EB242EDDB013F002F05D03E000022A1
S11343800023002FE5DCF6E76B46063308A900207E
S11343901A88801802339942FAD10D21154B984797
S11343A0154B18806B46DA8B144B1A806B46DA88EF
S11343B0134B1A80134B00229B5E002B10DA124A17
S11343C012780132D2B2032A02D80F490A7002E0ED
S11343D000210D4A11700C4A127852000B495352B5
S11343E009B0F0BD2C00002040100020B00C0020CB
S11343F03100002079940000480E0020840E002033
S11344004A0E0020AA0E002030000020F40E0020E6
S11344102F4B00229A562F4B1B785BB29A4202DD37
S11344202D4B1A8001E02C4A13802C4B00229A5603
S11344302B4B1B785BB29A420ADD2A49097849B2B0
S11344408A4202DD28490A800CE02748018009E0FD
S11344502449097849B28B4202DD23490B8001E0EB
S1134460214801801C3201DA1C4A13701C3303DA20
S11344701C4B1A781A4B1A701A4B1B785BB21A0031
S11344801C320ADA164B1B785BB2164A1370134AB5
S1134490127852B293420DDC17E0104A127852B2ED
S11344A00F49097849B28A420ADA0E4B1B785BB28B
S11344B09A4202DA0D4B1A8009E00C4A138006E096
S11344C08B4202DD094B198001E0084A13807047D2
S11344D08E0D00204D0E00201C1000207E0E0020AA
S11344E0460E0020440E0020101000208C0D0020E9
S11344F010B50A4A0A491400203413781B02507874
S1134500C3180B8002320231A242F6D1054B984700
S1134510054B9847054B984710BDC046F60D002043
S113452040100020A942000011440000215800005E
S113453070B52E4A2E491400203413781B0250788B
S1134540C3180B8002320231A242F6D1294C8823CF
S1134550E05C00020133E35C181880B2264DA847E2
S1134560264B18708A23E05C00020133E35C1818C0
S113457080B2A847224B18708C23E05C0002013300
S1134580E35C181880B2A8471E4B18708E23E05CB9
S113459000020133E35C181880B2A8471A4B187064
S11345A09023E05C00020133E35C181880B2A84752
S11345B0164B18709A23E35C1B029B22A25CD3184F
S11345C0134A13808623E35C1B028722A25CD31860
S11345D09BB2104A1380104A1380104A1380104B68
S11345E09847104B9847104B984770BDF60D002024
S11345F040100020900D0020B14100008E0D0020DD
S11346004D0E00207E0E0020460E0020440E002099
S1134610AA0E00207C0E0020320000202E00002074
S1134620A9420000114400002158000070B5424A1C
S11346300B21E020414CA0470F221121E020A0478C
S11346403F4A1721E020A0473E4A1221E020A0471C
S1134650F022FF321321E020A0473B4A0621E0204C
S1134660A047C02292000721E020A047374A042136
S1134670E020A047E0256D002A000821E020A047A3
S11346802A000921E020A047802212020321E02011
S1134690A0472F4D2A000121E0202E4EB0472B8841
S11346A0D22292001A432C4B1A800121E020A04709
S11346B000220B21E020A0476420284B98472A00C1
S11346C00321E020B047002805D1214B00229B5E46
S11346D00130002B2EDA1E4A1121E0201D4B984791
S11346E0002804D11A4B1B8801301B0722D0184A1A
S11346F00121E020174B9847002806D1144B1A8853
S11347000130D2239B001A4214D0D2229200124BC1
S11347101A800F4A0621E0200E4B9847030001201F
S1134720002B07D10A4B18880D4B9C466044431E4E
S11347309841C0B270BDC046B5E30000617000008E
S113474042240000430C00002D2E00003FFE000018
S11347509C0E00203D7100001A1000209D73000083
S1134760D3D1FFFF10B50D4A0B21E0200C4CA0471C
S1134770F82252010F21E020A0470A4A0521E02037
S1134780A047094A0C21E020A047084A1A21E0204A
S1134790A04700220B21E020A04710BDB5E3000094
S11347A061700000FF0F00000307000032100000DA
S11347B070B5124A0B21E020114CA047114A0A217E
S11347C0E020A04700221521E020A0470122142167
S11347D0E020A047E0256D002A000821E020A04742
S11347E02A000921E020A047074A1821E020A04719
S11347F000220B21E020A04770BDC046B5E30000B5
S1134800617000000740000011070000F8B5C824DB
S1134810124D134E134F2A003021E020B0472B884D
S1134820DB0713D501223021E0200F4CA0470F4AAB
S11348300A21E020A0470A200A4B9847074C22008F
S11348404A21E020064B9847208806E00120B8471B
S1134850013CE4B2002CDED10020F8BD9C0E002007
S11348603D710000C9730000617000000140000048
S113487070B5484B5B78DB0700D48AE0464B984719
S1134880444B5A7801218A435A701A788A431A7021
S11348908022D2008223DB055A61404B98470320D3
S11348A03F4B98473F4A13780133DBB213703E4BBA
S11348B05B785B0633D53D4A0A21E0203C4DA8478E
S11348C03C4B98473C4C22003021E0203B4B98471E
S11348D007223021E020A8476420394B98472388D9
S11348E005221340052B06D151320121E020354B1E
S11348F09847354B9847C820314B98470120284B9F
S11349009847324B98472C4B1B88DB0725D55622FA
S11349100121E0202B4B98472D4B98471DE02D4A51
S11349200A21E020224DA847234C22003021E02018
S1134930224B984707223021E020A8476420204BCF
S11349409847238805221340052B06D151320121B3
S1134950E0201C4B9847204B9847204B9847204B0E
S11349609847114B5B785B0605D51E4A1821E02059
S11349700F4B984704E01C4A1821E0200C4B984741
S11349801A4B98470320064B9847194B9847194BE5
S1134990984770BDAC0E0020055D0000ED6F00006F
S11349A0C9730000A80E0020181000200741000061
S11349B061700000B14700009C0E00203D710000B2
S11349C09D73000035720000E54100000D480000B1
S11349D0F144000007400000314500006547000035
S11349E0FD6200000107000011070000716E000065
S11349F0D16C0000FD63000010B5014B984710BD59
S1134A007148000070B57C4A537804218B4353707D
S1134A107A4A2C31E0207A4B9847002823D1764CEF
S1134A20764B1988DC239B0019402388754A134070
S1134A300B43238000225221E030734DA84700220B
S1134A405321E020A84763789B0700D1CCE06F4A4C
S1134A50517808230B4353700AE06C4A53780821B9
S1134A608B43537004E0644A517804230B4353701E
S1134A70614B1B8870221A4200D180E0644B1B7882
S1134A80DBB2282B25D9634B1B78DBB2052B1DD851
S1134A90604A13780133DBB2137000225C4B1A7046
S1134AA0A02212020321E020574CA047DC229200EE
S1134AB03021E020A04780252D022A000321E02098
S1134AC0A0472A000321E020A04702E02922504BFE
S1134AD01A70514B1B78DBB2502B25D94F4B1B78E6
S1134AE0DBB2052B1DD84D4A13780133DBB21370AA
S1134AF00022494B1A70A02212020321E020424CEA
S1134B00A047DC2292003021E020A04780252D021E
S1134B102A000321E020A0472A000321E020A04727
S1134B2002E029223C4B1A703D4B1B78DBB2282B48
S1134B3025D93C4B1B78DBB2052B1DD8394A137899
S1134B400133DBB213700022354B1A70A02212021B
S1134B500321E0202C4CA047DC2292003021E020ED
S1134B60A04780252D022A000321E020A0472A0027
S1134B700321E020A04702E02922294B1A701F4A92
S1134B800321E0201E4B9847002815D11B4B1B889E
S1134B909B0405D4184A53787F210B4053700BE0D3
S1134BA0154A5378802149420B43537080221202E4
S1134BB08331E020144B9847104A5521E020104BD4
S1134BC0984700280AD10C490C4B1B881B079B0FE4
S1134BD00A880330824313430B800BE0064A517862
S1134BE004230B43537005E0084B5B781B0700D587
S1134BF033E73DE770BDC046181000209C0E00202E
S1134C003D7100008FFCFFFF61700000AC0E0020BE
S1134C103F100020360000203E1000203500002008
S1134C201610002034000020F0B5474680B48AB046
S1134C3009AE002474700125B570F47006239846FB
S1134C40337031001820204FB84743463370310089
S1134C501920B84708236A46137054709470D570AD
S1134C60157155719571D4711472547201235B429C
S1134C705381147354739473D4731474022353744C
S1134C809374D5741575114B0693157754779577EE
S1134C90D4772023D4540133D4540D4C0D4920002F
S1134CA00D4B984720000D4B9847802212020C4B65
S1134CB01A602268536DC02149050B4353650AB03D
S1134CC004BC9046F0BDC04689920000FFFFFF1F60
S1134CD08C000020001C004269790000697C0000FF
S1134CE000E100E010B582B00A4B0193019A0A4B2F
S1134CF013408022520213430193084C012201A95C
S1134D002000074B98472268516D01230B435365DC
S1134D1002B010BDFF070088FFFF00F88C000020E0
S1134D20817C000010B584B00023009388231B0409
S1134D300193009B8004124C204018430090019C76
S1134D400F20104000040F4B234003430193002A1B
S1134D5007D002AB8A1808781870013101339142E8
S1134D60F9D1094C002269462000084B9847236872
S1134D709A69920702D40121D022995004B010BD3F
S1134D800000FC1FFFFFF0FF8C000020097D0000E5
S1134D900023024A1360024A13607047480000204F
S1134DA090000020054B1A68511C1960044988546E
S1134DB01A68FF210A401A607047C046900000201C
S1134DC09800002030B583B0244B1B681A6D019203
S1134DD0019AD2072FD501221A65214C22681F4D52
S1134DE020492800204B9847236829683F22134014
S1134DF069328B502368013323602368202B02D14E
S1134E000022174B1A6000230093164B5B681B03A8
S1134E101B0F009A93420ED9124C144D009BE318B9
S1134E20187AA847009B0133009363681B031B0F88
S1134E30009A9342F2D8019B1B0102D4019BDB0030
S1134E4009D5064B1B68C02252051A65802212053B
S1134E508223DB05DA6103B030BDC0468C0000203C
S1134E609801002038000020BD7C0000A54D000002
S1134E70F0B557464E464546E0B48246002904D173
S1134E801EE0013C002C09D11AE0104C0023104F05
S1134E90104E3A0010488046FF2084463868356832
S1134EA0A8420BD01568681C10604046455D50460A
S1134EB0C554156860460540156001338B42E0D146
S1134EC01CBC90469946A246F0BDC0460F27000080
S1134ED048000020900000209800002010B50139FF
S1134EE0002909DD00220023C45C1219D2B2013367
S1134EF0DBB28B42F8DB00E000225042C0B210BDAE
S1134F00F0B557464E464546E0B407000D004E1E28
S1134F10F6100136002E1DDD00210024104B9A46A8
S1134F209946104B9846082D07D9C90079180822CC
S1134F300120C847083DEDB204E0C90079182A00F1
S1134F400120D047FA204000C0470134E4B2211EBA
S1134F50B142E8DB1CBC90469946A246F0BDC0466F
S1134F60254D00009D73000010B584B001AC55239D
S1134F7023700B4B1B7863700A4A1278A2700122CB
S1134F80E27057322271637104216B46D81D064BBF
S1134F909847A07107212000044B984704B010BD26
S1134FA0450E0020A00E0020DD4E0000014F000041
S1134FB010B537210148024B984710BD4C00002022
S1134FC0014F0000F0B5474680B45B4C5523237075
S1134FD05A4B1B7863705A4B1B78A3703126E670CA
S1134FE0D5232371574B1B786371574B1A88A271D1
S1134FF01A88120AE2715A6822725A68121262728C
S11350009A8CA2729B8C1B0AE372504B00229A5E0C
S1135010E123DB005A43D3175B045B0C9B18DB13BF
S113502023731B1263734A4B00201856494B1B7899
S11350305BB2C018484B1B785BB2C018474F0321C2
S1135040B847A073464B1B88E373464B1B882374F5
S113505000256574A574444B1888444B584344494F
S1135060B847E074000A2075424B18883223FF3396
S1135070984658433E49B8476075000AA0753E4BB0
S11350801888434658433A49B847E075000A2076E1
S11350903A4B1888434658433549B8476076000A66
S11350A0A076374B1B68E3761A0A22771A0C6277CC
S11350B01B0EA377334B1B68E377190A2022A154F4
S11350C0190C0132A1541B0E0132A3542E4B1B6840
S11350D00132A354190A0132A154190C0132A1540A
S11350E01B0E0132A3542723E5540133E554013345
S11350F0E5540133E5540133E5540133E5540133F8
S1135100E5540133E5540133E5540133E554A55521
S11351100233E5540133E5544F320133E254683A23
S11351200133E254E01C3421184B98473623E054F1
S113513004BC9046F0BDC0464C000020450E002043
S1135140A00E00204C0E0020500E0020AA0E0020BD
S11351507E0E0020460E0020440E00208D95000097
S11351608C0D0020101000207C0E0020D8170000A9
S113517010270000480E00204A0E0020840E002054
S1135180A40E0020800E0020980E0020DD4E0000AA
S113519030B5C3B0544B1A68544B1B689A4200D1C3
S11351A0A0E05522524B1A7001216B46D81D514B79
S11351B098476B4607331B78552B00D092E00121AA
S11351C06B46D81D4B4B98476B4607331B78002B17
S11351D032D101216B46D81D464B98476B460733A5
S11351E01B78002B7ED101216B46D81D414B98477B
S11351F06B4607331B78002B74D101216B46D81DF5
S11352003C4B98476B4607331B78012B6AD101212D
S11352106B46D81D374B98476B4607331B78FF2BDB
S113522060D13548354B9847BFF34F8F344A354BDF
S1135230DA60BFF34F8FFEE7334A12789A4201D007
S1135240FF2B4FD1012131482A4CA047012102A84C
S1135250A04702AB1978042944D8023109206844D4
S1135260244B984702AD2C78E11CC9B22800284B86
S113527098472C19A378834234D102AB5B78582B1E
S113528023D0DAB2582A02D8482B17D02AE0DAB24F
S1135290C52A0CD0CE2A25D11E4B1B78002B21D138
S11352A002AB9A781C4B1A701C4B98471AE0194BA6
S11352B01B78002B16D11A4B984713E0154B1B781B
S11352C0002B0FD1174B98470CE002AB9A780E4B8A
S11352D01B789A4206D10F4B1B78012B02D1012275
S11352E0114B1A7043B030BD4800002090000020DC
S11352F0100F0020714E000000FD03001982000011
S11353000400FA0500ED00E0450E0020A00E002088
S1135310DD4E0000000000204C0E0020C54F0000B0
S1135320B14F0000694F00009C01002010B584B00B
S113533001AC552323700A4B1B7863700023A370C0
S1135340E3704833237103216B46D81D054B9847FE
S1135350607106212000044B984704B010BDC0467C
S1135360450E0020DD4E0000014F0000F8B54F4609
S11353704646C0B48223DB051B6A5B060DD40122BA
S1135380284B1A700022284B1A708223DB05203226
S11353905A61802212015A6140E08221C90510221B
S11353A00B6A1A42FCD10A20204B98478221C90576
S11353B010220B6A1A42FCD101221A4B1A701A4F9E
S11353C01B4B99461B4B984625E0C8470023424691
S11353D01360194A1370194E164C144DB0472368C4
S11353E0013323600120A8472368312B07D9002209
S11353F00D4B1A7020328223DB055A610BE00E4BF1
S11354001B78002BEAD0084B1B78012B03D1054AEB
S11354101378013313703B78012BD6D00CBC904623
S11354209946F8BD450E002000000020C973000015
S11354302D530000940000209C0100209151000095
S113544000B583B000236A461370074A5268D20637
S1135450120F69468A70CB700B714B714B706846A2
S1135460024B984703B000BD00400041917F00000B
S113547070B50500024C2800A0470528FBD070BD7C
S113548019820000F8B506000D001400034F220035
S113549029003000B8470528F9D0F8BDD9800000AC
S11354A0F8B506000D001400034F22002900300057
S11354B0B8470528F9D0F8BDA1810000344A5178D5
S11354C0344B9974997CC9B21975997CC9B25975D0
S11354D011799984998C090289B29984988C5179AB
S11354E0014399849179D984D98C090289B2D984E8
S11354F0D88CD1790143D984117A1985198D09027F
S113550089B21985188D517A01431985D17A224BB4
S11355101980117B214B19801988090289B21980DD
S11355201888517B01431980917B5980598809025D
S113553089B259805888D17B014359801021515632
S11355401971112151565971917CD980D98849B268
S11355500902D980D98809B2D07C0143D980117D50
S11355601981198949B209021981198909B2507D31
S113557001431981917D59815989090289B259815F
S11355805889D17D01435981127E52B21A737047F2
S113559020100020500E00200C0F0020FC0E0020D4
S11355A0F8B52E4BB3221A702D490A88120A9A7044
S11355B00A88DA702B4A918C090A1971918C5971F5
S11355C0D18C090A9971D18CD971118D090A19727A
S11355D0128D5A72244A1288110A9972DA72234A75
S11355E01188090A1973118859735188090A997322
S11355F05188D9731179197451795974D188090A68
S11356009974D188D9741189090A19751189597540
S11356105189090A99755189D975127B52B21212AE
S11356201A761A0019331900002310781B18DBB2FC
S113563001328A42F9D1094C63760D4D28000D4F91
S1135640B8470D4E3000B8471A22210028000B4DF0
S1135650A8471A2221003000A847F8BD20100020D6
S1135660860E0020500E00200C0F0020FC0E00209F
S113567000FE03007154000000FF03008554000085
S113568010B5104C1A2221000F48104B984723786C
S1135690B32B13D10B4A10001930002311785B1877
S11356A0DBB201328242F9D1064A527E9A4202D1D9
S11356B0074B984704E0074B984701E0054B984790
S11356C010BDC0462010002000FF0300A1540000BC
S11356D0BD540000A155000010B5104C1A22210041
S11356E00F48104B98472378B32B13D10B4A100063
S11356F01930002311785B18DBB201328242F9D1F0
S1135700064A527E9A4202D1074B984704E0074B5F
S1135710984701E0054B984710BDC0462010002073
S113572000FE0300A1540000BD5400008156000097
S1135730F0B5474680B482B001AC012767700026FB
S1135740A670277021002920134DA8478223DB056A
S113575098468033802292009A61277021000520A8
S1135760A847202342469361277021000B20A847B5
S113577080231B0142465361267021000420A84760
S1135780267021000620A847267021002420A8475F
S113579002B004BC9046F0BD9D82000070B5012AA1
S11357A01BD11A4B0A0A1A54181841701923013BC9
S11357B0DBB2002BFBD1164C2000164EB047164D21
S11357C02800B047114E1A2231002000134CA04784
S11357D01A2231002800A04717E00C4B1954192352
S11357E0013BDBB2002BFBD1094C2000094EB04732
S11357F0094D2800B047054E1A2231002000074CFD
S1135800A0471A2231002800A04770BD20100020B4
S113581000FE03007154000000FF030085540000E3
S113582010B57F4B1B889BB27E4A11888B4210D9DE
S11358307D4B1B780133DBB20A2B02D87A4A1370F2
S11358400AE00022784B1A7001320C20774B9847FB
S113585002E00022744B1A70714B5B889BB2744A4D
S113586011888B4210D2734B1B780133DBB20A2BA5
S113587002D8704A13700AE000226E4B1A7001328B
S11358800E206A4B984702E000226A4B1A706A4B5A
S11358901988634B1B795BB299420FDA674B1B780B
S11358A00133DBB20A2B02D8644A137009E00022E8
S11358B0624B1A7010205D4B984702E000225F4B48
S11358C01A705F4B1988564B5B795BB299420FDDB6
S11358D05C4B1B780133DBB20A2B02D8594A137094
S11358E009E00022574B1A701120504B984702E0F0
S11358F00022544B1A704A4BDB881BB2524A0021D7
S1135900515E8B4213DD002911DA504B1B780133B1
S1135910DBB20A2B02D84D4A13700BE000224B4B2A
S11359201A7089B201321220404B984702E00022DB
S1135930464B1A703A4B1B891BB2434A0021515EF5
S11359408B4213DA002911DD414B1B780133DBB2A2
S11359500A2B02D83E4A13700BE000223C4B1A700B
S113596089B201321420314B984702E00022384BAF
S11359701A70384B1B882A4A52899BB2934213D916
S1135980354B1B780133DBB20A2B02D8324A137031
S11359900DE00022304B1A702E4B198889B2013267
S11359A01620224B984702E000222B4B1A702B4BF7
S11359B019881B4B1B7B5BB2994210DD284B1B786B
S11359C00133DBB20A2B02D8254A13700AE0002205
S11359D0234B1A7001321820144B984702E000221E
S11359E01F4B1A701F4B19881F4B1B888B4212D0F8
S11359F01E4B1B780133DBB20A2B02D81B4A1370EF
S1135A000CE00022194B1A70174B198001320A203E
S1135A10064B984702E00022144B1A7010BDC04692
S1135A20FC0E00204A0E0020AE0100209D5700000D
S1135A30840E00209F0100208C0D0020AC0100206A
S1135A40101000209E010020AA0E00209D010020BD
S1135A50AD010020500E0020A00100201C100020E9
S1135A60A40100200C0F0020A2010020A5010020A9
S1135A70F0B557464E464546E0B482B08246022908
S1135A8002D0032903D005E0574B984604E0574B56
S1135A90984601E0564B984643465F1CFF37082260
S1135AA069463800534B98476B461B78FF2B30D11F
S1135AB00024504EE3B29946E50045440822694665
S1135AC02800B0476B461B78FF2B1ED100236A4683
S1135AD0137053705246120E69468A705246120C65
S1135AE0CA705246120A0A716A465146517193713C
S1135AF0D3710822694628003F4B98474B46102B28
S1135B006BD138003D4B984767E00134402CD1D12C
S1135B1063E000260024374B9946F500ED1908226E
S1135B2069462800C8476B461B78FF2B1DD100230C
S1135B306A46137053705246120E69468A70524672
S1135B40120CCA705246120A0A716A4651465171C1
S1135B509371D371082269462800274B9847102C6B
S1135B6009D14046254B984737E00134E4B2013669
S1135B70202CD2D101E0202C2FD100251D4EEBB2D8
S1135B809946EC004444082269462000B0476B461D
S1135B901B78FF2B1ED100236A46137053705246A4
S1135BA0120E69468A705246120CCA705246120A84
S1135BB00A716A46514651719371D371082269463C
S1135BC020000D4B98474B46102B06D138000B4B49
S1135BD0984702E00135202DD1D102B01CBC90467B
S1135BE09946A246F0BDC04600F9030000FB03003D
S1135BF000F70300A1540000855400007154000014
S1135C00F0B54F4680B484B004000822002102A8F5
S1135C10374B9847022C02D0032C02D003E0354EB8
S1135C2002E0354E00E0354E082202A93000344B24
S1135C30984702AB1B780024FF2B2FD1751CFF352E
S1135C40082202A928002E4B984702AB1B78FF2B91
S1135C5039D000272A4B99460197F80040190822A9
S1135C6002A9C84702AB1B78FF2B0AD1019801385F
S1135C70C0004019082202A9214B9847202C22D1A8
S1135C8004E00134E4B20137202CE5D13000F930CE
S1135C90FF30082202A91A4B984714E0184FE0007D
S1135CA08019082202A9B84702AB1B78FF2B07D141
S1135CB0601EC0008019082202A9114B984702E017
S1135CC00134402CEBD102AB98780006DB781B043E
S1135CD0184302AB5B79184302AB1B791B021843D0
S1135CE0431C00D1002004B004BC9146F0BDC04662
S1135CF0C397000000F9030000FB030000F7030052
S1135D00A154000010B50E4B1B680133032B02DCB9
S1135D100B4A136012E00022094B1A60094B1A68FF
S1135D20501C1860084B1B68C31A3B2B06D903216F
S1135D30064B9847034B1A68034B1A6010BDC046C4
S1135D40A8010020980E0020400E0020715A000087
S1135D50F0B557464E464546E0B48224E405802318
S1135D60636180263605A66180256D05A561FA204C
S1135D704000344B984766616561334E002400252A
S1135D803480324F3C80324B1C80324B1C80324B6F
S1135D901C80324A324B1A80324B1C80324B1C809E
S1135DA0324B1C80324B1C80324B1C80324B1D709A
S1135DB0324B1D70324B1D70324B1D70FF22324B23
S1135DC01A700120314B98469847314B9A46186017
S1135DD00220C0472F4B994618600320C0472E4B22
S1135DE0186053461A682D4B1A604B461A682C4BA0
S1135DF01A602C4B18607A78402313437B702A4B2B
S1135E001D76327801210A4332703A7801208243A8
S1135E10013082433A707278114371701C629C8421
S1135E20DD759D76214B5D7164221A711C81DC80C5
S1135E301D735C815C80653A1A801CBC904699464F
S1135E40A246F0BDC9730000AC0E00203C10002037
S1135E5018100020141000200C0F002018F6FFFF6B
S1135E60860E0020AA0E00208C0E0020940E002026
S1135E701A100020480E00203F1000203E10002081
S1135E80161000204C0E0020450E0020015C00007E
S1135E90A40E0020800E0020980E0020900E0020FA
S1135EA0880E0020400E0020500E0020FC0E002022
S1135EB010B5264B1B785B0714D4254B9847002854
S1135EC00AD1224A117804230B431370214A137810
S1135ED07F210B40137005E01E4A1378802149424C
S1135EE00B4313701C4B98471A4B1B888422920057
S1135EF0134205D019490A78022082430A7004E04B
S1135F0016490878022202430A70B0225200134252
S1135F1010D0124A137801218B4313700D4A517823
S1135F2020230B435370DB070ED5517810230B430A
S1135F30537009E0074A537820218B435370074A72
S1135F40117801230B43137010BDC046AC0E002022
S1135F502D46000018100020054A00003C100020C7
S1135F60784B5B78DB075AD4764B1B789B077AD542
S1135F70754B1B88322B13D9744B1B780133DBB25E
S1135F80082B02D8714A13706DE000226F4B1A700F
S1135F906C494A7801231343042213434B7062E093
S1135FA000226A4B1A706A4B00229B5E002B30DD84
S1135FB0142B25DD674A934217DD674B1B780133A9
S1135FC0DBB2042B02D8644A137011E00023624A46
S1135FD01370624A13805B4B197810220A431A70BB
S1135FE0597801220A435A7002E000225A4B1A706F
S1135FF054490A7804231343F72213400B7032E008
S11360000022554B1A704F4A137804218B431370A6
S113601029E04C4A137804218B43137023E0494B45
S11360201B78DB0610D54D4B1B88142B1BD9002283
S11360304A4B1A80434B1A7810218A431A705A78B3
S11360400F398A435A700EE03F4B1B88272B0AD81E
S1136050434B1B88052B06D93A4A537801218B43BD
S113606003318B435370374B5B789B0748D4354BD4
S11360701B78DB0764D5344B1B88412B13D9394B70
S11360801B780133DBB2082B02D8364A137057E071
S11360900022344B1A702B494A78022313430822F6
S11360A013434B704CE000222E4B1A70284B0022F5
S11360B09B5E002B1EDA23490A7808231343FB2234
S11360C013400B70284B1B780133DBB2042B02D82E
S11360D0254A137034E00023234A1370234A1380A3
S11360E0184B197820220A431A70597802220A435D
S11360F05A7025E0134A137808218B4313701FE06C
S1136100104B1B789B0610D5184B1B88142B17D9E2
S11361100022164B1A800B4B5A7802218A435A707C
S11361201A781E318A431A700AE0074B1B88362BF3
S113613006D8044A537802218B4306318B435370AB
S11361407047C0463C10002010100020C2010020FF
S1136150AA0E0020E9130000B4010020B8010020B9
S11361608C0D0020B5010020B6010020C6010020DE
S113617010B53C4B1A883C4B1B88D01A3B498842CB
S113618002DD3B49098803E0394908883949088018
S113619039498B420DD83649098838480088091A8C
S11361A089B2782909D9364804780221214301703B
S11361B003E02F4908883149088032498A420DD9C1
S11361C02B49098830480088091A89B2782909D9E5
S11361D02B48047802212143017003E024490888F4
S11361E02949088029498B4202D82149098803E0BA
S11361F01F4908882649088026498B420DD81C4B24
S11362001B88254909885B1A9BB2082B0ED92349A0
S11362100878402303430B7008E0154B19881E4B84
S113622019801E490B78402083430B701C4B9A4203
S11362300ED90F4B1B88184A12889B1A9BB2082B45
S11362400FD9164A1378802149420B43137008E092
S1136250124A13787F210B401370054B1A880E4B9A
S11362601A8010BD840E00204A0E0020660600002D
S1136270B2010020BA01002032130000C401002042
S11362800C0F00200A370000B00100206F1D000031
S1136290C001002065260000BE010020AC0E0020D5
S11362A024360000124B1B886E2B11D9114B1B781E
S11362B00133DBB2082B02D80E4A137017E009220F
S11362C00C4B1A700C4A517820230B4353700EE088
S11362D0542B0CD8074B1B78002B03D0013B054AE9
S11362E0137004E0044A537820218B4353707047A1
S11362F01C100020BD0100203C10002010B5044BF0
S11363009847044B9847044B9847044B984710BD53
S1136310B15E0000615F000071610000A5620000D1
S113632070B52B4B00229A5E2A4B53432A4C226AA7
S1136330DB139B182362206AE1218901274B9847CC
S11363400500226A264B43439B182362002810DB76
S1136350244B1A6880181860234B1B68C31A632BDC
S113636017D90221214B98471E4B1A681E4B1A60FD
S11363700FE01F4B1A68101A18601E4B1B68C31AD3
S1136380632B06D90121194B9847194B1A68194BED
S11363901A602B001D3303DB0F4A5368ED18556058
S11363A00D4B5B68002B03DD00220B4BDA600DE024
S11363B0094B5968DA688A18DA6000225A60DA6888
S11363C00D4B9A4202DA1A00034BDA6070BDC046E4
S11363D0AA0E002020BF0200500E00208D95000060
S11363E0C0C7FFFF800E0020880E0020715A0000F5
S11363F0A40E0020900E002050FBFFFF10B5294A88
S1136400138801339BB21380274A13780133137026
S1136410264B9847264B1B789A0605D525490A78BA
S11364200132D2B20A7006E0224A12782D2A02D032
S11364300021204A11705A0605D51F490A780132F5
S1136440D2B20A7006E01C4A12782D2A02D000212A
S1136450194A1170DB0605D5184A13780133DBB2EB
S1136460137006E0154B1B782D2B02D00022134B22
S11364701A70134B1B789A0604D512490A88013204
S11364800A8002E000210F4A1180DB0604D50E4A7F
S113649013880133138002E000220B4B1A800B4B4C
S11364A0984710BDB2010020BC0100202163000008
S11364B0181000203F1000203E100020161000206D
S11364C03C100020C6010020B80100208D8D000082
S11364D0F0B5041E104B9C421AD0322065210022D4
S11364E00E4EFF250CE05318D80FC3185B10D8B21A
S11364F02B405B009B5BA3420DD08F1A012F09D068
S11365009C4201D3020000E001009142EBD802E07A
S1136510322000E01000F0BD660E000080990000FB
S113652070B5BC4B1B88B5339BB2B5225200934265
S11365305BD8B94A537810218B4353700022B74B70
S11365401A70B74B1B88002B2CD1B64B1888B64B4E
S113655018800132B24B1A80B44B5843800BB44BB1
S11365609847B44B9B7CDBB2984205D9B14B9B7CDA
S1136570C01AB14B188004E0AE4B9B7C181AAE4B8A
S11365801880AD4B1988002908D0494389B2962058
S11365900001AA4B9847A84B188039E07822A64BF3
S11365A01A8035E001339BB29D4A1380A24A1288B7
S11365B09A422DD29B4B1A889B4B1B889A4202D934
S11365C0D31A9BB201E09B1A9BB2F422FF3293428E
S11365D007D8914A517802230B4353700122984BF8
S11365E01A7000228E4B1A8012E08C4B1B780133F8
S11365F0DBB2032B02D8894A137009E00023874ACF
S11366001370874A1380844A517810230B435370C4
S11366108C4B1B880A2B00D89DE07E4B1C888A4B30
S1136620E3189BB29F22D20093424FD8874B1B782A
S1136630002B07D17B4B1A88854B1A800122834B90
S11366401A7046E00133DBB2804A1370282B40D91C
S11366507F4B1B88734A1288934233D99B1A9BB28F
S1136660F421FF318B422DD8704D6A43950BA8B2AB
S11366706F4B9847774B9D4212D86E4B9B7C053BE2
S113668098421FD26B4B9B7CDBB2052B1AD9624A12
S1136690517802230B4353700522694B1A7011E0A1
S11366A0644B9B7C0F3B98420CD2624B9B7CDBB2CD
S11366B00F2B07D9584A517802230B4353700F22EA
S11366C05F4B1A700022614B1A7002E000225F4B8C
S11366D01A70B73CA4B29F23DB009C4238D85E4BAF
S11366E01B78002B07D14F4B1A88594B1A80012273
S11366F0594B1A702FE00133DBB2574A1370282B21
S113670029D9534B1B88474A128893421CD2D31A67
S11367109BB2F421FF318B4216D844485043800B7E
S1136720434B9847434B9B7C0F3B98420CD2414BC5
S11367309B7CDBB20F2B07D9374A517802230B43DA
S113674053700F223E4B1A700022434B1A7002E022
S11367500022414B1A70304B5B789B0758D5314B64
S11367601888324B5843800B314B984702002A4912
S11367704C78102323434B702E4B9B7C3049097873
S1136780C31A8B421ADD2B4B9B7CDBB2984215D982
S1136790284B9B7CC31A9B0805D01F4D6C78102690
S11367A0B4436C7000E00123224DEC7DDBB2E41AAB
S11367B064B2EC75AC7CE318DBB2AB741D4B9B7C10
S11367C01B1A99421FDA1B4B9B7CDBB29A421AD2EA
S11367D0184B9B7C181A800805D00F4A5378102157
S11367E08B43537005E00C4A517810230B435370CC
S11367F00120104AD37DC0B21B185BB2D375937CC1
S1136800181AC0B29074044A537802218B4353700F
S113681070BDC046AA0E0020AC0E0020DA01002094
S1136820CC010020480E0020D00100208813000075
S1136830D1640000500E0020300D00208D95000022
S1136840CA0100208C0D0020AF050000CE010020FD
S1136850D80100207F0C0000C901002010B5574B5F
S113686000229B5E1A00B6323ADA554B1B88272B5E
S113687027D8544B1B880A2B23D90022524B1A7059
S1136880524B5B78DB0600D497E0514B1B78002B0E
S11368900ED101324E4B1A7000234E4A13704E4AE9
S11368A013704E4B5A689A609A7CD2B2DA7484E0C0
S11368B0484B1B78012B00D07FE00022444B1A7018
S11368C07BE0414B1B780133DBB2032B02D83E4AF9
S11368D0137072E000233C4A13703D4A13706CE05D
S11368E0B52B65DC3A4B1B78012B66D10122394B61
S11368F01A70364B5B78DB065FD538490A888B689B
S11369004968D2085B1A9A4243D20022304B1A706B
S1136910334B5B78DB0706D4304B5968314A11603E
S11369209A7C314B1A702D4CA268E0682D4B1B6881
S1136930D31A1B1A64205843E37C2B4A1178591A42
S11369402A4B984723889BB2984210D92388C31AAC
S1136950274A934208D880B22080218889B2012234
S11369600220244B984714E01C4B1B8811E01B4B5E
S11369701B881B1A1E4A934209D880B2174B1880F1
S1136980198889B2012202201A4B984701E0134B5F
S11369901B88114B1B780133DBB2142B02D80E4A2F
S11369A013700AE000230C4A1370094A137004E0C0
S11369B00023074A1370074A137010BDAA0E002063
S11369C0101000208C0D0020D7010020AC0E0020F8
S11369D0C8010020CB010020D2010020500E00206D
S11369E018100020DC010020D6010020799400005A
S11369F0AF0400009D57000010B5214A937C127D1E
S1136A00DBB293421AD91E4A937C127D9B1A002B47
S1136A1014DD1C4B1B780133DBB20A2B02D8194A54
S1136A2013700BE00022174B1A70154B9A7CD2B2EC
S1136A301A75997C00220120134B9847104A937CC5
S1136A40127DDBB293421AD20D4A137D927C9B1ABB
S1136A50002B14DD0B4B1B780133DBB20A2B02D85D
S1136A60084A13700BE00022064B1A70044B9A7C00
S1136A70D2B21A75997C00220120034B984710BDAD
S1136A80500E0020CF0100209D57000010B5864B0A
S1136A901B7E002B31D1844A937D927CDBB29342DE
S1136AA004D2814A937CDBB2937529E07E49887DC8
S1136AB08B7CCA7D52B2D31AC3185BB2CB758B7C64
S1136AC0DBB28B75CB7D5BB2062B19DDCB7D5BB264
S1136AD0642B01DD0022CA75734CA38C01339BB275
S1136AE0A3840023E375A18C89B2012204206F4B97
S1136AF09847A37CDBB2237602E000226A4B9A75A6
S1136B006B4B00229B5EB62B11DD674B1B7E002B6B
S1136B100DD0684A138801339BB213809622120168
S1136B20934204D90023604A1376624A13805E4A72
S1136B30537E927CDBB2934203D25B4A937CDBB2FA
S1136B40537659494A7E887C8B7E9B181B1ADBB28C
S1136B508B768B7EDBB2322B0BD9CB8C01339BB281
S1136B60CB8400238B76C98C89B2012206204F4B3B
S1136B709847514B1B88514A934221D84A4BDB7E9C
S1136B80DBB2C72B04D8484AD37E0133DBB2D376B9
S1136B90454BDB7EDBB2322B21D9434BDB7EDBB2B0
S1136BA0632B1CD8404AC823D376D38C01339BB2C1
S1136BB0D384D18C89B2012206203C4B98470EE045
S1136BC03F4A934203D90022374BDA7607E0364B2B
S1136BD0DB7EDBB2C72B02D80022334BDA76344B90
S1136BE000229B5EB62B22DD2F4A137F927CDBB200
S1136BF0934203D92C4A937CDBB213772A498A7CCB
S1136C00087F4B7F9B181B1ADBB24B774B7FDBB2A1
S1136C10322B11D90B8D01339BB20B8500234B779B
S1136C20098D89B201220820204B984704E01E4BAD
S1136C3064221A7700225A77224B1B88224A9342F5
S1136C4021D9194B9B7FDBB2C72B04D8164A937FFB
S1136C500133DBB29377144B9B7FDBB2322B21D908
S1136C60114B9B7FDBB2632B1CD80F4AC82393774D
S1136C70138D01339BB21385118D89B20122082033
S1136C800A4B98470EE0114A934203D80022064B60
S1136C909A7707E0044B9B7FDBB2C72B02D8002214
S1136CA0014B9A7710BDC046500E00209D5700003E
S1136CB0AA0E0020D40100204A0E00206526000000
S1136CC0C92C0000840E0020793400005B2F0000E2
S1136CD070B5474B1B88474A93422AD9464A1278D3
S1136CE0002A26D1454A5278D20722D4444A12783F
S1136CF0D20711D443485843800B434B9847434C25
S1136D00A074A17C00220120414B9847A37CDBB2F4
S1136D102375A37CDBB263753C4CA07C2388584369
S1136D2064213C4B984760600023E3600122324BAE
S1136D301A70394B9847394B98472D4B1A882D4B6D
S1136D409A423CD9314B5A681B889BB29A4203DD64
S1136D502E4A13889BB25360284B5B78DB070BD514
S1136D602A4B59682E4A116000225A609A7CD2B28A
S1136D705A759A7C2B4B1A70244D6868298889B2FD
S1136D80AC7CE4B264235843224B9847C0B26B7D79
S1136D90E41A0419E4B2AC746875AB7CDBB2C82B9A
S1136DA002D86B68002B02D10022184B9A74174B3F
S1136DB09B7CDBB2642B02D96422144B9A74134B70
S1136DC01B7E002B0ED0114A137E927CDBB29342C1
S1136DD008D20E4A937C127E9B1A072B02DD0022F6
S1136DE00A4B1A76104B9847104B984770BDC04613
S1136DF0480E002099190000DB0100201810002023
S1136E001410002088130000D1640000500E0020EC
S1136E109D57000079940000216500005D68000022
S1136E20DC010020D6010020F96900008D6A000011
S1136E30024A517801230B4353707047AC0E002073
S1136E4010B50A0001000248024B984710BDC04625
S1136E50340D0020718A000010B50A0000230100DF
S1136E600148024CA04710BD340D00208588000065
S1136E7010B5012202490348034B984710BDC04690
S1136E80400D0020340D00207D890000F0B54746F8
S1136E9080B492B0454C1123237000236370A37017
S1136EA0012269464A708B700A701120404B984742
S1136EB02378DA090021002A05D15909C90182225F
S1136EC0D205944661441F2213401E3A1000984094
S1136ED0886104AC22700023059323746374A27444
S1136EE0E27423752332A354183A00210AA8314BC3
S1136EF09847314BA36180235B05A36080235B0229
S1136F00E3602E4BA36201235B42E3622C4B2363B9
S1136F102C4B63632C4D22002C4928002C4B9847A2
S1136F202A68D369002BFCD1116802330B43136028
S1136F30284B984703AC00252570A5706570210087
S1136F4030201B4B984698470127277021000720C3
S1136F50C0478226F6058023B361277021000A20EA
S1136F60C0478023DB00B361277021003120C04774
S1136F70803680239B0273616846174B98470D2324
S1136F80009301956B461D72DF7269460D20134B09
S1136F90984700220D211248124B984700210D20DA
S1136FA0114B984712B004BC9046F0BD400D002030
S1136FB09D820000C3970000A0860100020010001B
S1136FC00200120002001300340D002000080042E9
S1136FD05D850000716E0000F57E0000097F0000F1
S1136FE0316E00007D7D0000A97D000010B50022F7
S1136FF002490348034B984710BDC046400D00208A
S1137000340D00207D89000082B06B460022DA71C5
S113701007331B78DBB2072B09D86B46DA1D1378CC
S11370200133DBB213701378DBB2072BF7D902B04C
S11370307047C04610B500280DD00B000138C0B20F
S1137040013009180020054C1A785040205C0133A7
S11370508B42F9D100E0002010BDC0464C9A0000DC
S1137060F0B55F4656464D464446F0B483B091466B
S113707040001E2738404B009846130A9B460926B9
S1137080254B9A46254D3E3F07430197D0476B4613
S11370901B792B7043466B705B46AB704B46EB70B1
S11370A0290004201E4B98472871052128001D4BF8
S11370B098471D4B1C6A1B6AE403E40FDB030ED4E0
S11370C01A4B194A012080214902146A240C0440F5
S11370D0176A0F4203D1013B9BB2002BF5D1642008
S11370E0134B9847012C03D1124B984700200BE017
S11370F064200F4B98470F4B98470F4B9847013E1E
S1137100F6B2002EC2D1012003B03CBC9046994691
S1137110A246AB46F0BDC046ED6F0000E001002082
S113712035700000416E0000800000410F27000010
S11371309D730000716E000009700000F0B55746A1
S11371404E464546E0B482B0019240001E273840C6
S11371504B00984609262C4B9A462C4C3D3F07433E
S1137160B946D0474B462370434663702100022042
S1137170274B9847A07003212000264B9847264BA5
S11371801A6A1B6AD203D50FDB030FD4234B22499F
S11371900127802040020A6A120C3A4015000A6A4C
S11371A0024203D1013B9BB2002BF4D164201C4B5F
S11371B09847012D18D11B4C032120001A4B9847E6
S11371C01A4B984721000220114B98470300A278DC
S11371D002209A4211D1134A13781B025278D31811
S11371E0019A1380002008E0104B9847104B9847F1
S11371F0013EF6B2002EB4D1012002B01CBC904670
S11372009946A246F0BDC046ED6F0000E0010020A3
S113721035700000416E0000800000410F2700001F
S11372209D730000E8010020596E0000716E00009B
S113723009700000F8B55F4656464D464446F0B422
S1137240914640001E2630404B009B460925364B94
S11372509846364C3D3E0643B246C04753462370DB
S113726001235A46134363707F234A461340A37095
S1137270210003202E4B9847E070042120002D4B61
S113728098472D4B1A6A1B6AD203D60FDB030FD41F
S11372902A4B29490127802040020A6A120C3A40ED
S11372A016000A6A024203D1013B9BB2002BF4D1BF
S11372B06420234B9847012E29D1224CAD21200074
S11372C0214B9847214B9847214B9847E3783B2B18
S11372D009D100221F4B1A701F4A117801230B4356
S11372E0137000201AE01B4B1B780133DBB2082B10
S11372F003D0184A1370002010E00022154B1A70B6
S1137300154A137801218B431370002006E00F4BBC
S11373109847013DEDB2002D9FD101203CBC904621
S11373209946A246AB46F8BDED6F0000E00100208F
S113733035700000416E0000800000410F270000FE
S11373409D730000920D0020596E0000716E0000C4
S113735009700000E5010020AC0E002070B500208B
S1137360084B98470500084CFA218900A047074BB1
S1137370186007492800A047064B18600522064BF1
S11373801A6070BDB19000007994000008000020DC
S113739040420F000400002010E000E030B5084B2C
S11373A01C68084A00258021490206E0002C04D00C
S11373B05460956013680B42FCD00138F6D230BD9E
S11373C00400002010E000E030B5084B1C68084AB7
S11373D000258021490206E0002C04D05460956009
S11373E013680B42FCD00138F6D230BD08000020EF
S11373F010E000E010B582B06A46084B12CB12C20E
S1137400009B984205D00023019A824203D10133A4
S113741000E00023DBB2180002B010BD209C000085
S113742010B500230022037043708370C3700021E1
S113743003830362C36101240471C0246401C48012
S1137440017242728272C27202732A24025542731A
S11374508273C27303610275063C0255C3840385BB
S1137460417510BDF0B55F4656464D464446F0B4EE
S11374709DB005000E0017000800C64B9847040095
S113748000902E60C44AD1698000C44BC3580B439A
S1137490D36133780520DB0700D535E22A68138CE5
S11374A09BB2002BFBD133781C209B0700D52BE229
S11374B07B782B71002B04D1B94AD16904330B4377
S11374C0D3612B689A463B7802AA1370B54B1E5DB4
S11374D011003000B44B98473000B44B98473B79C7
S11374E0984604AEB24B9C461A000832310049CA91
S11374F049C149CA49C149CA49C149CA49C110A96E
S1137500634638330A0043CB43C243CB43C243CB25
S113751043C243CB43C2009B002B03D010A9012BD1
S113752003D001E004A900E00021A300A14A9B5874
S1137530994698450CD843469800405803A900231F
S11375404B70CB708B7001330B70C0B29A4B984761
S1137550FB88984604AE964B9C461A0008323100CC
S113756049CA49C149CA49C149CA49C149CA49C1A3
S113757010A9634638330A0043CB43C243CB43C20A
S113758043CB43C243CB43C2009A002A03D010AB7F
S1137590012A03D001E004AB00E00023C84500D970
S11375A0ACE142469000C05803A900234B70CB7055
S11375B08B7001330B70C0B27F4B98479EE15B46E2
S11375C0424693403A691A4230D004A8784B0833B3
S11375D0020043CB43C243CB43C243CB43C243CB5E
S11375E043C210A8724B3833020043CB43C243CB8F
S11375F043C243CB43C243CB43C2009A002A03D0C5
S113760010AB012A03D001E004AB00E00023019A8F
S11376104A450BD89100C85803A900234B70CB707E
S11376208B705B460B70C0B2634B9847464601367D
S1137630F3B2984601934B45C1D97B7B9A01BB7B3E
S1137640DB011343DBB2524613703B7DDB017A78D6
S11376501343DBB252469370FB78342B00D94BE1D1
S11376609B00564AD3589F460420102102221AE058
S11376707A7A387A102116E006201021012212E0CD
S11376800820102100220EE00020302100220AE010
S113769000202021002206E000200021002202E038
S11376A00220102101221201702313400343524689
S11376B013732A68138C9BB2002BFBD17B7D17209C
S11376C03F2B00D920E1FA7BD2011343DBB25246AF
S11376D053732A68138C9BB2002BFBD1BB785246A0
S11376E053702423FA5CD2003B7B9B001343FA7A49
S11376F01A43BB7A5B0013430B43524653812A68F7
S1137700138C9BB2002BFBD13B8B002B00D191E05F
S1137710102975D002D8002954D08BE020291AD022
S1137720302900D086E0FA7A002A0AD0FA69803239
S11377301720FF2A00D9E7E03A6A8032FF2A00D9ED
S1137740E2E01720FA69FF2A00DDDDE03A6AFF2A49
S113775000DDD9E06EE0FA7A002A0FD0FA698021C0
S113776089008C466244172015498A4200D9CBE02F
S11377703A6A624412498A4200D9C5E01720104A85
S1137780F969914200DDBFE0396A914200DDBBE056
S113779050E0C046F5730000000800408C9C0000D7
S11377A000180040989C00008D9100001D9100007D
S11377B0209C00009C9C0000899200004C9B0000CF
S11377C0FF030000FA7A002A0FD0FA698021090128
S11377D08C466244172050498A4200D994E03A6AA0
S11377E062444D498A4200D98EE017204A4AF96919
S11377F0914200DD88E0396A914200DD84E019E0BD
S1137800FA7A002A0ED0FA69802109028C46624471
S1137810172042498A4200D976E03A6A62443F49D5
S11378208A4271D817203D4AF96991426CDC396A61
S1137830914269DC524652891343524653812A6865
S1137840138C9BB2002BFBD1BB8B5246D3812A688D
S1137850138C9BB2002BFBD13B8C524613822A68BB
S1137860138C9BB2002BFBD13A79FB88134352460D
S113787013812A68138C9BB2002BFBD12A33FB5C47
S11378805246D370072313711D33FB5C002B1BD0AE
S1137890FB8C1720204A934236D8524653822A68DA
S11378A0138C9BB2002BFBD13A8D80231B01D31880
S11378B09BB2172018498B4226D853469A822A68CD
S11378C0138C9BB2002BFBD1A200154BD358154946
S11378D0095D1B68CB401B02E021C9001940124B13
S11378E0D358124A125D1B68D340072213400B433E
S11378F052469385002007E0172005E000230193FA
S1137900984601339B465AE61DB03CBC90469946C6
S1137910A246AB46F0BDC046FF0F0000FFFF0000CB
S1137920AC9C0000889C0000A49C0000949C000077
S113793003680A4A934206D1094A1369802149001F
S11379400B43136108E0074A934205D1044A1369C3
S1137950802189000B4313617047C046001C00421C
S11379600008004000200042F8B50C00150001603A
S1137970A64B9847A64B00221A702A781A70A54B7A
S11379809C423CD1A2491A20A34B98471A20A34BEE
S11379909847A04B996902220A439A61A04A1204AB
S11379A0120C8027BF033A4384215A509D48000497
S11379B0000C802676033043882298509A490904A3
S11379C0090C394318329950984A1204120C324364
S11379D0B0215A50964A1204120C04395A50954A4E
S11379E01204120C94490A43C0215A50934A1204B7
S11379F0120C802109030A43F0215A503FE0904BB6
S1137A009C4200D0FCE082491B20834B98471B20FA
S1137A10824B98478A4B996902220A439A61894AA0
S1137A201204120C802189030A4384215A50864986
S1137A300904090C8020400301438822995083499A
S1137A400904090C014318329950814A1204120C9A
S1137A500243B0215A507F4A1204120C04395A507E
S1137A607D4A1204120C74490A43C0215A507B4ABD
S1137A701204120C802109030A43F0215A500023F6
S1137A80BC22A3500C32A350754BE361754BE360E9
S1137A90AB7B002B04D0E368802212041343E36021
S1137AA06B78002B03D0A26840231343A36063695F
S1137AB0AA7813436361EB78002B04D0A369802276
S1137AC0D2011343A3612B79002B04D0A369802234
S1137AD092011343A3616B79002B04D0A369802224
S1137AE052011343A361AB79002B03D1A269403344
S1137AF01343A361EB79002B03D0A2691023134332
S1137B00A3612B7A002B03D0A26908231343A3613A
S1137B106B7A1B04F02212031340012213432362E5
S1137B202A7B6B7B13436A8912041343A362EB7BA6
S1137B301B02FE22D201134019002A7C7F231A4023
S1137B400B001343A3646B7C1B0130211940AA7CF6
S1137B5092000C2313400B438022A350EB7C002B98
S1137B6003D0A15802230B43A3502B7D002B04D038
S1137B708022A15801230B43A3509023AA69E25009
S1137B802B7F002B05D0A022A358802109060B438C
S1137B90A350A02022586B7F1B06FE21C9050B4071
S1137BA013432350AB7F002B05D0B022A358802170
S1137BB009060B43A350B0202258EB7F1B06FE217D
S1137BC0C9050B40134323502023EB5C002B05D045
S1137BD0C022A3588021C9050B43A350F02022588A
S1137BE02123EB5C1B06FC2189050B401343235026
S1137BF00323E365043BE022A3500432A35004E0D2
S1137C00A26902231343A36139E7F8BD3179000067
S1137C10440D0020001C00428D9100001D910000C5
S1137C206C0600206C0500206C0A0020EC0100208A
S1137C30EC0800206C070020000004042C0A00203B
S1137C4000200042EC050020EC040020EC0200209F
S1137C50EC030020EC070020EC060020EC090020D7
S1137C60030A0306330A03000268936901218B4364
S1137C709361016801228B691A42FCD17047C046A6
S1137C8010B503680948834205D109689200084B7E
S1137C90D150002008E01720064CA34204D1096803
S1137CA09200054BD150002010BDC046001C00427C
S1137CB06C06002000200042EC05002070B50D0089
S1137CC003680C4CA34208D112010B4989181022F5
S1137CD028000A4B984700200BE01720084CA342C9
S1137CE007D112010749891810222800034B98472D
S1137CF0002070BD001C00426C0A0020B1970000F7
S1137D0000200042EC02002010B5036817488342AB
S1137D1013D10B68164C100103514A6823185A609A
S1137D200B00083308302218103118781070013312
S1137D3001328B42F9D1002017E017200D4CA342E9
S1137D4013D10B680C4C100103514A6823185A6074
S1137D500B00083302000832A21810311878107092
S1137D60013301328B42F9D1002010BD001C0042C6
S1137D706C07002000200042EC0600201723002A94
S1137D800DD18B00074A9B58002B03D189008850E2
S1137D90002304E0834201D01D2300E000231800E7
S1137DA07047C046480D00201723002907D1002240
S1137DB01F2800D8034A01238340136100231800BD
S1137DC07047C0460028004070B50022154B1A7059
S1137DD000231F25144E134C1F2B19D90FE000212B
S1137DE000E012494A619B009B59002B00D0984740
S1137DF023780133DBB223700F2BEDD911E0290076
S1137E00194001228A40002149691142E7D1EFE774
S1137E102900194001228A40044949691142E0D1EC
S1137E20E6E770BD450D0020480D00200028004005
S1137E30064A117802230B43137002210120536870
S1137E401942FCD153681842F9D170470028004008
S1137E50064A137802218B43137001205368194298
S1137E60FCD153681842F9D17047C046002800403D
S1137E7000B583B0184A53698021C9000B4353618C
S1137E8001A900230B700220144B98470220144BC5
S1137E909847144A117801230B43137002210120DF
S1137EA053681942FCD15368184209D0F8E704C357
S1137EB08B42FCD108220C4B1A600C4B984709E00A
S1137EC0084A137810218B431370094B1900403171
S1137ED00022ECE703B000BD000800408D910000D3
S1137EE01D9100000028004000E100E0317E000008
S1137EF0480D002000230360436001220272837254
S1137F000132C27243727047F0B583B005000C00B1
S1137F101B4B984701A900234B70CB7023790B703E
S1137F20237A8B702078174B984700201F2D00D898
S1137F301548072129408900E27AA37A002B01D051
S1137F4008231A43EB089B00C318DE690F278F40F0
S1137F50BE438A403243DA61637A002B05D08269DA
S1137F600123AB401343836106E083690122AA40E5
S1137F701B041B0C93438361044B984703B0F0BD6F
S1137F80517E00008992000000280040317E0000EC
S1137F9010B51F4A916904230B4393611D4B2022A2
S1137FA0FF321A831A7D0523D2072ED503790224C2
S1137FB0002B00D0C47803781B02C0229200134027
S1137FC04278D201FF210A401343190082785200FB
S1137FD01E231A400B00134342791204C021890264
S1137FE00A401343A40423430A4A536093685B037F
S1137FF05B0F094908249C400C8093684B804378AC
S11380000B71138BDB05DB0F1B01180010BDC04681
S113801000080040004000416C0C002030B5040012
S1138020264A1088538843438B420BD28022920104
S1138030234BCB18934205D91820224A224BCB1844
S1138040934239D8214A5568214B2B408020C002E5
S1138050034353602023FF331383137DDB0702D4D0
S11380605560052028E0452C15D8A300194AD3589B
S11380709F46164B1B8BDB0503D5144B5D6010200C
S11380801AE089084900114BD96108E089084900C0
S11380900E4BD96103E00D4B5D6017200CE0A52069
S11380A000020443094B1C80190001220B7D13427A
S11380B0FCD0064B5D60002030BDC0466C0C002037
S11380C000C07FFFFF1F00000000C0FF0040004110
S11380D0FFFFF3FFB49C0000F8B52B4B1C885B88B2
S11380E06343834207D21823284E294D451901279B
S11380F0B54201D946E000271723944242D3254BC9
S11381001C7D0523E4073DD5234C224B1C801D0018
S113811001242B7D2342FCD02024FF341D4B1C83DF
S11381204608002A29D076000023541EA446CD5CBC
S1138130634501DBACB203E0CC18647824022C4321
S1138140348002339BB202369A42F0D80E4B19792E
S11381500023002916D13F2A14D8002F06D000226C
S113816001001C200D4B984703000BE00022010086
S113817004200A4B9847030004E0034B1A790023B8
S1138180002AEAD01800F8BD6C0C0020FF1F000084
S11381900000C0FF0040004144A5FFFF1D80000017
S11381A070B5194B1C885B886343834205D218233E
S11381B0164E174D4519B54223D81723944220D3A0
S11381C0144B1C7D0523E4071BD52024FF34114BDD
S11381D01C834008002A13D040000025561E2B188B
S11381E01C88A4B22B041B0CCC54B34202DACB1867
S11381F0240A5C700235ABB29A42F0D8002300E046
S11382000023180070BDC0466C0C0020FF1F000046
S11382100000C0FF0040004110B51A4A138852887C
S11382205A43824207D21822174C18494118A142D6
S113823026D8012100E000219B00013B18221842AE
S11382401ED1134B1B7D133ADB0719D5104B20228B
S1138250FF321A8380084000D861002901D10D4AF9
S113826000E00D4A0A4B1A80190001220B7D1342CB
S1138270FCD0074B1A8B1C231A40501E82419200DB
S1138280100010BD6C0C0020FF1F00000000C0FF98
S11382900040004102A500001AA5000000B583B00B
S11382A001AB80221A700A785A704A789A708A78D8
S11382B0DA701900014B984703B000BD89920000A1
S11382C010B5490840230024814201D20AE01C0071
S11382D0091A631C9BB28842F9D94023FF2C01D8A8
S11382E014800023180010BD10B582B004000E4B9A
S11382F01B78002B01D000290DD001A90C7012208D
S11383000A4B984712200A4B9847074B5C7001228E
S11383101A70002006E0044B5B78834201D01D20D4
S113832000E0002002B010BD740C00208D9100000C
S11383301D910000444B984233D006D8434B9842D9
S11383400DD0434B98421BD06FE0424B98424AD029
S1138350414B984258D0414B984266D132E00129B2
S113836006D0002963D0022906D0032906D001E0F3
S11383703B4867E0002065E03A4863E03A4861E042
S1138380012906D0002954D0022906D0032906D099
S113839001E0364856E0002054E0354852E03548C4
S11383A050E0012906D0002945D0022906D003292E
S11383B006D001E0304845E0002043E02F4841E08A
S11383C02F483FE0012906D0002936D0022906D0E3
S11383D0032906D001E02B4834E0002032E02A488B
S11383E030E02A482EE0012906D0002927D00229AE
S11383F006D0032906D001E0254823E0002021E02F
S113840024481FE024481DE0012906D0002918D083
S1138410022906D0032906D001E0204812E00020FA
S113842010E01F480EE01F480CE000200AE01E4840
S113843008E01E4806E01E4804E01E4802E01E480C
S113844000E01E487047C046000C00420004004291
S113845000080042001400420018004200100042CC
S113846003000500030006000300070002001100DA
S1138470020012000200130002000D0002000E00B0
S113848002000F0002001700020018000200190089
S11384900300290003002A0003002B00030023002B
S11384A00300200003002100030004000200100068
S11384B002000C0002001600030028000300220042
S11384C030B587B00C4B6A4632CB32C232CB32C2A3
S11384D0009B834206D001239A0069465258824287
S11384E003D100E00023D8B203E00133062BF3D11B
S11384F0002007B030BDC046CC9D000010B5024B33
S11385001B680020984710BD780C002010B5024B62
S11385105B680120984710BD780C002010B5024B11
S11385209B680220984710BD780C002010B5024BC0
S1138530DB680320984710BD780C002010B5024B6F
S11385401B690420984710BD780C002010B5024B1D
S11385505B690520984710BD780C0020F0B557469C
S11385604E464546E0B488B080460E001400030031
S113857019600B689B0700D4A7E0936A0393D36A3E
S11385800493136B0593536B069300271F2399469B
S1138590F9B2BB0003AA9858002802D13000AF4BAF
S11385A09847431C28D00204130C9C46000CC1B20B
S11385B00025030604D44B09DB018222D2059D1851
S11385C04B460B40E81840300078824680205246E3
S11385D0D2070AD55B08EB1830331878C0B2CB0742
S11385E001D5000901E00F231840844504D000237D
S11385F0424613601C202BE10137042FC8D11220FE
S1138600974B984723780027012B12D102AA010027
S1138610A069944B984703001720002B00D017E162
S1138620337BDBB202AA127805309A4200D00FE104
S11386300C372578002D14D13268E37F1B04A17F09
S11386400B431C20934200D002E1A169A38B20229A
S1138650A25C002A01D04022134308220A43174394
S113866000E000236268A1680A43E1680A433A43D0
S1138670217C0B43617C002901D080210A43A17C29
S1138680002902D0802189020B43E17C002902D019
S1138690802189000B43217D002902D0802189019A
S11386A00B43306802210A43824209D172689A421C
S11386B006D143465D71237C424693710020C7E096
S11386C00023424613601C20C2E00B680520DB0730
S11386D000D5BDE00800644B9847052802D0451C2E
S11386E0133001E0192006256049CA690123AB4013
S11386F01343CB6107A92427E35D0B70C5B228009F
S11387005B4B984728005B4B9847E05D00215A4B30
S113871098472378012B03D132680B33134333601A
S11387202378002B03D13268083313433360434664
S11387301E6802AB80221A7000225A7001219970BF
S1138740DA702378002B01D102AB9A70A36A0393E9
S1138750E36A0493236B0593636B0693002702ADCE
S1138760F9B2BB0003AA9858002802D130003B4B51
S11387709847431C05D02870000CC0B229003F4B19
S113878098470137042FEBD1237842465371237C59
S11387909371A37CD371237D137200226B46DA801C
S11387A02378012B15D1434618682F4B9847133073
S11387B0C0B22B4B984701006B469A1DA069294B08
S11387C0984703001720002B42D16B4606331B78D1
S11387D033732378002B0FD1A769A38B706AE17FD1
S11387E00904A57F2943014371622022A25C002A67
S11387F004D040210B4301E0002300276268A168F4
S11388000A43E1680A433A43217C0B43617C002913
S113881003D11B498978890701D580210A43A17CAA
S1138820002902D0802189020B43E17C002902D077
S1138830802189000B43217D002902D080218901F8
S11388400B4331680A43326072681343736000203B
S113885008B01CBC90469946A246F0BD3583000082
S1138860B1910000C1820000C184000000080040F2
S11388708D9100001D910000E982000089920000A2
S113888000200041F0B55F464E464546E0B48946B7
S11388901724002A6AD0C1790534002966D04179A9
S11388A0002905D101680C7EA40701D502240C76A9
S11388B00026042502218C460139DB05DB0D984690
S11388C04479012C08D103681C7E0C42FCD01C7E28
S11388D00C421AD044469C624479002C15D103689A
S11388E01C7E2C4206D1244C1F7E2F4202D1013C17
S11388F0002CF9D11C7E67463C4203D002221A7632
S1138900042433E01C7E2C422DD003681C7E2C42B0
S1138910FCD01C7E2C4228D05C8BA34600245F46EE
S11389202F4201D05D831E348779012F03D19B6AC6
S1138930DB05DB0D01E09B6ADBB2002C16D1741C55
S1138940A4B24F46BB558779012F05D10236B6B282
S11389501B0A4F463B5500E02600013A92B2002A1A
S1138960AED1002402E0122400E0102420001CBC3C
S113897090469946A346F0BD1027000010B54479EF
S11389801523012C72D1047A0023002C6ED1002A05
S11389905BD04B78002B46D003681B7EDB0711D4D9
S11389A00B78D9090022002905D15A09D201822164
S11389B0C9058C4662441F210B401E3999409161C0
S11389C0052353E00B78DC090022002C05D15A0959
S11389D0D2018224E405A44662441F2423401E3CA1
S11389E09C40546103681A7ED20701D58A789A6242
S11389F0C2790023002A39D102680421137E0B4274
S1138A00FCD0117E0023490730D5538B5B0701D579
S1138A10042353838379012B02D1936A002325E035
S1138A20936A002322E00B78D9090022002905D19A
S1138A305A09D2018221C9058C4662441F210B4088
S1138A401E3999405161002310E00B78D9090022A6
S1138A50002905D15A09D2018221C9058C466244F4
S1138A601F210B401E39994091610023180010BD4D
S1138A70F0B55F4656464D464446F0B483B093463F
S1138A801723002A00D1E5E04379002B05D10368C0
S1138A901C7EA20701D502241C765D460024012316
S1138AA002229446023290468CE04279002A16D182
S1138AB00268167E1E4206D16A4E177E1F4202D1FC
S1138AC0013E002EF9D1167E61460E4203D00223E8
S1138AD013760233BEE0127E1A4200D1B1E006687A
S1138AE0327E1A42FCD0621C97B25246125D8179E2
S1138AF0012902D092B23C0005E00234A4B25146EE
S1138B00CF5D3F023A43377E1F4202D0D205D20DD9
S1138B10B2626A1E92B2C679002E57D0514642798B
S1138B20002A39D1504A0191002D20D00668377EA1
S1138B301F421CD0671CB9B289460199095D009196
S1138B408179012903D069460F884C4607E0023435
S1138B50A4B24946019F795C0902009F0F43317E0C
S1138B60194202D0FF05FF0DB762013DADB20668A0
S1138B70377E41460F4202D1013A002AD4D10199ED
S1138B80327E67463A4203D002233376023361E0F1
S1138B90327E4646324256D00668327E47463A42D4
S1138BA0FBD0327E3A4209D0728B3A4200D07783AE
S1138BB08279012A01D1B26A00E0B26A5A46013AC6
S1138BC092B29346013DADB28A4600E01500274AB1
S1138BD0954200D069E74379012B06D1016802224E
S1138BE00B7E1342FCD0002334E0002B2DD1C1793D
S1138BF000292FD004255B465C46002B1BD129E0BD
S1138C000A7E2A4202D1013B002BF9D10B7E2B4272
S1138C101DD00B7E2B4209D04B8B2B4200D04D83B1
S1138C208379012B01D18B6A00E08B6A013CA4B2E9
S1138C30002C0ED0FFE701680B7E2B42E6D1094BD6
S1138C40DEE7122306E0122304E0002302E01223ED
S1138C5000E00023180003B03CBC90469946A246AD
S1138C60AB46F0BD1027000011270000FFFF0000F5
S1138C70F0B583B001AC012565700023A3702570A5
S1138C8021001B20074FB8478226F60580231B05C9
S1138C907361257021001C20B84780235B05736134
S1138CA003B0F0BD9D820000114A13780133DBB29A
S1138CB01370082B10D9092B08D900220C4B1A70F9
S1138CC0802212058223DB055A610AE08022120504
S1138CD08223DB059A6104E0802212058223DB05EE
S1138CE05A61802252058223DB055A617047C046CF
S1138CF0880D0020114A13780133DBB21370042B62
S1138D0010D9052B08D900220C4B1A708022520569
S1138D108223DB055A610AE0802252058223DB05A7
S1138D209A6104E0802252058223DB055A61802285
S1138D3012058223DB055A617047C046880D002066
S1138D40114A13780133DBB21370082B10D9092BA5
S1138D5008D900220C4B1A70802252058223DB05AD
S1138D605A610AE0802252058223DB059A6104E0FD
S1138D70802252058223DB055A6180221205822358
S1138D80DB055A617047C046880D002010B5234B9F
S1138D905B785A0608D58223DB05802212055A61C6
S1138DA0802252055A6137E01D4A1288002A08D0F1
S1138DB08223DB05802212059A61802252055A61C2
S1138DC02AE0184A5278920601D49B0702D5164B22
S1138DD0984721E0154B9B7CDBB25F2B08D982239B
S1138DE0DB05802212055A61802252059A6113E044
S1138DF00A4B1B785A0702D50D4B98470CE01B070A
S1138E0008D58223DB05802212059A61802252054F
S1138E109A6101E0074B984710BDC0463C10002002
S1138E200C0F002018100020A98C0000500E002008
S1138E30F58C0000418D00007047C0460C4B1B6848
S1138E40002B10D1EFF31083002B09D172B6BFF3BE
S1138E505F8F0022074B1A700132074B1A7002E031
S1138E600022054B1A70024A1368013313607047DD
S1138E70900C00200C000020940C0020084B1A6871
S1138E80013A1A601B68002B09D1064B1B78002B92
S1138E9005D00122044B1A70BFF35F8F62B670478E
S1138EA0900C0020940C00200C00002010B5072822
S1138EB003D880000F4B1B589F46002018E00E4B30
S1138EC0586815E00D4B597D0907090F01310C480D
S1138ED00C4B98470CE0084B986809E0074B1B7F44
S1138EE000209B0704D5044B186801E08020000291
S1138EF010BDC046E49D0000980C00200010004006
S1138F00006CDC0279940000F0B54F464646C0B4CC
S1138F1085B003221B4B9A601B4A53681E218B4366
S1138F2053601A4B197D80220A431A7502225A751E
S1138F301A009369002BFCD1154B984701AC01260C
S1138F400296002565700623994623702572657282
S1138F50210008200F4B9846984708200E4FB84729
S1138F600E4B1E71666065704B46237025726572E8
S1138F7021000020C0470020B84705B00CBC904633
S1138F809946F0BD00180040004000410010004028
S1138F90A18F0000C58F0000719000000008004000
S1138FA0064A516980230B4353610122044B1A7012
S1138FB019000B781342FCD17047C04600080040EA
S1138FC0001C004070B505000C784B78002B02D0D3
S1138FD08023DB001C434B7A002B02D080231B012F
S1138FE01C434A68012A17D9531E1A420FD1022A78
S1138FF006D90223002001305B009A42FBD800E02E
S1139000002080235B011C430004044304E0120499
S113901080239B001A4314430B7A002B02D0802335
S11390209B011C430426AE400D490E4A4B68134075
S11390301E42FBD10C4B9847AD00094B9C4665443E
S1139040286A80235B001840204328626146054A51
S11390504B6813401E42FBD1044B984770BDC04679
S1139060001C0040FC0700003D8E00007D8E0000C7
S113907010B504000422824009480A4943680B40A1
S11390801A42FBD1084B9847A400054B9C46644404
S1139090236A8022520013432362044B984710BD75
S11390A0001C0040FC0700003D8E00007D8E000087
S11390B0F8B50400042282401248134943680B4067
S11390C01A42FBD1114B98470E4F0834A400E059C3
S11390D04007400F0E4B98470600E559ED04ED0F8D
S11390E0E459240C0B4B9847002D07D1012C07D9C8
S11390F021003000084B9847060001E00134E640A7
S11391003000F8BD001C0040FC0700003D8E00004C
S1139110AD8E00007D8E00007994000010B504002F
S1139120094B9847A000094B9C4660448022815813
S113913040230B4383508021403A43581A42FCD0C9
S1139140034B984710BDC0463D8E0000001C0040F4
S11391507D8E000010B50400094B9847A000094B10
S11391609C4660448022835840218B438350403185
S1139170403A43581A42FCD1034B984710BDC046AD
S11391803D8E0000001C00407D8E000070B5040080
S11391900D00054B98472B780F2213402034A40070
S11391A0024AA35070BDC04655910000001C004007
S11391B010B50400064B98472034A400054BE4582E
S11391C02407240F044B98472000044B984710BDF4
S11391D03D8E0000001C00407D8E0000B190000018
S11391E030B5D378002B1ED11378802B04D01B0606
S11391F080246402234300E0002354780225AC4316
S11392000AD19478002C03D18024A402234302E0E1
S1139210C024E402234341605478013C012C12D859
S1139220184C23400FE041600B041B0CA024E40500
S1139230234383620B0CD024240623438362D37814
S1139240002B18D01CE00C04240CA025ED052C43A5
S11392501C4384620C0CD0252D062C431C438462D1
S1139260D478002C0CD15B0305D59378012B01D164
S1139270816100E041615378013B012B00D881609A
S113928030BDC046FFFFFBFF10B503000A00C10953
S11392900020002905D15809C0018221C9058C4646
S11392A060441F210B401E399940014B984710BD63
S11392B0E19100007047C04610B5054B9847054B37
S11392C09847054B9847054B9847054B984710BD61
S11392D0098F0000398E0000B5920000717E0000F5
S11392E0B5920000FEE7C04610B51B4B1B4A9A42DC
S11392F003D01B4B184A9A4204D31A4B1A4A9A4277
S113930010D31EE0194A164B03339B1A9B080133F2
S11393109B000022104811498C58845004329A4210
S1139320FAD1EAE7124A0F4B03339B1A9B08013325
S11393309B0000220C4800211418216004329A4238
S1139340FAD10C4AFF210C4B8B4393600B4B98478B
S11393500B4B9847FEE7C04600000020249E000007
S113936010000020601000201000002004000020E5
S11393701400002000ED00E00040000065970000AC
S113938085930000F8B5254B1B78254B9847254B52
S11393909847254B9847254B9847254B9847254B8D
S11393A09847254B9847254B9847254B9847254B7D
S11393B09847254B98478224E40526008036802769
S11393C0BF02B7613220214DA84777610122204BAB
S11393D01A70BFF35F8F62B61E4B98471E4B1B88F3
S11393E09BB21E4A13801E4B984796204000A84704
S11393F000221C4B1A701C4A537810218B43537063
S113940080231B05636180235B05A361174B984789
S1139410174D184CA847A047FCE7C0460030000091
S1139420B99200005D730000718C00008D6E000025
S1139430415400003941000031570000294C00001C
S1139440E54C0000914D0000515D0000C97300001F
S11394500C000020D9560000860E0020500E00207B
S113946065470000A80E00203C1000206D5300004A
S113947091510000F9490000002243088B4274D343
S113948003098B425FD3030A8B4244D3030B8B4201
S113949028D3030C8B420DD3FF22090212BA030C0A
S11394A08B4202D31212090265D0030B8B4219D3EB
S11394B000E0090AC30B8B4201D3CB03C01A52410B
S11394C0830B8B4201D38B03C01A5241430B8B4253
S11394D001D34B03C01A5241030B8B4201D30B033C
S11394E0C01A5241C30A8B4201D3CB02C01A524163
S11394F0830A8B4201D38B02C01A5241430A8B4226
S113950001D34B02C01A5241030A8B4201D30B020E
S1139510C01A5241CDD2C3098B4201D3CB01C01A28
S1139520524183098B4201D38B01C01A5241430932
S11395308B4201D34B01C01A524103098B4201D320
S11395400B01C01A5241C3088B4201D3CB00C01A8D
S1139550524183088B4201D38B00C01A5241430805
S11395608B4201D34B00C01A5241411A00D201462A
S1139570524110467047FFE701B5002000F0F0F8B3
S113958002BDC0460029F7D076E7704703460B4377
S11395907FD4002243088B4274D303098B425FD3E8
S11395A0030A8B4244D3030B8B4228D3030C8B4214
S11395B00DD3FF22090212BA030C8B4202D31212FA
S11395C0090265D0030B8B4219D300E0090AC30BCF
S11395D08B4201D3CB03C01A5241830B8B4201D37C
S11395E08B03C01A5241430B8B4201D34B03C01A65
S11395F05241030B8B4201D30B03C01A5241C30ADD
S11396008B4201D3CB02C01A5241830A8B4201D34D
S11396108B02C01A5241430A8B4201D34B02C01A37
S11396205241030A8B4201D30B02C01A5241CDD2DC
S1139630C3098B4201D3CB01C01A524183098B4227
S113964001D38B01C01A524143098B4201D34B0110
S1139650C01A524103098B4201D30B01C01A524173
S1139660C3088B4201D3CB00C01A524183088B42FA
S113967001D38B00C01A524143088B4201D34B00E3
S1139680C01A5241411A00D2014652411046704755
S11396905DE0CA0F00D04942031000D3404253405A
S11396A000229C4603098B422DD3030A8B4212D31A
S11396B0FC22890112BA030A8B420CD3890192114C
S11396C08B4208D3890192118B4204D389013AD089
S11396D0921100E08909C3098B4201D3CB01C01A5E
S11396E0524183098B4201D38B01C01A5241430971
S11396F08B4201D34B01C01A524103098B4201D35F
S11397000B01C01A5241C3088B4201D3CB00C01ACB
S1139710524183088B4201D38B00C01A5241D9D2E3
S113972043088B4201D34B00C01A5241411A00D264
S11397300146634652415B10104601D34042002B60
S113974000D54942704763465B1000D3404201B5DF
S1139750002000F005F802BD0029F8D016E7704794
S11397607047C0460E4B70B500251E000D4CE41A20
S1139770A410A54204D0AB00F35898470135F8E78C
S113978000F040FB084B00251E00084CE41AA4100E
S1139790A54204D0AB00F35898470135F8E770BDF3
S11397A0109E0000109E0000109E0000149E0000F9
S11397B0002310B59A4203D0CC5CC4540133F9E7BA
S11397C010BD03008218934202D019700133FAE7E6
S11397D070470000993B5B3B1A3BD73A903A473AB3
S11397E0FC39AD395B390739B0385538F837973714
S11397F03437CE366436F83588351635A1342934F5
S1139800AE333033AF322C32A6311E3193300630B2
S1139810762FE52E512EBC2D242D8B2CF02B542B82
S1139820B72A182A7929D82837289527F2265026C6
S1139830AD250A256724C42322238022DF213E216B
S11398409E200020621FC51E2A1E901DF81C611C4C
S1139850CB1B381BA61A161A8819FB187118E9179E
S11398606317DF165D16DD156015E4146B14F4132D
S11398707F130D139D122F12C3115911F2108C1066
S11398802910C80F690F0D0FB20E590E020EAE0D3E
S11398905B0D0A0DBB0C6E0C230CDA0B920B4C0BFC
S11398A0080BC50A840A450A070ACB099009570917
S11398B01F09E908B30880084D081C08EC07BD0718
S11398C09007630738070E07E506BD06960670067F
S11398D04B0626060306E105BF059D057B055905D4
S11398E037051505F304D104AF048D046B04490452
S11398F0E2E3E4E5E6E7E8E9EAEBECEDEEEFF0F1CC
S1139900F2F3F4F5F6F7F8F9FAFBFCFDFEFF0001BB
S113991002030405060708090A0B0C0D0E0F1011AB
S113992012131415161718191A1B1C1D1E1F20219B
S113993022232425262728292A2B2C2D2E2F30318B
S113994032333435363738393A3B3C3D3E3F40417B
S113995042434445464748494A4B4C4D4E4F50516B
S113996052535455565758595A5B5C5D5E5F60615B
S113997062636465666768696A6B6C6D6E6F00002C
S1139980EB0CFC0C0E0D1F0D300D420D530D640D30
S1139990750D870D980DA10DAA0DB20DBB0DC40D4B
S11399A0CD0DD60DDE0DE70DF00DF50DFB0D000E02
S11399B0050E0B0E100E150E1A0E200E250E280E77
S11399C02B0E2E0E310E340E370E3A0E3D0E400E77
S11399D0430E470E4A0E4E0E510E550E580E5C0E97
S11399E05F0E630E660E6E0E760E7E0E860E8F0E64
S11399F0970E9F0EA70EAF0EB70EC00EC80ED10E57
S1139A00D90EE20EEA0EF30EFB0E040F0C0F160F26
S1139A101F0F290F320F3C0F450F4F0F580F620FC6
S1139A206B0F760F800F8B0F960FA10FAB0FB60F36
S1139A30C10FCB0FD60FE20FEE0FFA0F0610131063
S1139A401F102B10371043104F10000000D57FAAB1
S1139A50FE2B815429FC5683D702A87D52872DF80A
S1139A60AC79D3067BAE04D18550FA2FA471DB0EFA
S1139A705A8F25F08D58F22773A60CD9F623895CEA
S1139A8008DD77A2DF0AA07521F45E8B9D48E237DA
S1139A9063B61CC9B461CB1E4A9F35E0CF1AB065CA
S1139AA031E44E9BE633994C18CD67B239EC4693BA
S1139AB0C712B86D10C56FBAEE3B91446BBE14C1AA
S1139AC09540EA3F42973DE8BC69C316EF3A90459A
S1139AD011C46EBBC613B96C38ED4792BD68C2178A
S1139AE043963CE99441EB3E6ABF15C04B9E34E17A
S1139AF0B560CA1F62B71DC89C49E33619CC66B36A
S1139B00E732984D30E54F9ACE1BB16472A70DD859
S1139B108C59F3265B8E24F1A570DA0F20F55F8A49
S1139B20DE0BA17409DC76A3F722885DD603A97C39
S1139B3028FD5782FF2A805501D47EAB8451FB2E29
S1139B407AAF05D0AD78D20753862CF99876000009
S1139B50F8780000F8780000F8780000F878000041
S1139B60F8780000F8780000F8780000F878000031
S1139B70F8780000F8780000F8780000F878000021
S1139B80F8780000F8780000F8780000807600008B
S1139B90F8780000F8780000F8780000F878000001
S1139BA0F8780000F8780000F8780000F8780000F1
S1139BB0F8780000F8780000F8780000F8780000E1
S1139BC0F8780000F8780000F8780000907600003B
S1139BD0F8780000F8780000F8780000F8780000C1
S1139BE0F8780000F8780000F8780000F8780000B1
S1139BF0F8780000F8780000F8780000F8780000A1
S1139C00F8780000F8780000F87800008876000002
S1139C10A076000068760000787600007076000078
S1139C20004400420048004202000000030000001B
S1139C3028000000290000000400000005000000C6
S1139C4006000000070000000800000009000000F2
S1139C500A0000000B0000002000000021000000AA
S1139C60220000002300000028000000290000005A
S1139C70240000002500000026000000270000004A
S1139C8008000000090000000006000000000200B7
S1139C900000040003090000212200000B00000062
S1139CA00B000000206080002060800020608000A5
S1139CB02060800096800000968000008C80000068
S1139CC0968000008C80000072800000728000008A
S1139CD09680000096800000968000009680000028
