S015000041544D454C2D455334393530332E73726563D2
S10E3000636F6E7374206461746100E0
S1134000B8300020B1850000AD850000AD8500000A
S1134010000000000000000000000000000000009C
S1134020000000000000000000000000AD8500005A
S11340300000000000000000AD850000AD85000018
S1134040AD850000ED440000AD8500006171000005
S1134050AD850000AD850000AD850000AD85000094
S1134060AD85000095780000A5780000B5780000C3
S1134070C5780000D5780000E5780000A947000065
S1134080AD850000AD850000AD850000AD85000064
S1134090A9410000B9410000C9410000D941000014
S11340A0E9410000AD850000AD850000AD8500004C
S11340B0AD850000AD850000AD85000010B5064C4F
S11340C02378002B07D1054B002B02D0044800E0D5
S11340D000BF0123237010BD100000200000000069
S11340E0308F0000084B10B5002B03D00749084857
S11340F000E000BF07480368002B00D110BD064B49
S1134100002BFBD09847F9E70000000014000020C2
S1134110308F0000308F000000000000931C9B00D3
S11341201950022A04D1027E1023134303760BE0B4
S1134130032A04D1027E20231343037604E00123DF
S11341409340027E134303760020704770B58000CD
S1134150144BC5582B689C7A2B7E1C406B7E1C40EC
S1134160E30705D52800AB68984701232A689372B2
S1134170A30705D52800EB68984702232A689372A1
S1134180E30605D528002B69984710232A68937203
S1134190A30605D528006B6998472B6820229A72DC
S11341A070BDC046DC0C002010B50020014B9847C0
S11341B010BDC0464D41000010B50120014B984789
S11341C010BDC0464D41000010B50220014B984778
S11341D010BDC0464D41000010B50320014B984767
S11341E010BDC0464D41000010B50420014B984756
S11341F010BDC0464D41000030B587B001A90C4B3D
S11342000A0032CB32C212CB12C2019B984206D0B2
S113421001239A0001A95258824203D100E00023ED
S1134220D8B203E00133052BF3D1002007B030BD31
S1134230EC8A0000F0B5474680B48EB005000E004D
S113424017000800A14B98478046A14C2100143167
S113425005220CA89F4B984702A923001C330A008F
S113426013CB13C213CB13C213CB13C21B6813603B
S11342700023AB60EB602B616B612B766B7643465E
S11342809A00954BD5502E603423FB5CAB76FB78BB
S1134290082B04D117204246D20700D511E12B7117
S11342A033680520DB0700D50BE1F37A17309B0751
S11342B000D506E133689B0700D502E13B7C002B67
S11342C00AD001A901238B700022CA703A7E0A70B9
S11342D04B70387D814B98473B7F002B0BD001A955
S11342E001238B700022CA707A6A0A704B703B6A91
S11342F0D8B27A4B98474346590002AA4B1C9B00FC
S113430098584346DB009A58D3B2012B09D0002BAE
S113431002D0022B0AD00DE0714A53691843506150
S113432008E06F4A93691843906103E06C4AD369CB
S11343301843D061FB78082B20D143460133042B6A
S11343401CDC02AACB1C9B0098588B1C9B009B581E
S1134350DAB2012A09D0002A02D0022A0AD00DE0DA
S11343605F4A53690343536108E05D4A9369034319
S1134370936103E05A4AD3690343D3613B786A46A5
S113438013700CAB42469C5C69462000554B984721
S11343902000554B9847FA78FB791343BA881343A6
S11343A07A7A002A02D0802252021343BA7A002A6F
S11343B002D0802292021343FA7A002A02D0802289
S11343C0520313433A7B002A02D080229203134300
S11343D079788901BA78D201114319432A6813699B
S11343E0002BFCD131602A681369002BFCD1BB7906
S11343F03373797B4B1E99418900BB7B002B01D021
S1134400012319432A681369002BFCD1FF3333714C
S1134410002904D02A681369002BFCD171713B7AFE
S113442073732A681369002BFCD12B79042B05D0F4
S1134430082B33D01720002B43D11CE01369002B29
S1134440FCD12833FB5C33752A681369002BFCD13B
S11344502933FB5CF3762A681369002BFCD12A33D9
S1134460FB5C33772A681369002BFCD12B33FB5C8C
S11344707377002025E01369002BFCD13B8DB382B8
S11344802A681369002BFCD17B8DB3832A681369D6
S1134490002BFCD1BB8DF383002012E01369002BA9
S11344A0FCD1BB6A73612A681369002BFCD1FB6AD7
S11344B0F3612A681369002BFCD13B6B3362002043
S11344C0FFE70EB004BC9046F0BDC046F9410000C1
S11344D0EC8A0000C98A0000DC0C00205185000031
S11344E00008004055840000E583000010B5012257
S11344F0034B9A71034B1B68002B00D0984710BDE7
S113450000200040F00C002010B58CB00BA9012352
S11345104B7000248C700B702620134B984740225C
S1134520124B5A616846124B984703236A465370EC
S11345301471072393700F4C0F4920000F4B9847B9
S11345402268138C9BB2002BFBD107331371937138
S11345501178053B0B431370064B1A68138C9BB2FE
S1134560002BFBD10CB010BD35760000800000415B
S1134570B9670000F40C002000440042FD6700000D
S113458010B51C4A0B21E0201B4B98471B4B18709D
S1134590002822D1F82252010F21E030164B98470F
S11345A0164B1870002823D1154A0521E030124B10
S11345B09847124B187000281AD1124A0C21E03087
S11345C00D4B98470D4B1870002811D10E4A1A2133
S11345D0E030094B9847094B1870084B1B78002BA7
S11345E006D100220B21E020034B9847034B18709F
S11345F010BDC046B5E3000019660000400F00205E
S1134600FF0F00000307000032100000F0B547461A
S113461080B48AB009AE002474700125B570F470BA
S113462006239846337031001820204FB84743467C
S1134630337031001920B84708236A461370547048
S11346409470D570157155719571D471147254723A
S113465001235B425381147354739473D47314749D
S1134660022353749374D5741575114B06931577FF
S113467054779577D4772023D4540133D4540D4CF4
S11346800D4920000D4B984720000D4B9847802280
S113469012020C4B1A602268536DC02149050B436A
S11346A053650AB004BC9046F0BDC0465185000075
S11346B0FFFFFF1F00010020001C0042016D0000ED
S11346C00170000000E100E010B582B00A4B0193D4
S11346D0019A0A4B13408022520213430193084C5F
S11346E0012201A92000074B98472268516D01233C
S11346F00B43536502B010BDFF070088FFFF00F8AD
S1134700000100201970000010B584B0002300934C
S113471088231B040193009B8004124C20401843FF
S11347200090019C0F20104000040F4B23400343D2
S11347300193002A07D002AB8A1808781870013157
S113474001339142F9D1094C002269462000084BFB
S1134750984723689A69920702D40121D02299507C
S113476004B010BD0000FC1FFFFFF0FF000100209B
S1134770A17000000023024A1360024A13607047CC
S11347803C00002004010020054B1A68511C1960EC
S1134790044988541A68FF210A401A607047C046C9
S11347A0040100200801002030B583B0244B1B68AD
S11347B01A6D0192019AD2072FD501221A65214C54
S11347C022681F4D20492800204B984723682968F8
S11347D03F22134069328B502368013323602368DE
S11347E0202B02D10022174B1A6000230093164B92
S11347F05B681B031B0F009A93420ED9124C144D95
S1134800009BE318187AA847009B01330093636860
S11348101B031B0F009A9342F2D8019B1B0102D485
S1134820019BDB0009D5064B1B68C02252051A65A3
S1134830802212058223DB05DA6103B030BDC04655
S1134840000100200C0200202C0000205570000004
S113485089470000F0B557464E464546E0B48246C7
S1134860002904D11EE0013C002C09D11AE0104CAF
S11348700023104F104E3A0010488046FF20844613
S113488038683568A8420BD01568681C106040462B
S1134890455D5046C55415686046054015600133B2
S11348A08B42E0D11CBC90469946A246F0BDC0465E
S11348B00F2700003C000020040100200801002014
S11348C010B50139002909DD00220023C45C121946
S11348D0D2B20133DBB28B42F8DB00E0002250425B
S11348E0C0B210BDF0B557464E464546E0B4070089
S11348F00D004E1EF6100136002E1DDD0021002491
S1134900104B9A469946104B9846082D07D9C90072
S1134910791808220120C847083DEDB204E0C90017
S113492079182A000120D047FA204000C0470134FA
S1134930E4B2211EB142E8DB1CBC90469946A24673
S1134940F0BDC046094700003567000010B584B0CB
S113495001AC552323700B4B1B7863700A4A127801
S1134960A2700122E27057322271637104216B46F6
S1134970D81D064B9847A07107212000044B984787
S113498004B010BD8D0E0020EC0E0020C1480000C4
S1134990E548000070B55B4C552121705A4B1B78DB
S11349A063705A4B1B78A3705A22E270D62323718A
S11349B0C93B63710C3BA3719B33E371843B23724A
S11349C0A8336372AE3BA3722D20E072E4332373E9
S11349D000236373A373E37323746374A374E37492
S11349E023756375A375E37523766376A376E376FF
S11349F023776377A377E3772025635501356355E0
S1134A0001356355013563550135635501356355EA
S1134A1001356355013563550135635501356355DA
S1134A200135635501356355013563552354013010
S1134A3023540130235401302354013023540130D2
S1134A4023540130235401302354013023540130C2
S1134A5023540130235401302354013023540130B2
S1134A6023540130235401302354013023540130A2
S1134A702354013023540130235401302354013092
S1134A802354013023540130235401302354013082
S1134A902354013023540130235401302354013072
S1134AA02354013023540130235401302354013062
S1134AB02354013023540130235401302354013052
S1134AC0235401302354013023546354013163547B
S1134AD0013163540131635401316354A3540132ED
S1134AE0A3540132A3540132A3540132A354E01C51
S1134AF00431074B98475F23E05460212000054BA5
S1134B00984770BD400000208D0E0020EC0E002060
S1134B10C1480000E548000010B537210148024BA8
S1134B20984710BDC0000020E548000010B584B0CF
S1134B3001AC552323700C4B1B7863700B4B1B7813
S1134B40A3700123E37057332371094B1B786371FE
S1134B5004216B46D81D074B9847A07107212000FC
S1134B60054B984704B010BD8D0E0020EC0E0020BC
S1134B70940E0020C1480000E5480000F0B5474607
S1134B8080B4614C55232370604B1B786370604B79
S1134B901B78A3703126E670D52323715D4B1B78F7
S1134BA063715D4B1A88A2711A88120AE2715A68FD
S1134BB022725A68121262729A8CA2729B8C1B0A1D
S1134BC0E372564B00229A5EE123DB005A43D3176B
S1134BD05B045B0C9B18DB1323731B126373504B36
S1134BE0002018564F4B1B785BB2C0184E4B1B78F5
S1134BF05BB2C0184D4F0321B847A0734C4B1B78D0
S1134C00E3734C4B1B78237400256574A5744A4BDD
S1134C1018884A4B58434A49B847E074000A20753B
S1134C20484B18883223FF33984658434449B847C1
S1134C306075000AA075444B1888434658434049A0
S1134C40B847E075000A2076404B1888434658431D
S1134C503B49B8476076000AA0763D4B18683D4F43
S1134C60FA218900B847E076030A2377030C6377B7
S1134C70000EA077384B1868FA218900B847E0770E
S1134C80020A2023E254020C0133E254000E0133E1
S1134C90E054324B1B682322A354190A0132A15455
S1134CA0190C0132A1541B0E0132A3542723E554DD
S1134CB00133E5540133E5540133E5540133E5543C
S1134CC00133E5540133E554254B1B680832A354E2
S1134CD0190A0132A1541B0C0132A354214B1B7835
S1134CE0A3553223E5540133E55445320133E254EC
S1134CF0683A0133E254E01C34211B4B98473623B5
S1134D00E05404BC9046F0BDC00000208D0E00208D
S1134D10EC0E0020940E0020980E0020F60E0020C9
S1134D20C60E00208E0E00208C0E0020A5880000E8
S1134D30D40D002060100020C40E0020D8170000FD
S1134D4010270000900E0020920E0020CC0E0020B0
S1134D50F00E002091870000C80E0020E40E002011
S1134D60D80E002090100020C148000070B5C2B0D9
S1134D706A4B1A686A4B1B689A4200D1CBE05522F1
S1134D80684B1A7001216B46D81D674B98476B46D8
S1134D9007331B78552B00D0BDE001216B46D81D8D
S1134DA0614B98476B46DC79002C36D101216B4668
S1134DB0D81D5D4B98476B4607331B78002B00D0FA
S1134DC0A9E001216B46D81D574B98476B46073322
S1134DD01B78002B00D09EE001216B46D81D524B5E
S1134DE098476B4607331B78012B00D093E00121D1
S1134DF06B46D81D4C4B98476B4607331B78FF2BEB
S1134E0000D088E049484A4B9847BFF34F8F494A3E
S1134E10494BDA60BFF34F8FFEE7484B1B78A34240
S1134E2001D0FF2C77D1012145483F4DA8470121EE
S1134E3002A8A84702AB197809296CD802310920C5
S1134E406844394B984702AE3578E91CC9B2300042
S1134E503C4B98477519AB7883425CD12300FF3BE8
S1134E605A425341DAB202AB5B78582B42D0D9B2E2
S1134E70582904D8382B4BD0482B34D04BE0D9B226
S1134E80C62929D0CE2902D0C52944D112E02E4BFF
S1134E901B78002B3FD102AB9A78531EDBB2FD2B5B
S1134EA039D82A4B1A702A4B9847FF2C33D0294BF8
S1134EB0984730E0244B1B7813432CD102AB9A78EB
S1134EC0224B1B789A4204D0FF22204B1A70204BAD
S1134ED09847214B98471EE01B4B1B7813431AD16C
S1134EE01E4B984717E0184B1B78134313D11C4BE8
S1134EF0984710E002AB9A78104B1B789A420AD17B
S1134F00114B1B78012B06D10122164B1A7002E0BB
S1134F1002A8154B984742B070BDC0463C00002023
S1134F2004010020600F00205548000000FD03002C
S1134F30B17500000400FA0500ED00E08D0E0020BC
S1134F40EC0E0020C148000000000020940E002058
S1134F507D4B00002D4B0000194B000095490000CB
S1134F604D490000100200208563000010B584B094
S1134F7001AC552323700A4B1B7863700023A37084
S1134F80E3704833237103216B46D81D054B9847C2
S1134F90607106212000044B984704B010BDC04640
S1134FA08D0E0020C1480000E5480000F8B54F46CA
S1134FB04646C0B48223DB051B6A5B060DD401227E
S1134FC0284B1A700022284B1A708223DB052032EA
S1134FD09A61802212015A6140E08221C90510229F
S1134FE00B6A1A42FCD00A20204B98478221C9053B
S1134FF010220B6A1A42FCD001221A4B1A701A4F63
S11350001B4B99461B4B984625E0C8470023424654
S11350101360194A1370194E164C144DB047236887
S1135020013323600120A8472368312B07D90022CC
S11350300D4B1A7020328223DB059A610BE00E4B74
S11350401B78002BEAD0084B1B78012B03D1054AAF
S11350501378013313703B78012BD6D00CBC9046E7
S11350609946F8BD8D0E0020000000206167000005
S11350706D4F000008020020100200206D4D00005A
S113508000B583B000236A461370074A5268D206FB
S1135090120F69468A70CB700B714B714B70684666
S11350A0024B984703B000BD004000412973000043
S11350B070B50500024C2800A0470528FBD070BD40
S11350C0B1750000F8B506000D001400034F22006E
S11350D029003000B8470528F9D0F8BD71740000E4
S11350E0F8B506000D001400034F2200290030001B
S11350F0B8470528F9D0F8BD39750000344A51780D
S1135100344B9974997CC9B21975997CC9B2597593
S113511011799984998C090289B29984988C51796E
S1135120014399849179D984D98C090289B2D984AB
S1135130D88CD1790143D984117A1985198D090242
S113514089B21985188D517A01431985D17A224B78
S11351501980117B214B19801988090289B21980A1
S11351601888517B01431980917B59805988090221
S113517089B259805888D17B0143598010215156F6
S11351801971112151565971917CD980D98849B22C
S11351900902D980D98809B2D07C0143D980117D14
S11351A01981198949B209021981198909B2507DF5
S11351B001431981917D59815989090289B2598123
S11351C05889D17D01435981127E52B21A737047B6
S11351D070100020980E00205C0F00204C0F00205F
S11351E0F8B52E4BB3221A702D490A88120A9A7008
S11351F00A88DA702B4A918C090A1971918C5971B9
S1135200D18C090A9971D18CD971118D090A19723D
S1135210128D5A72244A1288110A9972DA72234A38
S11352201188090A1973118859735188090A9973E5
S11352305188D9731179197451795974D188090A2B
S11352409974D188D9741189090A19751189597504
S11352505189090A99755189D975127B52B2121272
S11352601A761A0019331900002310781B18DBB2C0
S113527001328A42F9D1094C63760D4D28000D4F55
S1135280B8470D4E3000B8471A22210028000B4DB4
S1135290A8471A2221003000A847F8BD701000204A
S11352A0CE0E0020980E00205C0F00204C0F002032
S11352B000FE0300B150000000FF0300C5500000D1
S11352C010B5104C1A2221000F48104B9847237830
S11352D0B32B13D10B4A10001930002311785B183B
S11352E0DBB201328242F9D1064A527E9A4202D19D
S11352F0074B984704E0074B984701E0054B984754
S113530010BDC0467010002000FF0300E1500000F3
S1135310FD500000E151000010B5104C1A2221008C
S11353200F48104B98472378B32B13D10B4A100026
S11353301930002311785B18DBB201328242F9D1B3
S1135340064A527E9A4202D1074B984704E0074B23
S1135350984701E0054B984710BDC04670100020E7
S113536000FE0300E1500000FD500000C1520000A7
S1135370F0B5474680B482B001AC012767700026BF
S1135380A670277021002920134DA8478223DB052E
S113539098468033802292005A61277021000520AC
S11353A0A847202342465361277021000B20A847B9
S11353B080231B0142465361267021000420A84724
S11353C0267021000620A847267021002420A84723
S11353D002B004BC9046F0BD35760000F0B55746E7
S11353E04E464546E0B482B08246022902D00329E3
S11353F003D005E0574B984604E0574B984601E02C
S1135400564B984643465F1CFF37082269463800CE
S1135410534B98476B461B78FF2B30D10024504EDA
S1135420E3B29946E5004544082269462800B0479E
S11354306B461B78FF2B1ED100236A4613705370F2
S11354405246120E69468A705246120CCA7052466F
S1135450120A0A716A46514651719371D371082236
S1135460694628003F4B98474B46102B6BD13800B8
S11354703D4B984767E00134402CD1D163E00026CE
S11354800024374B9946F500ED1908226946280097
S1135490C8476B461B78FF2B1DD100236A46137047
S11354A053705246120E69468A705246120CCA70E4
S11354B05246120A0A716A46514651719371D37168
S11354C0082269462800274B9847102C09D14046EA
S11354D0254B984737E00134E4B20136202CD2D171
S11354E001E0202C2FD100251D4EEBB29946EC0093
S11354F04444082269462000B0476B461B78FF2BC2
S11355001ED100236A46137053705246120E694628
S11355108A705246120CCA705246120A0A716A46BE
S1135520514651719371D3710822694620000D4B85
S113553098474B46102B06D138000B4B984702E096
S11355400135202DD1D102B01CBC90469946A2460B
S1135550F0BDC04600F9030000FB030000F70300A0
S1135560E1500000C5500000B1500000F0B54F46B6
S113557080B484B004000822002102A8374B984765
S1135580022C02D0032C02D003E0354E02E0354E4B
S113559000E0354E082202A93000344B984702AB94
S11355A01B780024FF2B2FD1751CFF35082202A97C
S11355B028002E4B984702AB1B78FF2B39D00027CD
S11355C02A4B99460197F8004019082202A9C847B6
S11355D002AB1B78FF2B0AD101980138C000401997
S11355E0082202A9214B9847202C22D104E001343F
S11355F0E4B20137202CE5D13000F930FF30082225
S113560002A91A4B984714E0184FE00080190822A9
S113561002A9B84702AB1B78FF2B07D1601EC0005C
S11356208019082202A9114B984702E00134402C4A
S1135630EBD102AB98780006DB781B04184302AB6D
S11356405B79184302AB1B791B021843431C00D13E
S1135650002004B004BC9146F0BDC046DB8A0000C3
S113566000F9030000FB030000F70300E150000011
S1135670F0B557464E464546E0B48224E4058023FF
S1135680636180263605A66180256D05A561FA2033
S11356904000344B984766616561334E0024002511
S11356A03480324F3C80324B1C80324B1C80324B56
S11356B01C80324A324B1A80324B1C80324B1C8085
S11356C0324B1C80324B1C80324B1C80324B1D7081
S11356D0324B1D70324B1D70324B1D70FF22324B0A
S11356E01A700120314B98469847314B9A461860FE
S11356F00220C0472F4B994618600320C0472E4B09
S1135700186053461A682D4B1A604B461A682C4B86
S11357101A602C4B18607A78402313437B702A4B11
S11357201D76327801210A4332703A78012082438F
S1135730013082433A707278114371701C629C8408
S1135740DD759D76214B5D7164221A711C81DC80AC
S11357501D735C815C80653A1A801CBC9046994636
S1135760A246F0BD61670000F80E00208C100020F6
S113577068100020641000205C0F002018F6FFFF62
S1135780CE0E0020F60E0020D40E0020E00E0020E5
S11357906A100020900E0020911000208E1000202E
S11357A066100020940E00208D0E00206D55000020
S11357B0F00E0020C80E0020E40E0020DC0E0020B5
S11357C0D00E0020880E0020980E00204C0F0020E0
S11357D070B52C4B00229A5E2B4B53432B4C226A00
S11357E0DB139B182362206AE1218901284B984727
S11357F00500226A274B43439B182362002811DBD0
S1135800254B1A6880181860244B1B68C31A244A55
S1135810934218D90221234B98471F4B1A681F4BF8
S11358201A6010E0204B1A68101A18601F4B1B688E
S1135830C31A1B4A934206D901211A4B98471A4BA3
S11358401A681A4B1A602B001D3303DB0F4A536886
S1135850ED1855600D4B5B68002B03DD00220B4BEC
S1135860DA600DE0094B5968DA688A18DA600022B8
S11358705A60DA680E4B9A4202DA1A00034BDA6075
S113588070BDC046F60E002020BF0200980E002016
S1135890A5880000C0C7FFFFC80E0020D00E00205E
S11358A0E7030000DD530000F00E0020DC0E0020B2
S11358B050FBFFFF10B5284A138801339BB21380B5
S11358C0264A137801331370254B9847254B1B78D0
S11358D09A0605D524490A780132D2B20A7006E044
S11358E0214A12782D2A02D000211F4A11705A062B
S11358F005D51E490A780132D2B20A7006E01B4A65
S113590012782D2A02D00021184A1170DB0605D521
S1135910174A13780133DBB2137006E0144B1B787B
S11359202D2B02D00022124B1A70124B1B789A06B0
S113593004D511490A8801320A8002E000210E4A86
S11359401180DB0604D50D4A13880133138002E06D
S113595000220A4B1A8010BD1202002016020020F9
S1135960D157000068100020911000208E100020F4
S1135970661000208C100020180200201402002061
S11359801E4B9B7CDBB2612B07D91D490B780C2283
S11359909343042213430B702EE0184B9B7C002B83
S11359A007D117490B780C229343082213430B7039
S11359B022E0134B1B780C221340042B0AD10F4B0B
S11359C09B7CDBB25C2B17D80D4A13780C218B43DC
S11359D0137011E0082B0AD1084B9B7CDBB2052B1A
S11359E00AD9074A13780C218B43137004E0044A44
S11359F013780C218B4313707047C046980E002017
S1135A009010002010B5014B984710BD815900003B
S1135A103A4B1B883A4A93420FD93A4A12883A4978
S1135A200988521A92B239490A80082A09D9384990
S1135A300878012202430A7003E0324A1188324A8C
S1135A401180344A93420FD82E4A12883249098869
S1135A50521A92B22D490A800C2A09D92C490A7883
S1135A60012082430A7003E0264A11882A4A1180E1
S1135A702A4A93420FD9234A128829490988521A7B
S1135A8092B228490A80082A09D9214908780222B1
S1135A9002430A7003E01B4A1188214A1180224AFA
S1135AA093420FD8174A128820490988521A92B291
S1135AB01C490A800C2A09D915490A780220824314
S1135AC00A7003E00F4A1188184A1180184A934259
S1135AD00FD90C4B1B88174A12889B1A9BB2164A83
S1135AE01380082B09D90A4A117804230B43137035
S1135AF003E0044B1A880F4B1A807047CC0E002029
S1135B003F35000012020020400D00200C0D002043
S1135B10D80E0020BB340000200D002066360000A3
S1135B20020D00203C0D0020C2350000080D0020AD
S1135B300A370000600D00203E0D00203A4B1B8800
S1135B403A4A93420FD83A4A12883A490988521A73
S1135B5092B239490A80082A09D9384908780822B2
S1135B6002430A7003E0324A1188324A1180344AEF
S1135B7093420FD92E4A128832490988521A92B296
S1135B802D490A800C2A09D92C490A780820824315
S1135B900A7003E0264A11882A4A11802A4A93424D
S1135BA00FD8234A128829490988521A92B22849DF
S1135BB00A80082A09D921490878102202430A7068
S1135BC003E01B4A1188214A11801D4A93420FD9D0
S1135BD0174A12881F490988521A92B21C490A802E
S1135BE00C2A09D915490A78102082430A7003E067
S1135BF00F4A1188174A1180174A93420FD80C4B49
S1135C001B88164A12889B1A9BB2154A1380082BCC
S1135C1009D90A4A117820230B43137003E0044B7B
S1135C201A880E4B1A807047920E002065260000D9
S1135C3012020020040D0020120D0020D80E0020B6
S1135C40F6280000100D0020D6230000420D00208D
S1135C502A0D0020580D0020FF1F0000440D0020D5
S1135C600E0D002070B5514B00229A56504B1B78F4
S1135C705BB2D318DA0FD3185B105BB20A2B03DCC8
S1135C80002B03DC4B4802E04B4800E04B484C4BF4
S1135C9000255D5F04004300181880000A21494B69
S1135CA09847060085420FDD474B1B88474A1288F8
S1135CB09B1A9BB2464A1380082B09D9454A11788E
S1135CC040230B43137003E03F4B1A883F4B1A8069
S1135CD0A0000019400000190A213A4B9847854258
S1135CE00FDC394B1B883C4A12889B1A9BB2384AFA
S1135CF013800C2B09D9374A137840218B43137036
S1135D0003E0314B1A88344B1A806000001980007C
S1135D1000190A212B4B9847854210DD2A4B1B881A
S1135D202E4A12889B1A9BB22D4A1380082B0AD93B
S1135D30284A1378802149420B43137003E0224B15
S1135D401A88264B1A80B5420FDC1F4B1B88254A44
S1135D5012889B1A9BB2224A13800C2B09D91D4A24
S1135D6013787F210B40137003E0174B1A881D4BE7
S1135D701A802001001B0A21124B984785420FDD2F
S1135D80114B1B88184A12889B1A9BB2174A13801E
S1135D90082B09D90F4A517801230B43537003E0B0
S1135DA0094B1A88104B1A8070BDC0466010002041
S1135DB0D40D00201C07000054150000AA0A00009E
S1135DC0F60E0020A588000012020020FC0C002022
S1135DD0260D0020D80E0020460D0020000D0020C6
S1135DE04E0D0020380D00201A0D00200A0D002051
S1135DF03B4B00229B5E3B4A93420FDA3A4A12889D
S1135E003A490988521A92B239490A800C2A09D9A6
S1135E1038494878022202434A7003E0324A118822
S1135E20324A1180344A93420FDB2F4A1288334995
S1135E300988521A92B22E490A800C2A09D92D498E
S1135E404A78022082434A7003E0274A11882B4A89
S1135E5011802B4A93420FDA234A12882949098870
S1135E60521A92B228490A800C2A09D92149487841
S1135E70042202434A7003E01B4A1188214A11801C
S1135E80224A93420FDB184A128821490988521A80
S1135E9092B21D490A800C2A09D916494A7804206D
S1135EA082434A7003E0104A1188194A1180194A42
S1135EB093420FDA0C4B1B88174A12889B1A9BB229
S1135EC0164A13800C2B09D90A4A517808230B432C
S1135ED0537003E0044B1A880F4B1A807047C04676
S1135EE0F60E002068E6FFFF12020020560D002087
S1135EF05A0D0020D80E00208BE8FFFF180D00205B
S1135F0046E4FFFF220D0020360D002069E6FFFF66
S1135F103A0D002002E0FFFF1C0D0020240D00209C
S1135F20384B1B785BB22D2B0FDD374A128837496B
S1135F300988521A92B236490A800C2A09D935497D
S1135F404878102202434A7003E02F4A11882F4AEE
S1135F501180292B0FDC2C4A12882F490988521AE8
S1135F6092B22B490A800C2A09D92A494A7810206E
S1135F7082434A7003E0244A1188274A1180322B55
S1135F800FDD214A128825490988521A92B2244900
S1135F900A800C2A09D91F494878202202434A70F2
S1135FA003E0194A11881D4A11802C2B0FDC164A74
S1135FB012881C490988521A92B219490A800C2A7B
S1135FC009D914494A78202082434A7003E00E4AD2
S1135FD01188144A1180372B0FDD0B4B1B88124A92
S1135FE012889B1A9BB2114A1380142B09D9094AAF
S1135FF0517840230B43537003E0034B1A880A4B38
S11360001A8070476010002012020020300D00201A
S1136010520D0020D80E00204C0D00204A0D002007
S11360201E0D0020320D00202E0D00202C0D00200E
S11360302A4B1B882A4A13420AD080229200294BF9
S11360409A61264A5378802149420B43537044E0B5
S1136050254A0021525E002A11DD24490B4203D156
S113606023490978C9060AD5802292001D4B9A61FA
S11360701A4A5378802149420B4353702DE0002A79
S11360800EDA1649097809070AD580229200154BC1
S11360909A61124A5378802149420B4353701CE0A1
S11360A05B3211DA134A134203D1114B1B789B065E
S11360B00AD5802292000B4B9A61084A53788021BA
S11360C049420B43537008E080229200054B5A6109
S11360D0024A53787F210B4053707047D80E00203A
S11360E0B66D000080000041F60E00204110000053
S11360F09010002008100000374B00229A562D2AD9
S113610004DC364B1B785BB20A330FDA344B1B8842
S1136110344909885B1A9BB233490B800C2B09D98B
S113612032490878102303430B7003E02C4B198881
S11361302C4B1980272A14DC284B1B785BB20433C0
S11361400FDB274B1B882A4909885B1A9BB2264917
S11361500B800C2B09D925490B78102083430B7035
S113616003E01F4B1988224B19802D2A04DC1B4B9A
S11361701B785BB20A330FDA194B1B881D49098857
S11361805B1A9BB21C490B800C2B09D91749087860
S1136190202303430B7003E0114B1988154B19801E
S11361A0272A14DC0D4B1B785BB204330FDB0C4B3A
S11361B01B88124A12889B1A9BB20F4A13800C2B1D
S11361C009D90A4A137820218B43137003E0044B46
S11361D01A88074B1A80704760100020D40D0020E5
S11361E012020020340D0020280D00209010002001
S11361F0500D0020540D0020140D0020160D002019
S11362000E4B00229B5E142B07DD0D490B780322F5
S11362109343022213430B700EE0143305DA084A49
S1136220117803230B43137006E005490B7803220E
S11362309343012213430B707047C046F60E0020AF
S11362409010002010B5084B9847084B9847084B0E
S11362509847084B9847084B9847084B9847084B72
S11362609847084B984710BD115A00003D5B000049
S1136270655C0000F15D0000215F000031600000FA
S1136280F96000000162000010B5054B98478223B5
S1136290DB0580221205DA6180225205DA6110BD25
S11362A0B558000010B50C4C00220C4920000C4BD2
S11362B0984720680B4B98470B4B1B5C1F221340DD
S11362C01E3A11009940094B1960617E01230B436A
S11362D0637623685A7210BD640D00208962000041
S11362E01D410000F9410000308B000000E100E096
S11362F010B58EB000236A469371D37153709370B6
S1136300137253729372D37213739373537313741C
S113631005930693137708930993138553859385FF
S1136320343300226946CA54303BCB70033B0B70B4
S1136330C023DB008B801F222923CA54084C6A46E1
S113634008492000084B984722681369002BFCD1A8
S1136350116802330B431360044B98470EB010BD11
S1136360640D00200030004235420000A5620000A8
S113637010B5024B9847024B984710BD4562000088
S1136380055A000070B5040080780002E3781843D1
S1136390144D0521A8478003FA218900A847124B10
S11363A0188020790002637918430521A8478003E7
S11363B0FA218900A8470D4B1880A3791B02E079C4
S11363C003431BB2B62058436421A847084B1880E6
S11363D0227A084B1A70627A074B1A70A27A074B1A
S11363E09A7470BDA5880000CC0E0020920E002087
S11363F0F60E002060100020D40D0020980E00201E
S1136400024A517801230B4353707047F80E002061
S113641010B50A0001000248024B984710BDC0465F
S1136420800D0020117D000010B5012202490348AF
S1136430034B984710BDC0468C0D0020800D0020F2
S11364401D7C0000F0B5474680B492B0454C112342
S1136450237000236370A370012269464A708B7015
S11364600A701120404B98472378DA090021002A4A
S113647005D15909C9018222D205944661441F22DB
S113648013401E3A10009840886104AC2270002327
S1136490059323746374A274E27423752332A354A2
S11364A0183A00210AA8314B9847314BA361802345
S11364B05B05A36080235B02E3602E4BA362012390
S11364C05B42E3622C4B23632C4B63632C4D220011
S11364D02C4928002C4B98472A68D369002BFCD1FF
S11364E0116802330B431360284B984703AC002513
S11364F02570A5706570210030201B4B9846984785
S11365000127277021000720C0478226F605802333
S1136510B361277021000A20C0478023DB00B361E8
S1136520277021003120C047803680239B0273618D
S11365306846174B98470D23009301956B461D72CF
S1136540DF7269460D20134B984700220D21124833
S1136550124B984700210D20114B984712B004BCF0
S11365609046F0BD8C0D002035760000DB8A0000DB
S1136570A0860100020010000200120002001300B5
S1136580800D002000080042F57800002964000016
S11365908D720000A17200000164000015710000FA
S11365A04171000010B5002202490348034B98478B
S11365B010BDC0468C0D0020800D00201D7C000005
S11365C082B06B460022DA7107331B78DBB2072BEB
S11365D009D86B46DA1D13780133DBB213701378D4
S11365E0DBB2072BF7D902B07047C04610B50028BC
S11365F00DD00B000138C0B2013009180020054C41
S11366001A785040205C01338B42F9D100E000201D
S113661010BDC046388B0000F0B55F4656464D4667
S11366204446F0B483B0914640001E2738404B00E6
S11366309846130A9B460326254B9A46254D3E3F12
S113664007430197D0476B461B792B7043466B7009
S11366505B46AB704B46EB70290004201E4B9847F9
S11366602871052128001D4B98471D4B1C6A1B6A85
S1136670E403E40FDB030ED41A4B194A01208021F2
S11366804902146A240C0440176A0F4203D1013BE7
S11366909BB2002BF5D16420134B9847012C03D1F6
S11366A0124B984700200BE064200F4B98470F4B88
S11366B098470F4B9847013EF6B2002EC2D10120F5
S11366C003B03CBC90469946A246AB46F0BDC046DA
S11366D0A56500001C020020ED65000011640000A7
S11366E0800000410F270000356700002964000086
S11366F0C165000070B50020084B98470500084CA0
S1136700FA218900A047074B186007492800A047D1
S1136710064B18600522064B1A6070BD7983000091
S1136720918700000800002040420F000400002070
S113673010E000E030B5084B1C68084A00258021B1
S1136740490206E0002C04D05460956013680B42A3
S1136750FCD00138F6D230BD0400002010E000E087
S113676030B5084B1C68084A00258021490206E020
S1136770002C04D05460956013680B42FCD001389F
S1136780F6D230BD0800002010E000E010B582B061
S11367906A46084B12CB12C2009B984205D00023D4
S11367A0019A824203D1013300E00023DBB21800D6
S11367B002B010BD0C8D000010B500230022037040
S11367C043708370C370002103830362C361012497
S11367D00471C0246401C480017242728272C27264
S11367E002732A24025542738273C27303610275D1
S11367F0063C0255C3840385417510BDF0B55F4660
S113680056464D464446F0B49DB005000E001700B0
S11368100800C64B9847040000902E60C44AD16912
S11368208000C44BC3580B43D36133780520DB0786
S113683000D535E22A68138C9BB2002BFBD1337848
S11368401C209B0700D52BE27B782B71002B04D1F5
S1136850B94AD16904330B43D3612B689A463B7818
S113686002AA1370B54B1E5D11003000B44B98475B
S11368703000B44B98473B79984604AEB24B9C46E3
S11368801A000832310049CA49C149CA49C149CA32
S113689049C149CA49C110A9634638330A0043CBE8
S11368A043C243CB43C243CB43C243CB43C2009B0B
S11368B0002B03D010A9012B03D001E004A900E0B0
S11368C00021A300A14A9B58994698450CD84346F9
S11368D09800405803A900234B70CB708B70013390
S11368E00B70C0B29A4B9847FB88984604AE964BFF
S11368F09C461A000832310049CA49C149CA49C1F3
S113690049CA49C149CA49C110A9634638330A0072
S113691043CB43C243CB43C243CB43C243CB43C227
S1136920009A002A03D010AB012A03D001E004AB83
S113693000E00023C84500D9ACE142469000C058AD
S113694003A900234B70CB708B7001330B70C0B262
S11369507F4B98479EE15B46424693403A691A4210
S113696030D004A8784B0833020043CB43C243CB56
S113697043C243CB43C243CB43C210A8724B383308
S1136980020043CB43C243CB43C243CB43C243CBBA
S113699043C2009A002A03D010AB012A03D001E0BD
S11369A004AB00E00023019A4A450BD89100C85873
S11369B003A900234B70CB708B705B460B70C0B285
S11369C0634B984746460136F3B2984601934B45CC
S11369D0C1D97B7B9A01BB7BDB011343DBB25246FB
S11369E013703B7DDB017A781343DBB2524693701C
S11369F0FB78342B00D94BE19B00564AD3589F4671
S1136A000420102102221AE07A7A387A102116E042
S1136A1006201021012212E00820102100220EE09D
S1136A200020302100220AE000202021002206E07C
S1136A3000200021002202E0022010210122120184
S1136A40702313400343524613732A68138C9BB27A
S1136A50002BFBD17B7D17203F2B00D920E1FA7B53
S1136A60D2011343DBB2524653732A68138C9BB290
S1136A70002BFBD1BB78524653702423FA5CD2001E
S1136A803B7B9B001343FA7A1A43BB7A5B001343A4
S1136A900B43524653812A68138C9BB2002BFBD1C3
S1136AA03B8B002B00D191E0102975D002D800292E
S1136AB054D08BE020291AD0302900D086E0FA7A0D
S1136AC0002A0AD0FA6980321720FF2A00D9E7E0A9
S1136AD03A6A8032FF2A00D9E2E01720FA69FF2AD5
S1136AE000DDDDE03A6AFF2A00DDD9E06EE0FA7AE3
S1136AF0002A0FD0FA69802189008C46624417204D
S1136B0015498A4200D9CBE03A6A624412498A4262
S1136B1000D9C5E01720104AF969914200DDBFE0B1
S1136B20396A914200DDBBE050E0C0468D67000049
S1136B3000080040788D000000180040848D00009B
S1136B4055840000E58300000C8D0000888D000052
S1136B5051850000388C0000FF030000FA7A002AF7
S1136B600FD0FA69802109018C46624417205049EC
S1136B708A4200D994E03A6A62444D498A4200D973
S1136B808EE017204A4AF969914200DD88E0396AAB
S1136B90914200DD84E019E0FA7A002A0ED0FA6905
S1136BA0802109028C466244172042498A4200D956
S1136BB076E03A6A62443F498A4271D817203D4AD6
S1136BC0F96991426CDC396A914269DC5246528916
S1136BD01343524653812A68138C9BB2002BFBD17A
S1136BE0BB8B5246D3812A68138C9BB2002BFBD1FA
S1136BF03B8C524613822A68138C9BB2002BFBD128
S1136C003A79FB881343524613812A68138C9BB24A
S1136C10002BFBD12A33FB5C5246D370072313713C
S1136C201D33FB5C002B1BD0FB8C1720204A9342A6
S1136C3036D8524653822A68138C9BB2002BFBD160
S1136C403A8D80231B01D3189BB2172018498B421D
S1136C5026D853469A822A68138C9BB2002BFBD108
S1136C60A200154BD3581549095D1B68CB401B0284
S1136C70E021C9001940124BD358124A125D1B6817
S1136C80D340072213400B4352469385002007E06C
S1136C90172005E000230193984601339B465AE6EA
S1136CA01DB03CBC90469946A246AB46F0BDC046DA
S1136CB0FF0F0000FFFF0000988D0000748D00009E
S1136CC0908D0000808D000003680A4A934206D12B
S1136CD0094A1369802149000B43136108E0074AFC
S1136CE0934205D1044A1369802189000B4313613F
S1136CF07047C046001C00420008004000200042CB
S1136D00F8B50C0015000160A64B9847A64B00226D
S1136D101A702A781A70A54B9C423CD1A2491A20B9
S1136D20A34B98471A20A34B9847A04B996902227A
S1136D300A439A61A04A1204120C8027BF033A4303
S1136D4084215A509D480004000C80267603304369
S1136D50882298509A490904090C394318329950E9
S1136D60984A1204120C3243B0215A50964A120423
S1136D70120C04395A50954A1204120C94490A43CD
S1136D80C0215A50934A1204120C802109030A4369
S1136D90F0215A503FE0904B9C4200D0FCE08249E5
S1136DA01B20834B98471B20824B98478A4B996939
S1136DB002220A439A61894A1204120C802189032F
S1136DC00A4384215A5086490904090C802040034F
S1136DD001438822995083490904090C014318325C
S1136DE09950814A1204120C0243B0215A507F4A2E
S1136DF01204120C04395A507D4A1204120C7449BC
S1136E000A43C0215A507B4A1204120C8021090300
S1136E100A43F0215A500023BC22A3500C32A35041
S1136E20754BE361754BE360AB7B002B04D0E368E7
S1136E30802212041343E3606B78002B03D0A26812
S1136E4040231343A3606369AA7813436361EB7817
S1136E50002B04D0A3698022D2011343A3612B79B0
S1136E60002B04D0A369802292011343A3616B79A0
S1136E70002B04D0A369802252011343A361AB7990
S1136E80002B03D1A26940331343A361EB79002B98
S1136E9003D0A26910231343A3612B7A002B03D0E0
S1136EA0A26908231343A3616B7A1B04F022120323
S1136EB013400122134323622A7B6B7B13436A89A9
S1136EC012041343A362EB7B1B02FE22D201134084
S1136ED019002A7C7F231A400B001343A3646B7CA4
S1136EE01B0130211940AA7C92000C2313400B4350
S1136EF08022A350EB7C002B03D0A15802230B4328
S1136F00A3502B7D002B04D08022A15801230B43D6
S1136F10A3509023AA69E2502B7F002B05D0A02216
S1136F20A358802109060B43A350A02022586B7F4D
S1136F301B06FE21C9050B4013432350AB7F002BD6
S1136F4005D0B022A358802109060B43A350B020DA
S1136F502258EB7F1B06FE21C9050B401343235027
S1136F602023EB5C002B05D0C022A3588021C90547
S1136F700B43A350F02022582123EB5C1B06FC2179
S1136F8089050B40134323500323E365043BE022AC
S1136F90A3500432A35004E0A26902231343A36163
S1136FA039E7F8BDC96C0000900D0020001C0042B8
S1136FB055840000E5830000A4060020A4050020F9
S1136FC0A40A00202402002024090020A407002091
S1136FD000000404640A002000200042240600206B
S1136FE02405002024030020240400202408002079
S1136FF024070020240A0020030A0306330A03009E
S11370000268936901218B439361016801228B69B2
S11370101A42FCD17047C04610B503680948834240
S113702005D109689200084BD150002008E01720D0
S1137030064CA34204D109689200054BD1500020AC
S113704010BDC046001C0042A406002000200042DF
S11370502406002070B50D0003680C4CA34208D12F
S113706012010B498918102228000A4B9847002066
S11370700BE01720084CA34207D1120107498918D5
S113708010222800034B9847002070BD001C0042CA
S1137090A40A0020C98A0000002000422403002022
S11370A010B503681748834213D10B68164C1001BE
S11370B003514A6823185A600B0008330830221819
S11370C0103118781070013301328B42F9D100204D
S11370D017E017200D4CA34213D10B680C4C100180
S11370E003514A6823185A600B000833020008321F
S11370F0A218103118781070013301328B42F9D183
S1137100002010BD001C0042A40700200020004203
S1137110240700201723002A0DD18B00074A9B580F
S1137120002B03D189008850002304E0834201D05E
S11371301D2300E0002318007047C046940D002072
S11371401723002907D100221F2800D8034A01234E
S113715083401361002318007047C0460028004094
S113716070B50022154B1A7000231F25144E134CC2
S11371701F2B19D90FE0002100E012494A619B003E
S11371809B59002B00D0984723780133DBB223703E
S11371900F2BEDD911E02900194001228A4000216A
S11371A049691142E7D1EFE72900194001228A40D9
S11371B0044949691142E0D1E6E770BD910D002010
S11371C0940D002000280040064A117802230B4346
S11371D013700221012053681942FCD153681842EC
S11371E0F9D1704700280040064A137802218B43E6
S11371F01370012053681942FCD153681842F9D125
S11372007047C0460028004000B583B0184A53694F
S11372108021C9000B43536101A900230B70022094
S1137220144B98470220144B9847144A11780123B1
S11372300B4313700221012053681942FCD1536897
S1137240184209D0F8E704C38B42FCD108220C4B46
S11372501A600C4B984709E0084A137810218B43B5
S11372601370094B190040310022ECE703B000BD54
S11372700008004055840000E58300000028004019
S113728000E100E0C9710000940D002000230360B8
S113729043600122027283720132C27243727047E8
S11372A0F0B583B005000C001B4B984701A90023DF
S11372B04B70CB7023790B70237A8B702078174B2B
S11372C0984700201F2D00D8154807212940890020
S11372D0E27AA37A002B01D008231A43EB089B001F
S11372E0C318DE690F278F40BE438A403243DA61F8
S11372F0637A002B05D082690123AB401343836179
S113730006E083690122AA401B041B0C934383619A
S1137310044B984703B0F0BDE971000051850000AB
S113732000280040C971000010B51F4A9169042368
S11373300B4393611D4B2022FF321A831A7D0523D0
S1137340D2072ED503790224002B00D0C478037809
S11373501B02C022920013404278D201FF210A404E
S113736013431900827852001E231A400B00134362
S113737042791204C02189020A401343A40423431E
S11373800A4A536093685B035B0F094908249C40D5
S11373900C8093684B8043780B71138BDB05DB0FF8
S11373A01B01180010BDC046000800400040004109
S11373B0A40C002030B50400264A108853884343A7
S11373C08B420BD280229201234BCB18934205D9D6
S11373D01820224A224BCB18934239D8214A5568A7
S11373E0214B2B408020C002034353602023FF33F2
S11373F01383137DDB0702D45560052028E0452C58
S113740015D8A300194AD3589F46164B1B8BDB058E
S113741003D5144B5D6010201AE089084900114B14
S1137420D96108E0890849000E4BD96103E00D4B8E
S11374305D6017200CE0A52000020443094B1C806A
S1137440190001220B7D1342FCD0064B5D60002025
S113745030BDC046A40C002000C07FFFFF1F000009
S11374600000C0FF00400041FFFFF3FFA08D0000BB
S1137470F8B52B4B1C885B886343834207D21823DF
S1137480284E294D45190127B54201D946E0002768
S11374901723944242D3254B1C7D0523E4073DD595
S11374A0234C224B1C801D0001242B7D2342FCD045
S11374B02024FF341D4B1C834608002A29D0760063
S11374C00023541EA446CD5C634501DBACB203E04B
S11374D0CC18647824022C43348002339BB20236E5
S11374E09A42F0D80E4B19790023002916D13F2A6D
S11374F014D8002F06D0002201001C200D4B984701
S113750003000BE00022010004200A4B984703000B
S113751004E0034B1A790023002AEAD01800F8BDCE
S1137520A40C0020FF1F00000000C0FF0040004129
S113753044A5FFFFB573000070B5194B1C885B8828
S11375406343834205D21823164E174D4519B5429D
S113755023D81723944220D3144B1C7D0523E4071E
S11375601BD52024FF34114B1C834008002A13D060
S113757040000025561E2B181C88A4B22B041B0C9B
S1137580CC54B34202DACB18240A5C700235ABB295
S11375909A42F0D8002300E00023180070BDC046D2
S11375A0A40C0020FF1F00000000C0FF00400041A9
S11375B010B51A4A138852885A43824207D21822B5
S11375C0174C18494118A14226D8012100E0002196
S11375D09B00013B182218421ED1134B1B7D133A0A
S11375E0DB0719D5104B2022FF321A838008400094
S11375F0D861002901D10D4A00E00D4A0A4B1A80D6
S1137600190001220B7D1342FCD0074B1A8B1C235B
S11376101A40501E82419200100010BDA40C00209C
S1137620FF1F00000000C0FF0040004102A5000051
S11376301AA5000000B583B001AB80221A700A7845
S11376405A704A789A708A78DA701900014B984710
S113765003B000BD5185000010B549084023002443
S1137660814201D20AE01C00091A631C9BB28842C1
S1137670F9D94023FF2C01D814800023180010BD31
S113768010B582B004000E4B1B78002B01D00029EA
S11376900DD001A90C7012200A4B984712200A4BF6
S11376A09847074B5C7001221A70002006E0044BD7
S11376B05B78834201D01D2000E0002002B010BDA1
S11376C0AC0C002055840000E5830000444B984234
S11376D033D006D8434B98420DD0434B98421BD02D
S11376E06FE0424B98424AD0414B984258D0414BAC
S11376F0984266D132E0012906D0002963D00229DC
S113770006D0032906D001E03B4867E0002065E08D
S11377103A4863E03A4861E0012906D0002954D090
S1137720022906D0032906D001E0364856E000209D
S113773054E0354852E0354850E0012906D000298C
S113774045D0022906D0032906D001E0304845E09F
S1137750002043E02F4841E02F483FE0012906D0B4
S1137760002936D0022906D0032906D001E02B488F
S113777034E0002032E02A4830E02A482EE0012993
S113778006D0002927D0022906D0032906D001E01B
S1137790254823E0002021E024481FE024481DE080
S11377A0012906D0002918D0022906D0032906D0C1
S11377B001E0204812E0002010E01F480EE01F48BE
S11377C00CE000200AE01E4808E01E4806E01E48BF
S11377D004E01E4802E01E4800E01E487047C04610
S11377E0000C004200040042000800420014004261
S11377F000180042001000420300050003000600C8
S1137800030007000200110002001200020013002E
S113781002000D0002000E0002000F00020017001B
S113782002001800020019000300290003002A00C6
S113783003002B00030023000300200003002100A9
S1137840030004000200100002000C0002001600F5
S1137850030028000300220030B587B00C4B6A46B1
S113786032CB32C232CB32C2009B834206D00123D8
S11378709A0069465258824203D100E00023D8B2EC
S113788003E00133062BF3D1002007B030BDC0461E
S1137890B88E000010B5024B1B680020984710BD3D
S11378A0B00C002010B5024B5B680120984710BD56
S11378B0B00C002010B5024B9B680220984710BD05
S11378C0B00C002010B5024BDB680320984710BDB4
S11378D0B00C002010B5024B1B690420984710BD62
S11378E0B00C002010B5024B5B690520984710BD11
S11378F0B00C0020F0B557464E464546E0B488B07B
S113790080460E001400030019600B689B0700D426
S1137910A7E0936A0393D36A0493136B0593536BA1
S1137920069300271F239946F9B2BB0003AA98586F
S1137930002802D13000AF4B9847431C28D00204E2
S1137940130C9C46000CC1B20025030604D44B0959
S1137950DB018222D2059D184B460B40E8184030CB
S11379600078824680205246D2070AD55B08EB187D
S113797030331878C0B2CB0701D5000901E00F23DA
S11379801840844504D00023424613601C202BE198
S11379900137042FC8D11220974B9847237800272A
S11379A0012B12D102AA0100A069944B984703004D
S11379B01720002B00D017E1337BDBB202AA127828
S11379C005309A4200D00FE10C372578002D14D1F0
S11379D03268E37F1B04A17F0B431C20934200D039
S11379E002E1A169A38B2022A25C002A01D04022DB
S11379F0134308220A43174300E000236268A16886
S1137A000A43E1680A433A43217C0B43617C002921
S1137A1001D080210A43A17C002902D0802189025F
S1137A200B43E17C002902D0802189000B43217D96
S1137A30002902D0802189010B43306802210A43C6
S1137A40824209D172689A4206D143465D71237C11
S1137A50424693710020C7E00023424613601C2075
S1137A60C2E00B680520DB0700D5BDE00800644BCD
S1137A709847052802D0451C133001E0192006253B
S1137A806049CA690123AB401343CB6107A924278A
S1137A90E35D0B70C5B228005B4B984728005B4B35
S1137AA09847E05D00215A4B98472378012B03D176
S1137AB032680B33134333602378002B03D13268CD
S1137AC008331343336043461E6802AB80221A70A6
S1137AD000225A7001219970DA702378002B01D1A9
S1137AE002AB9A70A36A0393E36A0493236B05932E
S1137AF0636B0693002702ADF9B2BB0003AA985842
S1137B00002802D130003B4B9847431C05D0287015
S1137B10000CC0B229003F4B98470137042FEBD12A
S1137B20237842465371237C9371A37CD371237DC4
S1137B30137200226B46DA802378012B15D1434659
S1137B4018682F4B98471330C0B22B4B984701004D
S1137B506B469A1DA069294B984703001720002BF8
S1137B6042D16B4606331B7833732378002B0FD135
S1137B70A769A38B706AE17F0904A57F29430143A8
S1137B8071622022A25C002A04D040210B4301E050
S1137B90002300276268A1680A43E1680A433A4364
S1137BA0217C0B43617C002903D11B498978890717
S1137BB001D580210A43A17C002902D080218902B9
S1137BC00B43E17C002902D0802189000B43217DF5
S1137BD0002902D0802189010B4331680A433260B5
S1137BE0726813437360002008B01CBC9046994629
S1137BF0A246F0BDCD7600007984000059760000DD
S1137C00597800000008004055840000E583000016
S1137C1081760000518500000020004110B54479B0
S1137C201523012C72D1047A0023002C6ED1002A72
S1137C305BD04B78002B46D003681B7EDB0711D446
S1137C400B78D9090022002905D15A09D2018221D1
S1137C50C9058C4662441F210B401E39994091612D
S1137C60052353E00B78DC090022002C05D15A09C6
S1137C70D2018224E405A44662441F2423401E3C0E
S1137C809C40546103681A7ED20701D58A789A62AF
S1137C90C2790023002A39D102680421137E0B42E1
S1137CA0FCD0117E0023490730D5538B5B0701D5E7
S1137CB0042353838379012B02D1936A002325E0A3
S1137CC0936A002322E00B78D9090022002905D108
S1137CD05A09D2018221C9058C4662441F210B40F6
S1137CE01E3999405161002310E00B78D909002214
S1137CF0002905D15A09D2018221C9058C46624462
S1137D001F210B401E39994091610023180010BDBA
S1137D10F0B55F4656464D464446F0B483B09346AC
S1137D201723002A00D1E5E04379002B05D103682D
S1137D301C7EA20701D502241C765D460024012383
S1137D4002229446023290468CE04279002A16D1EF
S1137D500268167E1E4206D16A4E177E1F4202D169
S1137D60013E002EF9D1167E61460E4203D0022355
S1137D7013760233BEE0127E1A4200D1B1E00668E7
S1137D80327E1A42FCD0621C97B25246125D81794F
S1137D90012902D092B23C0005E00234A4B251465B
S1137DA0CF5D3F023A43377E1F4202D0D205D20D47
S1137DB0B2626A1E92B2C679002E57D051464279F9
S1137DC0002A39D1504A0191002D20D00668377E0F
S1137DD01F421CD0671CB9B289460199095D009104
S1137DE08179012903D069460F884C4607E00234A3
S1137DF0A4B24946019F795C0902009F0F43317E7A
S1137E00194202D0FF05FF0DB762013DADB206680D
S1137E10377E41460F4202D1013A002AD4D101995A
S1137E20327E67463A4203D002233376023361E05E
S1137E30327E4646324256D00668327E47463A4241
S1137E40FBD0327E3A4209D0728B3A4200D077831B
S1137E508279012A01D1B26A00E0B26A5A46013A33
S1137E6092B29346013DADB28A4600E01500274A1E
S1137E70954200D069E74379012B06D101680222BB
S1137E800B7E1342FCD0002334E0002B2DD1C179AA
S1137E9000292FD004255B465C46002B1BD129E02A
S1137EA00A7E2A4202D1013B002BF9D10B7E2B42E0
S1137EB01DD00B7E2B4209D04B8B2B4200D04D831F
S1137EC08379012B01D18B6A00E08B6A013CA4B257
S1137ED0002C0ED0FFE701680B7E2B42E6D1094B44
S1137EE0DEE7122306E0122304E0002302E012235B
S1137EF000E00023180003B03CBC90469946A2461B
S1137F00AB46F0BD1027000011270000FFFF000062
S1137F10F0B583B001AC012565700023A370257012
S1137F2021001B20074FB8478226F60580231B0536
S1137F307361257021001C20B84780235B057361A1
S1137F4003B0F0BD357600007047C0460C4B1B688B
S1137F50002B10D1EFF31083002B09D172B6BFF3BD
S1137F605F8F0022074B1A700132074B1A7002E030
S1137F700022054B1A70024A1368013313607047DC
S1137F80C80C00200C000020CC0C0020084B1A6800
S1137F90013A1A601B68002B09D1064B1B78002B91
S1137FA005D00122044B1A70BFF35F8F62B670478D
S1137FB0C80C0020CC0C00200C00002010B50728B1
S1137FC003D880000F4B1B589F46002018E00E4B2F
S1137FD0586815E00D4B597D0907090F01310C480C
S1137FE00C4B98470CE0084B986809E0074B1B7F43
S1137FF000209B0704D5044B186801E08020000290
S113800010BDC046D08E0000D00C002000100040EF
S1138010006CDC0291870000F0B55F4656464D4681
S11380204446F0B483B0304FBB8A9C46457803780D
S11380305A425A41904683789B46C378467A027ADC
S11380400092847A294A41689160C27A92009246E9
S1138050827B52009146524649460A439146427BEE
S113806092464A4651460A436946CA71CA79BA7564
S1138070007BF87501204246920090460422914606
S1138080624649468A439446424661460A439446B8
S11380900340DB0008229046624641468A4313436C
S11380A0594601400901102293430B43009A0240B0
S11380B0920140218B4313430640F60180229343EF
S11380C03343793A15402D02094E33402B43044083
S11380D02003084C1C400443BC8203B03CBC9046C3
S11380E09946A246AB46F0BD00140040D00C0020D7
S11380F0FFF8FFFFFFEFFFFF072803D88000184BAE
S11381001B589F46172029E0164A117D02230B4372
S11381101375002022E0144A916902230B439361F2
S113812000201BE00F4A118A02230B431382002014
S113813014E00D4A918A02230B43938200200DE040
S1138140084A117F02230B43137710002C210222CB
S1138150435C1342FCD1002000E000207047C0467D
S1138160F08E00000010004000140040F0B54F46AF
S11381704646C0B489B00322314B9A60314A5368F1
S11381801E218B43536004A8002303708022120233
S1138190426083700122C27003728372C3720373DC
S11381A043738373033242704372274B984705200D
S11381B0264B984726490122CB681A42FCD0244A10
S11381C0918A80230B439382224B197D80220A4398
S11381D01A7502225A751A009369002BFCD11E4BA2
S11381E0984701AC012666600025657025726572AA
S11381F00523237021000120184B9846984701203D
S1138200174FB84766606570062399462370257238
S1138210657221000820C0470820B847114B1E7121
S1138220666065704B4623702572657221000020DC
S1138230C0470020B84709B00CBC90469946F0BD31
S1138240001800400040004119800000F98000003F
S11382500014004000100040698200008D8200007C
S11382603983000000080040064A516980230B430B
S113827053610122044B1A7019000B781342FCD18C
S11382807047C04600080040001C004070B505005F
S11382900C784B78002B02D08023DB001C434B7AF4
S11382A0002B02D080231B011C434A68012A17D9E2
S11382B0531E1A420FD1022A06D90223002001308C
S11382C05B009A42FBD800E0002080235B011C4342
S11382D00004044304E0120480239B001A43144363
S11382E00B7A002B02D080239B011C430426AE4052
S11382F00D490E4A4B6813401E42FBD10C4B984764
S1138300AD00094B9C466544286A80235B001840F5
S1138310204328626146054A4B6813401E42FBD144
S1138320044B984770BDC046001C0040FC07000089
S11383304D7F00008D7F000010B5040004228240B0
S113834009480A4943680B401A42FBD1084B984735
S1138350A400054B9C466444236A802252001343C4
S11383602362044B984710BD001C0040FC0700002A
S11383704D7F00008D7F0000F8B504000422824088
S11383801248134943680B401A42FBD1114B9847DA
S11383900E4F0834A400E0594007400F0E4B984795
S11383A00600E559ED04ED0FE459240C0B4B9847F6
S11383B0002D07D1012C07D921003000084B984724
S11383C0060001E00134E6403000F8BD001C004026
S11383D0FC0700004D7F0000BD7F00008D7F000082
S11383E09187000010B50400094B9847A000094B81
S11383F09C4660448022815840230B438350802153
S1138400403A43581A42FCD0034B984710BDC0462B
S11384104D7F0000001C00408D7F000010B504005B
S1138420094B9847A000094B9C466044802283581E
S113843040218B4383504031403A43581A42FCD187
S1138440034B984710BDC0464D7F0000001C004000
S11384508D7F000070B504000D00054B98472B7804
S11384600F2213402034A400024AA35070BDC0461A
S11384701D840000001C004010B50400064B984702
S11384802034A400054BE4582407240F044B9847D8
S11384902000044B984710BD4D7F0000001C004095
S11384A08D7F00007983000030B5D378002B1ED176
S11384B01378802B04D01B0680246402234300E03D
S11384C0002354780225AC430AD19478002C03D1BC
S11384D08024A402234302E0C024E4022343416035
S11384E05478013C012C12D8184C23400FE0416011
S11384F00B041B0CA024E405234383620B0CD0243F
S1138500240623438362D378002B18D01CE00C0488
S1138510240CA025ED052C431C4384620C0CD025AF
S11385202D062C431C438462D478002C0CD15B03AD
S113853005D59378012B01D1816100E04161537825
S1138540013B012B00D8816030BDC046FFFFFBFF1B
S113855010B503000A00C1090020002905D15809FB
S1138560C0018221C9058C4660441F210B401E397D
S11385709940014B984710BDA98400007047C0463C
S113858010B5054B9847054B9847054B9847054B45
S11385909847054B984710BD6D810000497F000046
S11385A07D850000097200007D850000FEE7C0465D
S11385B010B51B4B1B4A9A4203D01B4B184A9A42D4
S11385C004D31A4B1A4A9A4210D31EE0194A164B86
S11385D003339B1A9B0801339B0000221048114966
S11385E08C58845004329A42FAD1EAE7124A0F4B6B
S11385F003339B1A9B0801339B0000220C48002183
S11386001418216004329A42FAD10C4AFF210C4B0F
S11386108B4393600B4B98470B4B9847FEE7C04640
S113862000000020308F000010000020B410002053
S113863010000020040000201400002000ED00E0E1
S1138640004000007D8A00004D860000F8B5314BE3
S11386501B78314B9847314B9847314B9847314BF6
S11386609847314B9847314B9847314B9847314B9A
S11386709847314B9847314B9847314B9847822460
S1138680E405250080358027BF02AF6132202D4EDE
S1138690B0476F6101222C4B1A70BFF35F8F62B633
S11386A02A4B98472A4B1B889BB22A4D2B802A4B76
S11386B0984796204000B0470026284B1E70284A51
S11386C0537810218B43537080231B0563618023EF
S11386D05B05A361234B984723490B7803229343FB
S11386E01A00012313430B70204B9847204B214A57
S11386F01380214A1380214B1E801823204A1370B3
S1138700204A13701A33AB741F4D204CA847A0475E
S1138710FCE7C0460030000081850000F5660000DB
S1138720117F0000456400008150000009450000ED
S1138730715300000D460000C94600007547000053
S113874071560000616700000C00002019530000FE
S1138750CE0E0020980E002081450000F40E00206B
S11387608C100020AD4F000090100020F16200003A
S1138770E02E0000CC0E0020920E0020F60E002009
S113878060100020D40D00206D4D000071630000C6
S1138790002243088B4274D303098B425FD3030A3C
S11387A08B4244D3030B8B4228D3030C8B420DD34F
S11387B0FF22090212BA030C8B4202D312120902DD
S11387C065D0030B8B4219D300E0090AC30B8B421B
S11387D001D3CB03C01A5241830B8B4201D38B03C9
S11387E0C01A5241430B8B4201D34B03C01A52416E
S11387F0030B8B4201D30B03C01A5241C30A8B42B1
S113880001D3CB02C01A5241830A8B4201D38B029B
S1138810C01A5241430A8B4201D34B02C01A52413F
S1138820030A8B4201D30B02C01A5241CDD2C309B1
S11388308B4201D3CB01C01A524183098B4201D32D
S11388408B01C01A524143098B4201D34B01C01A18
S1138850524103098B4201D30B01C01A5241C30890
S11388608B4201D3CB00C01A524183088B4201D3FF
S11388708B00C01A524143088B4201D34B00C01AEB
S11388805241411A00D20146524110467047FFE757
S113889001B5002000F0F0F802BDC0460029F7D071
S11388A076E7704703460B437FD4002243088B428C
S11388B074D303098B425FD3030A8B4244D3030B63
S11388C08B4228D3030C8B420DD3FF22090212BA28
S11388D0030C8B4202D31212090265D0030B8B42A4
S11388E019D300E0090AC30B8B4201D3CB03C01A8E
S11388F05241830B8B4201D38B03C01A5241430B69
S11389008B4201D34B03C01A5241030B8B4201D358
S11389100B03C01A5241C30A8B4201D3CB02C01AC3
S11389205241830A8B4201D38B02C01A5241430A3B
S11389308B4201D34B02C01A5241030A8B4201D32A
S11389400B02C01A5241CDD2C3098B4201D3CB01D1
S1138950C01A524183098B4201D38B01C01A524180
S113896043098B4201D34B01C01A524103098B4284
S113897001D30B01C01A5241C3088B4201D3CB006F
S1138980C01A524183088B4201D38B00C01A524152
S113899043088B4201D34B00C01A5241411A00D202
S11389A001465241104670475DE0CA0F00D049426B
S11389B0031000D34042534000229C4603098B42DB
S11389C02DD3030A8B4212D3FC22890112BA030A63
S11389D08B420CD3890192118B4208D389019211E5
S11389E08B4204D389013AD0921100E08909C3096A
S11389F08B4201D3CB01C01A524183098B4201D36C
S1138A008B01C01A524143098B4201D34B01C01A56
S1138A10524103098B4201D30B01C01A5241C308CE
S1138A208B4201D3CB00C01A524183088B4201D33D
S1138A308B00C01A5241D9D243088B4201D34B0058
S1138A40C01A5241411A00D20146634652415B109A
S1138A50104601D34042002B00D54942704763467B
S1138A605B1000D3404201B5002000F005F802BDC0
S1138A700029F8D016E770477047C0460E4B70B512
S1138A8000251E000D4CE41AA410A54204D0AB002E
S1138A90F35898470135F8E700F03AFA084B0025F7
S1138AA01E00084CE41AA410A54204D0AB00F358ED
S1138AB098470135F8E770BD1C8F00001C8F00003B
S1138AC01C8F0000208F0000002310B59A4203D0B1
S1138AD0CC5CC4540133F9E710BD030082189342FF
S1138AE002D019700133FAE77047000000300042E9
S1138AF00034004200380042003C00420040004282
S1138B001E1E1F1F200000000200000000100000B5
S1138B1002000000002000000200000000400000ED
S1138B2002000000008000000200000000000100BC
S1138B30141516171800000000D57FAAFE2B8154C7
S1138B4029FC5683D702A87D52872DF8AC79D30629
S1138B507BAE04D18550FA2FA471DB0E5A8F25F019
S1138B608D58F22773A60CD9F623895C08DD77A209
S1138B70DF0AA07521F45E8B9D48E23763B61CC9F9
S1138B80B461CB1E4A9F35E0CF1AB06531E44E9BE9
S1138B90E633994C18CD67B239EC4693C712B86DD9
S1138BA010C56FBAEE3B91446BBE14C19540EA3FC9
S1138BB042973DE8BC69C316EF3A904511C46EBBB9
S1138BC0C613B96C38ED4792BD68C21743963CE9A9
S1138BD09441EB3E6ABF15C04B9E34E1B560CA1F99
S1138BE062B71DC89C49E33619CC66B3E732984D89
S1138BF030E54F9ACE1BB16472A70DD88C59F32679
S1138C005B8E24F1A570DA0F20F55F8ADE0BA17468
S1138C1009DC76A3F722885DD603A97C28FD578258
S1138C20FF2A805501D47EAB8451FB2E7AAF05D048
S1138C30AD78D20753862CF9306A0000906C00009E
S1138C40906C0000906C0000906C0000906C000030
S1138C50906C0000906C0000906C0000906C000020
S1138C60906C0000906C0000906C0000906C000010
S1138C70906C0000906C0000186A0000906C00007A
S1138C80906C0000906C0000906C0000906C0000F0
S1138C90906C0000906C0000906C0000906C0000E0
S1138CA0906C0000906C0000906C0000906C0000D0
S1138CB0906C0000906C0000286A0000906C00002A
S1138CC0906C0000906C0000906C0000906C0000B0
S1138CD0906C0000906C0000906C0000906C0000A0
S1138CE0906C0000906C0000906C0000906C000090
S1138CF0906C0000906C0000206A0000386A00004C
S1138D00006A0000106A0000086A00000044004283
S1138D100048004202000000030000002800000098
S1138D202900000004000000050000000600000007
S1138D300700000008000000090000000A0000000D
S1138D400B000000200000002100000022000000B1
S1138D502300000028000000290000002400000077
S1138D602500000026000000270000000800000085
S1138D7009000000000600000000020000000400DA
S1138D8003090000212200000B0000000B0000007A
S1138D9020608000206080002060800020608000CF
S1138DA02E7400002E740000247400002E74000041
S1138DB0247400000A7400000A7400002E74000079
S1138DC02E7400002E7400002E7400002E74000017
S1138DD02E7400002E7400002E7400002E74000007
S1138DE02E7400002E7400002E7400002E740000F7
S1138DF02E7400002E7400002E7400002E740000E7
S1138E002E7400002E740000247400002E740000E0
S1138E10247400002E7400002E7400002E740000D0
S1138E202E7400002E7400002E7400002E740000B6
S1138E302E7400002E7400002E7400002E740000A6
S1138E402E7400002E7400002E7400002E74000096
S1138E502E7400002E7400002E7400002E74000086
S1138E602E7400002E7400002E7400002E74000076
S1138E702E7400002E7400002E7400002E74000066
S1138E802E7400002E7400002E7400002E74000056
S1138E902E7400002E7400002E7400002E74000046
S1138EA0247400002474000036740000367400003A
S1138EB036740000367400000004004200080042CA
S1138EC0000C00420010004200140042001800424E
S1138ED0CE7F0000CA7F0000CA7F0000FC7F000034
S1138EE0FC7F0000E67F0000D47F0000EC7F0000E0
S1138EF02481000004810000048100005A810000E4
S1138F0016810000328100000881000040810000C9
S1138F10F8B5C046F8BC08BC9E467047E540000062
S1138F20F8B5C046F8BC08BC9E467047BD4000007A
S1138F300100000008000000401F000001000000C4
S90385B1C6
