:10000000B0230020793A0000753A0000753A0000EC
:1000100000000000000000000000000000000000E0
:10002000000000000000000000000000753A000021
:100030000000000000000000753A0000753A000062
:10004000753A0000753A0000753A0000F51D000091
:10005000753A0000753A0000753A0000753A0000E4
:10006000753A0000A9260000B9260000C926000044
:10007000D9260000E9260000F9260000753A0000A4
:10008000753A0000753A0000753A0000753A0000B4
:10009000753A0000753A0000753A0000753A0000A4
:1000A000753A0000753A0000753A0000753A000094
:1000B000753A0000753A0000753A000010B5064C1C
:1000C0002378002B07D1054B002B02D0044800E019
:1000D00000BF0123237010BD70000020000000004D
:1000E000DC490000084B10B5002B03D00749084835
:1000F00000E000BF07480368002B00D110BD064B8D
:10010000002BFBD09847F9E70000000074000020A6
:10011000DC490000DC49000000000000094B984267
:100120000BD8094A023201231188814206D90133D2
:10013000DBB202328D2BF7D100E00023034AD05608
:100140007047C046983B0000504500006C460000D8
:1001500070B5254C8823E05C00020133E35C18187D
:1001600080B2224DA847224B18708A23E05C00021F
:100170000133E35C181880B2A8471E4B18708C231B
:10018000E05C00020133E35C181880B2A8471A4B08
:1001900018708E23E05C00020133E35C181880B213
:1001A000A847164B18709023E05C00020133E35C13
:1001B000181880B2A847124B18709A23E35C1B02F0
:1001C0009B22A25CD3180F4A13808623E35C1B0298
:1001D0008722A25CD3189BB20B4A13800B4A138070
:1001E0000B4A138070BDC046480200201D0100006C
:1001F0001401002017010020180100201601002022
:10020000150100203A0300209600002094000020F1
:100210008E000020F0B589B04D4B1B78002B16D115
:1002200001224B4B1A704B4A4B49080040301500D5
:100230002035002413889B080B800B8403800384E3
:100240001480023202310230AA42F3D10FE0434B54
:1002500018784001404BC01800233E4D0024591926
:100260000A889208C2520C800233202BF7D13B4BF4
:100270001B780133DBB2032B02D8384A137002E03B
:100280000022364B1A70344800210700314ECA193B
:10029000048C0388E3188D192C881B191400403432
:1002A00024881B19603212889B189BB22B806A46E7
:1002B0008B52023102302029E9D10F2714E051007E
:1002C0006846085A511C4D006C462D5BA84203D964
:1002D00052001553490008530133DBB21A1EB242D3
:1002E000EDDB013F002F05D03E0000220023002F50
:1002F000E5DCF6E76B46063308A900201A8880186B
:1003000002339942FAD10D21154B9847154B1880AD
:100310006B46DA8B144B1A806B46DA88134B1A80C3
:10032000134B00229B5E002B10DA124A1278013226
:10033000D2B2032A02D80F490A7002E000210D4A06
:1003400011700C4A127852000B49535209B0F0BD9B
:100350008C0000208C0300201C0100209300002052
:10036000DD3B00009000002028030020F802002060
:100370003A03002092000020400300202F4B00226F
:100380009A562F4B1B785BB29A4202DD2D4B1A8096
:1003900001E02C4A13802C4B00229A562B4B1B78E1
:1003A0005BB29A420ADD2A49097849B28A4202DDE3
:1003B00028490A800CE02748018009E0244909788F
:1003C00049B28B4202DD23490B8001E021480180C4
:1003D0001C3201DA1C4A13701C3303DA1C4B1A78E6
:1003E0001A4B1A701A4B1B785BB21A001C320ADACD
:1003F000164B1B785BB2164A1370134A127852B22E
:1004000093420DDC17E0104A127852B20F49097876
:1004100049B28A420ADA0E4B1B785BB29A4202DA80
:100420000D4B1A8009E00C4A138006E08B4202DD76
:10043000094B198001E0084A13807047140100201D
:100440001701002068030020180100201601002079
:10045000150100205C0300204402002010B50A4A68
:100460000A491400203413781B025078C3180B80FB
:1004700002320231A242F6D1054B9847054B98470C
:10048000054B984710BDC046AE0200208C030020EB
:10049000150200007D0300001110000070B52E4A07
:1004A0002E491400203413781B025078C3180B8097
:1004B00002320231A242F6D1294C8823E05C0002CC
:1004C0000133E35C181880B2264DA847264B1870FC
:1004D0008A23E05C00020133E35C181880B2A8476D
:1004E000224B18708C23E05C00020133E35C181887
:1004F00080B2A8471E4B18708E23E05C00020133C7
:10050000E35C181880B2A8471A4B18709023E05C7F
:1005100000020133E35C181880B2A847164B18702C
:100520009A23E35C1B029B22A25CD318134A13801C
:100530008623E35C1B028722A25CD3189BB2104A7D
:100540001380104A1380104A1380104B9847104BA9
:100550009847104B984770BDAE0200208C030020D6
:10056000480200201D010000140100201701002096
:100570001801002016010020150100203A03002078
:1005800096000020940000208E000020150200003C
:100590007D0300001110000070B5424A0B21E020DD
:1005A000414CA0470F221121E020A0473F4A1721CC
:1005B000E020A0473E4A1221E020A047F022FF326F
:1005C0001321E020A0473B4A0621E020A047C0229B
:1005D00092000721E020A047374A0421E020A047ED
:1005E000E0256D002A000821E020A0472A0009210B
:1005F000E020A047802212020321E020A0472F4DD7
:100600002A000121E0202E4EB0472B88D2229200F2
:100610001A432C4B1A800121E020A04700220B2115
:10062000E020A0476420284B98472A000321E020BF
:10063000B047002805D1214B00229B5E0130002BE2
:100640002EDA1E4A1121E0201D4B9847002804D1C4
:100650001A4B1B8801301B0722D0184A0121E020C9
:10066000174B9847002806D1144B1A880130D22323
:100670009B001A4214D0D2229200124B1A800F4AC9
:100680000621E0200E4B984703000120002B07D1E4
:100690000A4B18880D4B9C466044431E9841C0B2DB
:1006A00070BDC046B5E30000511A000042240000AE
:1006B000430C00002D2E00003FFE000034030020FC
:1006C0002D1B0000660300209D1D0000D3D1FFFFFD
:1006D00010B50D4A0B21E0200C4CA047F822520126
:1006E0000F21E020A0470A4A0521E020A047094A3F
:1006F0000C21E020A047084A1A21E020A047002250
:100700000B21E020A04710BDB5E30000511A000006
:10071000FF0F0000030700003210000070B5124AFE
:100720000B21E020114CA047114A0A21E020A047EC
:1007300000221521E020A04701221421E020A0473B
:10074000E0256D002A000821E020A0472A000921A9
:10075000E020A047074A1821E020A04700220B21F3
:10076000E020A04770BDC046B5E30000511A00006C
:100770000740000011070000F8B5C824124D134EC1
:10078000134F2A003021E020B0472B88DB0713D518
:1007900001223021E0200F4CA0470F4A0A21E0201F
:1007A000A0470A200A4B9847074C22004A21E02024
:1007B000064B9847208806E00120B847013CE4B288
:1007C000002CDED10020F8BD340300202D1B0000DA
:1007D000C91D0000511A00000140000070B5464BD1
:1007E0005B78DB0700D486E0434B5A7801218A43CB
:1007F0005A701A788A431A70404B98478022D20068
:100800008223DB055A613E4B984703203D4B9847B6
:100810003D4A13780133DBB213703C4B5B785B06C7
:1008200033D53B4A0A21E0203A4DA8473A4B984736
:100830003A4C22003021E020394B984707223021E2
:10084000E020A8476420374B9847238805221340AF
:10085000052B06D151320121E020334B9847334B11
:100860009847C8202F4B98470120264B9847304B7C
:1008700098472A4B1B88DB0725D556220121E0200B
:10088000294B98472B4B98471DE02B4A0A21E02023
:10089000204DA847214C22003021E020204B9847D2
:1008A00007223021E020A84764201E4B9847238868
:1008B00005221340052B06D151320121E0201A4BAD
:1008C00098471E4B98471E4B98471E4B98470F4B17
:1008D0005B785B0605D51C4A1821E0200D4B984734
:1008E00004E01A4A1821E0200A4B9847184B984711
:1008F0000320044B984770BD3C030020511D0000AD
:10090000DD190000C91D0000380300206403002029
:1009100007410000511A00001D07000034030020A9
:100920002D1B00009D1D0000251C00005101000032
:10093000790700005D040000074000009D040000EE
:10094000D106000061180000010700001107000037
:10095000BD18000010B5014B984710BDDD07000021
:1009600070B57C4A537804218B4353707A4A2C31FA
:10097000E0207A4B9847002823D1764C764B198893
:10098000DC239B0019402388754A13400B432380C6
:1009900000225221E030734DA84700225321E0206D
:1009A000A84763789B0700D1CCE06F4A51780823B1
:1009B0000B4353700AE06C4A537808218B43537001
:1009C00004E0644A517804230B435370614B1B8845
:1009D00070221A4200D180E0644B1B78DBB2282BD6
:1009E00025D9634B1B78DBB2052B1DD8604A1378E1
:1009F0000133DBB2137000225C4B1A70A02212028A
:100A00000321E020574CA047DC2292003021E02057
:100A1000A04780252D022A000321E020A0472A00BC
:100A20000321E020A04702E02922504B1A70514BCD
:100A30001B78DBB2502B25D94F4B1B78DBB2052B33
:100A40001DD84D4A13780133DBB213700022494B95
:100A50001A70A02212020321E020424CA047DC229F
:100A600092003021E020A04780252D022A0003219A
:100A7000E020A0472A000321E020A04702E029222D
:100A80003C4B1A703D4B1B78DBB2282B25D93C4BD5
:100A90001B78DBB2052B1DD8394A13780133DBB242
:100AA00013700022354B1A70A02212020321E0209D
:100AB0002C4CA047DC2292003021E020A04780256A
:100AC0002D022A000321E020A0472A000321E02074
:100AD000A04702E02922294B1A701F4A0321E02077
:100AE0001E4B9847002815D11B4B1B889B0405D42F
:100AF000184A53787F210B4053700BE0154A537806
:100B0000802149420B435370802212028331E0203E
:100B1000144B9847104A5521E020104B9847002865
:100B20000AD10C490C4B1B881B079B0F0A8803300A
:100B3000824313430B800BE0064A517804230B4396
:100B4000537005E0084B5B781B0700D533E73DE7A2
:100B500070BDC04664030020340300202D1B00003C
:100B60008FFCFFFF511A00003C0300209B00002077
:100B70009C0000209D000020990000209A00002089
:100B800098000020F0B5284B1888284B1B785A078E
:100B900021D5274B1E8827490022002501270B88D5
:100BA00098420FD21B1A9BB2A42B05D93B0093404D
:100BB0001E43B6B23D0005E0512B03D83B009340E5
:100BC0009E433D0001320231102AE8D1002D29D088
:100BD000174B1E8026E01B0721D4154B1E88154994
:100BE0000022002501270B8898420FD21B1A9BB2C6
:100BF000A42B05D93B0093401E43B6B23D0005E04F
:100C0000512B03D83B0093409E433D0001320231FB
:100C1000102AE8D1002D05D0054B1E8002E00022ED
:100C2000034B1A80F0BDC046F80200208803002064
:100C3000300300208C03002070B5124A0B21E02005
:100C4000114CA047114A1821E020A047104D2A005E
:100C50000821E020A0472A000921E020A047002227
:100C60001421E020A0470B4B1A881521E020A04753
:100C7000094A0A21E020A04700220B21E020A047DA
:100C800070BDC046B5E30000511A00000107000026
:100C9000FFFF00002C0300200741000000B583B0D7
:100CA00000236A461370074A5268D206120F69463B
:100CB0008A70CB700B714B714B706846024B984732
:100CC00003B000BD00400041011F000070B50500E9
:100CD000024C2800A0470528FBD070BD91210000E0
:100CE000F8B506000D001400034F22002900300063
:100CF000B8470528F9D0F8BD49200000F8B506002E
:100D00000D001400034F220029003000B8470528C9
:100D1000F9D0F8BD19210000344A5178344B997448
:100D2000997CC9B21975997CC9B2597511799984A0
:100D3000998C090289B29984988C517901439984DC
:100D40009179D984D98C090289B2D984D88CD17986
:100D50000143D984117A1985198D090289B219853F
:100D6000188D517A01431985D17A224B1980117B54
:100D7000214B19801988090289B219801888517B82
:100D800001431980917B59805988090289B25980A1
:100D90005888D17B01435980102151561971112176
:100DA00051565971917CD980D98849B20902D980AC
:100DB000D98809B2D07C0143D980117D1981198964
:100DC00049B209021981198909B2507D014319817B
:100DD000917D59815989090289B259815889D17DFA
:100DE00001435981127E52B21A7370476C0300207E
:100DF000FC0200205803002048030020F8B52E4BC9
:100E0000B3221A702D490A88120A9A700A88DA7079
:100E10002B4A918C090A1971918C5971D18C090A4C
:100E20009971D18CD971118D090A1972128D5A726A
:100E3000244A1288110A9972DA72234A1188090A1F
:100E40001973118859735188090A99735188D97394
:100E50001179197451795974D188090A9974D18812
:100E6000D9741189090A1975118959755189090AA5
:100E700099755189D975127B52B212121A761A00DD
:100E800019331900002310781B18DBB201328A4293
:100E9000F9D1094C63760D4D28000D4FB8470D4E22
:100EA0003000B8471A22210028000B4DA8471A220B
:100EB00021003000A847F8BD6C0300202A03002061
:100EC000FC020020580300204803002000FE03001D
:100ED000CD0C000000FF0300E10C000010B5104C29
:100EE0001A2221000F48104B98472378B32B13D1B7
:100EF0000B4A10001930002311785B18DBB2013265
:100F00008242F9D1064A527E9A4202D1074B984753
:100F100004E0074B984701E0054B984710BDC046D9
:100F20006C03002000FF0300FD0C0000190D000001
:100F3000FD0D000010B5104C1A2221000F48104B77
:100F400098472378B32B13D10B4A10001930002394
:100F500011785B18DBB201328242F9D1064A527E27
:100F60009A4202D1074B984704E0074B984701E0AB
:100F7000054B984710BDC0466C03002000FE0300DF
:100F8000FD0C0000190D0000DD0E000070B5012AF7
:100F90001BD11A4B0A0A1A54181841701923013B25
:100FA000DBB2002BFBD1164C2000164EB047164D7D
:100FB0002800B047114E1A2231002000134CA047E0
:100FC0001A2231002800A04717E00C4B19541923AE
:100FD000013BDBB2002BFBD1094C2000094EB0478E
:100FE000094D2800B047054E1A2231002000074C59
:100FF000A0471A2231002800A04770BD6C030020D2
:1010000000FE0300CD0C000000FF0300E10C000017
:1010100010B57F4B1B889BB27E4A11888B4210D93A
:101020007D4B1B780133DBB20A2B02D87A4A13704E
:101030000AE00022784B1A7001320C20774B984757
:1010400002E00022744B1A70714B5B889BB2744AA9
:1010500011888B4210D2734B1B780133DBB20A2B01
:1010600002D8704A13700AE000226E4B1A700132E7
:101070000E206A4B984702E000226A4B1A706A4BB6
:101080001988634B1B795BB299420FDA674B1B7867
:101090000133DBB20A2B02D8644A137009E0002244
:1010A000624B1A7010205D4B984702E000225F4BA4
:1010B0001A705F4B1988564B5B795BB299420FDD12
:1010C0005C4B1B780133DBB20A2B02D8594A1370F0
:1010D00009E00022574B1A701120504B984702E04C
:1010E0000022544B1A704A4BDB881BB2524A002133
:1010F000515E8B4213DD002911DA504B1B7801330E
:10110000DBB20A2B02D84D4A13700BE000224B4B86
:101110001A7089B201321220404B984702E0002237
:10112000464B1A703A4B1B891BB2434A0021515E51
:101130008B4213DA002911DD414B1B780133DBB2FE
:101140000A2B02D83E4A13700BE000223C4B1A7067
:1011500089B201321420314B984702E00022384B0B
:101160001A70384B1B882A4A52899BB2934213D972
:10117000354B1B780133DBB20A2B02D8324A13708D
:101180000DE00022304B1A702E4B198889B20132C3
:101190001620224B984702E000222B4B1A702B4B53
:1011A00019881B4B1B7B5BB2994210DD284B1B78C7
:1011B0000133DBB20A2B02D8254A13700AE0002261
:1011C000234B1A7001321820144B984702E000227A
:1011D0001F4B1A701F4B19881F4B1B888B4212D054
:1011E0001E4B1B780133DBB20A2B02D81B4A13704B
:1011F0000CE00022194B1A70174B198001320A209B
:10120000064B984702E00022144B1A7010BDC046EE
:1012100048030020F8020020A90000208D0F0000E4
:1012200028030020A000002044020020A400002089
:101230005C0300209F0000203A0300209E00002055
:10124000A8000020FC020020A1000020680300206C
:10125000A200002058030020A6000020A3000020C8
:1012600070B58224E4058023636180263605A6617B
:1012700080256D05A561FA204000194B98476661ED
:101280006561184800230021174D184A1380184A39
:101290001380184A1380184C184A1480184A138077
:1012A000184A1380184A1380184A138040226A7023
:1012B000174A11760124047000262E7044701362C0
:1012C0009384D1759176134A517164201071138102
:1012D000D380117353815380013B138070BDC0468E
:1012E000C91D00003C030020880300206403002087
:1012F000600300205803002018F6FFFF2A03002097
:101300003A0300202C030020300300206603002055
:10131000FC0200204803002010B5264B1B785B0719
:1013200014D4254B984700280AD1224A1178042367
:101330000B431370214A13787F210B40137005E093
:101340001E4A1378802149420B4313701C4B984767
:101350001A4B1B8884229200134205D019490A783F
:10136000022082430A7004E01649087802220243F0
:101370000A70B0225200134210D0124A1378012191
:101380008B4313700D4A517820230B435370DB07B6
:101390000ED5517810230B43537009E0074A537858
:1013A00020218B435370074A117801230B4313709C
:1013B00010BDC0463C0300209905000064030020D6
:1013C0006109000088030020784B5B78DB075AD462
:1013D000764B1B789B077AD5754B1B88322B13D91C
:1013E000744B1B780133DBB2082B02D8714A13709F
:1013F0006DE000226F4B1A706C494A780123134349
:10140000042213434B7062E000226A4B1A706A4B4D
:1014100000229B5E002B30DD142B25DD674A9342B2
:1014200017DD674B1B780133DBB2042B02D8644A0B
:10143000137011E00023624A1370624A13805B4B01
:10144000197810220A431A70597801220A435A70F7
:1014500002E000225A4B1A7054490A7804231343BD
:10146000F72213400B7032E00022554B1A704F4A9E
:10147000137804218B43137029E04C4A137804211C
:101480008B43137023E0494B1B78DB0610D54D4B83
:101490001B88142B1BD900224A4B1A80434B1A7805
:1014A00010218A431A705A780F398A435A700EE015
:1014B0003F4B1B88272B0AD8434B1B88052B06D98B
:1014C0003A4A537801218B4303318B435370374B96
:1014D0005B789B0748D4354B1B78DB0764D5344BCE
:1014E0001B88412B13D9394B1B780133DBB2082BF6
:1014F00002D8364A137057E00022344B1A702B4939
:101500004A7802231343082213434B704CE0002215
:101510002E4B1A70284B00229B5E002B1EDA2349AB
:101520000A7808231343FB2213400B70284B1B78C7
:101530000133DBB2042B02D8254A137034E00023B8
:10154000234A1370234A1380184B197820220A4328
:101550001A70597802220A435A7025E0134A137808
:1015600008218B4313701FE0104B1B789B0610D58E
:10157000184B1B88142B17D90022164B1A800B4BC3
:101580005A7802218A435A701A781E318A431A7097
:101590000AE0074B1B88362B06D8044A53780221F1
:1015A0008B4306318B4353707047C046880300203D
:1015B0005C030020BC0000203A030020E913000077
:1015C000AE000020B200002044020020B000002045
:1015D000B1000020C000002010B53C4B1A883C4BE5
:1015E0001B88D01A3B49884202DD3B49098803E049
:1015F000394908883949088039498B420DD836491C
:10160000098838480088091A89B2782909D93648E2
:10161000047802212143017003E02F4908883149F1
:10162000088032498A420DD92B4909883048008800
:10163000091A89B2782909D92B4804780221214353
:10164000017003E0244908882949088029498B4210
:1016500002D82149098803E01F49088826490880E3
:1016600026498B420DD81C4B1B88254909885B1ADB
:101670009BB2082B0ED923490878402303430B70F3
:1016800008E0154B19881E4B19801E490B78402025
:1016900083430B701C4B9A420ED90F4B1B88184A80
:1016A00012889B1A9BB2082B0FD9164A13788021F7
:1016B00049420B43137008E0124A13787F210B4014
:1016C0001370054B1A880E4B1A8010BD280300209A
:1016D000F802002066060000AC000020B4000020E4
:1016E00032130000BE000020580300200A3700001B
:1016F000AA0000206F1D0000BA000020652600002F
:10170000B80000203C0300202436000010B5304B08
:101710001B88304A934209D92F4A12889A1AA42A60
:1017200004DD2E494878402202434A702C4A9342F5
:1017300008D9294A12889B1A512B03DD294B1B78A3
:101740001B0704D5254A537840218B435370234B04
:101750005B785B0639D5244A13780133DBB213700A
:101760001378DBB2182B09D8204B98471E4B1B78F7
:10177000DBB2142B2BD91E4B984728E01A4B1B7851
:10178000DBB24A2B08D81B4B1A881B4B13401B4A51
:1017900013801B4B98471AE0134B1B78DBB2502B7E
:1017A00010D9144B1A88174B1340144A1380144B4A
:1017B00098470D4B1B78DBB2822B08D900220A4BCD
:1017C0001A7004E0094B984701E0084B984710BD98
:1017D00028030020EB310000F80200206403002001
:1017E000A230000088030020AF0000201D07000089
:1017F000850B000030030020555500002C0300200D
:10180000390C0000AAAAFFFF124B1B886E2B11D9BE
:10181000114B1B780133DBB2082B02D80E4A137030
:1018200017E009220C4B1A700C4A517820230B4305
:1018300053700EE0542B0CD8074B1B78002B03D0B1
:10184000013B054A137004E0044A537820218B437E
:101850005370704768030020B60000208803002002
:1018600010B5054B9847054B9847054B9847054BD6
:101870009847054B984710BD19130000C913000085
:10188000D91500000D1700000918000010B50A0056
:1018900001000248024B984710BDC0469C01002041
:1018A0001D2C000010B50A00002301000148024C65
:1018B000A04710BD9C010020312A000010B5012274
:1018C00002490348034B984710BDC046A8010020B9
:1018D0009C010020292B0000F0B591B0344C11235D
:1018E000237000236370A370012269464A708B70D5
:1018F0000A7011202F4B98472378DA090021002A1B
:1019000005D15909C9018222D205944661441F229A
:1019100013401E3A10009840886102AC22700023E8
:101920000393049323746374A274E27423752332C3
:10193000A354183A002108A81F4B98471F4BA361D6
:1019400080235B02E3601E4BA36201235B42E362E0
:101950001C4B23631C4B63631C4D22001C49280055
:101960001C4B98472A68D369002BFCD111680233BD
:101970000B431360184B984701AC00232370A370EE
:101980006370210030200B4DA847012727702100EC
:101990000720A8478226F6058023B361277021001F
:1019A0000A20A8478023DB00B36111B0F0BDC04618
:1019B000A801002015220000AB3D0000A086010018
:1019C0000200100002001200020013009C0100201F
:1019D0000008004209270000BD18000010B50022D1
:1019E00002490348034B984710BDC046A801002098
:1019F0009C010020292B000082B06B460022DA7186
:101A000007331B78DBB2072B09D86B46DA1D137836
:101A10000133DBB213701378DBB2072BF7D902B0B6
:101A20007047C04610B500280DD00B000138C0B279
:101A3000013009180020054C1A785040205C013311
:101A40008B42F9D100E0002010BDC046FC460000EA
:101A5000F0B55F4656464D464446F0B483B09146D5
:101A600040001E2738404B009846130A9B46092623
:101A7000254B9A46254D3E3F07430197D0476B467D
:101A80001B792B7043466B705B46AB704B46EB701B
:101A9000290004201E4B98472871052128001D4B62
:101AA00098471D4B1C6A1B6AE403E40FDB030ED44A
:101AB0001A4B194A012080214902146A240C04405F
:101AC000176A0F4203D1013B9BB2002BF5D1642072
:101AD000134B9847012C03D1124B984700200BE081
:101AE00064200F4B98470F4B98470F4B9847013E88
:101AF000F6B2002EC2D1012003B03CBC90469946FC
:101B0000A246AB46F0BDC046DD190000C40000206F
:101B1000251A00008D180000800000410F270000EA
:101B20009D1D0000BD180000F9190000F0B55746D2
:101B30004E464546E0B482B0019240001E27384030
:101B40004B00984609262C4B9A462C4C3D3F0743A8
:101B5000B946D0474B4623704346637021000220AC
:101B6000274B9847A07003212000264B9847264B0F
:101B70001A6A1B6AD203D50FDB030FD4234B224909
:101B80000127802040020A6A120C3A4015000A6AB6
:101B9000024203D1013B9BB2002BF4D164201C4BC9
:101BA0009847012D18D11B4C032120001A4B984750
:101BB0001A4B984721000220114B98470300A27846
:101BC00002209A4211D1134A13781B025278D3187B
:101BD000019A1380002008E0104B9847104B98475B
:101BE000013EF6B2002EB4D1012002B01CBC9046DA
:101BF0009946A246F0BDC046DD190000C400002091
:101C0000251A00008D180000800000410F270000F9
:101C10009D1D0000CC000020A5180000BD1800008C
:101C2000F9190000F8B55F4656464D464446F0B4F3
:101C3000914640001E2630404B009B460925364BFE
:101C40009846364C3D3E0643B246C0475346237045
:101C500001235A46134363707F234A461340A370FF
:101C6000210003202E4B9847E070042120002D4BCB
:101C700098472D4B1A6A1B6AD203D60FDB030FD489
:101C80002A4B29490127802040020A6A120C3A4057
:101C900016000A6A024203D1013B9BB2002BF4D129
:101CA0006420234B9847012E29D1AD212148224B96
:101CB0009847224B9847224B9847224B5B793B2B06
:101CC00009D10022204B1A70204A117801230B43BE
:101CD000137000201AE01C4B1B780133DBB2082B79
:101CE00003D0194A1370002010E00022164B1A701E
:101CF000164A137801218B431370002006E00F4B26
:101D00009847013DEDB2002D9FD101203CBC90468B
:101D10009946A246AB46F8BDDD190000C40000207C
:101D2000251A00008D180000800000410F270000D8
:101D30009D1D0000CC000020A5180000BD1800006B
:101D4000F919000048020020C90000203C030020CF
:101D500010B5014B984710BDDD33000070B5002071
:101D6000084B98470500084CFA218900A047074B0B
:101D7000186007492800A047064B18600522064B4B
:101D80001A6070BD41380000DD3B000004000020F7
:101D900040420F000000002010E000E030B5084B8A
:101DA0001C68084A00258021490206E0002C04D066
:101DB0005460956013680B42FCD00138F6D230BDF8
:101DC0000000002010E000E030B5084B1C68084A15
:101DD00000258021490206E0002C04D05460956063
:101DE00013680B42FCD00138F6D230BD040000204D
:101DF00010E000E070B50022154B1A7000231F257B
:101E0000144E134C1F2B19D90FE0002100E012498A
:101E10004A619B009B59002B00D0984723780133DF
:101E2000DBB223700F2BEDD911E0290019400122FC
:101E30008A40002149691142E7D1EFE729001940A2
:101E400001228A40044949691142E0D1E6E770BDA8
:101E5000AB010020AC01002000280040064A1178A8
:101E600002230B4313700221012053681942FCD155
:101E700053681842F9D170470028004000B583B07C
:101E8000184A53698021C9000B43536101A90023FB
:101E90000B700220144B98470220144B9847144AA9
:101EA000117801230B43137002210120536819425A
:101EB000FCD15368184209D0F8E704C38B42FCD127
:101EC00008220C4B1A600C4B984709E0084A13781B
:101ED00010218B431370094B190040310022ECE7AD
:101EE00003B000BD000800401D390000AD380000FF
:101EF0000028004000E100E05D1E0000AC01002071
:101F000010B51F4A916904230B4393611D4B202296
:101F1000FF321A831A7D0523D2072ED503790224B6
:101F2000002B00D0C47803781B02C022920013401B
:101F30004278D201FF210A401343190082785200EF
:101F40001E231A400B00134342791204C021890258
:101F50000A401343A40423430A4A536093685B0373
:101F60005B0F094908249C400C8093684B804378A0
:101F70000B71138BDB05DB0F1B01180010BDC04676
:101F80000008004000400041D000002030B50400AF
:101F9000264A1088538843438B420BD280229201F9
:101FA000234BCB18934205D91820224A224BCB1839
:101FB000934239D8214A5568214B2B408020C002DA
:101FC000034353602023FF331383137DDB0702D4C5
:101FD0005560052028E0452C15D8A300194AD35890
:101FE0009F46164B1B8BDB0503D5144B5D60102001
:101FF0001AE089084900114BD96108E089084900B5
:102000000E4BD96103E00D4B5D6017200CE0A5205D
:1020100000020443094B1C80190001220B7D13426E
:10202000FCD0064B5D60002030BDC046D0000020D3
:1020300000C07FFFFF1F00000000C0FF0040004104
:10204000FFFFF3FFFC470000F8B52D4B1C885B88B1
:102050006343834207D218252A4E2B4BC31801270E
:10206000B34201D94AE00027631E1825184245D122
:10207000013D944242D3254B1B7D123DDB073DD5EC
:10208000234C224B1C801D0001242B7D2342FCD0BD
:102090002024FF341D4B1C834608002A29D07600DB
:1020A0000023541EA446CD5C634501DBACB203E0C3
:1020B000CC18647824022C43348002339BB202365D
:1020C0009A42F0D80E4B1B790025002B16D13F2ADF
:1020D00014D8002F06D0002201001C200D4B984779
:1020E00005000BE00022010004200A4B9847050080
:1020F00004E0034B1B790025002BEAD02800F8BD33
:10210000D0000020FF1F00000000C0FF0040004181
:1021100044A5FFFF8D1F000070B5194B1C885B881C
:102120006343834205D21823164E174D4519B54215
:1021300023D81723944220D3144B1C7D0523E40796
:102140001BD52024FF34114B1C834008002A13D0D8
:1021500040000025561E2B181C88A4B22B041B0C13
:10216000CC54B34202DACB18240A5C700235ABB20D
:102170009A42F0D8002300E00023180070BDC0464A
:10218000D0000020FF1F00000000C0FF0040004101
:1021900010B51A4A138852885A43824207D218222D
:1021A000174C18494118A14226D8012100E000210E
:1021B0009B00013B182218421ED1134B1B7D133A82
:1021C000DB0719D5104B2022FF321A83800840000C
:1021D000D861002901D10D4A00E00D4A0A4B1A804E
:1021E000190001220B7D1342FCD0074B1A8B1C23D4
:1021F0001A40501E82419200100010BDD0000020F5
:10220000FF1F00000000C0FF0040004102A50000C9
:102210001AA5000000B583B001AB80221A700A78BD
:102220005A704A789A708A78DA701900014B984788
:1022300003B000BD193A000010B54908402300243E
:10224000814201D20AE01C00091A631C9BB2884239
:10225000F9D94023FF2C01D814800023180010BDA9
:10226000F0B55F4656464D464446F0B489B00C0082
:10227000059212AA117802004A434025A24200D9D1
:10228000C6E0002B51D1020008000021644DA84790
:102290008346260000270023002400930194002297
:1022A00000233F2020218C461F39029603972024CB
:1022B0006442041903D40D00A540A84604E0644616
:1022C000241A0D00E540A8460C008440A1461400E5
:1022D0001D00A4185D4122002B0046465F463E4289
:1022E00003D00E00264332002B00029C039D9D422A
:1022F0000FD801D194420CD8029C039D121BAB4114
:102300004D46009E019F35433C00464634430095B0
:1023100001940138CBD20022012300980199121AAE
:102320008B41120C1B041A436FE00022012B6CD16D
:10233000630F0493E30098460A0000230021384C01
:10234000A04704000D0000239C46069320339B46C3
:1023500001266346079300230293002200233F21B6
:10236000009401950F0020214942791803D43000D0
:102370008840844604E05946C91B3000C840844662
:102380003100B940894610001900801859410200F7
:102390000B0044464D462C40A2466446049D2C400A
:1023A000A446544665462C4303D03400044322001F
:1023B0000B000098019999420AD801D1904207D8A0
:1023C00000980199121A8B410299484601430291E3
:1023D000013FC8D2009C019D0299079A8B1ADB0825
:1023E00010498B420BD9069B0133DBB219000693CF
:1023F0001300013307930829ADD1402508E040259B
:10240000069A082A04D052031A43059B1A80002515
:10241000280009B03CBC90469946A246AB46F0BDA8
:10242000F53C0000FF1F000010B582B004000E4B09
:102430001B78002B01D000290DD001A90C701220AF
:102440000A4B984712200A4B9847074B5C700122B1
:102450001A70002006E0044B5B78834201D01D20F7
:1024600000E0002002B010BDD80000201D3900009F
:10247000AD380000444B984233D006D8434B9842C5
:102480000DD0434B98421BD06FE0424B98424AD04C
:10249000414B984258D0414B984266D132E00129D5
:1024A00006D0002963D0022906D0032906D001E016
:1024B0003B4867E0002065E03A4863E03A4861E065
:1024C000012906D0002954D0022906D0032906D0BC
:1024D00001E0364856E0002054E0354852E03548E7
:1024E00050E0012906D0002945D0022906D0032951
:1024F00006D001E0304845E0002043E02F4841E0AD
:102500002F483FE0012906D0002936D0022906D005
:10251000032906D001E02B4834E0002032E02A48AD
:1025200030E02A482EE0012906D0002927D00229D0
:1025300006D0032906D001E0254823E0002021E051
:1025400024481FE024481DE0012906D0002918D0A6
:10255000022906D0032906D001E0204812E000201D
:1025600010E01F480EE01F480CE000200AE01E4863
:1025700008E01E4806E01E4804E01E4802E01E482F
:1025800000E01E487047C046000C004200040042B4
:1025900000080042001400420018004200100042EF
:1025A00003000500030006000300070002001100FD
:1025B000020012000200130002000D0002000E00D3
:1025C00002000F00020017000200180002001900AC
:1025D0000300290003002A0003002B00030023004E
:1025E000030020000300210003000400020010008B
:1025F00002000C0002001600030028000300220065
:1026000030B587B00C4B6A4632CB32C232CB32C2C5
:10261000009B834206D001239A00694652588242A9
:1026200003D100E00023D8B203E00133062BF3D13D
:10263000002007B030BDC046144900007047C046B6
:10264000F0B50A4B1B78002B0CD1094F094E0A4DEF
:102650000024DE515A1914600433182BF9D10122D9
:10266000024B1A708000024BC150F0BDDA0000200E
:10267000DC0000203D260000EC01002010B582B0F7
:102680000400062205496846054B98472000054B83
:1026900098476B46185602B010BDC0462C49000042
:1026A000993D00000126000010B5024B1B68002078
:1026B000984710BDDC00002010B5024B5B6801207C
:1026C000984710BDDC00002010B5024B9B6802202B
:1026D000984710BDDC00002010B5024BDB680320DA
:1026E000984710BDDC00002010B5024B1B69042088
:1026F000984710BDDC00002010B5024B5B69052037
:10270000984710BDDC000020F0B557464E464546C0
:10271000E0B488B080460E001400030019600B6816
:102720009B0700D4A7E0936A0393D36A0493136BC7
:102730000593536B069300271F239946F9B2BB00FC
:1027400003AA9858002802D13000AF4B9847431C89
:1027500028D00204130C9C46000CC1B200250306CD
:1027600004D44B09DB018222D2059D184B460B4055
:10277000E81840300078824680205246D2070AD5B9
:102780005B08EB1830331878C0B2CB0701D50009CD
:1027900001E00F231840844504D000234246136013
:1027A0001C202BE10137042FC8D11220974B9847EA
:1027B00023780027012B12D102AA0100A069944BB3
:1027C000984703001720002B00D017E1337BDBB2C2
:1027D00002AA127805309A4200D00FE10C37257812
:1027E000002D14D13268E37F1B04A17F0B431C2012
:1027F000934200D002E1A169A38B2022A25C002AAF
:1028000001D04022134308220A43174300E000236B
:102810006268A1680A43E1680A433A43217C0B439A
:10282000617C002901D080210A43A17C002902D0CB
:10283000802189020B43E17C002902D0802189009C
:102840000B43217D002902D0802189010B43306890
:1028500002210A43824209D172689A4206D1434654
:102860005D71237C424693710020C7E000234246FD
:1028700013601C20C2E00B680520DB0700D5BDE01B
:102880000800644B9847052802D0451C133001E02E
:10289000192006256049CA690123AB401343CB6167
:1028A00007A92427E35D0B70C5B228005B4B98474E
:1028B00028005B4B9847E05D00215A4B98472378EE
:1028C000012B03D132680B33134333602378002B81
:1028D00003D1326808331343336043461E6802ABAA
:1028E00080221A7000225A7001219970DA702378C0
:1028F000002B01D102AB9A70A36A0393E36A04939D
:10290000236B0593636B0693002702ADF9B2BB00FE
:1029100003AA9858002802D130003B4B9847431C2B
:1029200005D02870000CC0B229003F4B98470137F2
:10293000042FEBD1237842465371237C9371A37CFF
:10294000D371237D137200226B46DA802378012B2A
:1029500015D1434618682F4B98471330C0B22B4B04
:10296000984701006B469A1DA069294B98470300C0
:102970001720002B42D16B4606331B783373237824
:10298000002B0FD1A769A38B706AE17F0904A57F93
:102990002943014371622022A25C002A04D0402115
:1029A0000B4301E0002300276268A1680A43E16845
:1029B0000A433A43217C0B43617C002903D11B4924
:1029C0008978890701D580210A43A17C002902D09A
:1029D000802189020B43E17C002902D080218900FB
:1029E0000B43217D002902D0802189010B433168EE
:1029F0000A433260726813437360002008B01CBC45
:102A000090469946A246F0BD752400004139000069
:102A10003922000001260000000800401D39000096
:102A2000AD38000029240000193A000000200041C0
:102A3000F0B55F464E464546E0B489461724002A65
:102A40006AD0C1790534002966D04179002905D1C1
:102A500001680C7EA40701D502240C76002604250B
:102A600002218C460139DB05DB0D98464479012CA7
:102A700008D103681C7E0C42FCD01C7E0C421AD08C
:102A800044469C624479002C15D103681C7E2C427C
:102A900006D1244C1F7E2F4202D1013C002CF9D1DB
:102AA0001C7E67463C4203D002221A76042433E09F
:102AB0001C7E2C422DD003681C7E2C42FCD01C7E38
:102AC0002C4228D05C8BA34600245F462F4201D0C5
:102AD0005D831E348779012F03D19B6ADB05DB0DF3
:102AE00001E09B6ADBB2002C16D1741CA4B24F46E5
:102AF000BB558779012F05D10236B6B21B0A4F4666
:102B00003B5500E02600013A92B2002AAED10024E3
:102B100002E0122400E0102420001CBC90469946DC
:102B2000A346F0BD1027000010B544791523012CF1
:102B300072D1047A0023002C6ED1002A5BD04B782E
:102B4000002B46D003681B7EDB0711D40B78D90914
:102B50000022002905D15A09D2018221C9058C46DB
:102B600062441F210B401E3999409161052353E0B7
:102B70000B78DC090022002C05D15A09D2018224ED
:102B8000E405A44662441F2423401E3C9C4054613B
:102B900003681A7ED20701D58A789A62C279002327
:102BA000002A39D102680421137E0B42FCD0117E29
:102BB0000023490730D5538B5B0701D5042353838A
:102BC0008379012B02D1936A002325E0936A0023C5
:102BD00022E00B78D9090022002905D15A09D20137
:102BE0008221C9058C4662441F210B401E39994041
:102BF0005161002310E00B78D9090022002905D18A
:102C00005A09D2018221C9058C4662441F210B401A
:102C10001E39994091610023180010BDF0B55F4640
:102C200056464D464446F0B483B093461723002AD7
:102C300000D1E5E04379002B05D103681C7EA20793
:102C400001D502241C765D4600240123022294460D
:102C5000023290468CE04279002A16D10268167E34
:102C60001E4206D16A4E177E1F4202D1013E002E3F
:102C7000F9D1167E61460E4203D002231376023349
:102C8000BEE0127E1A4200D1B1E00668327E1A42DE
:102C9000FCD0621C97B25246125D8179012902D0A4
:102CA00092B23C0005E00234A4B25146CF5D3F022F
:102CB0003A43377E1F4202D0D205D20DB2626A1E5D
:102CC00092B2C679002E57D051464279002A39D1A6
:102CD000504A0191002D20D00668377E1F421CD03B
:102CE000671CB9B289460199095D00918179012972
:102CF00003D069460F884C4607E00234A4B2494627
:102D0000019F795C0902009F0F43317E194202D076
:102D1000FF05FF0DB762013DADB20668377E414643
:102D20000F4202D1013A002AD4D10199327E67467E
:102D30003A4203D002233376023361E0327E4646C4
:102D4000324256D00668327E47463A42FBD0327E47
:102D50003A4209D0728B3A4200D077838279012AB5
:102D600001D1B26A00E0B26A5A46013A92B2934681
:102D7000013DADB28A4600E01500274A954200D0D9
:102D800069E74379012B06D1016802220B7E1342C9
:102D9000FCD0002334E0002B2DD1C17900292FD0A5
:102DA00004255B465C46002B1BD129E00A7E2A42A3
:102DB00002D1013B002BF9D10B7E2B421DD00B7EA3
:102DC0002B4209D04B8B2B4200D04D838379012BB2
:102DD00001D18B6A00E08B6A013CA4B2002C0ED0BA
:102DE000FFE701680B7E2B42E6D1094BDEE7122399
:102DF00006E0122304E0002302E0122300E0002397
:102E0000180003B03CBC90469946A246AB46F0BDC4
:102E10001027000011270000FFFF0000F0B55F46FB
:102E200056464D464446F0B491B005000C001600DD
:102E300029600800CF4B9847052802D007001337B8
:102E400000E0192722680523D20700D58AE122680D
:102E50001733920700D585E1C749CA6901301B3B8A
:102E600083401343CB610FA935239846F35C0B7065
:102E7000FFB23800C14B98473800C14B98474346D2
:102E8000F05C0021BF4B9847F37A6B712C23F35C05
:102E9000AB712D23F35CEB71F37E2B722423F35C77
:102EA0006B722B6802931800B24B984713300022C4
:102EB0000E2306A98C4663441A80338A99468023E0
:102EC000DB01994519D004D880239B0199450AD08C
:102ED00029E1C023DB0199450AD080231B029945D3
:102EE00000D125E11FE1102306930F3B079323E157
:102EF00008230693073B07931EE133680593F368A5
:102F00009B4673690393337E04932E23F35C9846A8
:102F100073689A46002B15D080235B059A4536D1FD
:102F20002F23F35C002B36D1B36A1F00C0B2964B3F
:102F3000984701000E2206AB9C4662443800934B32
:102F4000984725E008230693002307932F23F35C7B
:102F5000002B0BD0069B0093079B0E2206A98C46E4
:102F60006244316BB06A8A4FB84711E0B36A1F0000
:102F7000C0B2854B98470100069B0093079B0E2229
:102F800006A8844662443800814FB84700E000201C
:102F9000031E00D0E6E0737E002B02D0B37E029ABF
:102FA00093732A68029FD369002BFCD102970E33DA
:102FB00006A98C4663441B88BB81059B5A46134374
:102FC000039A1343524613434A461343049A10028A
:102FD00003434246500718432F23F35C002B01D1D3
:102FE00004331843717E89022423F35C5B02194386
:102FF0002623F35C1B0219432C23F35C5B04194367
:103000002D23F25C12041143F37A19433389FF2B09
:1030100004D0802252041043194305E0F37E002BB4
:1030200002D08023DB041843029FBB6807221340B1
:10303000328C1343728C1343BB60F269002A02D0B6
:10304000544B184010433423F35C002B03D1524BF4
:103050009B789B0701D5802318432A68029FD36978
:10306000002BFCD179602A68D369002BFCD1386031
:103070003A68F0231B051340E022D20493423FD06C
:10308000BB6807229343BB60BA682523F35C072122
:103090000B401343BB6033E0F9B2BB000AAA985857
:1030A000002802D120003D4B9847431C05D03070CA
:1030B000000CC0B231003A4B98470137042FEBD1D6
:1030C0000023EB602B616B61AB61EB612B62AB6248
:1030D0006B620022EB85AB853033EA540133EA544E
:1030E0000133EA540133EA542868224B984704001C
:1030F0002C492D4B9847A4002C4BE550002331E080
:103100000EAB80221A7000225A70DA709A70B36B7C
:103110000A93F36B0B93336C0C93736C02930D93C4
:1031200000270EAEB8E7102306930023079303E0B1
:10313000032306930023079333680593F3689B46A4
:1031400073690393337E04932E23F35C984673686C
:103150009A46002B00D1F9E680235B059A4500D101
:10316000DEE618E7180011B03CBC90469946A2462E
:10317000AB46F0BD01260000000800401D390000EC
:10318000AD38000029240000413900003922000038
:1031900061220000FFFFFFF00020004175240000C5
:1031A000193A00004D32000041260000EC010020D9
:1031B000C2791C23002A0ED0C28D92B2173B002A7E
:1031C00009D10368DA69002AFCD1198502211A7E27
:1031D0000A42FCD0002318007047C04682791C23A5
:1031E000002A30D0828D92B2173B002A2BD1026880
:1031F000107E400727D5D369002BFCD1538BDBB25F
:1032000058061DD0980703D50223538318331AE0BC
:10321000580703D5042353831A3314E0D80703D582
:103220000123538312330EE0D80603D510235383B2
:10323000323308E09B0603D520235383213302E079
:10324000138D0B80002318007047C046F8B580002E
:10325000614BC5582C68E369002BFCD1237EA67D09
:103260001E403023EB5C3122AF5C1F40F30722D5B8
:10327000EB8D9BB2002B1CD0AA6A1378DBB2511CD9
:10328000A9626979012901D09BB204E05178090251
:103290000B430232AA62DB05DB0D2385EB8D013B7C
:1032A0009BB2EB85002B06D1013323750133A37547
:1032B00001E001232375B30709D5022323750022FA
:1032C0003133EA54FB0702D52800EB6898477307AF
:1032D00063D5AB8D9BB2002B5DD0638BDBB21A073D
:1032E00002D47F22134001E0772213405A0601D511
:1032F00040229343002B2CD09A0705D51A22322363
:10330000EA54303B63831EE05A0705D51E22322360
:10331000EA542E3B638316E0DA0705D513223223E5
:10332000EA54313B63830EE0DA0605D542223223AC
:10333000EA54223B638306E09B0604D541223223F4
:10334000EA54123B63837B0727D528006B699847B3
:1033500023E0238DDB05DB0DDAB2696A0A706A6A45
:10336000511C69626979012904D11B0A53706B6A87
:1033700001336B62AB8D013B9BB2AB85002B0CD153
:103380000433237500222E33EA54BB0705D52800E9
:103390002B69984701E004232375F30607D5102312
:1033A00023752376FB0602D52800EB699847B30600
:1033B00007D52023237523763B0702D52800AB6968
:1033C0009847330707D5082323752376BB0602D514
:1033D0002B6A28009847F8BDEC010020A522034B7A
:1033E0001A731A009368002BFCD17047002000402C
:1033F000F0B5474680B40C00904600280DD1002A55
:103400000EDD8F18084E094D306821002B68984753
:103410000134A742F8D1404603E00120404200E0D9
:10342000002004BC9046F0BD0C02002004020020E5
:10343000F0B5474680B40E0015000138022811D8B7
:10344000002A12D000240C4B98460C4F43461868B3
:10345000315D3B689847002809DB0134A542F5D16E
:10346000200006E00120404203E0002001E00120AE
:10347000404204BC9046F0BD0C020020080200202F
:10348000F0B583B001AC012565700023A3702570F1
:1034900021001B20074FB8478226F60580231B0515
:1034A0007361257021001C20B84780235B05736180
:1034B00003B0F0BD1522000070B582B005000E000B
:1034C00000226B46DA80064C6B46991D2800A04707
:1034D0000028F9D16B4606331B88337002B070BDEB
:1034E000DD31000070B505008CB2034E21002800CC
:1034F000B0470028FAD170BDB1310000F0B593B0EB
:103500008023DB05009300230193FF2269460A8193
:103510008B72CB7201242C228C5401328C540132D8
:103520008B5401328B540C9305328B5401328B54E3
:10353000059300220B82CA7607930B844B840A768C
:103540002423CA544A7613238B761333CA54013B7F
:10355000CA54E1235B020A9380235B030393194B54
:103560000E93194B0F9301235B4210931193174D48
:10357000174B1D60174A184B1A60184A184B1A60EF
:103580006A4618492800184B9847184F3B689868B6
:103590000021174EB0473B6858680021B0472E689D
:1035A0003000144B98471F2318408440124B1C6076
:1035B0002A68D369002BFCD132680233134333608D
:1035C00013B0F0BD02001600020017001002002028
:1035D0000C020020E534000008020020B93400008D
:1035E00004020020001000421D2E00006C0000208C
:1035F000BB3D00007D26000000E100E07047C046B2
:103600000C4B1B68002B10D1EFF31083002B09D15A
:1036100072B6BFF35F8F0022074B1A700132074B5F
:103620001A7002E00022054B1A70024A1368013337
:1036300013607047F400002008000020F80000200C
:10364000084B1A68013A1A601B68002B09D1064B17
:103650001B78002B05D00122044B1A70BFF35F8F3B
:1036600062B67047F4000020F80000200800002037
:1036700010B5072803D880000F4B1B589F46002029
:1036800018E00E4B586815E00D4B597D0907090FDE
:1036900001310C480C4B98470CE0084B986809E046
:1036A000074B1B7F00209B0704D5044B186801E0E3
:1036B0008020000210BDC04634490000FC000020FC
:1036C00000100040006CDC02DD3B000000B585B05E
:1036D0000322104B9A60104A53681E218B4353609B
:1036E0000E4A117D80230B4313750D4B9847012320
:1036F0000C4A137101A94B6000234B7006220A701B
:103700000B724B720020084B98470020074B9847DC
:1037100005B000BD0018004000400041001000400E
:103720003137000000080040553700000138000024
:10373000064A516980230B4353610122044B1A70DE
:1037400019000B781342FCD17047C04600080040B6
:10375000001C004070B505000C784B78002B02D09F
:103760008023DB001C434B7A002B02D080231B01FB
:103770001C434A68012A17D9531E1A420FD1022A44
:1037800006D90223002001305B009A42FBD800E0FA
:10379000002080235B011C430004044304E0120466
:1037A00080239B001A4314430B7A002B02D0802302
:1037B0009B011C430426AE400D490E4A4B68134042
:1037C0001E42FBD10C4B9847AD00094B9C4665440B
:1037D000286A80235B001840204328626146054A1E
:1037E0004B6813401E42FBD1044B984770BDC04646
:1037F000001C0040FC0700000136000041360000BC
:1038000010B504000422824009480A4943680B406D
:103810001A42FBD1084B9847A400054B9C466444D0
:10382000236A8022520013432362044B984710BD41
:10383000001C0040FC07000001360000413600007B
:10384000F8B50400042282401248134943680B4033
:103850001A42FBD1114B98470E4F0834A400E0598F
:103860004007400F0E4B98470600E559ED04ED0F59
:10387000E459240C0B4B9847002D07D1012C07D994
:1038800021003000084B9847060001E00134E64073
:103890003000F8BD001C0040FC07000001360000AD
:1038A0007136000041360000DD3B000010B5040019
:1038B000094B9847A000094B9C46604480228158E0
:1038C00040230B4383508021403A43581A42FCD096
:1038D000034B984710BDC04601360000001C004055
:1038E0004136000010B50400094B9847A000094B71
:1038F0009C4660448022835840218B438350403152
:10390000403A43581A42FCD1034B984710BDC04679
:1039100001360000001C00404136000070B5040074
:103920000D00054B98472B780F2213402034A4003C
:10393000024AA35070BDC046E5380000001C00409C
:1039400010B50400064B98472034A400054BE458FA
:103950002407240F044B98472000044B984710BDC0
:1039600001360000001C00404136000041380000D4
:1039700030B5D378002B1ED11378802B04D01B06D2
:1039800080246402234300E0002354780225AC43E2
:103990000AD19478002C03D18024A402234302E0AE
:1039A000C024E402234341605478013C012C12D826
:1039B000184C23400FE041600B041B0CA024E405CD
:1039C000234383620B0CD024240623438362D378E1
:1039D000002B18D01CE00C04240CA025ED052C4372
:1039E0001C4384620C0CD0252D062C431C4384629E
:1039F000D478002C0CD15B0305D59378012B01D131
:103A0000816100E041615378013B012B00D8816066
:103A100030BDC046FFFFFBFF10B503000A00C1091F
:103A20000020002905D15809C0018221C9058C4612
:103A300060441F210B401E399940014B984710BD2F
:103A4000713900007047C04610B5054B9847054BCB
:103A50009847054B9847054B9847054B984710BD2D
:103A6000CD360000FD350000453A00007D1E000007
:103A7000453A0000FEE7C04610B51B4B1B4A9A4270
:103A800003D01B4B184A9A4204D31A4B1A4A9A4243
:103A900010D31EE0194A164B03339B1A9B080133BF
:103AA0009B000022104811498C58845004329A42DD
:103AB000FAD1EAE7124A0F4B03339B1A9B080133F2
:103AC0009B0000220C4800211418216004329A4205
:103AD000FAD10C4AFF210C4B8B4393600B4B984758
:103AE0000B4B9847FEE7C04600000020DC49000071
:103AF00070000020B00300207000002004000020AF
:103B00007400002000ED00E0000000004D3D0000CA
:103B1000513B00000300064A1268002A02D1054901
:103B2000034A1160024A1068C31813607047C04608
:103B300008010020B0230020012040427047C04609
:103B400080239B014B6000207047C04600207047D7
:103B500010B5134B9847134B9847134B9847134B8B
:103B60009847134B9847134B9847134B9847134B61
:103B70009847134B1B889BB2124A1380124B9847ED
:103B800096204000114B98470022114B1A70114AA1
:103B9000537810218B4353700F4CA047FDE7C0466C
:103BA000493A00005D1D0000FD3400008134000032
:103BB000D91800009D0C000061120000350F0000B4
:103BC0002A030020FC020020D1060000C91D0000CD
:103BD0003803002088030020550900000022430814
:103BE0008B4274D303098B425FD3030A8B4244D3C5
:103BF000030B8B4228D3030C8B420DD3FF22090207
:103C000012BA030C8B4202D31212090265D0030BC5
:103C10008B4219D300E0090AC30B8B4201D3CB03BB
:103C2000C01A5241830B8B4201D38B03C01A5241FD
:103C3000430B8B4201D34B03C01A5241030B8B42FF
:103C400001D30B03C01A5241C30A8B4201D3CB02EA
:103C5000C01A5241830A8B4201D38B02C01A5241CF
:103C6000430A8B4201D34B02C01A5241030A8B42D2
:103C700001D30B02C01A5241CDD2C3098B4201D3EA
:103C8000CB01C01A524183098B4201D38B01C01A68
:103C9000524143098B4201D34B01C01A52410309DF
:103CA0008B4201D30B01C01A5241C3088B4201D38E
:103CB000CB00C01A524183088B4201D38B00C01A3B
:103CC000524143088B4201D34B00C01A5241411A62
:103CD00000D20146524110467047FFE701B500206F
:103CE00000F006F802BDC0460029F7D076E770471D
:103CF0007047C046F0B54F464646C0B41604360C71
:103D00009946330005042C0C070C150C63437E43C5
:103D10006F4365431C0CAD1964199C46A64203D938
:103D200080235B02984647446346250CEF191D0427
:103D30004B464A4343432D0C240464199918C9196E
:103D400020000CBC90469946F0BDC0460E4B70B5A5
:103D500000251E000D4CE41AA410A54204D0AB00AF
:103D6000F35898470135F8E700F028FE084B002586
:103D70001E00084CE41AA410A54204D0AB00F3586E
:103D800098470135F8E770BDC8490000C8490000F0
:103D9000C8490000CC490000002310B59A4203D066
:103DA000CC5CC4540133F9E710BD03008218934280
:103DB00002D019700133FAE770474A424A41802322
:103DC00010B55200DB0000F001F810BDF0B51D0089
:103DD000514B85B01E6804000F000092002E05D0E4
:103DE000B369002B02D1300000F094F94B4B9C4298
:103DF00001D1746808E04A4B9C4201D1B46803E0E9
:103E0000484B9C4200D1F468009B022B05D0012B4B
:103E100000D97CE0002D00DA79E02100300000F0CC
:103E20000BF9616B002908D023004433994202D07A
:103E3000300000F033FA002363630023A361636062
:103E4000A3891B0603D52169300000F027FAA28957
:103E5000354B1340A381009B022B21D003AB02AA58
:103E60002100300000F0EAF9A3891843A081002D59
:103E700001D1029D01E0002F25D1280000F004FAB5
:103E80000195071E1AD1029B0193AB4202D101207A
:103E9000404206E0019800F0F7F9071E0ED1F6E760
:103EA00000200222A3891343A3810023A3602300DF
:103EB000473323602361012363612AE08022A389C1
:103EC000019D1343A381B369002B02D1300000F0A0
:103ED00021F9009B012B03D1A389009A1A43A281E7
:103EE0000823A2892760134027616561181E0CD042
:103EF00001231A400023101E984204D06D42A36093
:103F0000A561180005E0A56003E0A36001E00120C1
:103F1000404205B0F0BDC0466C0000205C49000086
:103F20007C4900009C4900005CF3FFFFF7B58A89DB
:103F300005000C0013075AD44B68002B02DC0B6CF5
:103F4000002B19DDE76A002F16D000232E682B60A6
:103F500080235B011A4001D0606D14E00123216AC7
:103F60002800B847431C0ED12B68002B0BD01D2B0B
:103F700001D0162B02D12E6000205AE04022A389E6
:103F80001343A38155E0A3895B0706D56368C01A74
:103F9000636B002B01D0236CC01A00230200216A3E
:103FA0002800E76AB847A389421C06D129681D2961
:103FB0003AD8204ACA40D20736D500226260226928
:103FC0002260DB0405D5431C02D12B68002B00D1F5
:103FD0006065616B2E600029CED023004433994286
:103FE00002D0280000F05AF90020606321E00F6938
:103FF000002FC1D00B680F60DB1B019300239207D9
:1040000000D14B69A36003E0019B3F181B1A019389
:10401000019B002BB0DD019B3A00216A2800A66AB3
:10402000B0470028F0DCA389402201201343A3817C
:104030004042FEBD010040200B6970B505000C0038
:10404000002B01D100201CE0002804D08369002B44
:1040500001D100F05FF80B4B9C4201D16C6808E085
:10406000094B9C4201D1AC6803E0084B9C4200D153
:10407000EC680C22A35E002BE4D021002800FFF79F
:1040800055FF70BD5C4900007C4900009C49000060
:1040900010B5024900F0B0F810BDC046394000002C
:1040A000002310B504000360436083608181436690
:1040B000C281036143618361190008225C30FFF70C
:1040C00074FE054B24626362044BA362044BE362FB
:1040D000044B236310BDC046F94300002144000097
:1040E000594400008544000070B568254B1E5D43AF
:1040F0000E002900743100F017F9041E08D00021C9
:104100002A00016046600C30A0606832FFF74DFE67
:10411000200070BD836913B50400002B28D183648F
:10412000C3640365134B144A1B688262019398426F
:1041300001D101238361200000F020F8606020009D
:1041400000F01CF8A060200000F018F80022E060E9
:1041500004216068FFF7A4FF01220921A068FFF78E
:104160009FFF02221221E068FFF79AFF0123A3615B
:1041700013BDC0465849000091400000F8B51D4BE2
:1041800006001D68AB69002B02D12800FFF7C2FFB3
:104190004835AC686B68013B05D40C22A75E002F44
:1041A00010D06834F7E72B68002B01D02D68F0E7BA
:1041B00004213000FFF798FF28600028F6D10C2377
:1041C000336016E0012320005B42E3810233A381C8
:1041D00067662760A760676027616761A7615C30D9
:1041E00008223900FFF7E1FD20006763A763A76499
:1041F000E764F8BD58490000F7B504000700002641
:1042000001914834002C16D06368A5680093009B88
:10421000013B00930DD4AB89012B08D90E22AB5E74
:10422000013304D029003800019B984706436835C4
:10423000EDE72468E6E73000FEBD000070B50E0033
:104240001D000E23C95E90B01400002906DA002379
:104250002B60B3891B060FD540230FE001AA00F0A5
:104260003DF90028F3DBF023029A1B021340054AB4
:104270009B185A4253412B608023DB0000202360AF
:1042800010B070BD00E0FFFF10B5034B01001868CF
:1042900000F04AF810BDC0466C00002030B500297F
:1042A0003ED004390B68002B00DAC9181D4A136888
:1042B0001400002B02D14B60116031E08B420DD90C
:1042C0000A688818834203D118685B6882180A60FC
:1042D0004B60216024E08A4203D813005A68002A08
:1042E000F9D11D685C198C420BD1096869185818FE
:1042F0001960824214D110685268411819605A60DE
:104300000EE08C4202D90C23036009E008680C1807
:10431000A24203D114685268201808604A605960AC
:1043200030BDC04610010020032370B5CD1C9D4355
:10433000083506000C2D01D20C2505E0002D03DA0E
:104340000C230020336040E0A942F9D81F4B1C68C1
:104350001A002100002913D00B685B1B0DD40B2B16
:1043600002D90B60CC181EE08C4202D16368136046
:104370001AE04B6863600C0016E00C004968E9E73E
:10438000134C2368002B03D1300000F023F8206089
:104390002900300000F01EF8431CD1D00323C41CB8
:1043A0009C43A0420AD12560200007220B30231D28
:1043B0009043C31A09D05A42E25006E0211A300055
:1043C00000F008F8431CEED1BAE770BD10010020E0
:1043D0000C010020002370B5064C05000800236086
:1043E000FFF798FB431C03D12368002B00D02B6000
:1043F00070BDC046AC03002070B50C000E25495FAF
:1044000000F092F8002803DB636D1B18636503E07E
:10441000A289024B1340A38170BDC046FFEFFFFF8E
:10442000F8B51F008B8905000C001600DB0505D5CB
:104430000E23C95E0022022300F062F8A289054B18
:1044400028001340A38132000E23E15E3B0000F000
:104450001FF8F8BDFFEFFFFF70B50C000E25495F98
:1044600000F04EF8A389421C03D1054A1340A381F2
:1044700004E0802252011343A381606570BDC046F1
:10448000FFEFFFFF10B50E23C95E00F015F810BD59
:1044900070B50500080011000022064C22601A00C9
:1044A000FEF7C6FF431C03D12368002B00D02B600E
:1044B00070BDC046AC030020002370B5064C05005B
:1044C00008002360FFF738FB431C03D12368002B4F
:1044D00000D02B6070BDC046AC030020002370B537
:1044E000064C0500080011002360FFF729FB431C60
:1044F00003D12368002B00D02B6070BDAC030020DB
:1045000070B50500080011000022064C22601A0058
:10451000FFF71CFB431C03D12368002B00D02B604A
:1045200070BDC046AC03002070B505000800110046
:104530000022064C22601A00FEF75AFF431C03D1EA
:104540002368002B00D02B6070BDC046AC03002058
:10455000993B5B3B1A3BD73A903A473AFC39AD3925
:104560005B390739B0385538F83797373437CE3696
:104570006436F83588351635A1342934AE333033F6
:10458000AF322C32A6311E3193300630762FE52E15
:10459000512EBC2D242D8B2CF02B542BB72A182AEE
:1045A0007929D82837289527F2265026AD250A25BF
:1045B0006724C42322238022DF213E219E20002065
:1045C000621FC51E2A1E901DF81C611CCB1B381BC8
:1045D000A61A161A8819FB187118E9176317DF163F
:1045E0005D16DD156015E4146B14F4137F130D13C1
:1045F0009D122F12C3115911F2108C102910C80FDF
:10460000690F0D0FB20E590E020EAE0D5B0D0A0DA5
:10461000BB0C6E0C230CDA0B920B4C0B080BC50A6F
:10462000840A450A070ACB09900957091F09E908B6
:10463000B30880084D081C08EC07BD079007630706
:1046400038070E07E506BD06960670064B062606D9
:104650000306E105BF059D057B05590537051505D1
:10466000F304D104AF048D046B044904E2E3E4E5F0
:10467000E6E7E8E9EAEBECEDEEEFF0F1F2F3F4F562
:10468000F6F7F8F9FAFBFCFDFEFF00010203040552
:10469000060708090A0B0C0D0E0F10111213141542
:1046A000161718191A1B1C1D1E1F20212223242532
:1046B000262728292A2B2C2D2E2F30313233343522
:1046C000363738393A3B3C3D3E3F40414243444512
:1046D000464748494A4B4C4D4E4F50515253545502
:1046E000565758595A5B5C5D5E5F606162636465F2
:1046F000666768696A6B6C6D6E6F000000D57FAA93
:10470000FE2B815429FC5683D702A87D52872DF8B1
:10471000AC79D3067BAE04D18550FA2FA471DB0EA1
:104720005A8F25F08D58F22773A60CD9F623895C91
:1047300008DD77A2DF0AA07521F45E8B9D48E23781
:1047400063B61CC9B461CB1E4A9F35E0CF1AB06571
:1047500031E44E9BE633994C18CD67B239EC469361
:10476000C712B86D10C56FBAEE3B91446BBE14C151
:104770009540EA3F42973DE8BC69C316EF3A904541
:1047800011C46EBBC613B96C38ED4792BD68C21731
:1047900043963CE99441EB3E6ABF15C04B9E34E121
:1047A000B560CA1F62B71DC89C49E33619CC66B311
:1047B000E732984D30E54F9ACE1BB16472A70DD801
:1047C0008C59F3265B8E24F1A570DA0F20F55F8AF1
:1047D000DE0BA17409DC76A3F722885DD603A97CE1
:1047E00028FD5782FF2A805501D47EAB8451FB2ED1
:1047F0007AAF05D0AD78D20753862CF90620000099
:1048000006200000FC1F000006200000FC1F000026
:10481000E21F0000E21F000006200000062000004A
:1048200006200000062000000620000006200000F0
:1048300006200000062000000620000006200000E0
:1048400006200000062000000620000006200000D0
:1048500006200000062000000620000006200000C0
:1048600006200000FC1F000006200000FC1F0000C6
:1048700006200000062000000620000006200000A0
:104880000620000006200000062000000620000090
:104890000620000006200000062000000620000080
:1048A0000620000006200000062000000620000070
:1048B0000620000006200000062000000620000060
:1048C0000620000006200000062000000620000050
:1048D0000620000006200000062000000620000040
:1048E0000620000006200000062000000620000030
:1048F000062000000620000006200000FC1F00002B
:10490000FC1F00000E2000000E2000000E20000002
:104910000E2000000004004200080042000C00428B
:10492000001000420014004200180042090A0B0C5B
:104930000D0E0000823600007E3600007E3600003C
:10494000B0360000B03600009A360000883600000D
:10495000A0360000430000000C0000200000000012
:104960000000000000000000000000000000000047
:104970000000000000000000000000000000000037
:104980000000000000000000000000000000000027
:104990000000000000000000000000000000000017
:1049A0000000000000000000000000000000000007
:1049B000000000000000000000000000F8B5C04644
:1049C000F8BC08BC9E467047E5000000F8B5C0463C
:0C49D000F8BC08BC9E467047BD0000000B
:1049DC0008000000401F0000010000000000000063
:1049EC005C4900007C4900009C490000000000006C
:1049FC00000000000000000000000000544900000E
:104A0C00000000000000000000000000000000009A
:104A1C00000000000000000000000000000000008A
:104A2C00000000000000000000000000000000007A
:104A3C000000000000000000000000000C0000203E
:0400000300003A7946
:00000001FF
