:1000000080210020691900006519000065190000B1
:1000100000000000000000000000000000000000E0
:100020000000000000000000000000006519000052
:1000300000000000000000006519000065190000C4
:1000400065190000651900006519000079020000BB
:1000500065190000651900006519000065190000A8
:1000600065190000A5080000B5080000C5080000DB
:10007000D5080000E5080000F5080000651900003B
:100080006519000065190000651900006519000078
:100090006519000065190000651900006519000068
:1000A0006519000065190000651900006519000058
:1000B00065190000651900006519000010B5064CAF
:1000C0002378002B07D1054B002B02D0044800E019
:1000D00000BF0123237010BD70000020000000004D
:1000E000B0240000084B10B5002B03D00749084886
:1000F00000E000BF07480368002B00D110BD064B8D
:10010000002BFBD09847F9E70000000074000020A6
:10011000B0240000B02400000000000000B583B04F
:1001200000236A461370074A5268D206120F6946C6
:100130008A70CB700B714B714B706846024B9847BD
:1001400003B000BD004000418503000010B501224E
:1001500002490348034B984710BDC046DC0000200D
:10016000D00000202D0C000030B591B0274C112399
:10017000237000236370A37001A901224A708B7061
:100180000A701120224B98472378DA090021002AAF
:1001900005D15909C9018222D205944661441F2222
:1001A00013401E3A10009840886102AC2270002370
:1001B0000393049323746374A274E274237523324B
:1001C000A354183A002108A8124B9847124BA36178
:1001D00080235B02E360114BA36201235B42E36275
:1001E0000F4B23630F4B63630F4D22000F49280011
:1001F0000F4B98472A68D369002BFCD11168023352
:100200000B4313600B4B984711B030BDDC0000204E
:1002100011040000431C0000A08601000200100031
:100220000200120002001300D0000020000800426B
:10023000050900004D01000070B50020084B9847EB
:100240000500084CFA218900A047074B18600749B0
:100250002800A047064B18600522064B1A6070BDA7
:1002600031170000751A00000400002040420F0002
:100270000000002010E000E070B50022154B1A705D
:1002800000231F25144E134C1F2B19D90FE00021FA
:1002900000E012494A619B009B59002B00D098470F
:1002A00023780133DBB223700F2BEDD911E0290045
:1002B000194001228A40002149691142E7D1EFE744
:1002C0002900194001228A40044949691142E0D1BC
:1002D000E6E770BDDF000020E000002000280040BD
:1002E000064A117802230B43137002210120536840
:1002F0001942FCD153681842F9D1704700280040D8
:1003000000B583B0184A53698021C9000B4353617B
:1003100001A900230B700220144B98470220144BB4
:100320009847144A117801230B43137002210120CE
:1003300053681942FCD15368184209D0F8E704C346
:100340008B42FCD108220C4B1A600C4B984709E0F9
:10035000084A137810218B431370094B1900403160
:100360000022ECE703B000BD000800400D180000BB
:100370009D1700000028004000E100E0E1020000BD
:10038000E000002010B51F4A916904230B439361DC
:100390001D4B2022FF321A831A7D0523D2072ED54A
:1003A00003790224002B00D0C47803781B02C022FA
:1003B000920013404278D201FF210A4013431900F2
:1003C000827852001E231A400B0013434279120414
:1003D000C02189020A401343A40423430A4A5360FC
:1003E00093685B035B0F094908249C400C80936869
:1003F0004B8043780B71138BDB05DB0F1B0118005F
:1004000010BDC04600080040004000418C000020A4
:1004100000B583B001AB80221A700A785A704A780E
:100420009A708A78DA701900014B984703B000BDC2
:100430000919000010B5490840230024814201D267
:100440000AE01C00091A631C9BB28842F9D94023B8
:10045000FF2C01D814800023180010BDF0B55F46B2
:1004600056464D464446F0B489B00C00059212AA97
:10047000117802004A434025A24200D9C6E0002B71
:1004800051D1020008000021644DA8478346260090
:1004900000270023002400930194002200233F2022
:1004A00020218C461F3902960397202464420419A8
:1004B00003D40D00A540A84604E06446241A0D00AC
:1004C000E540A8460C008440A14614001D00A41875
:1004D0005D4122002B0046465F463E4203D00E009F
:1004E000264332002B00029C039D9D420FD801D170
:1004F00094420CD8029C039D121BAB414D46009EBA
:10050000019F35433C004646344300950194013831
:10051000CBD20022012300980199121A8B41120CB0
:100520001B041A436FE00022012B6CD1630F04936C
:10053000E30098460A0000230021384CA04704003D
:100540000D0000239C46069320339B4601266346FC
:10055000079300230293002200233F21009401957A
:100560000F0020214942791803D430008840844686
:1005700004E05946C91B3000C84084463100B940E8
:100580008946100019008018594102000B004446AA
:100590004D462C40A2466446049D2C40A446544639
:1005A00065462C4303D03400044322000B0000981E
:1005B000019999420AD801D1904207D8009801992F
:1005C000121A8B410299484601430291013FC8D259
:1005D000009C019D0299079A8B1ADB0810498B42F7
:1005E0000BD9069B0133DBB21900069313000133CC
:1005F00007930829ADD1402508E04025069A082A2E
:1006000004D052031A43059B1A800025280009B024
:100610003CBC90469946A246AB46F0BD8D1B0000FF
:10062000FF1F000010B582B004000E4B1B78002B9A
:1006300001D000290DD001A90C7012200A4B984757
:1006400012200A4B9847074B5C7001221A70002059
:1006500006E0044B5B78834201D01D2000E00020BF
:1006600002B010BD940000200D1800009D1700007E
:10067000444B984233D006D8434B98420DD0434B5D
:1006800098421BD06FE0424B98424AD0414B98426F
:1006900058D0414B984266D132E0012906D000295A
:1006A00063D0022906D0032906D001E03B4867E069
:1006B000002065E03A4863E03A4861E0012906D04D
:1006C000002954D0022906D0032906D001E036487B
:1006D00056E0002054E0354852E0354850E001290A
:1006E00006D0002945D0022906D0032906D001E012
:1006F000304845E0002043E02F4841E02F483FE0EC
:10070000012906D0002936D0022906D0032906D0B7
:1007100001E02B4834E0002032E02A4830E02A484B
:100720002EE0012906D0002927D0022906D003296E
:1007300006D001E0254823E0002021E024481FE006
:1007400024481DE0012906D0002918D0022906D02E
:10075000032906D001E0204812E0002010E01F48E5
:100760000EE01F480CE000200AE01E4808E01E488A
:1007700006E01E4804E01E4802E01E4800E01E4855
:100780007047C046000C00420004004200080042CE
:10079000001400420018004200100042030005004F
:1007A000030006000300070002001100020012000F
:1007B0000200130002000D0002000E0002000F00F4
:1007C00002001700020018000200190003002900AF
:1007D00003002A0003002B00030023000300200075
:1007E00003002100030004000200100002000C00BE
:1007F00002001600030028000300220030B587B075
:100800000C4B6A4632CB32C232CB32C2009B83429F
:1008100006D001239A0069465258824203D100E073
:100820000023D8B203E00133062BF3D1002007B038
:1008300030BDC046E82300007047C046F0B50A4B03
:100840001B78002B0CD1094F094E0A4D0024DE51B4
:100850005A1914600433182BF9D10122024B1A7073
:100860008000024BC150F0BD96000020980000208F
:10087000390800002001002010B582B004000622D3
:1008800005496846054B98472000054B98476B463D
:10089000185602B010BDC04600240000311C0000F4
:1008A000FD07000010B5024B1B680020984710BDE3
:1008B0009800002010B5024B5B680120984710BDDE
:1008C0009800002010B5024B9B680220984710BD8D
:1008D0009800002010B5024BDB680320984710BD3C
:1008E0009800002010B5024B1B690420984710BDEA
:1008F0009800002010B5024B5B690520984710BD99
:1009000098000020F0B557464E464546E0B488B002
:1009100080460E001400030019600B689B0700D48A
:10092000A7E0936A0393D36A0493136B0593536B05
:10093000069300271F239946F9B2BB0003AA9858D3
:10094000002802D13000AF4B9847431C28D0020446
:10095000130C9C46000CC1B20025030604D44B09BD
:10096000DB018222D2059D184B460B40E81840302F
:100970000078824680205246D2070AD55B08EB18E1
:1009800030331878C0B2CB0701D5000901E00F233E
:100990001840844504D00023424613601C202BE1FC
:1009A0000137042FC8D11220974B9847237800278E
:1009B000012B12D102AA0100A069944B98470300B1
:1009C0001720002B00D017E1337BDBB202AA12788C
:1009D00005309A4200D00FE10C372578002D14D154
:1009E0003268E37F1B04A17F0B431C20934200D09D
:1009F00002E1A169A38B2022A25C002A01D040223F
:100A0000134308220A43174300E000236268A168E9
:100A10000A43E1680A433A43217C0B43617C002985
:100A200001D080210A43A17C002902D080218902C3
:100A30000B43E17C002902D0802189000B43217DFA
:100A4000002902D0802189010B43306802210A432A
:100A5000824209D172689A4206D143465D71237C75
:100A6000424693710020C7E00023424613601C20D9
:100A7000C2E00B680520DB0700D5BDE00800644B31
:100A80009847052802D0451C133001E0192006259F
:100A90006049CA690123AB401343CB6107A92427EE
:100AA000E35D0B70C5B228005B4B984728005B4B99
:100AB0009847E05D00215A4B98472378012B03D1DA
:100AC00032680B33134333602378002B03D1326831
:100AD00008331343336043461E6802AB80221A700A
:100AE00000225A7001219970DA702378002B01D10D
:100AF00002AB9A70A36A0393E36A0493236B059392
:100B0000636B0693002702ADF9B2BB0003AA9858A5
:100B1000002802D130003B4B9847431C05D0287079
:100B2000000CC0B229003F4B98470137042FEBD18E
:100B3000237842465371237C9371A37CD371237D28
:100B4000137200226B46DA802378012B15D14346BD
:100B500018682F4B98471330C0B22B4B98470100B1
:100B60006B469A1DA069294B984703001720002B5C
:100B700042D16B4606331B7833732378002B0FD199
:100B8000A769A38B706AE17F0904A57F294301430C
:100B900071622022A25C002A04D040210B4301E0B4
:100BA000002300276268A1680A43E1680A433A43C8
:100BB000217C0B43617C002903D11B49897889077B
:100BC00001D580210A43A17C002902D0802189021D
:100BD0000B43E17C002902D0802189000B43217D59
:100BE000002902D0802189010B4331680A43326019
:100BF000726813437360002008B01CBC904699468D
:100C0000A246F0BD71060000311800003504000056
:100C1000FD070000000800400D1800009D170000AF
:100C200025060000091900000020004110B5447994
:100C30001523012C72D1047A0023002C6ED1002AD6
:100C40005BD04B78002B46D003681B7EDB0711D4AA
:100C50000B78D9090022002905D15A09D201822135
:100C6000C9058C4662441F210B401E399940916191
:100C7000052353E00B78DC090022002C05D15A092A
:100C8000D2018224E405A44662441F2423401E3C72
:100C90009C40546103681A7ED20701D58A789A6213
:100CA000C2790023002A39D102680421137E0B4245
:100CB000FCD0117E0023490730D5538B5B0701D54B
:100CC000042353838379012B02D1936A002325E007
:100CD000936A002322E00B78D9090022002905D16C
:100CE0005A09D2018221C9058C4662441F210B405A
:100CF0001E3999405161002310E00B78D909002278
:100D0000002905D15A09D2018221C9058C466244C5
:100D10001F210B401E39994091610023180010BD1E
:100D2000F0B55F4656464D464446F0B491B00500D6
:100D30000C00160029600800CF4B9847052802D008
:100D40000700133700E0192722680523D20700D5D2
:100D50008AE122681733920700D585E1C749CA693D
:100D600001301B3B83401343CB610FA935239846C9
:100D7000F35C0B70FFB23800C14B98473800C14B91
:100D800098474346F05C0021BF4B9847F37A6B715C
:100D90002C23F35CAB712D23F35CEB71F37E2B7290
:100DA0002423F35C6B722B6802931800B24B9847B4
:100DB000133000220E2306A98C4663441A80338A1E
:100DC00099468023DB01994519D004D880239B01E3
:100DD00099450AD029E1C023DB0199450AD0802337
:100DE0001B02994500D125E11FE1102306930F3B1B
:100DF000079323E108230693073B07931EE133681B
:100E00000593F3689B4673690393337E04932E2303
:100E1000F35C984673689A46002B15D080235B05D7
:100E20009A4536D12F23F35C002B36D1B36A1F00CD
:100E3000C0B2964B984701000E2206AB9C46624416
:100E40003800934B984725E0082306930023079327
:100E50002F23F35C002B0BD0069B0093079B0E22E5
:100E600006A98C466244316BB06A8A4FB84711E0DC
:100E7000B36A1F00C0B2854B98470100069B0093E0
:100E8000079B0E2206A8844662443800814FB8476B
:100E900000E00020031E00D0E6E0737E002B02D0AD
:100EA000B37E029A93732A68029FD369002BFCD108
:100EB00002970E3306A98C4663441B88BB81059BB1
:100EC0005A461343039A1343524613434A46134365
:100ED000049A100203434246500718432F23F35C41
:100EE000002B01D104331843717E89022423F35C63
:100EF0005B0219432623F35C1B0219432C23F35C8A
:100F00005B0419432D23F25C12041143F37A194355
:100F10003389FF2B04D0802252041043194305E08B
:100F2000F37E002B02D08023DB041843029FBB68B2
:100F300007221340328C1343728C1343BB60F26957
:100F4000002A02D0544B184010433423F35C002B8A
:100F500003D1524B9B789B0701D5802318432A6805
:100F6000029FD369002BFCD179602A68D369002BDA
:100F7000FCD138603A68F0231B051340E022D2040C
:100F800093423FD0BB6807229343BB60BA682523D6
:100F9000F35C07210B401343BB6033E0F9B2BB00A5
:100FA0000AAA9858002802D120003D4B9847431CBC
:100FB00005D03070000CC0B231003A4B9847013771
:100FC000042FEBD10023EB602B616B61AB61EB6114
:100FD0002B62AB626B620022EB85AB853033EA5447
:100FE0000133EA540133EA540133EA542868224BAE
:100FF000984704002C492D4B9847A4002C4BE550F2
:10100000002331E00EAB80221A7000225A70DA7091
:101010009A70B36B0A93F36B0B93336C0C93736CF2
:1010200002930D9300270EAEB8E71023069300231A
:10103000079303E003230693002307933368059384
:10104000F3689B4673690393337E04932E23F35C0A
:10105000984673689A46002B00D1F9E680235B0519
:101060009A4500D1DEE618E7180011B03CBC904666
:101070009946A246AB46F0BDFD07000000080040BF
:101080000D1800009D170000250600003118000013
:10109000350400005D040000FFFFFFF00020004168
:1010A0007106000009190000511100003D08000000
:1010B00020010020C2791C23002A0ED0C28D92B2DA
:1010C000173B002A09D10368DA69002AFCD1198587
:1010D00002211A7E0A42FCD0002318007047C04645
:1010E00082791C23002A30D0828D92B2173B002ACD
:1010F0002BD10268107E400727D5D369002BFCD185
:10110000538BDBB258061DD0980703D502235383B7
:1011100018331AE0580703D5042353831A3314E015
:10112000D80703D50123538312330EE0D80603D525
:1011300010235383323308E09B0603D520235383C7
:10114000213302E0138D0B80002318007047C04646
:10115000F8B58000614BC5582C68E369002BFCD1C1
:10116000237EA67D1E403023EB5C3122AF5C1F4006
:10117000F30722D5EB8D9BB2002B1CD0AA6A137803
:10118000DBB2511CA9626979012901D09BB204E04C
:10119000517809020B430232AA62DB05DB0D23857D
:1011A000EB8D013B9BB2EB85002B06D10133237500
:1011B0000133A37501E001232375B30709D5022389
:1011C000237500223133EA54FB0702D52800EB686F
:1011D0009847730763D5AB8D9BB2002B5DD0638BB3
:1011E000DBB21A0702D47F22134001E077221340BA
:1011F0005A0601D540229343002B2CD09A0705D5DF
:101200001A223223EA54303B63831EE05A0705D585
:101210001E223223EA542E3B638316E0DA0705D5FB
:1012200013223223EA54313B63830EE0DA0605D5FC
:1012300042223223EA54223B638306E09B0604D514
:1012400041223223EA54123B63837B0727D52800CF
:101250006B69984723E0238DDB05DB0DDAB2696A01
:101260000A706A6A511C69626979012904D11B0AF2
:1012700053706B6A01336B62AB8D013B9BB2AB85E4
:10128000002B0CD10433237500222E33EA54BB0704
:1012900005D528002B69984701E004232375F30640
:1012A00007D5102323752376FB0602D52800EB69AA
:1012B0009847B30607D52023237523763B0702D52D
:1012C0002800AB699847330707D508232375237691
:1012D000BB0602D52B6A28009847F8BD20010020E4
:1012E000F0B5474680B40C00904600280DD1002A86
:1012F0000EDD8F18084E094D306821002B68984785
:101300000134A742F8D1404603E00120404200E00A
:10131000002004BC9046F0BD4001002038010020B0
:10132000F0B5474680B40E0015000138022811D8E8
:10133000002A12D000240C4B98460C4F43461868E4
:10134000315D3B689847002809DB0134A542F5D19F
:10135000200006E00120404203E0002001E00120DF
:10136000404204BC9046F0BD400100203C010020FA
:10137000F0B583B001AC012565700023A370257022
:1013800021001B20074FB8478226F60580231B0546
:101390007361257021001C20B84780235B057361B1
:1013A00003B0F0BD1104000070B582B005000E005E
:1013B00000226B46DA80064C6B46991D2800A04738
:1013C0000028F9D16B4606331B88337002B070BD1C
:1013D000E110000070B505008CB2034E210028001A
:1013E000B0470028FAD170BDB5100000F0B593B039
:1013F0008023DB05009300230193FF2269460A81C5
:101400008B72CB7201242C228C5401328C54013209
:101410008B5401328B540C9305328B5401328B5414
:10142000059300220B82CA7607930B844B840A76BD
:101430002423CA544A7613238B761333CA54013BB0
:10144000CA54E1235B020A9380235B030393194B85
:101450000E93194B0F9301235B4210931193174D79
:10146000174B1D60174A184B1A60184A184B1A6020
:101470006A4618492800184B9847184F3B689868E7
:101480000021174EB0473B6858680021B0472E68CE
:101490003000144B98471F2318408440124B1C60A7
:1014A0002A68D369002BFCD13268023313433360BE
:1014B00013B0F0BD02001600020017004401002026
:1014C00040010020D51300003C010020A9130000BA
:1014D0003801002000100042210D00006C000020A7
:1014E000531C00007908000000E100E07047C0468E
:1014F0000C4B1B68002B10D1EFF31083002B09D18C
:1015000072B6BFF35F8F0022074B1A700132074B90
:101510001A7002E00022054B1A70024A1368013368
:1015200013607047B000002008000020B4000020C5
:10153000084B1A68013A1A601B68002B09D1064B48
:101540001B78002B05D00122044B1A70BFF35F8F6C
:1015500062B67047B0000020B400002008000020F0
:1015600010B5072803D880000F4B1B589F4600205A
:1015700018E00E4B586815E00D4B597D0907090F0F
:1015800001310C480C4B98470CE0084B986809E077
:10159000074B1B7F00209B0704D5044B186801E014
:1015A0008020000210BDC04608240000B8000020C2
:1015B00000100040006CDC02751A000000B585B018
:1015C0000322104B9A60104A53681E218B435360CC
:1015D0000E4A117D80230B4313750D4B9847012351
:1015E0000C4A137101A94B6000234B7006220A704C
:1015F0000B724B720020084B98470020074B98470E
:1016000005B000BD0018004000400041001000403F
:10161000211600000008004045160000F1160000E9
:10162000064A516980230B4353610122044B1A700F
:1016300019000B781342FCD17047C04600080040E7
:10164000001C004070B505000C784B78002B02D0D0
:101650008023DB001C434B7A002B02D080231B012C
:101660001C434A68012A17D9531E1A420FD1022A75
:1016700006D90223002001305B009A42FBD800E02B
:10168000002080235B011C430004044304E0120497
:1016900080239B001A4314430B7A002B02D0802333
:1016A0009B011C430426AE400D490E4A4B68134073
:1016B0001E42FBD10C4B9847AD00094B9C4665443C
:1016C000286A80235B001840204328626146054A4F
:1016D0004B6813401E42FBD1044B984770BDC04677
:1016E000001C0040FC070000F11400003115000050
:1016F00010B504000422824009480A4943680B409F
:101700001A42FBD1084B9847A400054B9C46644401
:10171000236A8022520013432362044B984710BD72
:10172000001C0040FC070000F1140000311500000F
:10173000F8B50400042282401248134943680B4064
:101740001A42FBD1114B98470E4F0834A400E059C0
:101750004007400F0E4B98470600E559ED04ED0F8A
:10176000E459240C0B4B9847002D07D1012C07D9C5
:1017700021003000084B9847060001E00134E640A4
:101780003000F8BD001C0040FC070000F114000010
:101790006115000031150000751A000010B5040035
:1017A000094B9847A000094B9C4660448022815811
:1017B00040230B4383508021403A43581A42FCD0C7
:1017C000034B984710BDC046F1140000001C0040B8
:1017D0003115000010B50400094B9847A000094BD3
:1017E0009C4660448022835840218B438350403183
:1017F000403A43581A42FCD1034B984710BDC046AB
:10180000F1140000001C00403115000070B5040008
:101810000D00054B98472B780F2213402034A4006D
:10182000024AA35070BDC046D5170000001C0040FE
:1018300010B50400064B98472034A400054BE4582B
:101840002407240F044B98472000044B984710BDF1
:10185000F1140000001C0040311500003117000099
:1018600030B5D378002B1ED11378802B04D01B0603
:1018700080246402234300E0002354780225AC4313
:101880000AD19478002C03D18024A402234302E0DF
:10189000C024E402234341605478013C012C12D857
:1018A000184C23400FE041600B041B0CA024E405FE
:1018B000234383620B0CD024240623438362D37812
:1018C000002B18D01CE00C04240CA025ED052C43A3
:1018D0001C4384620C0CD0252D062C431C438462CF
:1018E000D478002C0CD15B0305D59378012B01D162
:1018F000816100E041615378013B012B00D8816098
:1019000030BDC046FFFFFBFF10B503000A00C10950
:101910000020002905D15809C0018221C9058C4643
:1019200060441F210B401E399940014B984710BD60
:10193000611800007047C04610B5054B9847054B2D
:101940009847054B9847054B9847054B984710BD5E
:10195000BD150000ED140000351900000103000062
:1019600035190000FEE7C04610B51B4B1B4A9A42D2
:1019700003D01B4B184A9A4204D31A4B1A4A9A4274
:1019800010D31EE0194A164B03339B1A9B080133F0
:101990009B000022104811498C58845004329A420E
:1019A000FAD1EAE7124A0F4B03339B1A9B08013323
:1019B0009B0000220C4800211418216004329A4236
:1019C000FAD10C4AFF210C4B8B4393600B4B984789
:1019D0000B4B9847FEE7C04600000020B0240000F3
:1019E000700000207C010020700000200400002016
:1019F0007400002000ED00E000000000E51B000086
:101A0000411A00000300064A1268002A02D1054963
:101A1000034A1160024A1068C31813607047C04639
:101A2000C400002080210020012040427047C046B1
:101A300080239B014B6000207047C0460020704708
:101A400010B5064B9847064B9847064B9847064BF0
:101A50009847064B9847064B9847FEE73919000010
:101A600039020000ED13000071130000690100004D
:101A70001D010000002243088B4274D303098B42EE
:101A80005FD3030A8B4244D3030B8B4228D3030C4E
:101A90008B420DD3FF22090212BA030C8B4202D3F0
:101AA0001212090265D0030B8B4219D300E0090A18
:101AB000C30B8B4201D3CB03C01A5241830B8B4221
:101AC00001D38B03C01A5241430B8B4201D34B030A
:101AD000C01A5241030B8B4201D30B03C01A52416F
:101AE000C30A8B4201D3CB02C01A5241830A8B42F4
:101AF00001D38B02C01A5241430A8B4201D34B02DD
:101B0000C01A5241030A8B4201D30B02C01A524140
:101B1000CDD2C3098B4201D3CB01C01A52418309F4
:101B20008B4201D38B01C01A524143098B4201D32E
:101B30004B01C01A524103098B4201D30B01C01A59
:101B40005241C3088B4201D3CB00C01A52418308D3
:101B50008B4201D38B00C01A524143088B4201D300
:101B60004B00C01A5241411A00D201465241104660
:101B70007047FFE701B5002000F006F802BDC0463F
:101B80000029F7D076E770477047C046F0B54F465A
:101B90004646C0B41604360C9946330005042C0C96
:101BA000070C150C63437E436F4365431C0CAD1952
:101BB00064199C46A64203D980235B029846474499
:101BC0006346250CEF191D044B464A4343432D0C35
:101BD000240464199918C91920000CBC9046994630
:101BE000F0BDC0460E4B70B500251E000D4CE41A2A
:101BF000A410A54204D0AB00F35898470135F8E78C
:101C000000F046FC084B00251E00084CE41AA41006
:101C1000A54204D0AB00F35898470135F8E770BDF2
:101C20009C2400009C2400009C240000A0240000B0
:101C3000002310B59A4203D0CC5CC4540133F9E7B9
:101C400010BD03008218934202D019700133FAE7E5
:101C500070474A424A41802310B55200DB0000F031
:101C600001F810BDF0B51D00514B85B01E68040091
:101C70000F000092002E05D0B369002B02D1300076
:101C800000F094F94B4B9C4201D1746808E04A4B38
:101C90009C4201D1B46803E0484B9C4200D1F468F7
:101CA000009B022B05D0012B00D97CE0002D00DA2F
:101CB00079E02100300000F00BF9616B002908D0B9
:101CC00023004433994202D0300000F033FA00235D
:101CD00063630023A3616360A3891B0603D52169A5
:101CE000300000F027FAA289354B1340A381009BF6
:101CF000022B21D003AB02AA2100300000F0EAF948
:101D0000A3891843A081002D01D1029D01E0002F7D
:101D100025D1280000F004FA0195071E1AD1029B74
:101D20000193AB4202D10120404206E0019800F04D
:101D3000F7F9071E0ED1F6E700200222A38913430C
:101D4000A3810023A3602300473323602361012381
:101D500063612AE08022A389019D1343A381B369B3
:101D6000002B02D1300000F021F9009B012B03D1A0
:101D7000A389009A1A43A2810823A28927601340ED
:101D800027616561181E0CD001231A400023101E24
:101D9000984204D06D42A360A561180005E0A560DB
:101DA00003E0A36001E00120404205B0F0BDC04661
:101DB0006C0000203024000050240000702400003B
:101DC0005CF3FFFFF7B58A8905000C0013075AD4AE
:101DD0004B68002B02DC0B6C002B19DDE76A002F2F
:101DE00016D000232E682B6080235B011A4001D09F
:101DF000606D14E00123216A2800B847431C0ED10E
:101E00002B68002B0BD01D2B01D0162B02D12E607E
:101E100000205AE04022A3891343A38155E0A389FF
:101E20005B0706D56368C01A636B002B01D0236C77
:101E3000C01A00230200216A2800E76AB847A38974
:101E4000421C06D129681D293AD8204ACA40D20727
:101E500036D50022626022692260DB0405D5431C6E
:101E600002D12B68002B00D16065616B2E600029C8
:101E7000CED023004433994202D0280000F05AF912
:101E80000020606321E00F69002FC1D00B680F6054
:101E9000DB1B01930023920700D14B69A36003E091
:101EA000019B3F181B1A0193019B002BB0DD019B86
:101EB0003A00216A2800A66AB0470028F0DCA3890E
:101EC000402201201343A3814042FEBD0100402077
:101ED0000B6970B505000C00002B01D100201CE03F
:101EE000002804D08369002B01D100F05FF80B4B70
:101EF0009C4201D16C6808E0094B9C4201D1AC685E
:101F000003E0084B9C4200D1EC680C22A35E002B3E
:101F1000E4D021002800FFF755FF70BD30240000F9
:101F2000502400007024000010B5024900F0B0F801
:101F300010BDC046D11E0000002310B50400036090
:101F40004360836081814366C28103614361836131
:101F5000190008225C30FFF774FE054B24626362AF
:101F6000044BA362044BE362044B236310BDC046E1
:101F700091220000B9220000F12200001D23000080
:101F800070B568254B1E5D430E002900743100F0CA
:101F900017F9041E08D000212A00016046600C30A9
:101FA000A0606832FFF74DFE200070BD836913B555
:101FB0000400002B28D18364C3640365134B144AC7
:101FC0001B6882620193984201D101238361200042
:101FD00000F020F86060200000F01CF8A0602000F5
:101FE00000F018F80022E06004216068FFF7A4FF09
:101FF00001220921A068FFF79FFF02221221E06859
:10200000FFF79AFF0123A36113BDC0462C240000F3
:10201000291F0000F8B51D4B06001D68AB69002B99
:1020200002D12800FFF7C2FF4835AC686B68013B5E
:1020300005D40C22A75E002F10D06834F7E72B6878
:10204000002B01D02D68F0E704213000FFF798FF46
:1020500028600028F6D10C23336016E0012320000D
:102060005B42E3810233A38167662760A7606760F4
:1020700027616761A7615C3008223900FFF7E1FD45
:1020800020006763A763A764E764F8BD2C24000001
:10209000F7B504000700002601914834002C16D043
:1020A0006368A5680093009B013B00930DD4AB8946
:1020B000012B08D90E22AB5E013304D02900380071
:1020C000019B984706436835EDE72468E6E7300052
:1020D000FEBD000070B50E001D000E23C95E90B05D
:1020E0001400002906DA00232B60B3891B060FD5E4
:1020F00040230FE001AA00F03DF90028F3DBF023B4
:10210000029A1B021340054A9B185A4253412B6006
:102110008023DB000020236010B070BD00E0FFFFD3
:1021200010B5034B0100186800F04AF810BDC04616
:102130006C00002030B500293ED004390B68002B1C
:1021400000DAC9181D4A13681400002B02D14B6035
:10215000116031E08B420DD90A688818834203D19F
:1021600018685B6882180A604B60216024E08A422C
:1021700003D813005A68002AF9D11D685C198C42F3
:102180000BD10968691858181960824214D1106877
:102190005268411819605A600EE08C4202D90C2333
:1021A000036009E008680C18A24203D11468526861
:1021B000201808604A60596030BDC046CC0000203D
:1021C000032370B5CD1C9D43083506000C2D01D2AC
:1021D0000C2505E0002D03DA0C230020336040E0DD
:1021E000A942F9D81F4B1C681A002100002913D0FE
:1021F0000B685B1B0DD40B2B02D90B60CC181EE0B7
:102200008C4202D1636813601AE04B6863600C0073
:1022100016E00C004968E9E7134C2368002B03D152
:10222000300000F023F820602900300000F01EF894
:10223000431CD1D00323C41C9C43A0420AD1256077
:10224000200007220B30231D9043C31A09D05A42A5
:10225000E25006E0211A300000F008F8431CEED1ED
:10226000BAE770BDCC000020C8000020002370B584
:10227000064C050008002360FFF7C4FB431C03D194
:102280002368002B00D02B6070BDC0467801002071
:1022900070B50C000E25495F00F092F8002803DBB2
:1022A000636D1B18636503E0A289024B1340A38191
:1022B00070BDC046FFEFFFFFF8B51F008B8905001A
:1022C0000C001600DB0505D50E23C95E0022022393
:1022D00000F062F8A289054B28001340A381320068
:1022E0000E23E15E3B0000F01FF8F8BDFFEFFFFF9B
:1022F00070B50C000E25495F00F04EF8A389421C12
:1023000003D1054A1340A38104E080225201134304
:10231000A381606570BDC046FFEFFFFF10B50E23BF
:10232000C95E00F015F810BD70B505000800110079
:102330000022064C22601A00FEF7F2FF431C03D174
:102340002368002B00D02B6070BDC04678010020B0
:10235000002370B5064C050008002360FFF764FBFE
:10236000431C03D12368002B00D02B6070BDC046F6
:1023700078010020002370B5064C0500080011000C
:102380002360FFF755FB431C03D12368002B00D0CB
:102390002B6070BD7801002070B5050008001100A9
:1023A0000022064C22601A00FFF748FB431C03D1B1
:1023B0002368002B00D02B6070BDC0467801002040
:1023C00070B50500080011000022064C22601A00BA
:1023D000FEF786FF431C03D12368002B00D02B603F
:1023E00070BDC04678010020000400420008004291
:1023F000000C00420010004200140042001800428D
:10240000090A0B0C0D0E0000721500006E1500007D
:102410006E150000A0150000A01500008A15000030
:102420007815000090150000430000000C0000200B
:10243000000000000000000000000000000000009C
:10244000000000000000000000000000000000008C
:10245000000000000000000000000000000000007C
:10246000000000000000000000000000000000006C
:10247000000000000000000000000000000000005C
:10248000000000000000000000000000000000004C
:10249000F8B5C046F8BC08BC9E467047E500000091
:1024A000F8B5C046F8BC08BC9E467047BD000000A9
:1024B00008000000401F00000100000000000000B4
:1024C00030240000502400007024000000000000B0
:1024D00000000000000000000000000028240000B0
:1024E00000000000000000000000000000000000EC
:1024F00000000000000000000000000000000000DC
:1025000000000000000000000000000000000000CB
:102510000000000000000000000000000C0000208F
:040000030000196977
:00000001FF
