S015000041544D454C2D455334393530332E73726563D2
S1130000A0220020351F0000311F0000311F000016
S113001000000000000000000000000000000000DC
S1130020000000000000000000000000311F00007C
S11300300000000000000000311F0000311F00001C
S1130040311F0000311F0000311F0000BD050000FA
S1130050311F0000311F0000311F0000311F00005C
S1130060311F0000710E0000810E0000910E00008F
S1130070A10E0000B10E0000C10E0000311F0000EF
S1130080311F0000311F0000311F0000311F00002C
S1130090311F0000311F0000311F0000311F00001C
S11300A0311F0000311F0000311F0000311F00000C
S11300B0311F0000311F0000311F000010B5064C35
S11300C02378002B07D1054B002B02D0044800E015
S11300D000BF0123237010BD700000200000000049
S11300E0B82B0000084B10B5002B03D00749084873
S11300F000E000BF07480368002B00D110BD064B89
S1130100002BFBD09847F9E70000000074000020A2
S1130110B82B0000B82B00000000000000B583B02D
S113012000236A461370074A5268D206120F6946C2
S11301308A70CB700B714B714B706846024B9847B9
S113014003B000BD00400041C906000070B50500C1
S1130150024C2800A0470528FBD070BD59090000B7
S1130160F8B506000D001400034F220029003000EA
S1130170B8470528F9D0F8BD11080000F8B5060005
S11301800D001400034F220029003000B847052851
S1130190F9D0F8BDE1080000344A5178344B997421
S11301A0997CC9B21975997CC9B259751179998428
S11301B0998C090289B29984988C51790143998464
S11301C09179D984D98C090289B2D984D88CD1790E
S11301D00143D984117A1985198D090289B21985C7
S11301E0188D517A01431985D17A224B1980117BDC
S11301F0214B19801988090289B219801888517B0A
S113020001431980917B59805988090289B2598028
S11302105888D17B014359801021515619711121FD
S113022051565971917CD980D98849B20902D98033
S1130230D98809B2D07C0143D980117D19811989EB
S113024049B209021981198909B2507D0143198102
S1130250917D59815989090289B259815889D17D81
S113026001435981127E52B21A73704778020020FA
S1130270280200206C0200205C020020F8B52E4BFE
S1130280B3221A702D490A88120A9A700A88DA7001
S11302902B4A918C090A1971918C5971D18C090AD4
S11302A09971D18CD971118D090A1972128D5A72F2
S11302B0244A1288110A9972DA72234A1188090AA7
S11302C01973118859735188090A99735188D9731C
S11302D01179197451795974D188090A9974D1889A
S11302E0D9741189090A1975118959755189090A2D
S11302F099755189D975127B52B212121A761A0065
S113030019331900002310781B18DBB201328A421A
S1130310F9D1094C63760D4D28000D4FB8470D4EA9
S11303203000B8471A22210028000B4DA8471A2292
S113033021003000A847F8BD7802002054020020B4
S1130340280200206C0200205C02002000FE030052
S11303504D01000000FF03006101000010B5104CC6
S11303601A2221000F48104B98472378B32B13D13E
S11303700B4A10001930002311785B18DBB20132EC
S11303808242F9D1064A527E9A4202D1074B9847DB
S113039004E0074B984701E0054B984710BDC04661
S11303A07802002000FF03007D0100009901000095
S11303B07D02000010B5104C1A2221000F48104B8A
S11303C098472378B32B13D10B4A1000193000231C
S11303D011785B18DBB201328242F9D1064A527EAF
S11303E09A4202D1074B984704E0074B984701E033
S11303F0054B984710BDC0467802002000FE03005C
S11304007D010000990100005D03000070B51348F0
S113041000230021124D134A1380134A1380134AF8
S11304201380134C134A148040226A70124A1176C6
S11304300124047000262E70447013629384D175D5
S113044091760E4A5171642010711381D380117317
S113045053815380013B138070BDC0465802002075
S11304609402002074020020700200206C0200201C
S113047018F6FFFF54020020280200205C0200202E
S113048010B5012202490348034B984710BDC046EA
S11304908C01002080010020F911000030B591B0DA
S11304A02B4C1123237000236370A370012269462F
S11304B04A708B700A701120264B98472378DA090A
S11304C00021002A05D15909C9018222D205944686
S11304D061441F2213401E3A10009840886102AC08
S11304E0227000230393049323746374A274E2744C
S11304F023752332A354183A002108A8164B9847B1
S1130500164BA36180235B02E360154BA3620123B6
S11305105B42E362134B2363134B6363134D22006B
S113052013492800134B98472A68D369002BFCD140
S1130530116802330B4313600F4B984701A9002342
S11305400B708B704B703020024B984711B030BD4C
S11305508C010020DD09000033220000A086010088
S113056002001000020012000200130080010020AB
S113057000080042D10E00008104000070B5002084
S1130580084B98470500084CFA218900A047074BFF
S1130590186007492800A047064B18600522064B3F
S11305A01A6070BDFD1C00006520000004000020DE
S11305B040420F000000002010E000E070B500226F
S11305C0154B1A7000231F25144E134C1F2B19D9D9
S11305D00FE0002100E012494A619B009B59002B67
S11305E000D0984723780133DBB223700F2BEDD969
S11305F011E02900194001228A4000214969114271
S1130600E7D1EFE72900194001228A4004494969EA
S11306101142E0D1E6E770BD8F0100209001002077
S113062000280040064A117802230B43137002216C
S1130630012053681942FCD153681842F9D170471C
S11306400028004000B583B0184A53698021C900CE
S11306500B43536101A900230B700220144B9847EC
S11306600220144B9847144A117801230B4313704A
S11306700221012053681942FCD15368184209D061
S1130680F8E704C38B42FCD108220C4B1A600C4BD4
S1130690984709E0084A137810218B431370094BDB
S11306A0190040310022ECE703B000BD000800400F
S11306B0D91D0000691D00000028004000E100E091
S11306C0250600009001002010B51F4A91690423FB
S11306D00B4393611D4B2022FF321A831A7D05239D
S11306E0D2072ED503790224002B00D0C4780378D6
S11306F01B02C022920013404278D201FF210A401B
S113070013431900827852001E231A400B0013432E
S113071042791204C02189020A401343A4042343EA
S11307200A4A536093685B035B0F094908249C40A1
S11307300C8093684B8043780B71138BDB05DB0FC4
S11307401B01180010BDC0460008004000400041D5
S11307508C00002030B50400264A10885388434397
S11307608B420BD280229201234BCB18934205D9A2
S11307701820224A224BCB18934239D8214A556873
S1130780214B2B408020C002034353602023FF33BE
S11307901383137DDB0702D45560052028E0452C24
S11307A015D8A300194AD3589F46164B1B8BDB055B
S11307B003D5144B5D6010201AE089084900114BE1
S11307C0D96108E0890849000E4BD96103E00D4B5B
S11307D05D6017200CE0A52000020443094B1C8037
S11307E0190001220B7D1342FCD0064B5D600020F2
S11307F030BDC0468C00002000C07FFFFF1F0000FA
S11308000000C0FF00400041FFFFF3FFD8290000B3
S1130810F8B52D4B1C885B886343834207D21825A7
S11308202A4E2B4BC3180127B34201D94AE00027B3
S1130830631E1825184245D1013D944242D3254BED
S11308401B7D123DDB073DD5234C224B1C801D0034
S113085001242B7D2342FCD02024FF341D4B1C8318
S11308604608002A29D076000023541EA446CD5CF5
S1130870634501DBACB203E0CC18647824022C435A
S1130880348002339BB202369A42F0D80E4B1B7965
S11308900025002B16D13F2A14D8002F06D00022A1
S11308A001001C200D4B984705000BE000220100BD
S11308B004200A4B9847050004E0034B1B790025EC
S11308C0002BEAD02800F8BD8C000020FF1F000098
S11308D00000C0FF0040004144A5FFFF5507000091
S11308E070B5194B1C885B886343834205D2182377
S11308F0164E174D4519B54223D81723944220D3D9
S1130900144B1C7D0523E4071BD52024FF34114B15
S11309101C834008002A13D040000025561E2B18C3
S11309201C88A4B22B041B0CCC54B34202DACB189F
S1130930240A5C700235ABB29A42F0D8002300E07E
S11309400023180070BDC0468C000020FF1F00006B
S11309500000C0FF0040004110B51A4A13885288B5
S11309605A43824207D21822174C18494118A1420F
S113097026D8012100E000219B00013B18221842E7
S11309801ED1134B1B7D133ADB0719D5104B2022C4
S1130990FF321A8380084000D861002901D10D4A32
S11309A000E00D4A0A4B1A80190001220B7D134204
S11309B0FCD0074B1A8B1C231A40501E8241920014
S11309C0100010BD8C000020FF1F00000000C0FFBD
S11309D00040004102A500001AA5000000B583B044
S11309E001AB80221A700A785A704A789A708A7811
S11309F0DA701900014B984703B000BDD51E000002
S1130A0010B5490840230024814201D20AE01C00A9
S1130A10091A631C9BB28842F9D94023FF2C01D8E0
S1130A2014800023180010BDF0B55F4656464D46AD
S1130A304446F0B489B00C00059212AA1178020061
S1130A404A434025A24200D9C6E0002B51D10200FE
S1130A5008000021644DA847834626000027002390
S1130A60002400930194002200233F2020218C467F
S1130A701F390296039720246442041903D40D00FD
S1130A80A540A84604E06446241A0D00E540A846A3
S1130A900C008440A14614001D00A4185D412200EE
S1130AA02B0046465F463E4203D00E0026433200EA
S1130AB02B00029C039D9D420FD801D194420CD877
S1130AC0029C039D121BAB414D46009E019F354382
S1130AD03C0046463443009501940138CBD20022B1
S1130AE0012300980199121A8B41120C1B041A431A
S1130AF06FE00022012B6CD1630F0493E30098464E
S1130B000A0000230021384CA04704000D000023F4
S1130B109C46069320339B46012663460793002395
S1130B200293002200233F21009401950F0020210D
S1130B304942791803D430008840844604E0594679
S1130B40C91B3000C84084463100B94089461000B2
S1130B5019008018594102000B0044464D462C40B0
S1130B60A2466446049D2C40A446544665462C4344
S1130B7003D03400044322000B00009801999942E9
S1130B800AD801D1904207D800980199121A8B41D2
S1130B900299484601430291013FC8D2009C019D3D
S1130BA00299079A8B1ADB0810498B420BD9069BD2
S1130BB00133DBB2190006931300013307930829AC
S1130BC0ADD1402508E04025069A082A04D05203F6
S1130BD01A43059B1A800025280009B03CBC9046A6
S1130BE09946A246AB46F0BD7D210000FF1F0000E0
S1130BF010B582B004000E4B1B78002B01D00029E5
S1130C000DD001A90C7012200A4B984712200A4BF0
S1130C109847074B5C7001221A70002006E0044BD1
S1130C205B78834201D01D2000E0002002B010BD9B
S1130C3094000020D91D0000691D0000444B984217
S1130C4033D006D8434B98420DD0434B98421BD027
S1130C506FE0424B98424AD0414B984258D0414BA6
S1130C60984266D132E0012906D0002963D00229D6
S1130C7006D0032906D001E03B4867E0002065E088
S1130C803A4863E03A4861E0012906D0002954D08B
S1130C90022906D0032906D001E0364856E0002098
S1130CA054E0354852E0354850E0012906D0002987
S1130CB045D0022906D0032906D001E0304845E09A
S1130CC0002043E02F4841E02F483FE0012906D0AF
S1130CD0002936D0022906D0032906D001E02B488A
S1130CE034E0002032E02A4830E02A482EE001298E
S1130CF006D0002927D0022906D0032906D001E016
S1130D00254823E0002021E024481FE024481DE07A
S1130D10012906D0002918D0022906D0032906D0BB
S1130D2001E0204812E0002010E01F480EE01F48B8
S1130D300CE000200AE01E4808E01E4806E01E48B9
S1130D4004E01E4802E01E4800E01E487047C0460A
S1130D50000C00420004004200080042001400425B
S1130D6000180042001000420300050003000600C2
S1130D700300070002001100020012000200130029
S1130D8002000D0002000E0002000F000200170016
S1130D9002001800020019000300290003002A00C1
S1130DA003002B00030023000300200003002100A4
S1130DB0030004000200100002000C0002001600F0
S1130DC0030028000300220030B587B00C4B6A46AC
S1130DD032CB32C232CB32C2009B834206D00123D3
S1130DE09A0069465258824203D100E00023D8B2E7
S1130DF003E00133062BF3D1002007B030BDC04619
S1130E00F02A00007047C046F0B50A4B1B78002B4F
S1130E100CD1094F094E0A4D0024DE515A191460B1
S1130E200433182BF9D10122024B1A708000024BB3
S1130E30C150F0BD9600002098000020050E00006F
S1130E40D001002010B582B004000622054968468E
S1130E50054B98472000054B98476B46185602B03F
S1130E6010BDC046082B000021220000C90D00005F
S1130E7010B5024B1B680020984710BD9800002055
S1130E8010B5024B5B680120984710BD9800002004
S1130E9010B5024B9B680220984710BD98000020B3
S1130EA010B5024BDB680320984710BD9800002062
S1130EB010B5024B1B690420984710BD9800002010
S1130EC010B5024B5B690520984710BD98000020BF
S1130ED0F0B557464E464546E0B488B080460E000D
S1130EE01400030019600B689B0700D4A7E0936A01
S1130EF00393D36A0493136B0593536B06930027F0
S1130F001F239946F9B2BB0003AA9858002802D1BE
S1130F103000AF4B9847431C28D00204130C9C4666
S1130F20000CC1B20025030604D44B09DB01822264
S1130F30D2059D184B460B40E81840300078824695
S1130F4080205246D2070AD55B08EB183033187854
S1130F50C0B2CB0701D5000901E00F231840844536
S1130F6004D00023424613601C202BE10137042FD8
S1130F70C8D11220974B984723780027012B12D110
S1130F8002AA0100A069944B984703001720002B84
S1130F9000D017E1337BDBB202AA127805309A4203
S1130FA000D00FE10C372578002D14D13268E37F8F
S1130FB01B04A17F0B431C20934200D002E1A169D2
S1130FC0A38B2022A25C002A01D0402213430822D2
S1130FD00A43174300E000236268A1680A43E168FA
S1130FE00A433A43217C0B43617C002901D08021D0
S1130FF00A43A17C002902D0802189020B43E17CB1
S1131000002902D0802189000B43217D002902D0D0
S1131010802189010B43306802210A43824209D1AD
S113102072689A4206D143465D71237C42469371AD
S11310300020C7E00023424613601C20C2E00B6876
S11310400520DB0700D5BDE00800644B9847052860
S113105002D0451C133001E0192006256049CA69F5
S11310600123AB401343CB6107A92427E35D0B7035
S1131070C5B228005B4B984728005B4B9847E05D5E
S113108000215A4B98472378012B03D132680B3344
S1131090134333602378002B03D13268083313439E
S11310A0336043461E6802AB80221A7000225A70D5
S11310B001219970DA702378002B01D102AB9A7068
S11310C0A36A0393E36A0493236B0593636B069308
S11310D0002702ADF9B2BB0003AA9858002802D138
S11310E030003B4B9847431C05D02870000CC0B21D
S11310F029003F4B98470137042FEBD12378424610
S11311005371237C9371A37CD371237D13720022CA
S11311106B46DA802378012B15D1434618682F4B90
S113112098471330C0B22B4B984701006B469A1D69
S1131130A069294B984703001720002B42D16B4626
S113114006331B7833732378002B0FD1A769A38B45
S1131150706AE17F0904A57F29430143716220225B
S1131160A25C002A04D040210B4301E000230027A5
S11311706268A1680A43E1680A433A43217C0B434D
S1131180617C002903D11B498978890701D5802115
S11311900A43A17C002902D0802189020B43E17C0F
S11311A0002902D0802189000B43217D002902D02F
S11311B0802189010B4331680A433260726813430A
S11311C07360002008B01CBC90469946A246F0BD4E
S11311D03D0C0000FD1D0000010A0000C90D0000C7
S11311E000080040D91D0000691D0000F10B00003B
S11311F0D51E00000020004110B544791523012CB0
S113120072D1047A0023002C6ED1002A5BD04B7873
S1131210002B46D003681B7EDB0711D40B78D90959
S11312200022002905D15A09D2018221C9058C4620
S113123062441F210B401E3999409161052353E0FC
S11312400B78DC090022002C05D15A09D201822432
S1131250E405A44662441F2423401E3C9C40546180
S113126003681A7ED20701D58A789A62C27900236C
S1131270002A39D102680421137E0B42FCD0117E6E
S11312800023490730D5538B5B0701D504235383CF
S11312908379012B02D1936A002325E0936A00230A
S11312A022E00B78D9090022002905D15A09D2017C
S11312B08221C9058C4662441F210B401E39994086
S11312C05161002310E00B78D9090022002905D1CF
S11312D05A09D2018221C9058C4662441F210B4060
S11312E01E39994091610023180010BDF0B55F4686
S11312F056464D464446F0B491B005000C00160025
S113130029600800CF4B9847052802D007001337FF
S113131000E0192722680523D20700D58AE1226854
S11313201733920700D585E1C749CA6901301B3BD1
S113133083401343CB610FA935239846F35C0B70AC
S1131340FFB23800C14B98473800C14B9847434619
S1131350F05C0021BF4B9847F37A6B712C23F35C4C
S1131360AB712D23F35CEB71F37E2B722423F35CBE
S11313706B722B6802931800B24B9847133000220B
S11313800E2306A98C4663441A80338A9946802327
S1131390DB01994519D004D880239B0199450AD0D3
S11313A029E1C023DB0199450AD080231B0299451A
S11313B000D125E11FE1102306930F3B079323E19E
S11313C008230693073B07931EE133680593F368EC
S11313D09B4673690393337E04932E23F35C9846F0
S11313E073689A46002B15D080235B059A4536D145
S11313F02F23F35C002B36D1B36A1F00C0B2964B87
S1131400984701000E2206AB9C4662443800934B79
S1131410984725E008230693002307932F23F35CC2
S1131420002B0BD0069B0093079B0E2206A98C462B
S11314306244316BB06A8A4FB84711E0B36A1F0047
S1131440C0B2854B98470100069B0093079B0E2270
S113145006A8844662443800814FB84700E0002063
S1131460031E00D0E6E0737E002B02D0B37E029A06
S113147093732A68029FD369002BFCD102970E3321
S113148006A98C4663441B88BB81059B5A461343BB
S1131490039A1343524613434A461343049A1002D1
S11314A003434246500718432F23F35C002B01D11A
S11314B004331843717E89022423F35C5B021943CD
S11314C02623F35C1B0219432C23F35C5B041943AE
S11314D02D23F25C12041143F37A19433389FF2B51
S11314E004D0802252041043194305E0F37E002BFC
S11314F002D08023DB041843029FBB6807221340F9
S1131500328C1343728C1343BB60F269002A02D0FD
S1131510544B184010433423F35C002B03D1524B3B
S11315209B789B0701D5802318432A68029FD369BF
S1131530002BFCD179602A68D369002BFCD1386078
S11315403A68F0231B051340E022D20493423FD0B3
S1131550BB6807229343BB60BA682523F35C072169
S11315600B401343BB6033E0F9B2BB000AAA98589E
S1131570002802D120003D4B9847431C05D0307011
S1131580000CC0B231003A4B98470137042FEBD11D
S11315900023EB602B616B61AB61EB612B62AB628F
S11315A06B620022EB85AB853033EA540133EA5495
S11315B00133EA540133EA542868224B9847040063
S11315C02C492D4B9847A4002C4BE550002331E0C7
S11315D00EAB80221A7000225A70DA709A70B36BC4
S11315E00A93F36B0B93336C0C93736C02930D930C
S11315F000270EAEB8E7102306930023079303E0F9
S1131600032306930023079333680593F3689B46EB
S113161073690393337E04932E23F35C98467368B3
S11316209A46002B00D1F9E680235B059A4500D148
S1131630DEE618E7180011B03CBC90469946A24675
S1131640AB46F0BDC90D000000080040D91D0000E4
S1131650691D0000F10B0000FD1D0000010A0000DF
S1131660290A0000FFFFFFF0002000413D0C0000AC
S1131670D51E00001D170000090E0000D001002037
S1131680C2791C23002A0ED0C28D92B2173B002AC5
S113169009D10368DA69002AFCD1198502211A7E6E
S11316A00A42FCD0002318007047C04682791C23EC
S11316B0002A30D0828D92B2173B002A2BD10268C7
S11316C0107E400727D5D369002BFCD1538BDBB2A6
S11316D058061DD0980703D50223538318331AE004
S11316E0580703D5042353831A3314E0D80703D5CA
S11316F00123538312330EE0D80603D510235383FA
S1131700323308E09B0603D520235383213302E0C0
S1131710138D0B80002318007047C046F8B5800075
S1131720614BC5582C68E369002BFCD1237EA67D50
S11317301E403023EB5C3122AF5C1F40F30722D5FF
S1131740EB8D9BB2002B1CD0AA6A1378DBB2511C20
S1131750A9626979012901D09BB204E05178090298
S11317600B430232AA62DB05DB0D2385EB8D013BC3
S11317709BB2EB85002B06D1013323750133A3758E
S113178001E001232375B30709D502232375002241
S11317903133EA54FB0702D52800EB6898477307F6
S11317A063D5AB8D9BB2002B5DD0638BDBB21A0784
S11317B002D47F22134001E0772213405A0601D558
S11317C040229343002B2CD09A0705D51A223223AA
S11317D0EA54303B63831EE05A0705D51E223223A8
S11317E0EA542E3B638316E0DA0705D5132232232D
S11317F0EA54313B63830EE0DA0605D542223223F4
S1131800EA54223B638306E09B0604D5412232233B
S1131810EA54123B63837B0727D528006B699847FA
S113182023E0238DDB05DB0DDAB2696A0A706A6A8C
S1131830511C69626979012904D11B0A53706B6ACE
S113184001336B62AB8D013B9BB2AB85002B0CD19A
S11318500433237500222E33EA54BB0705D5280030
S11318602B69984701E004232375F30607D5102359
S113187023752376FB0602D52800EB699847B30647
S113188007D52023237523763B0702D52800AB69AF
S11318909847330707D5082323752376BB0602D55B
S11318A02B6A28009847F8BDD0010020F0B54746C0
S11318B080B40C00904600280DD1002A0EDD8F184C
S11318C0084E094D306821002B6898470134A7421F
S11318D0F8D1404603E00120404200E0002004BC6F
S11318E09046F0BDF0010020E8010020F0B5474625
S11318F080B40E0015000138022811D8002A12D035
S113190000240C4B98460C4F43461868315D3B68E5
S11319109847002809DB0134A542F5D1200006E0F0
S11319200120404203E0002001E00120404204BCC9
S11319309046F0BDF0010020EC010020F0B583B02A
S113194001AC012565700023A370257021001B20C4
S1131950074FB8478226F60580231B05736125705F
S113196021001C20B84780235B05736103B0F0BDE0
S1131970DD09000070B582B005000E0000226B4640
S1131980DA80064C6B46991D2800A0470028F9D13F
S11319906B4606331B88337002B070BDAD16000071
S11319A070B505008CB2034E21002800B047002812
S11319B0FAD170BD81160000F0B593B08023DB0529
S11319C0009300230193FF2269460A818B72CB7234
S11319D001242C228C5401328C5401328B54013258
S11319E08B540C9305328B5401328B540593002293
S11319F00B82CA7607930B844B840A762423CA5439
S1131A004A7613238B761333CA54013BCA54E12319
S1131A105B020A9380235B030393194B0E93194BC8
S1131A200F9301235B4210931193174D174B1D60C5
S1131A30174A184B1A60184A184B1A606A46184914
S1131A402800184B9847184F3B6898680021174E98
S1131A50B0473B6858680021B0472E683000144BEB
S1131A6098471F2318408440124B1C602A68D3698E
S1131A70002BFCD1326802331343336013B0F0BD42
S1131A800200160002001700F4010020F0010020FB
S1131A90A1190000EC01002075190000E8010020E4
S1131AA000100042ED1200006C00002043220000F0
S1131AB0450E000000E100E07047C0460C4B1B6877
S1131AC0002B10D1EFF31083002B09D172B6BFF3B2
S1131AD05F8F0022074B1A700132074B1A7002E025
S1131AE00022054B1A70024A1368013313607047D1
S1131AF0B000002008000020B4000020084B1A6841
S1131B00013A1A601B68002B09D1064B1B78002B85
S1131B1005D00122044B1A70BFF35F8F62B6704781
S1131B20B0000020B40000200800002010B50728F1
S1131B3003D880000F4B1B589F46002018E00E4B23
S1131B40586815E00D4B597D0907090F01310C4800
S1131B500C4B98470CE0084B986809E0074B1B7F37
S1131B6000209B0704D5044B186801E08020000284
S1131B7010BDC046102B0000B8000020001000402B
S1131B80006CDC026520000000B585B00322104B18
S1131B909A60104A53681E218B4353600E4A117D8C
S1131BA080230B4313750D4B984701230C4A137183
S1131BB001A94B6000234B7006220A700B724B7212
S1131BC00020084B98470020074B984705B000BDFC
S1131BD0001800400040004100100040ED1B0000D0
S1131BE000080040111C0000BD1C0000064A516999
S1131BF080230B4353610122044B1A7019000B78A4
S1131C001342FCD17047C04600080040001C00404D
S1131C1070B505000C784B78002B02D08023DB00D4
S1131C201C434B7A002B02D080231B011C434A68BF
S1131C30012A17D9531E1A420FD1022A06D90223A8
S1131C40002001305B009A42FBD800E00020802392
S1131C505B011C430004044304E0120480239B0042
S1131C601A4314430B7A002B02D080239B011C439C
S1131C700426AE400D490E4A4B6813401E42FBD168
S1131C800C4B9847AD00094B9C466544286A802359
S1131C905B001840204328626146054A4B681340A4
S1131CA01E42FBD1044B984770BDC046001C004047
S1131CB0FC070000BD1A0000FD1A000010B5040066
S1131CC00422824009480A4943680B401A42FBD166
S1131CD0084B9847A400054B9C466444236A802221
S1131CE0520013432362044B984710BD001C00406C
S1131CF0FC070000BD1A0000FD1A0000F8B504003E
S1131D00042282401248134943680B401A42FBD113
S1131D10114B98470E4F0834A400E0594007400F78
S1131D200E4B98470600E559ED04ED0FE459240CD9
S1131D300B4B9847002D07D1012C07D92100300007
S1131D40084B9847060001E00134E6403000F8BD36
S1131D50001C0040FC070000BD1A00002D1B000001
S1131D60FD1A00006520000010B50400094B9847D7
S1131D70A000094B9C4660448022815840230B43B9
S1131D8083508021403A43581A42FCD0034B984771
S1131D9010BDC046BD1A0000001C0040FD1A000022
S1131DA010B50400094B9847A000094B9C466044B9
S1131DB08022835840218B4383504031403A43581A
S1131DC01A42FCD1034B984710BDC046BD1A00000F
S1131DD0001C0040FD1A000070B504000D00054B06
S1131DE098472B780F2213402034A400024AA350B2
S1131DF070BDC046A11D0000001C004010B50400C9
S1131E00064B98472034A400054BE4582407240FBC
S1131E10044B98472000044B984710BDBD1A00009E
S1131E20001C0040FD1A0000FD1C000030B5D378F2
S1131E30002B1ED11378802B04D01B06802464024F
S1131E40234300E0002354780225AC430AD194785C
S1131E50002C03D18024A402234302E0C024E40222
S1131E60234341605478013C012C12D8184C234080
S1131E700FE041600B041B0CA024E40523438362A0
S1131E800B0CD024240623438362D378002B18D070
S1131E901CE00C04240CA025ED052C431C43846297
S1131EA00C0CD0252D062C431C438462D478002CC2
S1131EB00CD15B0305D59378012B01D1816100E03E
S1131EC041615378013B012B00D8816030BDC0468D
S1131ED0FFFFFBFF10B503000A00C1090020002921
S1131EE005D15809C0018221C9058C4660441F21CF
S1131EF00B401E399940014B984710BD2D1E000020
S1131F007047C04610B5054B9847054B9847054B9D
S1131F109847054B9847054B984710BD891B00000F
S1131F20B91A0000011F000045060000011F00004F
S1131F30FEE7C04610B51B4B1B4A9A4203D01B4B0D
S1131F40184A9A4204D31A4B1A4A9A4210D31EE0F2
S1131F50194A164B03339B1A9B0801339B0000223A
S1131F60104811498C58845004329A42FAD1EAE755
S1131F70124A0F4B03339B1A9B0801339B00002228
S1131F800C4800211418216004329A42FAD10C4AF8
S1131F90FF210C4B8B4393600B4B98470B4B98479B
S1131FA0FEE7C04600000020B82B000070000020AF
S1131FB09C02002070000020040000207400002017
S1131FC000ED00E000000000D52100000D2000001D
S1131FD00300064A1268002A02D10549034A116027
S1131FE0024A1068C31813607047C046C40000203A
S1131FF0A0220020012040427047C04680239B015C
S11320004B6000207047C0460020704710B50B4B52
S113201098470B4B98470B4B98470B4B98470B4BE8
S113202098470B4B98470B4B98470B4B98470B4BD8
S11320301B889BB20A4A1380FEE7C046051F0000B6
S11320407D050000B91900003D1900009D04000041
S11320501D0100000D040000B5030000540200201F
S113206028020020002243088B4274D303098B42C8
S11320705FD3030A8B4244D3030B8B4228D3030C54
S11320808B420DD3FF22090212BA030C8B4202D3F6
S11320901212090265D0030B8B4219D300E0090A1E
S11320A0C30B8B4201D3CB03C01A5241830B8B4227
S11320B001D38B03C01A5241430B8B4201D34B0310
S11320C0C01A5241030B8B4201D30B03C01A524175
S11320D0C30A8B4201D3CB02C01A5241830A8B42FA
S11320E001D38B02C01A5241430A8B4201D34B02E3
S11320F0C01A5241030A8B4201D30B02C01A524147
S1132100CDD2C3098B4201D3CB01C01A52418309FA
S11321108B4201D38B01C01A524143098B4201D334
S11321204B01C01A524103098B4201D30B01C01A5F
S11321305241C3088B4201D3CB00C01A52418308D9
S11321408B4201D38B00C01A524143088B4201D306
S11321504B00C01A5241411A00D201465241104666
S11321607047FFE701B5002000F006F802BDC04645
S11321700029F7D076E770477047C046F0B54F4660
S11321804646C0B41604360C9946330005042C0C9C
S1132190070C150C63437E436F4365431C0CAD1958
S11321A064199C46A64203D980235B02984647449F
S11321B06346250CEF191D044B464A4343432D0C3B
S11321C0240464199918C91920000CBC9046994636
S11321D0F0BDC0460E4B70B500251E000D4CE41A30
S11321E0A410A54204D0AB00F35898470135F8E792
S11321F000F0D2FC084B00251E00084CE41AA41081
S1132200A54204D0AB00F35898470135F8E770BDF8
S1132210A42B0000A42B0000A42B0000A82B00007A
S1132220002310B59A4203D0CC5CC4540133F9E7BF
S113223010BD03008218934202D019700133FAE7EB
S113224070474A424A41802310B55200DB0000F037
S113225001F810BDF0B51D00514B85B01E68040097
S11322600F000092002E05D0B369002B02D130007C
S113227000F094F94B4B9C4201D1746808E04A4B3E
S11322809C4201D1B46803E0484B9C4200D1F468FD
S1132290009B022B05D0012B00D97CE0002D00DA35
S11322A079E02100300000F00BF9616B002908D0BF
S11322B023004433994202D0300000F033FA002363
S11322C063630023A3616360A3891B0603D52169AB
S11322D0300000F027FAA289354B1340A381009BFC
S11322E0022B21D003AB02AA2100300000F0EAF94E
S11322F0A3891843A081002D01D1029D01E0002F84
S113230025D1280000F004FA0195071E1AD1029B7A
S11323100193AB4202D10120404206E0019800F053
S1132320F7F9071E0ED1F6E700200222A389134312
S1132330A3810023A3602300473323602361012387
S113234063612AE08022A389019D1343A381B369B9
S1132350002B02D1300000F021F9009B012B03D1A6
S1132360A389009A1A43A2810823A28927601340F3
S113237027616561181E0CD001231A400023101E2A
S1132380984204D06D42A360A561180005E0A560E1
S113239003E0A36001E00120404205B0F0BDC04667
S11323A06C000020382B0000582B0000782B000014
S11323B05CF3FFFFF7B58A8905000C0013075AD4B4
S11323C04B68002B02DC0B6C002B19DDE76A002F35
S11323D016D000232E682B6080235B011A4001D0A5
S11323E0606D14E00123216A2800B847431C0ED114
S11323F02B68002B0BD01D2B01D0162B02D12E6085
S113240000205AE04022A3891343A38155E0A38905
S11324105B0706D56368C01A636B002B01D0236C7D
S1132420C01A00230200216A2800E76AB847A3897A
S1132430421C06D129681D293AD8204ACA40D2072D
S113244036D50022626022692260DB0405D5431C74
S113245002D12B68002B00D16065616B2E600029CE
S1132460CED023004433994202D0280000F05AF918
S11324700020606321E00F69002FC1D00B680F605A
S1132480DB1B01930023920700D14B69A36003E097
S1132490019B3F181B1A0193019B002BB0DD019B8C
S11324A03A00216A2800A66AB0470028F0DCA38914
S11324B0402201201343A3814042FEBD010040207D
S11324C00B6970B505000C00002B01D100201CE045
S11324D0002804D08369002B01D100F05FF80B4B76
S11324E09C4201D16C6808E0094B9C4201D1AC6864
S11324F003E0084B9C4200D1EC680C22A35E002B45
S1132500E4D021002800FFF755FF70BD382B0000F0
S1132510582B0000782B000010B5024900F0B0F8E9
S113252010BDC046C1240000002310B504000360A0
S11325304360836081814366C28103614361836137
S1132540190008225C30FFF774FE054B24626362B5
S1132550044BA362044BE362044B236310BDC046E7
S113256081280000A9280000E12800000D290000AE
S113257070B568254B1E5D430E002900743100F0D0
S113258017F9041E08D000212A00016046600C30AF
S1132590A0606832FFF74DFE200070BD836913B55B
S11325A00400002B28D18364C3640365134B144ACD
S11325B01B6882620193984201D101238361200048
S11325C000F020F86060200000F01CF8A0602000FB
S11325D000F018F80022E06004216068FFF7A4FF0F
S11325E001220921A068FFF79FFF02221221E0685F
S11325F0FFF79AFF0123A36113BDC046342B0000EB
S113260019250000F8B51D4B06001D68AB69002BA9
S113261002D12800FFF7C2FF4835AC686B68013B64
S113262005D40C22A75E002F10D06834F7E72B687E
S1132630002B01D02D68F0E704213000FFF798FF4C
S113264028600028F6D10C23336016E00123200013
S11326505B42E3810233A38167662760A7606760FA
S113266027616761A7615C3008223900FFF7E1FD4B
S113267020006763A763A764E764F8BD342B0000F8
S1132680F7B504000700002601914834002C16D049
S11326906368A5680093009B013B00930DD4AB894C
S11326A0012B08D90E22AB5E013304D02900380077
S11326B0019B984706436835EDE72468E6E7300058
S11326C0FEBD000070B50E001D000E23C95E90B063
S11326D01400002906DA00232B60B3891B060FD5EA
S11326E040230FE001AA00F03DF90028F3DBF023BA
S11326F0029A1B021340054A9B185A4253412B600D
S11327008023DB000020236010B070BD00E0FFFFD9
S113271010B5034B0100186800F04AF810BDC0461C
S11327206C00002030B500293ED004390B68002B22
S113273000DAC9181D4A13681400002B02D14B603B
S1132740116031E08B420DD90A688818834203D1A5
S113275018685B6882180A604B60216024E08A4232
S113276003D813005A68002AF9D11D685C198C42F9
S11327700BD10968691858181960824214D110687D
S11327805268411819605A600EE08C4202D90C2339
S1132790036009E008680C18A24203D11468526867
S11327A0201808604A60596030BDC046CC00002043
S11327B0032370B5CD1C9D43083506000C2D01D2B2
S11327C00C2505E0002D03DA0C230020336040E0E3
S11327D0A942F9D81F4B1C681A002100002913D004
S11327E00B685B1B0DD40B2B02D90B60CC181EE0BD
S11327F08C4202D1636813601AE04B6863600C007A
S113280016E00C004968E9E7134C2368002B03D158
S1132810300000F023F820602900300000F01EF89A
S1132820431CD1D00323C41C9C43A0420AD125607D
S1132830200007220B30231D9043C31A09D05A42AB
S1132840E25006E0211A300000F008F8431CEED1F3
S1132850BAE770BDCC000020C8000020002370B58A
S1132860064C050008002360FFF7B2FB431C03D1AC
S11328702368002B00D02B6070BDC0469802002056
S113288070B50C000E25495F00F092F8002803DBB8
S1132890636D1B18636503E0A289024B1340A38197
S11328A070BDC046FFEFFFFFF8B51F008B89050020
S11328B00C001600DB0505D50E23C95E0022022399
S11328C000F062F8A289054B28001340A38132006E
S11328D00E23E15E3B0000F01FF8F8BDFFEFFFFFA1
S11328E070B50C000E25495F00F04EF8A389421C18
S11328F003D1054A1340A38104E08022520113430B
S1132900A381606570BDC046FFEFFFFF10B50E23C5
S1132910C95E00F015F810BD70B50500080011007F
S11329200022064C22601A00FEF7E0FF431C03D18C
S11329302368002B00D02B6070BDC0469802002095
S1132940002370B5064C050008002360FFF752FB16
S1132950431C03D12368002B00D02B6070BDC046FC
S113296098020020002370B5064C050008001100F1
S11329702360FFF743FB431C03D12368002B00D0E3
S11329802B6070BD9802002070B50500080011008E
S11329900022064C22601A00FFF736FB431C03D1C9
S11329A02368002B00D02B6070BDC0469802002025
S11329B070B50500080011000022064C22601A00C0
S11329C0FEF774FF431C03D12368002B00D02B6057
S11329D070BDC04698020020CE070000CE0700005C
S11329E0C4070000CE070000C4070000AA070000C7
S11329F0AA070000CE070000CE070000CE070000A3
S1132A00CE070000CE070000CE070000CE0700006E
S1132A10CE070000CE070000CE070000CE0700005E
S1132A20CE070000CE070000CE070000CE0700004E
S1132A30CE070000CE070000CE070000CE0700003E
S1132A40C4070000CE070000C4070000CE07000042
S1132A50CE070000CE070000CE070000CE0700001E
S1132A60CE070000CE070000CE070000CE0700000E
S1132A70CE070000CE070000CE070000CE070000FE
S1132A80CE070000CE070000CE070000CE070000EE
S1132A90CE070000CE070000CE070000CE070000DE
S1132AA0CE070000CE070000CE070000CE070000CE
S1132AB0CE070000CE070000CE070000CE070000BE
S1132AC0CE070000CE070000CE070000CE070000AE
S1132AD0CE070000CE070000C4070000C4070000B2
S1132AE0D6070000D6070000D6070000D60700006E
S1132AF00004004200080042000C004200100042A2
S1132B000014004200180042090A0B0C0D0E0000CC
S1132B103E1B00003A1B00003A1B00006C1B000027
S1132B206C1B0000561B0000441B00005C1B0000D3
S1132B30430000000C000020000000000000000022
S1132B400000000000000000000000000000000081
S1132B500000000000000000000000000000000071
S1132B600000000000000000000000000000000061
S1132B700000000000000000000000000000000051
S1132B800000000000000000000000000000000041
S1132B900000000000000000F8B5C046F8BC08BC06
S1132BA09E467047E5000000F8B5C046F8BC08BC76
S10B2BB09E467047BD000000C1
S1132BB808000000401F00000100000000000000A1
S1132BC8382B0000582B0000782B00000000000070
S1132BD8000000000000000000000000302B00008E
S1132BE800000000000000000000000000000000D9
S1132BF800000000000000000000000000000000C9
S1132C0800000000000000000000000000000000B8
S1132C180000000000000000000000000C0000207C
S9031F35A8
