:1000000018240020914F00008D4F00008D4F0000FC
:1000100000000000000000000000000000000000E0
:100020000000000000000000000000008D4F0000F4
:1000300000000000000000008D4F00008D4F000008
:100040008D4F00008D4F00008D4F0000B530000037
:100050008D4F00008D4F00008D4F00008D4F000030
:100060008D4F0000253A0000353A0000453A000067
:10007000553A0000653A0000753A00008D4F0000C7
:100080008D4F00008D4F00008D4F00008D4F000000
:100090008D4F00008D4F00008D4F00008D4F0000F0
:1000A0008D4F00008D4F00008D4F00008D4F0000E0
:1000B0008D4F00008D4F00008D4F000010B5064C95
:1000C0002378002B07D1054B002B02D0044800E019
:1000D00000BF0123237010BD70000020000000004D
:1000E000E06C0000084B10B5002B03D0074908480E
:1000F00000E000BF07480368002B00D110BD064B8D
:10010000002BFBD09847F9E70000000074000020A6
:10011000E06C0000E06C00000000000010B58CB046
:100120000BA901234B7000248C700B702620134BFD
:1001300098474022124B5A616846124B9847032356
:100140006A4653701471072393700F4C0F492000B7
:100150000F4B98472268138C9BB2002BFBD10733BF
:10016000137193711178053B0B431370064B1A689A
:10017000138C9BB2002BFBD10CB010BD913500004D
:1001800080000041592B000028010020004400425B
:100190009D2B000070B5194B1C68238C9BB2002B63
:1001A000FBD1227E023313432376238C9BB2002B98
:1001B000FBD1012104260225A379DBB20A001A40F3
:1001C0001E4200D02A431D4200D032431142F3D0D8
:1001D000A38C0380094B196801238B718A79D2B2F1
:1001E0001340500701D502200343920701D5042292
:1001F00013435B0701D502238B7170BD28010020DA
:10020000094B98420BD8094A0232012311888142D6
:1002100006D90133DBB202328D2BF7D100E0002387
:10022000034AD0567047C046983B00008C650000DA
:10023000A866000070B5254C8823E05C00020133FD
:10024000E35C181880B2224DA847224B18708A230D
:10025000E05C00020133E35C181880B2A8471E4B33
:1002600018708C23E05C00020133E35C181880B244
:10027000A8471A4B18708E23E05C00020133E35C40
:10028000181880B2A847164B18709023E05C000243
:100290000133E35C181880B2A847124B18709A23F8
:1002A000E35C1B029B22A25CD3180F4A13808623B7
:1002B000E35C1B028722A25CD3189BB20B4A13801B
:1002C0000B4A13800B4A138070BDC0466C0200209D
:1002D0000102000030010020330100203401002021
:1002E00032010020310100205E0300209400002034
:1002F000920000208C000020F0B589B04D4B1B7897
:10030000002B16D101224B4B1A704B4A4B49080067
:10031000403015002035002413889B080B800B8487
:10032000038003841480023202310230AA42F3D1E6
:100330000FE0434B18784001404BC01800233E4D5E
:10034000002459190A889208C2520C800233202BCB
:10035000F7D13B4B1B780133DBB2032B02D8384A71
:10036000137002E00022364B1A7034480021070057
:10037000314ECA19048C0388E3188D192C881B1977
:100380001400403424881B19603212889B189BB2D9
:100390002B806A468B52023102302029E9D10F2787
:1003A00014E051006846085A511C4D006C462D5B04
:1003B000A84203D952001553490008530133DBB258
:1003C0001A1EB242EDDB013F002F05D03E00002295
:1003D0000023002FE5DCF6E76B46063308A9002072
:1003E0001A88801802339942FAD10D21154B98478B
:1003F000154B18806B46DA8B144B1A806B46DA88E3
:10040000134B1A80134B00229B5E002B10DA124A0A
:1004100012780132D2B2032A02D80F490A7002E0E0
:1004200000210D4A11700C4A127852000B495352A8
:1004300009B0F0BD8F000020F40300203801002037
:1004400090000020395100001C0300204C030020C4
:100450001E0300205E0300208E000020A803002061
:100460002F4B00229A562F4B1B785BB29A4202DD2B
:100470002D4B1A8001E02C4A13802C4B00229A56F7
:100480002B4B1B785BB29A420ADD2A49097849B2A4
:100490008A4202DD28490A800CE02748018009E0F1
:1004A0002449097849B28B4202DD23490B8001E0DF
:1004B000214801801C3201DA1C4A13701C3303DA14
:1004C0001C4B1A781A4B1A701A4B1B785BB21A0025
:1004D0001C320ADA164B1B785BB2164A1370134AA9
:1004E000127852B293420DDC17E0104A127852B2E1
:1004F0000F49097849B28A420ADA0E4B1B785BB27F
:100500009A4202DA0D4B1A8009E00C4A138006E089
:100510008B4202DD094B198001E0084A13807047C5
:100520003001002033010020D003002034010020DE
:100530003201002031010020C403002068020020A5
:1005400010B50A4A0A491400203413781B02507867
:10055000C3180B8002320231A242F6D1054B9847F4
:10056000054B9847054B984710BDC046D202002066
:10057000F4030020F90200006104000011120000E1
:1005800070B52E4A2E491400203413781B0250787F
:10059000C3180B8002320231A242F6D1294C8823C3
:1005A000E05C00020133E35C181880B2264DA847D6
:1005B000264B18708A23E05C00020133E35C1818B4
:1005C00080B2A847224B18708C23E05C00020133F4
:1005D000E35C181880B2A8471E4B18708E23E05CAD
:1005E00000020133E35C181880B2A8471A4B187058
:1005F0009023E05C00020133E35C181880B2A84746
:10060000164B18709A23E35C1B029B22A25CD31842
:10061000134A13808623E35C1B028722A25CD31853
:100620009BB2104A1380104A1380104A1380104B5B
:100630009847104B9847104B984770BDD202002046
:10064000F40300206C0200200102000030010020B1
:10065000330100203401002032010020310100204C
:100660005E03002094000020920000208C000020F7
:10067000F9020000610400001112000070B5424A46
:100680000B21E020414CA0470F221121E020A04780
:100690003F4A1721E020A0473E4A1221E020A04710
:1006A000F022FF321321E020A0473B4A0621E02040
:1006B000A047C02292000721E020A047374A04212A
:1006C000E020A047E0256D002A000821E020A04797
:1006D0002A000921E020A047802212020321E02005
:1006E000A0472F4D2A000121E0202E4EB0472B8835
:1006F000D22292001A432C4B1A800121E020A047FD
:1007000000220B21E020A0476420284B98472A00B4
:100710000321E020B047002805D1214B00229B5E39
:100720000130002B2EDA1E4A1121E0201D4B984784
:10073000002804D11A4B1B8801301B0722D0184A0D
:100740000121E020174B9847002806D1144B1A8846
:100750000130D2239B001A4214D0D2229200124BB5
:100760001A800F4A0621E0200E4B98470300012013
:10077000002B07D10A4B18880D4B9C466044431E42
:100780009841C0B270BDC046B5E300008D2700009F
:1007900042240000430C00002D2E00003FFE00000C
:1007A0005803002069280000CE030020D52A00004D
:1007B000D3D1FFFF10B50D4A0B21E0200C4CA04710
:1007C000F82252010F21E020A0470A4A0521E0202B
:1007D000A047094A0C21E020A047084A1A21E0203E
:1007E000A04700220B21E020A04710BDB5E3000088
:1007F0008D270000FF0F00000307000032100000EB
:1008000070B5124A0B21E020114CA047114A0A2171
:10081000E020A04700221521E020A047012214215A
:10082000E020A047E0256D002A000821E020A04735
:100830002A000921E020A047074A1821E020A0470C
:1008400000220B21E020A04770BDC046B5E30000A8
:100850008D2700000740000011070000F8B5C824EC
:10086000124D134E134F2A003021E020B0472B8841
:10087000DB0713D501223021E0200F4CA0470F4A9F
:100880000A21E020A0470A200A4B9847074C220083
:100890004A21E020064B9847208806E00120B8470F
:1008A000013CE4B2002CDED10020F8BD580300204A
:1008B00069280000012B00008D2700000140000086
:1008C00030B583B0644B5B78DB0700D4C2E0822391
:1008D000DB051A00803280218900D1612022DA6193
:1008E000802212015A611B6ADB0603D55B485C4B10
:1008F000984702E05B485A4B98478223DB051B6A06
:100900005B0603D55848564B984702E05748544B6E
:100910009847574B1B6ADB0603D55648504B984700
:1009200002E055484E4B98476B469C1D00232380A0
:100930002000524B984721885148524B9847464BCC
:100940005A7801218A435A701A788A431A704E4B9A
:1009500098478022D2008223DB055A614B4B98478F
:1009600003204B4B98474B4A13780133DBB213708B
:10097000494B5B785B0633D5484A0A21E020484D55
:10098000A847484B9847484C22003021E020474B6D
:10099000984707223021E020A8476420444B98471D
:1009A000238805221340052B06D151320121E02076
:1009B000404B9847404B9847C8203D4B98470120F3
:1009C000334B98473D4B9847374B1B88DB0725D562
:1009D00056220121E020374B9847394B98471DE0BC
:1009E000384A0A21E0202E4DA8472F4C2200302102
:1009F000E0202E4B984707223021E020A8476420B2
:100A00002B4B9847238805221340052B06D15132E2
:100A10000121E020274B98472B4B98472B4B9847B9
:100A20002B4B98471C4B5B785B0605D5294A182150
:100A3000E0201B4B984704E0274A1821E020184B80
:100A40009847264B98470320114B9847244B9847CB
:100A5000244B984703B030BD600300203867000086
:100A6000E555000044670000506700006067000023
:100A700080000041706700007C6700009501000065
:100A800088670000ED540000892A00001927000043
:100A9000012B00005C030020CC0300200741000074
:100AA0008D2700000108000058030020692800007D
:100AB000D52A000061290000350200005D08000011
:100AC000410500000740000081050000B507000057
:100AD000811A000001070000110700009D25000099
:100AE000FD230000291B000010B5014B984710BDE5
:100AF000C108000070B57C4A537804218B435370C1
:100B00007A4A2C31E0207A4B9847002823D1764C42
:100B1000764B1988DC239B0019402388754A1340C3
:100B20000B43238000225221E030734DA84700225E
:100B30005321E020A84763789B0700D1CCE06F4A9F
:100B4000517808230B4353700AE06C4A537808210C
:100B50008B43537004E0644A517804230B43537071
:100B6000614B1B8870221A4200D180E0644B1B78D5
:100B7000DBB2282B25D9634B1B78DBB2052B1DD8A4
:100B8000604A13780133DBB2137000225C4B1A7099
:100B9000A02212020321E020574CA047DC22920041
:100BA0003021E020A04780252D022A000321E020EB
:100BB000A0472A000321E020A04702E02922504B51
:100BC0001A70514B1B78DBB2502B25D94F4B1B7839
:100BD000DBB2052B1DD84D4A13780133DBB21370FD
:100BE0000022494B1A70A02212020321E020424C3D
:100BF000A047DC2292003021E020A04780252D0272
:100C00002A000321E020A0472A000321E020A0477A
:100C100002E029223C4B1A703D4B1B78DBB2282B9B
:100C200025D93C4B1B78DBB2052B1DD8394A1378EC
:100C30000133DBB213700022354B1A70A02212026E
:100C40000321E0202C4CA047DC2292003021E02040
:100C5000A04780252D022A000321E020A0472A007A
:100C60000321E020A04702E02922294B1A701F4AE5
:100C70000321E0201E4B9847002815D11B4B1B88F1
:100C80009B0405D4184A53787F210B4053700BE026
:100C9000154A5378802149420B4353708022120237
:100CA0008331E020144B9847104A5521E020104B27
:100CB000984700280AD10C490C4B1B881B079B0F37
:100CC0000A880330824313430B800BE0064A5178B5
:100CD00004230B43537005E0084B5B781B0700D5DA
:100CE00033E73DE770BDC046CC0300205803002029
:100CF000692800008FFCFFFF8D27000060030020A3
:100D0000F303002098000020F20300209700002049
:100D1000CA03002096000020F0B5284B1888284B05
:100D20001B785A0721D5274B1E882749002200250A
:100D300001270B8898420FD21B1A9BB2A42B05D90E
:100D40003B0093401E43B6B23D0005E0512B03D853
:100D50003B0093409E433D0001320231102AE8D10E
:100D6000002D29D0174B1E8026E01B0721D4154BE0
:100D70001E8815490022002501270B8898420FD2B2
:100D80001B1A9BB2A42B05D93B0093401E43B6B25D
:100D90003D0005E0512B03D83B0093409E433D00AE
:100DA00001320231102AE8D1002D05D0054B1E80FA
:100DB00002E00022034B1A80F0BDC0461E03002053
:100DC000F003002054030020F403002070B5124A01
:100DD0000B21E020114CA047114A1821E020A04728
:100DE000104D2A000821E020A0472A000921E02018
:100DF000A04700221421E020A0470B4B1A881521A0
:100E0000E020A047094A0A21E020A04700220B2148
:100E1000E020A04770BDC046B5E300008D2700006C
:100E200001070000FFFF0000500300200741000001
:100E300000B583B000236A461370074A5268D20691
:100E4000120F69468A70CB700B714B714B706846FC
:100E5000024B984703B000BD004000417D320000C6
:100E600070B50500024C2800A0470528FBD070BDD6
:100E70000D350000F8B506000D001400034F2200E8
:100E800029003000B8470528F9D0F8BDC533000067
:100E9000F8B506000D001400034F220029003000B1
:100EA000B8470528F9D0F8BD95340000344A517888
:100EB000344B9974997CC9B21975997CC9B259752A
:100EC00011799984998C090289B29984988C517905
:100ED000014399849179D984D98C090289B2D98442
:100EE000D88CD1790143D984117A1985198D0902D9
:100EF00089B21985188D517A01431985D17A224B0F
:100F00001980117B214B19801988090289B2198037
:100F10001888517B01431980917B598059880902B7
:100F200089B259805888D17B01435980102151568C
:100F30001971112151565971917CD980D98849B2C2
:100F40000902D980D98809B2D07C0143D980117DAA
:100F50001981198949B209021981198909B2507D8B
:100F600001431981917D59815989090289B25981B9
:100F70005889D17D01435981127E52B21A7370474C
:100F8000D403002020030020C0030020B003002071
:100F9000F8B52E4BB3221A702D490A88120A9A709E
:100FA0000A88DA702B4A918C090A1971918C59714F
:100FB000D18C090A9971D18CD971118D090A1972D4
:100FC000128D5A72244A1288110A9972DA72234ACF
:100FD0001188090A1973118859735188090A99737C
:100FE0005188D9731179197451795974D188090AC2
:100FF0009974D188D9741189090A1975118959759B
:101000005189090A99755189D975127B52B2121208
:101010001A761A0019331900002310781B18DBB256
:1010200001328A42F9D1094C63760D4D28000D4FEB
:10103000B8470D4E3000B8471A22210028000B4D4A
:10104000A8471A2221003000A847F8BDD403002089
:101050004E03002020030020C0030020B003002026
:1010600000FE0300610E000000FF0300750E00008B
:1010700010B5104C1A2221000F48104B98472378C6
:10108000B32B13D10B4A10001930002311785B18D1
:10109000DBB201328242F9D1064A527E9A4202D133
:1010A000074B984704E0074B984701E0054B9847EA
:1010B00010BDC046D403002000FF0300910E0000C5
:1010C000AD0E0000910F000010B5104C1A22210047
:1010D0000F48104B98472378B32B13D10B4A1000BD
:1010E0001930002311785B18DBB201328242F9D14A
:1010F000064A527E9A4202D1074B984704E0074BBA
:10110000984701E0054B984710BDC046D403002026
:1011100000FE0300910E0000AD0E000071100000F3
:10112000F0B5474680B482B001AC01276770002655
:10113000A670277021002920134DA8478223DB05C4
:1011400098468033802292009A6127702100052002
:10115000A847202342469361277021000B20A8470F
:1011600080231B0142469361267021000420A8477A
:10117000267021000620A847267021002420A847B9
:1011800002B004BC9046F0BD9135000070B5012A54
:101190001BD11A4B0A0A1A54181841701923013B23
:1011A000DBB2002BFBD1164C2000164EB047164D7B
:1011B0002800B047114E1A2231002000134CA047DE
:1011C0001A2231002800A04717E00C4B19541923AC
:1011D000013BDBB2002BFBD1094C2000094EB0478C
:1011E000094D2800B047054E1A2231002000074C57
:1011F000A0471A2231002800A04770BDD403002068
:1012000000FE0300610E000000FF0300750E0000E9
:1012100010B57F4B1B889BB27E4A11888B4210D938
:101220007D4B1B780133DBB20A2B02D87A4A13704C
:101230000AE00022784B1A7001320C20774B984755
:1012400002E00022744B1A70714B5B889BB2744AA7
:1012500011888B4210D2734B1B780133DBB20A2BFF
:1012600002D8704A13700AE000226E4B1A700132E5
:101270000E206A4B984702E000226A4B1A706A4BB4
:101280001988634B1B795BB299420FDA674B1B7865
:101290000133DBB20A2B02D8644A137009E0002242
:1012A000624B1A7010205D4B984702E000225F4BA2
:1012B0001A705F4B1988564B5B795BB299420FDD10
:1012C0005C4B1B780133DBB20A2B02D8594A1370EE
:1012D00009E00022574B1A701120504B984702E04A
:1012E0000022544B1A704A4BDB881BB2524A002131
:1012F000515E8B4213DD002911DA504B1B7801330C
:10130000DBB20A2B02D84D4A13700BE000224B4B84
:101310001A7089B201321220404B984702E0002235
:10132000464B1A703A4B1B891BB2434A0021515E4F
:101330008B4213DA002911DD414B1B780133DBB2FC
:101340000A2B02D83E4A13700BE000223C4B1A7065
:1013500089B201321420314B984702E00022384B09
:101360001A70384B1B882A4A52899BB2934213D970
:10137000354B1B780133DBB20A2B02D8324A13708B
:101380000DE00022304B1A702E4B198889B20132C1
:101390001620224B984702E000222B4B1A702B4B51
:1013A00019881B4B1B7B5BB2994210DD284B1B78C5
:1013B0000133DBB20A2B02D8254A13700AE000225F
:1013C000234B1A7001321820144B984702E0002278
:1013D0001F4B1A701F4B19881F4B1B888B4212D052
:1013E0001E4B1B780133DBB20A2B02D81B4A137049
:1013F0000CE00022194B1A70174B198001320A2099
:10140000064B984702E00022144B1A7010BDC046EC
:10141000B00300201E030020A40000208D11000056
:101420004C0300209E00002068020020A200002043
:10143000C40300209D0000205E0300209C000020CB
:10144000A3000020200300209F000020D0030020E4
:10145000A0000020C00300209A000020A10000206E
:1014600070B58224E4058023636180263605A66179
:1014700080256D05A561FA2040001D4B98476661E7
:1014800065611C48002300211B4D1C4A13801C4A27
:1014900013801C4A13801C4C1C4A14801C4A138065
:1014A0001C4A13801C4A13801C4A13801C4A138058
:1014B0001C4A11701C4A11701C4A117040226A703B
:1014C0001B4A11760124047000262E7044701362AA
:1014D0009384D1759176174A5171642010711381EC
:1014E000D380117353815380013B138070BDC0467C
:1014F000012B000060030020F0030020CC0300203B
:10150000C8030020C003002018F6FFFF4E03002090
:101510005E0300205003002054030020CE0300206F
:101520001C030020F3030020F2030020CA03002064
:1015300020030020B003002010B5264B1B785B076A
:1015400014D4254B984700280AD1224A1178042345
:101550000B431370214A13787F210B40137005E071
:101560001E4A1378802149420B4313701C4B984745
:101570001A4B1B8884229200134205D019490A781D
:10158000022082430A7004E01649087802220243CE
:101590000A70B0225200134210D0124A137801216F
:1015A0008B4313700D4A517820230B435370DB0794
:1015B0000ED5517810230B43537009E0074A537836
:1015C00020218B435370074A117801230B4313707A
:1015D00010BDC046600300207D060000CC03002043
:1015E000F50A0000F0030020784B5B78DB075AD443
:1015F000764B1B789B077AD5754B1B88322B13D9FA
:10160000744B1B780133DBB2082B02D8714A13707C
:101610006DE000226F4B1A706C494A780123134326
:10162000042213434B7062E000226A4B1A706A4B2B
:1016300000229B5E002B30DD142B25DD674A934290
:1016400017DD674B1B780133DBB2042B02D8644AE9
:10165000137011E00023624A1370624A13805B4BDF
:10166000197810220A431A70597801220A435A70D5
:1016700002E000225A4B1A7054490A78042313439B
:10168000F72213400B7032E00022554B1A704F4A7C
:10169000137804218B43137029E04C4A13780421FA
:1016A0008B43137023E0494B1B78DB0610D54D4B61
:1016B0001B88142B1BD900224A4B1A80434B1A78E3
:1016C00010218A431A705A780F398A435A700EE0F3
:1016D0003F4B1B88272B0AD8434B1B88052B06D969
:1016E0003A4A537801218B4303318B435370374B74
:1016F0005B789B0748D4354B1B78DB0764D5344BAC
:101700001B88412B13D9394B1B780133DBB2082BD3
:1017100002D8364A137057E00022344B1A702B4916
:101720004A7802231343082213434B704CE00022F3
:101730002E4B1A70284B00229B5E002B1EDA234989
:101740000A7808231343FB2213400B70284B1B78A5
:101750000133DBB2042B02D8254A137034E0002396
:10176000234A1370234A1380184B197820220A4306
:101770001A70597802220A435A7025E0134A1378E6
:1017800008218B4313701FE0104B1B789B0610D56C
:10179000184B1B88142B17D90022164B1A800B4BA1
:1017A0005A7802218A435A701A781E318A431A7075
:1017B0000AE0074B1B88362B06D8044A53780221CF
:1017C0008B4306318B4353707047C046F0030020B3
:1017D000C4030020B80000205E030020E9130000CD
:1017E000AA000020AE00002068020020AC0000200B
:1017F000AD000020BC00002010B53C4B1A883C4BCB
:101800001B88D01A3B49884202DD3B49098803E026
:10181000394908883949088039498B420DD83649F9
:10182000098838480088091A89B2782909D93648C0
:10183000047802212143017003E02F4908883149CF
:10184000088032498A420DD92B49098830480088DE
:10185000091A89B2782909D92B4804780221214331
:10186000017003E0244908882949088029498B42EE
:1018700002D82149098803E01F49088826490880C1
:1018800026498B420DD81C4B1B88254909885B1AB9
:101890009BB2082B0ED923490878402303430B70D1
:1018A00008E0154B19881E4B19801E490B78402003
:1018B00083430B701C4B9A420ED90F4B1B88184A5E
:1018C00012889B1A9BB2082B0FD9164A13788021D5
:1018D00049420B43137008E0124A13787F210B40F2
:1018E0001370054B1A880E4B1A8010BD4C03002054
:1018F0001E03002066060000A8000020B0000020A3
:1019000032130000BA000020C00300200A37000094
:10191000A60000206F1D0000B60000206526000014
:10192000B4000020600300202436000010B5304BC6
:101930001B88304A934209D92F4A12889A1AA42A3E
:1019400004DD2E494878402202434A702C4A9342D3
:1019500008D9294A12889B1A512B03DD294B1B7881
:101960001B0704D5254A537840218B435370234BE2
:101970005B785B0639D5244A13780133DBB21370E8
:101980001378DBB2182B09D8204B98471E4B1B78D5
:10199000DBB2142B2BD91E4B984728E01A4B1B782F
:1019A000DBB24A2B08D81B4B1A881B4B13401B4A2F
:1019B00013801B4B98471AE0134B1B78DBB2502B5C
:1019C00010D9144B1A88174B1340144A1380144B28
:1019D00098470D4B1B78DBB2822B08D900220A4BAB
:1019E0001A7004E0094B984701E0084B984710BD76
:1019F0004C030020EB3100001E030020CC0300202C
:101A0000A2300000F0030020AB000020010800001D
:101A1000190D00005403002055550000500300200C
:101A2000CD0D0000AAAAFFFF124B1B886E2B11D907
:101A3000114B1B780133DBB2082B02D80E4A13700E
:101A400017E009220C4B1A700C4A517820230B43E3
:101A500053700EE0542B0CD8074B1B78002B03D08F
:101A6000013B054A137004E0044A537820218B435C
:101A700053707047D0030020B3000020F003002013
:101A800010B5054B9847054B9847054B9847054BB4
:101A90009847054B984710BD39150000E91500001F
:101AA000F91700002D190000291A000010B5184B75
:101AB00000229A5E174B5343174C226ADB139B1884
:101AC0002362206AE1218901144B9847226A144B52
:101AD00043439B18236203001D3302DB6368C01875
:101AE00060600D4B5B68002B03DD00220A4BDA605F
:101AF0000DE0094B5968DA688A18DA6000225A60EA
:101B0000DA68084B9A4202DA1A00034BDA6010BD19
:101B10005E03002020BF0200200300204D52000081
:101B2000C0C7FFFF50FBFFFF10B5294A13880133E0
:101B30009BB21380274A137801331370264B9847C2
:101B4000264B1B789A0605D525490A780132D2B270
:101B50000A7006E0224A12782D2A02D00021204A7B
:101B600011705A0605D51F490A780132D2B20A709F
:101B700006E01C4A12782D2A02D00021194A117061
:101B8000DB0605D5184A13780133DBB2137006E083
:101B9000154B1B782D2B02D00022134B1A70134BC0
:101BA0001B789A0604D512490A8801320A8002E09D
:101BB00000210F4A1180DB0604D50E4A1388013339
:101BC000138002E000220B4B1A800B4B984710BD8C
:101BD000A8000020B2000020AD1A0000CC030020B5
:101BE000F3030020F2030020CA030020F0030020CA
:101BF000BC000020AE00002019490000F0B5041E12
:101C0000104B9C421AD03220652100220E4EFF2537
:101C10000CE05318D80FC3185B10D8B22B405B00F0
:101C20009B5BA3420DD08F1A012F09D09C4201D398
:101C3000020000E001009142EBD802E0322000E017
:101C40001000F0BD660E00009867000070B5BC4B38
:101C50001B88B5339BB2B522520093425BD8B94A78
:101C6000537810218B4353700022B74B1A70B74B37
:101C70001B88002B2CD1B64B1888B64B188001322C
:101C8000B24B1A80B44B5843800BB44B9847B44BBB
:101C90009B7CDBB2984205D9B14B9B7CC01AB14BFF
:101CA000188004E0AE4B9B7C181AAE4B1880AD4BED
:101CB0001988002908D0494389B296200001AA4B0F
:101CC0009847A84B188039E07822A64B1A8035E057
:101CD00001339BB29D4A1380A24A12889A422DD2A8
:101CE0009B4B1A889B4B1B889A4202D9D31A9BB2F2
:101CF00001E09B1A9BB2F422FF32934207D8914A2B
:101D0000517802230B4353700122984B1A70002222
:101D10008E4B1A8012E08C4B1B780133DBB2032B05
:101D200002D8894A137009E00023874A1370874A52
:101D30001380844A517810230B4353708C4B1B88BB
:101D40000A2B00D89DE07E4B1C888A4BE3189BB27F
:101D50009F22D20093424FD8874B1B78002B07D18C
:101D60007B4B1A88854B1A800122834B1A7046E000
:101D70000133DBB2804A1370282B40D97F4B1B887C
:101D8000734A1288934233D99B1A9BB2F421FF31D4
:101D90008B422DD8704D6A43950BA8B26F4B984774
:101DA000774B9D4212D86E4B9B7C053B98421FD2CD
:101DB0006B4B9B7CDBB2052B1AD9624A517802230C
:101DC0000B4353700522694B1A7011E0644B9B7CE6
:101DD0000F3B98420CD2624B9B7CDBB20F2B07D996
:101DE000584A517802230B4353700F225F4B1A70ED
:101DF0000022614B1A7002E000225F4B1A70B73C60
:101E0000A4B29F23DB009C4238D85E4B1B78002B8A
:101E100007D14F4B1A88594B1A800122594B1A701F
:101E20002FE00133DBB2574A1370282B29D9534BCB
:101E30001B88474A128893421CD2D31A9BB2F421C2
:101E4000FF318B4216D844485043800B434B984790
:101E5000434B9B7C0F3B98420CD2414B9B7CDBB2AB
:101E60000F2B07D9374A517802230B4353700F22A7
:101E70003E4B1A700022434B1A7002E00022414B85
:101E80001A70304B5B789B0758D5314B1888324B12
:101E90005843800B314B984702002A494C78102355
:101EA00023434B702E4B9B7C30490978C31A8B42DD
:101EB0001ADD2B4B9B7CDBB2984215D9284B9B7CBF
:101EC000C31A9B0805D01F4D6C781026B4436C7064
:101ED00000E00123224DEC7DDBB2E41A64B2EC7524
:101EE000AC7CE318DBB2AB741D4B9B7C1B1A994294
:101EF0001FDA1B4B9B7CDBB29A421AD2184B9B7C9D
:101F0000181A800805D00F4A537810218B4353705C
:101F100005E00C4A517810230B4353700120104AFE
:101F2000D37DC0B21B185BB2D375937C181AC0B2B4
:101F30009074044A537802218B43537070BDC0469D
:101F40005E03002060030020D2000020C4000020B7
:101F50001C030020C800002088130000FD1B0000A7
:101F600020030020B80100204D520000C1000020D5
:101F700068020020AF050000C6000020D00000204D
:101F80007F0C0000C000002010B5574B00229B5E64
:101F90001A00B6323ADA554B1B88272B27D8544BF8
:101FA0001B880A2B23D90022524B1A70524B5B78A4
:101FB000DB0600D497E0514B1B78002B0ED1013289
:101FC0004E4B1A7000234E4A13704E4A13704E4BFC
:101FD0005A689A609A7CD2B2DA7484E0484B1B78D3
:101FE000012B00D07FE00022444B1A707BE0414B74
:101FF0001B780133DBB2032B02D83E4A137072E028
:1020000000233C4A13703D4A13706CE0B52B65DC2D
:102010003A4B1B78012B66D10122394B1A70364B93
:102020005B78DB065FD538490A888B684968D20837
:102030005B1A9A4243D20022304B1A70334B5B78C2
:10204000DB0706D4304B5968314A11609A7C314B1A
:102050001A702D4CA268E0682D4B1B68D31A1B1A0E
:1020600064205843E37C2B4A1178591A2A4B98472D
:1020700023889BB2984210D92388C31A274A9342D7
:1020800008D880B22080218889B201220220244B06
:10209000984714E01C4B1B8811E01B4B1B881B1A34
:1020A0001E4A934209D880B2174B1880198889B20A
:1020B000012202201A4B984701E0134B1B88114B59
:1020C0001B780133DBB2142B02D80E4A13700AE0DE
:1020D00000230C4A1370094A137004E00023074AD6
:1020E0001370074A137010BD5E030020C403002064
:1020F00068020020CF00002060030020BF00002005
:10210000C2000020CA00002020030020CC030020D1
:10211000D4000020CE00002039510000AF040000A0
:102120008D11000010B5214A937C127DDBB29342E1
:102130001AD91E4A937C127D9B1A002B14DD1C4B6E
:102140001B780133DBB20A2B02D8194A13700BE05B
:102150000022174B1A70154B9A7CD2B21A75997CD3
:1021600000220120134B9847104A937C127DDBB26A
:1021700093421AD20D4A137D927C9B1A002B14DDD8
:102180000B4B1B780133DBB20A2B02D8084A1370C1
:102190000BE00022064B1A70044B9A7CD2B21A75DF
:1021A000997C00220120034B984710BD200300209A
:1021B000C70000208D11000010B5864B1B7E002B40
:1021C00031D1844A937D927CDBB2934204D2814A1E
:1021D000937CDBB2937529E07E49887D8B7CCA7D38
:1021E00052B2D31AC3185BB2CB758B7CDBB28B7542
:1021F000CB7D5BB2062B19DDCB7D5BB2642B01DDA1
:102200000022CA75734CA38C01339BB2A3840023B4
:10221000E375A18C89B2012204206F4B9847A37CFF
:10222000DBB2237602E000226A4B9A756B4B0022E8
:102230009B5EB62B11DD674B1B7E002B0DD0684AD1
:10224000138801339BB2138096221201934204D962
:102250000023604A1376624A13805E4A537E927C62
:10226000DBB2934203D25B4A937CDBB2537659498B
:102270004A7E887C8B7E9B181B1ADBB28B768B7E0A
:10228000DBB2322B0BD9CB8C01339BB2CB84002336
:102290008B76C98C89B2012206204F4B9847514B4F
:1022A0001B88514A934221D84A4BDB7EDBB2C72BB5
:1022B00004D8484AD37E0133DBB2D376454BDB7E6C
:1022C000DBB2322B21D9434BDB7EDBB2632B1CD834
:1022D000404AC823D376D38C01339BB2D384D18CAC
:1022E00089B2012206203C4B98470EE03F4A9342B8
:1022F00003D90022374BDA7607E0364BDB7EDBB2C0
:10230000C72B02D80022334BDA76344B00229B5E77
:10231000B62B22DD2F4A137F927CDBB2934203D986
:102320002C4A937CDBB213772A498A7C087F4B7F47
:102330009B181B1ADBB24B774B7FDBB2322B11D9C8
:102340000B8D01339BB20B8500234B77098D89B22E
:1023500001220820204B984704E01E4B64221A7784
:1023600000225A77224B1B88224A934221D9194BCB
:102370009B7FDBB2C72B04D8164A937F0133DBB2B5
:102380009377144B9B7FDBB2322B21D9114B9B7F70
:10239000DBB2632B1CD80F4AC8239377138D01330C
:1023A0009BB21385118D89B2012208200A4B9847F0
:1023B0000EE0114A934203D80022064B9A7707E0B9
:1023C000044B9B7FDBB2C72B02D80022014B9A77CC
:1023D00010BDC046200300208D1100005E030020C8
:1023E000CC0000201E03002065260000C92C000040
:1023F0004C030020793400005B2F000070B5474B80
:102400001B88474A93422AD9464A1278002A26D185
:10241000454A5278D20722D4444A1278D20711D4BE
:1024200043485843800B434B9847434CA074A17CCE
:1024300000220120414B9847A37CDBB22375A37C8B
:10244000DBB263753C4CA07C2388584364213C4B31
:10245000984760600023E3600122324B1A70394BC9
:102460009847394B98472D4B1A882D4B9A423CD9A7
:10247000314B5A681B889BB29A4203DD2E4A13885F
:102480009BB25360284B5B78DB070BD52A4B59680E
:102490002E4A116000225A609A7CD2B25A759A7CF8
:1024A0002B4B1A70244D6868298889B2AC7CE4B241
:1024B00064235843224B9847C0B26B7DE41A041939
:1024C000E4B2AC746875AB7CDBB2C82B02D86B6825
:1024D000002B02D10022184B9A74174B9B7CDBB265
:1024E000642B02D96422144B9A74134B1B7E002B6D
:1024F0000ED0114A137E927CDBB2934208D20E4A70
:10250000937C127E9B1A072B02DD00220A4B1A765F
:10251000104B9847104B984770BDC0461C030020D5
:1025200099190000BE000020CC030020C803002041
:1025300088130000FD1B0000200300208D11000007
:10254000395100004D1C0000891F0000D4000020FC
:10255000CE00002025210000B9210000024A517858
:1025600001230B43537070476003002010B50A002D
:1025700001000248024B984710BDC046BC01002034
:10258000993F000010B50A00002301000148024CE9
:10259000A04710BDBC010020AD3D000010B50122D8
:1025A00002490348034B984710BDC046C8010020AC
:1025B000BC010020A53E0000F0B5474680B492B0B3
:1025C000454C1123237000236370A37001226946D8
:1025D0004A708B700A701120404B98472378DA09B3
:1025E0000021002A05D15909C9018222D205944649
:1025F00061441F2213401E3A10009840886104ACC9
:1026000022700023059323746374A274E27423750B
:102610002332A354183A00210AA8314B9847314B72
:10262000A36180235B05A36080235B02E3602E4BE4
:10263000A36201235B42E3622C4B23632C4B636355
:102640002C4D22002C4928002C4B98472A68D3692E
:10265000002BFCD1116802330B431360284B9847C1
:1026600003AC00252570A5706570210030201B4B40
:10267000984698470127277021000720C0478226E7
:10268000F6058023B361277021000A20C04780230C
:10269000DB00B361277021003120C04780368023E2
:1026A0009B0273616846174B98470D230093019571
:1026B0006B461D72DF7269460D20134B984700224E
:1026C0000D211248124B984700210D20114B9847BD
:1026D00012B004BC9046F0BDC80100209135000046
:1026E000DB540000A086010002001000020012006E
:1026F00002001300BC01002000080042853A0000DF
:102700009D250000E1310000F53100005D2500004D
:10271000693000009530000010B5002202490348DE
:10272000034B984710BDC046C8010020BC010020E3
:10273000A53E000082B06B460022DA7107331B7899
:10274000DBB2072B09D86B46DA1D13780133DBB2F5
:1027500013701378DBB2072BF7D902B07047C0466D
:1027600010B500280DD00B000138C0B20130091897
:102770000020054C1A785040205C01338B42F9D17F
:1027800000E0002010BDC04664680000F0B55F4660
:1027900056464D464446F0B483B0914640001E274D
:1027A00038404B009846130A9B460926254B9A460B
:1027B000254D3E3F07430197D0476B461B792B7051
:1027C00043466B705B46AB704B46EB7029000420B0
:1027D0001E4B98472871052128001D4B98471D4B1B
:1027E0001C6A1B6AE403E40FDB030ED41A4B194A7C
:1027F000012080214902146A240C0440176A0F4208
:1028000003D1013B9BB2002BF5D16420134B9847B9
:10281000012C03D1124B984700200BE064200F4B92
:1028200098470F4B98470F4B9847013EF6B2002E42
:10283000C2D1012003B03CBC90469946A246AB46AB
:10284000F0BDC04619270000D80000206127000015
:102850006D250000800000410F270000D52A0000F0
:102860009D25000035270000F0B557464E464546E9
:10287000E0B482B0019240001E2738404B009846D9
:1028800009262C4B9A462C4C3D3F0743B946D0476E
:102890004B4623704346637021000220274B984724
:1028A000A07003212000264B9847264B1A6A1B6A0A
:1028B000D203D50FDB030FD4234B224901278020FD
:1028C00040020A6A120C3A4015000A6A024203D119
:1028D000013B9BB2002BF4D164201C4B9847012D87
:1028E00018D11B4C032120001A4B98471A4B9847CC
:1028F00021000220114B98470300A27802209A423F
:1029000011D1134A13781B025278D318019A1380FD
:10291000002008E0104B9847104B9847013EF6B254
:10292000002EB4D1012002B01CBC90469946A246AC
:10293000F0BDC04619270000D80000206127000024
:102940006D250000800000410F270000D52A0000FF
:10295000E0000020852500009D25000035270000AF
:10296000F8B55F4656464D464446F0B491464000A1
:102970001E2630404B009B460925364B9846364C68
:102980003D3E0643B246C0475346237001235A4694
:10299000134363707F234A461340A3702100032032
:1029A0002E4B9847E070042120002D4B98472D4B6B
:1029B0001A6A1B6AD203D60FDB030FD42A4B2949AC
:1029C0000127802040020A6A120C3A4016000A6A67
:1029D000024203D1013B9BB2002BF4D16420234B74
:1029E0009847012E29D1224CAD212000214B984738
:1029F000214B9847214B9847E3783B2B09D1002284
:102A00001F4B1A701F4A117801230B4313700020CB
:102A10001AE01B4B1B780133DBB2082B03D0184A9A
:102A20001370002010E00022154B1A70154A13781D
:102A300001218B431370002006E00F4B9847013DA6
:102A4000EDB2002D9FD101203CBC90469946A24694
:102A5000AB46F8BD19270000D80000206127000010
:102A60006D250000800000410F270000D52A0000DE
:102A70006E020020852500009D25000035270000FE
:102A8000DD0000206003002010B5014B984710BD09
:102A90005947000070B50020084B98470500084CC6
:102AA000FA218900A047074B186007492800A04772
:102AB000064B18600522064B1A6070BD594D000088
:102AC000395100000400002040420F0000000020A7
:102AD00010E000E030B5084B1C68084A0025802152
:102AE000490206E0002C04D05460956013680B4244
:102AF000FCD00138F6D230BD0000002010E000E02C
:102B000030B5084B1C68084A00258021490206E0C0
:102B1000002C04D05460956013680B42FCD001383F
:102B2000F6D230BD0400002010E000E010B582B005
:102B30006A46084B12CB12C2009B984205D0002374
:102B4000019A824203D1013300E00023DBB2180076
:102B500002B010BD386A000010B5002300220370D7
:102B600043708370C370002103830362C361012437
:102B70000471C0246401C480017242728272C27204
:102B800002732A24025542738273C2730361027571
:102B9000063C0255C3840385417510BDF0B55F4600
:102BA00056464D464446F0B49DB005000E00170051
:102BB0000800C64B9847040000902E60C44AD169B3
:102BC0008000C44BC3580B43D36133780520DB0727
:102BD00000D535E22A68138C9BB2002BFBD13378E9
:102BE0001C209B0700D52BE27B782B71002B04D196
:102BF000B94AD16904330B43D3612B689A463B78B9
:102C000002AA1370B54B1E5D11003000B44B9847FB
:102C10003000B44B98473B79984604AEB24B9C4683
:102C20001A000832310049CA49C149CA49C149CAD2
:102C300049C149CA49C110A9634638330A0043CB88
:102C400043C243CB43C243CB43C243CB43C2009BAB
:102C5000002B03D010A9012B03D001E004A900E050
:102C60000021A300A14A9B58994698450CD8434699
:102C70009800405803A900234B70CB708B70013330
:102C80000B70C0B29A4B9847FB88984604AE964B9F
:102C90009C461A000832310049CA49C149CA49C193
:102CA00049CA49C149CA49C110A9634638330A0013
:102CB00043CB43C243CB43C243CB43C243CB43C2C8
:102CC000009A002A03D010AB012A03D001E004AB24
:102CD00000E00023C84500D9ACE142469000C0584E
:102CE00003A900234B70CB708B7001330B70C0B203
:102CF0007F4B98479EE15B46424693403A691A42B1
:102D000030D004A8784B0833020043CB43C243CBF6
:102D100043C243CB43C243CB43C210A8724B3833A8
:102D2000020043CB43C243CB43C243CB43C243CB5A
:102D300043C2009A002A03D010AB012A03D001E05D
:102D400004AB00E00023019A4A450BD89100C85813
:102D500003A900234B70CB708B705B460B70C0B225
:102D6000634B984746460136F3B2984601934B456C
:102D7000C1D97B7B9A01BB7BDB011343DBB252469B
:102D800013703B7DDB017A781343DBB252469370BC
:102D9000FB78342B00D94BE19B00564AD3589F4611
:102DA0000420102102221AE07A7A387A102116E0E3
:102DB00006201021012212E00820102100220EE03E
:102DC0000020302100220AE000202021002206E01D
:102DD00000200021002202E0022010210122120125
:102DE000702313400343524613732A68138C9BB21B
:102DF000002BFBD17B7D17203F2B00D920E1FA7BF4
:102E0000D2011343DBB2524653732A68138C9BB230
:102E1000002BFBD1BB78524653702423FA5CD200BE
:102E20003B7B9B001343FA7A1A43BB7A5B00134344
:102E30000B43524653812A68138C9BB2002BFBD163
:102E40003B8B002B00D191E0102975D002D80029CE
:102E500054D08BE020291AD0302900D086E0FA7AAD
:102E6000002A0AD0FA6980321720FF2A00D9E7E049
:102E70003A6A8032FF2A00D9E2E01720FA69FF2A75
:102E800000DDDDE03A6AFF2A00DDD9E06EE0FA7A83
:102E9000002A0FD0FA69802189008C4662441720ED
:102EA00015498A4200D9CBE03A6A624412498A4203
:102EB00000D9C5E01720104AF969914200DDBFE052
:102EC000396A914200DDBBE050E0C0462D2B000086
:102ED00000080040A46A000000180040B06A00002A
:102EE000354E0000C54D0000386A0000B46A00008D
:102EF000314F000064690000FF030000FA7A002AE5
:102F00000FD0FA69802109018C466244172050498C
:102F10008A4200D994E03A6A62444D498A4200D913
:102F20008EE017204A4AF969914200DD88E0396A4B
:102F3000914200DD84E019E0FA7A002A0ED0FA69A5
:102F4000802109028C466244172042498A4200D9F6
:102F500076E03A6A62443F498A4271D817203D4A76
:102F6000F96991426CDC396A914269DC52465289B6
:102F70001343524653812A68138C9BB2002BFBD11A
:102F8000BB8B5246D3812A68138C9BB2002BFBD19A
:102F90003B8C524613822A68138C9BB2002BFBD1C8
:102FA0003A79FB881343524613812A68138C9BB2EB
:102FB000002BFBD12A33FB5C5246D37007231371DD
:102FC0001D33FB5C002B1BD0FB8C1720204A934247
:102FD00036D8524653822A68138C9BB2002BFBD101
:102FE0003A8D80231B01D3189BB2172018498B42BE
:102FF00026D853469A822A68138C9BB2002BFBD1A9
:10300000A200154BD3581549095D1B68CB401B0224
:10301000E021C9001940124BD358124A125D1B68B7
:10302000D340072213400B4352469385002007E00C
:10303000172005E000230193984601339B465AE68A
:103040001DB03CBC90469946A246AB46F0BDC0467A
:10305000FF0F0000FFFF0000C46A0000A06A00002C
:10306000BC6A0000AC6A00001723002A0DD18B0057
:10307000074A9B58002B03D189008850002304E0A5
:10308000834201D01D2300E0002318007047C04692
:10309000CC0100201723002907D100221F2800D8C7
:1030A000034A012383401361002318007047C04680
:1030B0000028004070B50022154B1A7000231F2510
:1030C000144E134C1F2B19D90FE0002100E01249B8
:1030D0004A619B009B59002B00D09847237801330D
:1030E000DBB223700F2BEDD911E02900194001222A
:1030F0008A40002149691142E7D1EFE729001940D0
:1031000001228A40044949691142E0D1E6E770BDD5
:10311000CB010020CC01002000280040064A117895
:1031200002230B4313700221012053681942FCD182
:1031300053681842F9D1704700280040064A1378B6
:1031400002218B431370012053681942FCD153684C
:103150001842F9D17047C0460028004000B583B03E
:10316000184A53698021C9000B43536101A9002308
:103170000B700220144B98470220144B9847144AB6
:10318000117801230B431370022101205368194267
:10319000FCD15368184209D0F8E704C38B42FCD134
:1031A00008220C4B1A600C4B984709E0084A137828
:1031B00010218B431370094B190040310022ECE7BA
:1031C00003B000BD00080040354E0000C54D0000B2
:1031D0000028004000E100E01D310000CC0100208B
:1031E0000023036043600122027283720132C272C3
:1031F00043727047F0B583B005000C001B4B984735
:1032000001A900234B70CB7023790B70237A8B704C
:103210002078174B984700201F2D00D8154807210C
:1032200029408900E27AA37A002B01D008231A43AF
:10323000EB089B00C318DE690F278F40BE438A400E
:103240003243DA61637A002B05D082690123AB40F7
:103250001343836106E083690122AA401B041B0C0F
:1032600093438361044B984703B0F0BD3D310000A8
:10327000314F0000002800401D31000010B51F4AEA
:10328000916904230B4393611D4B2022FF321A8363
:103290001A7D0523D2072ED503790224002B00D0F6
:1032A000C47803781B02C022920013404278D201F6
:1032B000FF210A4013431900827852001E231A404E
:1032C0000B00134342791204C02189020A401343C0
:1032D000A40423430A4A536093685B035B0F0949C4
:1032E00008249C400C8093684B8043780B71138BAF
:1032F000DB05DB0F1B01180010BDC04600080040B5
:1033000000400041E400002030B50400264A108847
:10331000538843438B420BD280229201234BCB181C
:10332000934205D91820224A224BCB18934239D810
:10333000214A5568214B2B408020C0020343536033
:103340002023FF331383137DDB0702D45560052050
:1033500028E0452C15D8A300194AD3589F46164B90
:103360001B8BDB0503D5144B5D6010201AE0890828
:103370004900114BD96108E0890849000E4BD96119
:1033800003E00D4B5D6017200CE0A5200002044314
:10339000094B1C80190001220B7D1342FCD0064B07
:1033A0005D60002030BDC046E400002000C07FFF0B
:1033B000FF1F00000000C0FF00400041FFFFF3FFBF
:1033C000CC6A0000F8B52D4B1C885B8863438342B0
:1033D00007D218252A4E2B4BC3180127B34201D917
:1033E0004AE00027631E1825184245D1013D94424A
:1033F00042D3254B1B7D123DDB073DD5234C224B91
:103400001C801D0001242B7D2342FCD02024FF348E
:103410001D4B1C834608002A29D076000023541E29
:10342000A446CD5C634501DBACB203E0CC18647804
:1034300024022C43348002339BB202369A42F0D8E5
:103440000E4B1B790025002B16D13F2A14D8002FD4
:1034500006D0002201001C200D4B984705000BE010
:103460000022010004200A4B9847050004E0034BAA
:103470001B790025002BEAD02800F8BDE4000020CD
:10348000FF1F00000000C0FF0040004144A5FFFFF7
:103490000933000070B5194B1C885B886343834275
:1034A00005D21823164E174D4519B54223D81723B8
:1034B000944220D3144B1C7D0523E4071BD5202404
:1034C000FF34114B1C834008002A13D04000002514
:1034D000561E2B181C88A4B22B041B0CCC54B342D0
:1034E00002DACB18240A5C700235ABB29A42F0D8EB
:1034F000002300E00023180070BDC046E400002057
:10350000FF1F00000000C0FF0040004110B51A4A34
:10351000138852885A43824207D21822174C1849FE
:103520004118A14226D8012100E000219B00013B67
:10353000182218421ED1134B1B7D133ADB0719D5F5
:10354000104B2022FF321A8380084000D8610029E6
:1035500001D10D4A00E00D4A0A4B1A8019000122E0
:103560000B7D1342FCD0074B1A8B1C231A40501EB4
:1035700082419200100010BDE4000020FF1F0000F7
:103580000000C0FF0040004102A500001AA5000095
:1035900000B583B001AB80221A700A785A704A785D
:1035A0009A708A78DA701900014B984703B000BD11
:1035B000314F000010B5490840230024814201D258
:1035C0000AE01C00091A631C9BB28842F9D9402307
:1035D000FF2C01D814800023180010BDF0B55F4601
:1035E00056464D464446F0B489B00C00059212AAE6
:1035F000117802004A434025A24200D9C6E0002BC0
:1036000051D1020008000021644DA84783462600DE
:1036100000270023002400930194002200233F2070
:1036200020218C461F3902960397202464420419F6
:1036300003D40D00A540A84604E06446241A0D00FA
:10364000E540A8460C008440A14614001D00A418C3
:103650005D4122002B0046465F463E4203D00E00ED
:10366000264332002B00029C039D9D420FD801D1BE
:1036700094420CD8029C039D121BAB414D46009E08
:10368000019F35433C004646344300950194013880
:10369000CBD20022012300980199121A8B41120CFF
:1036A0001B041A436FE00022012B6CD1630F0493BB
:1036B000E30098460A0000230021384CA04704008C
:1036C0000D0000239C46069320339B46012663464B
:1036D000079300230293002200233F2100940195C9
:1036E0000F0020214942791803D4300088408446D5
:1036F00004E05946C91B3000C84084463100B94037
:103700008946100019008018594102000B004446F8
:103710004D462C40A2466446049D2C40A446544687
:1037200065462C4303D03400044322000B0000986C
:10373000019999420AD801D1904207D8009801997D
:10374000121A8B410299484601430291013FC8D2A7
:10375000009C019D0299079A8B1ADB0810498B4245
:103760000BD9069B0133DBB219000693130001331A
:1037700007930829ADD1402508E04025069A082A7C
:1037800004D052031A43059B1A800025280009B073
:103790003CBC90469946A246AB46F0BD255400007D
:1037A000FF1F000010B582B004000E4B1B78002BE9
:1037B00001D000290DD001A90C7012200A4B9847A6
:1037C00012200A4B9847074B5C7001221A700020A8
:1037D00006E0044B5B78834201D01D2000E000200E
:1037E00002B010BDEC000020354E0000C54D0000B9
:1037F000444B984233D006D8434B98420DD0434BAC
:1038000098421BD06FE0424B98424AD0414B9842BD
:1038100058D0414B984266D132E0012906D00029A8
:1038200063D0022906D0032906D001E03B4867E0B7
:10383000002065E03A4863E03A4861E0012906D09B
:10384000002954D0022906D0032906D001E03648C9
:1038500056E0002054E0354852E0354850E0012958
:1038600006D0002945D0022906D0032906D001E060
:10387000304845E0002043E02F4841E02F483FE03A
:10388000012906D0002936D0022906D0032906D006
:1038900001E02B4834E0002032E02A4830E02A489A
:1038A0002EE0012906D0002927D0022906D00329BD
:1038B00006D001E0254823E0002021E024481FE055
:1038C00024481DE0012906D0002918D0022906D07D
:1038D000032906D001E0204812E0002010E01F4834
:1038E0000EE01F480CE000200AE01E4808E01E48D9
:1038F00006E01E4804E01E4802E01E4800E01E48A4
:103900007047C046000C004200040042000800421C
:10391000001400420018004200100042030005009D
:10392000030006000300070002001100020012005D
:103930000200130002000D0002000E0002000F0042
:1039400002001700020018000200190003002900FD
:1039500003002A0003002B000300230003002000C3
:1039600003002100030004000200100002000C000C
:1039700002001600030028000300220030B587B0C3
:103980000C4B6A4632CB32C232CB32C2009B8342EE
:1039900006D001239A0069465258824203D100E0C2
:1039A0000023D8B203E00133062BF3D1002007B087
:1039B00030BDC046E46B00007047C046F0B50A4B0E
:1039C0001B78002B0CD1094F094E0A4D0024DE5103
:1039D0005A1914600433182BF9D10122024B1A70C2
:1039E0008000024BC150F0BDEE000020F00000202E
:1039F000B93900000C02002010B582B00400062284
:103A000005496846054B98472000054B98476B468B
:103A1000185602B010BDC046FC6B0000C95400002F
:103A20007D39000010B5024B1B680020984710BD7F
:103A3000F000002010B5024B5B680120984710BDD4
:103A4000F000002010B5024B9B680220984710BD83
:103A5000F000002010B5024BDB680320984710BD32
:103A6000F000002010B5024B1B690420984710BDE0
:103A7000F000002010B5024B5B690520984710BD8F
:103A8000F0000020F0B557464E464546E0B488B0F9
:103A900080460E001400030019600B689B0700D4D9
:103AA000A7E0936A0393D36A0493136B0593536B54
:103AB000069300271F239946F9B2BB0003AA985822
:103AC000002802D13000AF4B9847431C28D0020495
:103AD000130C9C46000CC1B20025030604D44B090C
:103AE000DB018222D2059D184B460B40E81840307E
:103AF0000078824680205246D2070AD55B08EB1830
:103B000030331878C0B2CB0701D5000901E00F238C
:103B10001840844504D00023424613601C202BE14A
:103B20000137042FC8D11220974B984723780027DC
:103B3000012B12D102AA0100A069944B98470300FF
:103B40001720002B00D017E1337BDBB202AA1278DA
:103B500005309A4200D00FE10C372578002D14D1A2
:103B60003268E37F1B04A17F0B431C20934200D0EB
:103B700002E1A169A38B2022A25C002A01D040228D
:103B8000134308220A43174300E000236268A16838
:103B90000A43E1680A433A43217C0B43617C0029D4
:103BA00001D080210A43A17C002902D08021890212
:103BB0000B43E17C002902D0802189000B43217D49
:103BC000002902D0802189010B43306802210A4379
:103BD000824209D172689A4206D143465D71237CC4
:103BE000424693710020C7E00023424613601C2028
:103BF000C2E00B680520DB0700D5BDE00800644B80
:103C00009847052802D0451C133001E019200625ED
:103C10006049CA690123AB401343CB6107A924273C
:103C2000E35D0B70C5B228005B4B984728005B4BE7
:103C30009847E05D00215A4B98472378012B03D128
:103C400032680B33134333602378002B03D132687F
:103C500008331343336043461E6802AB80221A7058
:103C600000225A7001219970DA702378002B01D15B
:103C700002AB9A70A36A0393E36A0493236B0593E0
:103C8000636B0693002702ADF9B2BB0003AA9858F4
:103C9000002802D130003B4B9847431C05D02870C8
:103CA000000CC0B229003F4B98470137042FEBD1DD
:103CB000237842465371237C9371A37CD371237D77
:103CC000137200226B46DA802378012B15D143460C
:103CD00018682F4B98471330C0B22B4B9847010000
:103CE0006B469A1DA069294B984703001720002BAB
:103CF00042D16B4606331B7833732378002B0FD1E8
:103D0000A769A38B706AE17F0904A57F294301435A
:103D100071622022A25C002A04D040210B4301E002
:103D2000002300276268A1680A43E1680A433A4316
:103D3000217C0B43617C002903D11B4989788907C9
:103D400001D580210A43A17C002902D0802189026B
:103D50000B43E17C002902D0802189000B43217DA7
:103D6000002902D0802189010B4331680A43326067
:103D7000726813437360002008B01CBC90469946DB
:103D8000A246F0BDF1370000594E0000B5350000E5
:103D90007D39000000080040354E0000C54D000090
:103DA000A5370000314F000000200041F0B55F460C
:103DB0004E464546E0B489461724002A6AD0C179A8
:103DC0000534002966D04179002905D101680C7EAF
:103DD000A40701D502240C760026042502218C4676
:103DE0000139DB05DB0D98464479012C08D10368C5
:103DF0001C7E0C42FCD01C7E0C421AD044469C62B5
:103E00004479002C15D103681C7E2C4206D1244C29
:103E10001F7E2F4202D1013C002CF9D11C7E674647
:103E20003C4203D002221A76042433E01C7E2C424A
:103E30002DD003681C7E2C42FCD01C7E2C4228D046
:103E40005C8BA34600245F462F4201D05D831E3465
:103E50008779012F03D19B6ADB05DB0D01E09B6AAB
:103E6000DBB2002C16D1741CA4B24F46BB55877927
:103E7000012F05D10236B6B21B0A4F463B5500E072
:103E80002600013A92B2002AAED1002402E01224A8
:103E900000E0102420001CBC90469946A346F0BDCB
:103EA0001027000010B544791523012C72D1047A33
:103EB0000023002C6ED1002A5BD04B78002B46D01B
:103EC00003681B7EDB0711D40B78D9090022002977
:103ED00005D15A09D2018221C9058C4662441F21AD
:103EE0000B401E3999409161052353E00B78DC09A2
:103EF0000022002C05D15A09D2018224E405A446EF
:103F000062441F2423401E3C9C40546103681A7E77
:103F1000D20701D58A789A62C2790023002A39D162
:103F200002680421137E0B42FCD0117E0023490756
:103F300030D5538B5B0701D5042353838379012B41
:103F400002D1936A002325E0936A002322E00B78D4
:103F5000D9090022002905D15A09D2018221C905B7
:103F60008C4662441F210B401E3999405161002349
:103F700010E00B78D9090022002905D15A09D20195
:103F80008221C9058C4662441F210B401E3999408D
:103F900091610023180010BDF0B55F4656464D46AE
:103FA0004446F0B483B093461723002A00D1E5E0DD
:103FB0004379002B05D103681C7EA20701D502249A
:103FC0001C765D460024012302229446023290466C
:103FD0008CE04279002A16D10268167E1E4206D174
:103FE0006A4E177E1F4202D1013E002EF9D1167E85
:103FF00061460E4203D0022313760233BEE0127EE6
:104000001A4200D1B1E00668327E1A42FCD0621C2E
:1040100097B25246125D8179012902D092B23C00DA
:1040200005E00234A4B25146CF5D3F023A43377EE9
:104030001F4202D0D205D20DB2626A1E92B2C67978
:10404000002E57D051464279002A39D1504A019169
:10405000002D20D00668377E1F421CD0671CB9B2E5
:1040600089460199095D00918179012903D069464A
:104070000F884C4607E00234A4B24946019F795CA0
:104080000902009F0F43317E194202D0FF05FF0D48
:10409000B762013DADB20668377E41460F4202D19C
:1040A000013A002AD4D10199327E67463A4203D0C0
:1040B00002233376023361E0327E4646324256D0E6
:1040C0000668327E47463A42FBD0327E3A4209D0F9
:1040D000728B3A4200D077838279012A01D1B26A89
:1040E00000E0B26A5A46013A92B29346013DADB23F
:1040F0008A4600E01500274A954200D069E74379D7
:10410000012B06D1016802220B7E1342FCD0002352
:1041100034E0002B2DD1C17900292FD004255B4636
:104120005C46002B1BD129E00A7E2A4202D1013BCA
:10413000002BF9D10B7E2B421DD00B7E2B4209D0D8
:104140004B8B2B4200D04D838379012B01D18B6A9D
:1041500000E08B6A013CA4B2002C0ED0FFE701689E
:104160000B7E2B42E6D1094BDEE7122306E0122339
:1041700004E0002302E0122300E00023180003B053
:104180003CBC90469946A246AB46F0BD10270000C5
:1041900011270000FFFF0000F0B55F4656464D4670
:1041A0004446F0B491B005000C00160029600800E8
:1041B000CF4B9847052802D00700133700E0192796
:1041C00022680523D20700D58AE1226817339207B7
:1041D00000D585E1C749CA6901301B3B83401343C1
:1041E000CB610FA935239846F35C0B70FFB2380002
:1041F000C14B98473800C14B98474346F05C0021BB
:10420000BF4B9847F37A6B712C23F35CAB712D2372
:10421000F35CEB71F37E2B722423F35C6B722B68DF
:1042200002931800B24B9847133000220E2306A9C0
:104230008C4663441A80338A99468023DB01994572
:1042400019D004D880239B0199450AD029E1C023C5
:10425000DB0199450AD080231B02994500D125E155
:104260001FE1102306930F3B079323E108230693D6
:10427000073B07931EE133680593F3689B46736918
:104280000393337E04932E23F35C984673689A4617
:10429000002B15D080235B059A4536D12F23F35C84
:1042A000002B36D1B36A1F00C0B2964B984701006D
:1042B0000E2206AB9C4662443800934B984725E09B
:1042C00008230693002307932F23F35C002B0BD0C6
:1042D000069B0093079B0E2206A98C466244316B15
:1042E000B06A8A4FB84711E0B36A1F00C0B2854B6D
:1042F00098470100069B0093079B0E2206A8844660
:1043000062443800814FB84700E00020031E00D00F
:10431000E6E0737E002B02D0B37E029A93732A6884
:10432000029FD369002BFCD102970E3306A98C465D
:1043300063441B88BB81059B5A461343039A13436E
:10434000524613434A461343049A1002034342461B
:10435000500718432F23F35C002B01D1043318437B
:10436000717E89022423F35C5B0219432623F35CEC
:104370001B0219432C23F35C5B0419432D23F25CCD
:1043800012041143F37A19433389FF2B04D080229E
:1043900052041043194305E0F37E002B02D0802322
:1043A000DB041843029FBB6807221340328C13437F
:1043B000728C1343BB60F269002A02D0544B184040
:1043C00010433423F35C002B03D1524B9B789B07A3
:1043D00001D5802318432A68029FD369002BFCD1A2
:1043E00079602A68D369002BFCD138603A68F023E1
:1043F0001B051340E022D20493423FD0BB68072242
:104400009343BB60BA682523F35C07210B40134339
:10441000BB6033E0F9B2BB000AAA9858002802D169
:1044200020003D4B9847431C05D03070000CC0B2B3
:1044300031003A4B98470137042FEBD10023EB6052
:104440002B616B61AB61EB612B62AB626B62002233
:10445000EB85AB853033EA540133EA540133EA5437
:104460000133EA542868224B984704002C492D4B0D
:104470009847A4002C4BE550002331E00EAB80227E
:104480001A7000225A70DA709A70B36B0A93F36B49
:104490000B93336C0C93736C02930D9300270EAE49
:1044A000B8E7102306930023079303E00323069342
:1044B0000023079333680593F3689B46736903935E
:1044C000337E04932E23F35C984673689A46002B40
:1044D00000D1F9E680235B059A4500D1DEE618E7B6
:1044E000180011B03CBC90469946A246AB46F0BDC0
:1044F0007D39000000080040354E0000C54D000029
:10450000A5370000594E0000B5350000DD3500002C
:10451000FFFFFFF000200041F1370000314F0000A5
:10452000C9450000BD3900000C020020C2791C23DF
:10453000002A0ED0C28D92B2173B002A09D103681F
:10454000DA69002AFCD1198502211A7E0A42FCD0C0
:10455000002318007047C04682791C23002A30D0FF
:10456000828D92B2173B002A2BD10268107E400741
:1045700027D5D369002BFCD1538BDBB258061DD055
:10458000980703D50223538318331AE0580703D53D
:10459000042353831A3314E0D80703D5012353832C
:1045A00012330EE0D80603D510235383323308E0CC
:1045B0009B0603D520235383213302E0138D0B8008
:1045C000002318007047C046F8B58000614BC558FD
:1045D0002C68E369002BFCD1237EA67D1E4030238E
:1045E000EB5C3122AF5C1F40F30722D5EB8D9BB211
:1045F000002B1CD0AA6A1378DBB2511CA96269791E
:10460000012901D09BB204E0517809020B43023228
:10461000AA62DB05DB0D2385EB8D013B9BB2EB85AD
:10462000002B06D1013323750133A37501E001236B
:104630002375B30709D50223237500223133EA54C9
:10464000FB0702D52800EB689847730763D5AB8D4D
:104650009BB2002B5DD0638BDBB21A0702D47F22A2
:10466000134001E0772213405A0601D540229343BC
:10467000002B2CD09A0705D51A223223EA54303B5E
:1046800063831EE05A0705D51E223223EA542E3BCF
:10469000638316E0DA0705D513223223EA54313B4F
:1046A00063830EE0DA0605D542223223EA54223B28
:1046B000638306E09B0604D541223223EA54123B71
:1046C00063837B0727D528006B69984723E0238DF8
:1046D000DB05DB0DDAB2696A0A706A6A511C69622D
:1046E0006979012904D11B0A53706B6A01336B622B
:1046F000AB8D013B9BB2AB85002B0CD104332375F2
:1047000000222E33EA54BB0705D528002B699847B1
:1047100001E004232375F30607D5102323752376C0
:10472000FB0602D52800EB699847B30607D520237E
:10473000237523763B0702D52800AB6998473307DA
:1047400007D5082323752376BB0602D52B6A2800DC
:104750009847F8BD0C020020A522034B1A731A00DB
:104760009368002BFCD1704700200040F0B547460D
:1047700080B40C00904600280DD1002A0EDD8F1861
:10478000084E094D306821002B6898470134A74234
:10479000F8D1404603E00120404200E0002004BC84
:1047A0009046F0BD2C02002024020020F0B54746C0
:1047B00080B40E0015000138022811D8002A12D04A
:1047C00000240C4B98460C4F43461868315D3B68FB
:1047D0009847002809DB0134A542F5D1200006E006
:1047E0000120404203E0002001E00120404204BCDF
:1047F0009046F0BD2C02002028020020F0B583B0C6
:1048000001AC012565700023A370257021001B20D9
:10481000074FB8478226F60580231B057361257074
:1048200021001C20B84780235B05736103B0F0BDF5
:1048300091350000114A13780133DBB21370082B55
:1048400010D9092B08D900220C4B1A7080221205AE
:104850008223DB055A610AE0802212058223DB05F0
:104860009A6104E0802212058223DB055A618022CE
:1048700052058223DB055A617047C0463002002092
:10488000114A13780133DBB21370042B10D9052BB6
:1048900008D900220C4B1A70802252058223DB05B6
:1048A0005A610AE0802252058223DB059A6104E006
:1048B000802252058223DB055A6180221205822361
:1048C000DB055A617047C04630020020114A137858
:1048D0000133DBB21370082B10D9092B08D9002241
:1048E0000C4B1A70802252058223DB055A610AE0C4
:1048F000802252058223DB059A6104E08022520562
:104900008223DB055A61802212058223DB055A616E
:104910007047C0463002002010B5234B5B785A0622
:1049200008D58223DB05802212055A6180225205B8
:104930005A6137E01D4A1288002A08D08223DB051D
:10494000802212059A61802252055A612AE0184A93
:104950005278920601D49B0702D5164B984721E066
:10496000154B9B7CDBB25F2B08D98223DB058022B1
:1049700012055A61802252059A6113E00A4B1B7896
:104980005A0702D50D4B98470CE01B0708D5822328
:10499000DB05802212059A61802252059A6101E0AE
:1049A000074B984710BDC046F0030020C00300200D
:1049B000CC0300203548000020030020814800007F
:1049C000CD48000070B582B005000E0000226B4695
:1049D000DA80064C6B46991D2800A0470028F9D1C3
:1049E0006B4606331B88337002B070BD594500001A
:1049F00070B505008CB2034E21002800B047002896
:104A0000FAD170BD2D450000F0B593B08023DB05D1
:104A1000009300230193FF2269460A818B72CB72B7
:104A200001242C228C5401328C5401328B540132DB
:104A30008B540C9305328B5401328B540593002216
:104A40000B82CA7607930B844B840A762423CA54BC
:104A50004A7613238B761333CA54013BCA549623E8
:104A6000DB010A9380235B030393194B0E93194BCD
:104A70000F9301235B4210931193174D174B1D6049
:104A8000174A184B1A60184A184B1A606A46184998
:104A90002800184B9847184F3B6898680021174E1C
:104AA000B0473B6858680021B0472E683000144B6F
:104AB00098471F2318408440124B1C602A68D36912
:104AC000002BFCD1326802331343336013B0F0BDC6
:104AD0000200160002001700340200202C02002001
:104AE000F149000028020020C549000024020020EE
:104AF00000100042994100006C000020F9550000B0
:104B0000F939000000E100E07047C0460C4B1B681B
:104B1000002B10D1EFF31083002B09D172B6BFF335
:104B20005F8F0022074B1A700132074B1A7002E0A8
:104B30000022054B1A70024A136801331360704754
:104B400008010020080000200C010020084B1A6812
:104B5000013A1A601B68002B09D1064B1B78002B09
:104B600005D00122044B1A70BFF35F8F62B6704705
:104B7000080100200C0100200800002010B50728C3
:104B800003D880000F4B1B589F46002018E00E4BA7
:104B9000586815E00D4B597D0907090F01310C4884
:104BA0000C4B98470CE0084B986809E0074B1B7FBB
:104BB00000209B0704D5044B186801E08020000208
:104BC00010BDC046046C0000100100200010004021
:104BD000006CDC023951000000B585B00322134B94
:104BE0009A60134A53681E218B435360114B197D01
:104BF00080220A431A7502225A751A009369002B03
:104C0000FCD10D4B984701230C4A137101A94B604D
:104C100000234B7006220A700B724B720020084B67
:104C200098470020074B984705B000BD001800408A
:104C30000040004100100040494C000000080040C6
:104C40006D4C0000194D0000064A516980230B434A
:104C500053610122044B1A7019000B781342FCD1E6
:104C60007047C04600080040001C004070B50500B9
:104C70000C784B78002B02D08023DB001C434B7A4E
:104C8000002B02D080231B011C434A68012A17D93C
:104C9000531E1A420FD1022A06D9022300200130E6
:104CA0005B009A42FBD800E0002080235B011C439C
:104CB0000004044304E0120480239B001A431443BD
:104CC0000B7A002B02D080239B011C430426AE40AC
:104CD0000D490E4A4B6813401E42FBD10C4B9847BE
:104CE000AD00094B9C466544286A80235B00184050
:104CF000204328626146054A4B6813401E42FBD19F
:104D0000044B984770BDC046001C0040FC070000E3
:104D10000D4B00004D4B000010B5040004228240F2
:104D200009480A4943680B401A42FBD1084B98478F
:104D3000A400054B9C466444236A8022520013431E
:104D40002362044B984710BD001C0040FC07000084
:104D50000D4B00004D4B0000F8B5040004228240CA
:104D60001248134943680B401A42FBD1114B984734
:104D70000E4F0834A400E0594007400F0E4B9847EF
:104D80000600E559ED04ED0FE459240C0B4B984750
:104D9000002D07D1012C07D921003000084B98477E
:104DA000060001E00134E6403000F8BD001C004080
:104DB000FC0700000D4B00007D4B00004D4B000038
:104DC0003951000010B50400094B9847A000094B69
:104DD0009C4660448022815840230B4383508021AD
:104DE000403A43581A42FCD0034B984710BDC04686
:104DF0000D4B0000001C00404D4B000010B504009E
:104E0000094B9847A000094B9C4660448022835878
:104E100040218B4383504031403A43581A42FCD1E1
:104E2000034B984710BDC0460D4B0000001C0040CE
:104E30004D4B000070B504000D00054B98472B78D2
:104E40000F2213402034A400024AA35070BDC04674
:104E5000FD4D0000001C004010B50400064B9847B3
:104E60002034A400054BE4582407240F044B984732
:104E70002000044B984710BD0D4B0000001C004063
:104E80004D4B0000594D000030B5D378002B1ED19A
:104E90001378802B04D01B0680246402234300E097
:104EA000002354780225AC430AD19478002C03D116
:104EB0008024A402234302E0C024E402234341608F
:104EC0005478013C012C12D8184C23400FE041606B
:104ED0000B041B0CA024E405234383620B0CD02499
:104EE000240623438362D378002B18D01CE00C04E3
:104EF000240CA025ED052C431C4384620C0CD0250A
:104F00002D062C431C438462D478002C0CD15B0307
:104F100005D59378012B01D1816100E0416153787F
:104F2000013B012B00D8816030BDC046FFFFFBFF75
:104F300010B503000A00C1090020002905D1580955
:104F4000C0018221C9058C4660441F210B401E39D7
:104F50009940014B984710BD894E00007047C046EC
:104F600010B5054B9847054B9847054B9847054B9F
:104F70009847054B984710BDD94B0000094B0000DE
:104F80005D4F00005D3100005D4F0000FEE7C04650
:104F900010B51B4B1B4A9A4203D01B4B184A9A422E
:104FA00004D31A4B1A4A9A4210D31EE0194A164BE0
:104FB00003339B1A9B0801339B00002210481149C0
:104FC0008C58845004329A42FAD1EAE7124A0F4BC5
:104FD00003339B1A9B0801339B0000220C480021DD
:104FE0001418216004329A42FAD10C4AFF210C4B6A
:104FF0008B4393600B4B98470B4B9847FEE7C0469B
:1050000000000020E06C0000700000201804002068
:1050100070000020040000207400002000ED00E07B
:10502000000000007D5400006D5000000300064A9F
:105030001268002A02D10549034A1160024A106829
:10504000C31813607047C0461C01002018240020BC
:10505000012040427047C04680239B014B600020E6
:105060007047C0460120704700207047F8B5204BBC
:105070009847204B9847204B9847204B9847204B08
:105080009847204B9847204B9847204B9847204BF8
:1050900098478224E405260080368027BF02B76146
:1050A00032201C4DA847776101221B4B1A70BFF3B9
:1050B0005F8F62B6194B9847194B1B889BB2194AF0
:1050C0001380194B984796204000A8470022174BA1
:1050D0001A70174A537810218B43537080231B0595
:1050E000636180235B05A361124CA047FDE7C046C6
:1050F000614F0000952A0000094A0000FD470000AA
:10510000B9250000310E00001D0100002111000032
:1051100061140000012B000008000020C9100000ED
:105120004E03002020030020B50700005C03002090
:10513000F0030020E90A0000002243088B4274D3E8
:1051400003098B425FD3030A8B4244D3030B8B4288
:1051500028D3030C8B420DD3FF22090212BA030C91
:105160008B4202D31212090265D0030B8B4219D372
:1051700000E0090AC30B8B4201D3CB03C01A524192
:10518000830B8B4201D38B03C01A5241430B8B42DA
:1051900001D34B03C01A5241030B8B4201D30B03C3
:1051A000C01A5241C30A8B4201D3CB02C01A5241EA
:1051B000830A8B4201D38B02C01A5241430A8B42AD
:1051C00001D34B02C01A5241030A8B4201D30B0296
:1051D000C01A5241CDD2C3098B4201D3CB01C01AB0
:1051E000524183098B4201D38B01C01A52414309BA
:1051F0008B4201D34B01C01A524103098B4201D3A8
:105200000B01C01A5241C3088B4201D3CB00C01A14
:10521000524183088B4201D38B00C01A524143088C
:105220008B4201D34B00C01A5241411A00D20146B1
:10523000524110467047FFE701B5002000F0F0F83A
:1052400002BDC0460029F7D076E7704703460B43FE
:105250007FD4002243088B4274D303098B425FD36F
:10526000030A8B4244D3030B8B4228D3030C8B429B
:105270000DD3FF22090212BA030C8B4202D3121281
:10528000090265D0030B8B4219D300E0090AC30B56
:105290008B4201D3CB03C01A5241830B8B4201D303
:1052A0008B03C01A5241430B8B4201D34B03C01AEC
:1052B0005241030B8B4201D30B03C01A5241C30A64
:1052C0008B4201D3CB02C01A5241830A8B4201D3D5
:1052D0008B02C01A5241430A8B4201D34B02C01ABF
:1052E0005241030A8B4201D30B02C01A5241CDD264
:1052F000C3098B4201D3CB01C01A524183098B42AF
:1053000001D38B01C01A524143098B4201D34B0197
:10531000C01A524103098B4201D30B01C01A5241FA
:10532000C3088B4201D3CB00C01A524183088B4281
:1053300001D38B00C01A524143088B4201D34B006A
:10534000C01A5241411A00D20146524110467047DC
:105350005DE0CA0F00D04942031000D340425340E1
:1053600000229C4603098B422DD3030A8B4212D3A1
:10537000FC22890112BA030A8B420CD389019211D3
:105380008B4208D3890192118B4204D389013AD010
:10539000921100E08909C3098B4201D3CB01C01AE5
:1053A000524183098B4201D38B01C01A52414309F8
:1053B0008B4201D34B01C01A524103098B4201D3E6
:1053C0000B01C01A5241C3088B4201D3CB00C01A53
:1053D000524183088B4201D38B00C01A5241D9D26B
:1053E00043088B4201D34B00C01A5241411A00D2EC
:1053F0000146634652415B10104601D34042002BE8
:1054000000D54942704763465B1000D3404201B566
:10541000002000F005F802BD0029F8D016E770471B
:105420007047C046F0B54F464646C0B41604360C29
:105430009946330005042C0C070C150C63437E437E
:105440006F4365431C0CAD1964199C46A64203D9F1
:1054500080235B02984647446346250CEF191D04E0
:105460004B464A4343432D0C240464199918C91927
:1054700020000CBC90469946F0BDC0460E4B70B55E
:1054800000251E000D4CE41AA410A54204D0AB0068
:10549000F35898470135F8E701F012FC084B002556
:1054A0001E00084CE41AA410A54204D0AB00F35827
:1054B00098470135F8E770BDCC6C0000CC6C00005B
:1054C000CC6C0000D06C0000002310B59A4203D0D1
:1054D000CC5CC4540133F9E710BD03008218934239
:1054E00002D019700133FAE7704700000FB40B4B7C
:1054F00013B51C68002C05D0A369002B02D1200035
:1055000000F0F6FA05AB049AA1682000019300F0C0
:10551000B5FC16BC08BC04B01847C0466C0000209F
:1055200070B505000E00002804D08369002B01D15E
:1055300000F0DEFAAB69AC68002B02D1280000F065
:10554000D7FA254B9C4201D16C6808E0234B9C4262
:1055500001D1AC6803E0224B9C4200D1EC68A389E6
:105560001B0702D52369002B11D12100280000F070
:1055700055F900280BD0012040422BE0013B0136B9
:10558000A360002B08DB23685A1C22601970317855
:10559000A3680029F2D10BE0A269934201DB0A293A
:1055A000F1D12200280000F0E1F8431CEFD1E2E73E
:1055B000013BA360002B08DA22000A31280000F02A
:1055C000D5F8431CD7D00A2004E00A2023685A1CCF
:1055D0002260187070BDC0462C6C00004C6C00003E
:1055E0006C6C000010B5034B01001868FFF798FFC2
:1055F00010BDC0466C0000204A424A41802310B5CD
:105600005200DB0000F002F810BD0000F0B51D00F4
:10561000514B85B01E6804000F000092002E05D08B
:10562000B369002B02D1300000F062FA4B4B9C4270
:1056300001D1746808E04A4B9C4201D1B46803E090
:10564000484B9C4200D1F468009B022B05D0012BF3
:1056500000D97CE0002D00DA79E02100300000F074
:10566000D9F9616B002908D023004433994202D054
:10567000300000F03FFB002363630023A3616360FD
:10568000A3891B0603D52169300000F033FBA289F2
:10569000354B1340A381009B022B21D003AB02AA00
:1056A0002100300000F0B8FAA3891843A081002D32
:1056B00001D1029D01E0002F25D1280000F010FB50
:1056C0000195071E1AD1029B0193AB4202D1012022
:1056D000404206E0019800F003FB071E0ED1F6E7FA
:1056E00000200222A3891343A3810023A360230087
:1056F000473323602361012363612AE08022A38969
:10570000019D1343A381B369002B02D1300000F047
:10571000EFF9009B012B03D1A389009A1A43A281C0
:105720000823A2892760134027616561181E0CD0E9
:1057300001231A400023101E984204D06D42A3603A
:10574000A561180005E0A56003E0A36001E0012069
:10575000404205B0F0BDC0466C0000202C6C00003B
:105760004C6C00006C6C00005CF3FFFFF8B50500AA
:105770000F001400002804D08369002B01D100F031
:10578000B7F9234B9C4201D16C6808E0214B9C4245
:1057900001D1AC6803E0204B9C4200D1EC68A369C6
:1057A000A360A3891B070AD52369002B07D02368B0
:1057B0002269FEB2981A636998420FDB08E0210063
:1057C000280000F02BF80028F1D0012040421DE015
:1057D0002100280000F01EF90028F6D1A36801304E
:1057E000013BA36023685A1C22601F7063699842C2
:1057F00005D0A3893000DB0708D50A2E06D1210089
:10580000280000F007F90028DFD13000F8BDC046BD
:105810002C6C00004C6C00006C6C0000364B70B5BA
:105820001D6806000C00002D05D0AB69002B02D1CD
:10583000280000F05DF9314B9C4201D16C6808E012
:105840002F4B9C4201D1AC6803E02E4B9C4200D10F
:10585000EC680C22A35E9AB2110723D4D10607D4B8
:1058600009220120326037321343A381404242E0D3
:10587000530713D5616B002908D0230044339942A4
:1058800002D0300000F036FA002363632422A3899B
:105890009343A38100236360236923600822A389C3
:1058A0001343A3812369002B0BD1A023A2899B0062
:1058B000134080229200934203D02100300000F078
:1058C000D1F90123A289134005D00023A3606369A5
:1058D0005B42A36103E0920700D46369A3600020E8
:1058E0002369834207D10C22A35E1A0603D5402206
:1058F0001343A381013870BD6C0000202C6C0000A4
:105900004C6C00006C6C0000F7B58A8905000C0037
:1059100013075AD44B68002B02DC0B6C002B19DDEB
:10592000E76A002F16D000232E682B6080235B01CE
:105930001A4001D0606D14E00123216A2800B847A5
:10594000431C0ED12B68002B0BD01D2B01D0162B26
:1059500002D12E6000205AE04022A3891343A38184
:1059600055E0A3895B0706D56368C01A636B002BFB
:1059700001D0236CC01A00230200216A2800E76AC4
:10598000B847A389421C06D129681D293AD8204A64
:10599000CA40D20736D50022626022692260DB0449
:1059A00005D5431C02D12B68002B00D16065616BCB
:1059B0002E600029CED023004433994202D0280023
:1059C00000F098F90020606321E00F69002FC1D03A
:1059D0000B680F60DB1B01930023920700D14B691A
:1059E000A36003E0019B3F181B1A0193019B002B4E
:1059F000B0DD019B3A00216A2800A66AB047002862
:105A0000F0DCA389402201201343A3814042FEBD64
:105A1000010040200B6970B505000C00002B01D17E
:105A200000201CE0002804D08369002B01D100F085
:105A30005FF80B4B9C4201D16C6808E0094B9C421B
:105A400001D1AC6803E0084B9C4200D1EC680C2209
:105A5000A35E002BE4D021002800FFF755FF70BDA6
:105A60002C6C00004C6C00006C6C000010B50249FE
:105A700000F0B0F810BDC046155A0000002310B564
:105A8000040003604360836081814366C2810361D7
:105A900043618361190008225C30FFF71EFD054B4E
:105AA00024626362044BA362044BE362044B2363EE
:105AB00010BDC046F9630000216400005964000075
:105AC0008564000070B568254B1E5D430E002900FB
:105AD000743100F055F9041E08D000212A0001603D
