S015000041544D454C2D455334393530332E73726563D2
S113000020310020FD5F0000F95F0000F95F00006F
S113001000000000000000000000000000000000DC
S1130020000000000000000000000000F95F000074
S11300300000000000000000F95F0000F95F00000C
S1130040F95F00001D010000F95F0000453F00005A
S1130050F95F0000F95F0000F95F0000F95F00003C
S1130060F95F0000AD480000BD480000CD48000025
S1130070DD480000ED480000FD480000950F000039
S1130080F95F0000F95F0000F95F0000F95F00000C
S1130090F95F0000F95F0000F95F0000F95F0000FC
S11300A0F95F0000F95F0000F95F0000F95F0000EC
S11300B0F95F0000F95F0000F95F000010B5064C1D
S11300C02378002B07D1054B002B02D0044800E015
S11300D000BF0123237010BD700000200000000049
S11300E0C8730000084B10B5002B03D0074908481B
S11300F000E000BF07480368002B00D110BD064B89
S1130100002BFBD09847F9E70000000074000020A2
S1130110C8730000C87300000000000010B501227D
S1130120034B9A71034B1B68002B00D0984710BDFA
S113013000200040080D002010B58CB00BA901234D
S11301404B7000248C700B702620134B9847402270
S1130150124B5A616846124B984703236A46537000
S11301601471072393700F4C0F4920000F4B9847CD
S11301702268138C9BB2002BFBD10733137193714C
S11301801178053B0B431370064B1A68138C9BB212
S1130190002BFBD10CB010BD1944000080000041BD
S11301A09D3500000C0D002000440042E1350000A4
S11301B0094B98420BD8094A023201231188814223
S11301C006D90133DBB202328D2BF7D100E00023D4
S11301D0034AD0567047C046983B0000086D0000A3
S11301E0246E000070B5254C8823E05C00020133C6
S11301F0E35C181880B2224DA847224B18708A235A
S1130200E05C00020133E35C181880B2A8471E4B7F
S113021018708C23E05C00020133E35C181880B290
S1130220A8471A4B18708E23E05C00020133E35C8C
S1130230181880B2A847164B18709023E05C00028F
S11302400133E35C181880B2A847124B18709A2344
S1130250E35C1B029B22A25CD3180F4A1380862303
S1130260E35C1B028722A25CD3189BB20B4A138067
S11302700B4A13800B4A138070BDC0464C0E0020FD
S1130280B10100004A0E0020090F00203A0F00209F
S1130290020F0020000F0020660F0020380F0020FE
S11302A0920000208E000020F0B589B04D4B1B78E1
S11302B0002B16D101224B4B1A704B4A4B490800B4
S11302C0403015002035002413889B080B800B84D4
S11302D0038003841480023202310230AA42F3D133
S11302E00FE0434B18784001404BC01800233E4DAB
S11302F0002459190A889208C2520C800233202B18
S1130300F7D13B4B1B780133DBB2032B02D8384ABD
S1130310137002E00022364B1A70344800210700A3
S1130320314ECA19048C0388E3188D192C881B19C3
S11303301400403424881B19603212889B189BB225
S11303402B806A468B52023102302029E9D10F27D3
S113035014E051006846085A511C4D006C462D5B50
S1130360A84203D952001553490008530133DBB2A4
S11303701A1EB242EDDB013F002F05D03E000022E1
S11303800023002FE5DCF6E76B46063308A90020BE
S11303901A88801802339942FAD10D21154B9847D7
S11303A0154B18806B46DA8B144B1A806B46DA882F
S11303B0134B1A80134B00229B5E002B10DA124A57
S11303C012780132D2B2032A02D80F490A7002E02D
S11303D000210D4A11700C4A127852000B495352F5
S11303E009B0F0BD8C000020FC100020140D00208A
S11303F091000020C1610000040F0020400F002084
S1130400060F0020660F002090000020B00F00208F
S11304102F4B00229A562F4B1B785BB29A4202DD77
S11304202D4B1A8001E02C4A13802C4B00229A5643
S11304302B4B1B785BB29A420ADD2A49097849B2F0
S11304408A4202DD28490A800CE02748018009E03D
S11304502449097849B28B4202DD23490B8001E02B
S1130460214801801C3201DA1C4A13701C3303DA60
S11304701C4B1A781A4B1A701A4B1B785BB21A0071
S11304801C320ADA164B1B785BB2164A1370134AF5
S1130490127852B293420DDC17E0104A127852B22D
S11304A00F49097849B28A420ADA0E4B1B785BB2CB
S11304B09A4202DA0D4B1A8009E00C4A138006E0D6
S11304C08B4202DD094B198001E0084A1380704712
S11304D04A0E0020090F0020D81000203A0F0020F7
S11304E0020F0020000F0020CC100020480E002036
S11304F010B50A4A0A491400203413781B025078B4
S1130500C3180B8002320231A242F6D1054B984740
S1130510054B9847054B984710BDC046B20E0020C6
S1130520FC100020A902000011040000991800002A
S113053070B52E4A2E491400203413781B025078CB
S1130540C3180B8002320231A242F6D1294C88230F
S1130550E05C00020133E35C181880B2264DA84722
S1130560264B18708A23E05C00020133E35C181800
S113057080B2A847224B18708C23E05C0002013340
S1130580E35C181880B2A8471E4B18708E23E05CF9
S113059000020133E35C181880B2A8471A4B1870A4
S11305A09023E05C00020133E35C181880B2A84792
S11305B0164B18709A23E35C1B029B22A25CD3188F
S11305C0134A13808623E35C1B028722A25CD318A0
S11305D09BB2104A1380104A1380104A1380104BA8
S11305E09847104B9847104B984770BDB20E0020A7
S11305F0FC1000204C0E0020B10100004A0E002027
S1130600090F00203A0F0020020F0020000F0020E5
S1130610660F0020380F0020920000208E0000207A
S1130620A9020000110400009918000070B5424AA4
S11306300B21E020414CA0470F221121E020A047CC
S11306403F4A1721E020A0473E4A1221E020A0475C
S1130650F022FF321321E020A0473B4A0621E0208C
S1130660A047C02292000721E020A047374A042176
S1130670E020A047E0256D002A000821E020A047E3
S11306802A000921E020A047802212020321E02051
S1130690A0472F4D2A000121E0202E4EB0472B8881
S11306A0D22292001A432C4B1A800121E020A04749
S11306B000220B21E020A0476420284B98472A0001
S11306C00321E020B047002805D1214B00229B5E86
S11306D00130002B2EDA1E4A1121E0201D4B9847D1
S11306E0002804D11A4B1B8801301B0722D0184A5A
S11306F00121E020174B9847002806D1144B1A8893
S11307000130D2239B001A4214D0D2229200124B01
S11307101A800F4A0621E0200E4B9847030001205F
S1130720002B07D10A4B18880D4B9C466044431E8E
S11307309841C0B270BDC046B5E30000DD31000091
S113074042240000430C00002D2E00003FFE000058
S1130750580F0020B9320000D610002019350000CF
S1130760D3D1FFFF10B51F4A1F4B1C002034118842
S1130770080A9872D97202320233A342F7D11A4B93
S11307801A4A117832229954194A11783322995409
S1130790184A117834229954174A117835229954F9
S11307A0164A117836229954154A1288100A2C21B7
S11307B0585401315A54134A0021525E1012302108
S11307C0585401315A54104A1288100A03395854A3
S11307D001315A540D4A1288100A0539585401310E
S11307E05A5410BDFC1000206C0F00204A0E00204B
S11307F0090F00203A0F0020020F0020000F0020F4
S11308008E000020660F0020380F00209200002088
S113081010B50D4A0B21E0200C4CA047F8225201E0
S11308200F21E020A0470A4A0521E020A047094AF9
S11308300C21E020A047084A1A21E020A04700220A
S11308400B21E020A04710BDB5E30000DD3100001E
S1130850FF0F0000030700003210000070B5124AB9
S11308600B21E020114CA047114A0A21E020A047A7
S113087000221521E020A04701221421E020A047F6
S1130880E0256D002A000821E020A0472A00092164
S1130890E020A047074A1821E020A04700220B21AE
S11308A0E020A04770BDC046B5E30000DD31000084
S11308B00740000011070000F8B5C824124D134E7C
S11308C0134F2A003021E020B0472B88DB0713D5D3
S11308D001223021E0200F4CA0470F4A0A21E020DA
S11308E0A0470A200A4B9847074C22004A21E020DF
S11308F0064B9847208806E00120B847013CE4B243
S1130900002CDED10020F8BD580F0020B9320000C1
S113091045350000DD3100000140000070B5494B51
S11309205B78DB0700D48CE0474B9847474B9847EC
S1130930444B5A7801218A435A701A788A431A70B0
S11309408022D2008223DB055A61414B9847032061
S1130950404B9847404A13780133DBB213703F4B46
S11309605B785B0633D53E4A0A21E0203D4DA8471B
S11309703D4B98473D4C22003021E0203C4B9847AA
S113098007223021E020A84764203A4B9847238867
S113099005221340052B06D151320121E020364BAC
S11309A09847364B9847C820324B98470120294B2B
S11309B09847334B98472D4B1B88DB0725D5562288
S11309C00121E0202C4B98472E4B98471DE02E4ADE
S11309D00A21E020234DA847244C22003021E020A6
S11309E0234B984707223021E020A8476420214B5D
S11309F09847238805221340052B06D15132012143
S1130A00E0201D4B9847214B9847214B9847214B99
S1130A109847124B5B785B0605D51F4A1821E020E6
S1130A20104B984704E01D4A1821E0200D4B9847CD
S1130A301B4B98470320074B98471A4B98471A4B70
S1130A40984770BD680F0020915A00007D1D00007A
S1130A506931000045350000640F0020D4100020E7
S1130A6007410000DD3100005D080000580F002040
S1130A70B932000019350000B1330000E50100006F
S1130A80B9080000F104000007400000310500002F
S1130A901108000071240000010700001107000084
S1130AA0ED2F00004D2E00007925000010B5014BFC
S1130AB0984710BD1D09000070B57C4A5378042185
S1130AC08B4353707A4A2C31E0207A4B98470028A4
S1130AD023D1764C764B1988DC239B00194023885C
S1130AE0754A13400B43238000225221E030734D9A
S1130AF0A84700225321E020A84763789B0700D130
S1130B00CCE06F4A517808230B4353700AE06C4AD7
S1130B10537808218B43537004E0644A51780423CA
S1130B200B435370614B1B8870221A4200D180E042
S1130B30644B1B78DBB2282B25D9634B1B78DBB2C3
S1130B40052B1DD8604A13780133DBB213700022E1
S1130B505C4B1A70A02212020321E020574CA047DC
S1130B60DC2292003021E020A04780252D022A00BB
S1130B700321E020A0472A000321E020A04702E04F
S1130B802922504B1A70514B1B78DBB2502B25D9BC
S1130B904F4B1B78DBB2052B1DD84D4A137801331C
S1130BA0DBB213700022494B1A70A02212020321F7
S1130BB0E020424CA047DC2292003021E020A047F4
S1130BC080252D022A000321E020A0472A000321CA
S1130BD0E020A04702E029223C4B1A703D4B1B78D1
S1130BE0DBB2282B25D93C4B1B78DBB2052B1DD857
S1130BF0394A13780133DBB213700022354B1A7073
S1130C00A02212020321E0202C4CA047DC229200F7
S1130C103021E020A04780252D022A000321E02076
S1130C20A0472A000321E020A04702E02922294B03
S1130C301A701F4A0321E0201E4B9847002815D143
S1130C401B4B1B889B0405D4184A53787F210B4007
S1130C5053700BE0154A5378802149420B4353707B
S1130C60802212028331E020144B9847104A552108
S1130C70E020104B984700280AD10C490C4B1B88E4
S1130C801B079B0F0A880330824313430B800BE03E
S1130C90064A517804230B43537005E0084B5B78F4
S1130CA01B0700D533E73DE770BDC046D4100020D4
S1130CB0580F0020B93200008FFCFFFFDD31000027
S1130CC0680F0020FB10002096000020FA1000207E
S1130CD095000020D210002094000020F0B5284B8D
S1130CE01888284B1B785A0721D5274B1E8827497B
S1130CF00022002501270B8898420FD21B1A9BB2B1
S1130D00A42B05D93B0093401E43B6B23D0005E039
S1130D10512B03D83B0093409E433D0001320231E6
S1130D20102AE8D1002D29D0174B1E8026E01B077E
S1130D3021D4154B1E8815490022002501270B8854
S1130D4098420FD21B1A9BB2A42B05D93B009340A7
S1130D501E43B6B23D0005E0512B03D83B0093403F
S1130D609E433D0001320231102AE8D1002D05D006
S1130D70054B1E8002E00022034B1A80F0BDC046E2
S1130D80060F0020F8100020500F0020FC10002057
S1130D9070B5124A0B21E020114CA047114A1821CA
S1130DA0E020A047104D2A000821E020A0472A0097
S1130DB00921E020A04700221421E020A0470B4B8A
S1130DC01A881521E020A047094A0A21E020A047FB
S1130DD000220B21E020A04770BDC046B5E300000F
S1130DE0DD31000001070000FFFF0000480F002074
S1130DF007410000F0B5474680B48AB009AE00242C
S1130E0074700125B570F470062398463370310070
S1130E101820204FB8474346337031001920B84793
S1130E2008236A46137054709470D5701571557107
S1130E309571D4711472547201235B4253811473FB
S1130E4054739473D4731474022353749374D574C5
S1130E501575114B0693157754779577D47720231E
S1130E60D4540133D4540D4C0D4920000D4B9847F4
S1130E7020000D4B9847802212020C4B1A60226806
S1130E80536DC02149050B4353650AB004BC904619
S1130E90F0BDC0469D5F0000FFFFFF1FEC00002077
S1130EA0001C0042E53A0000E53D000000E100E0DE
S1130EB010B582B00A4B0193019A0A4B13400A4AB7
S1130EC013430193094C012201A92000084B9847C0
S1130ED02268516D01230B43536502B010BDC04617
S1130EE0FF070088FFFF00F80000FF01EC0000206E
S1130EF0FD3D000010B584B00023009388231B043B
S1130F000193009B8004124C204018430090019CE4
S1130F100F20104000040F4B234003430193002A89
S1130F2007D002AB8A180878187001310133914256
S1130F30F9D1094C002269462000084B98472368E0
S1130F409A69920702D40121D022995004B010BDAD
S1130F500000FC1FFFFFF0FFEC000020853E0000B6
S1130F600023024A1360024A13607047A80000205D
S1130F70F0000020054B1A68511C1960044988547C
S1130F801A68FF210A401A607047C046F00000202A
S1130F90F400002030B583B0244B1B681A6D019215
S1130FA0019AD2072FD501221A65214C22681F4DC0
S1130FB020492800204B9847236829683F22134082
S1130FC069328B502368013323602368202B02D1BC
S1130FD00022174B1A6000230093164B5B681B0317
S1130FE01B0F009A93420ED9124C144D009BE31828
S1130FF0187AA847009B0133009363681B031B0FF7
S1131000009A9342F2D8019B1B0102D4019BDB009E
S113101009D5064B1B68C02252051A6580221205A9
S11310208223DB05DA6103B030BDC046EC0000204A
S1131030F401002098000020393E0000750F0000E4
S1131040F0B557464E464546E0B48246002904D1E1
S11310501EE0013C002C09D11AE0104C0023104F73
S1131060104E3A0010488046FF20844638683568A0
S1131070A8420BD01568681C10604046455D504678
S1131080C554156860460540156001338B42E0D1B4
S11310901CBC90469946A246F0BDC0460F270000EE
S11310A0A8000020F0000020F400002010B5013951
S11310B0002909DD00220023C45C1219D2B20133D5
S11310C0DBB28B42F8DB00E000225042C0B210BD1C
S11310D0F0B557464E464546E0B407000D004E1E97
S11310E0F6100136002E1DDD00210024104B9A4617
S11310F09946104B9846082D07D9C900791808223B
S11311000D48C847083DEDB204E0C90079182A002B
S11311100948D047FA204000C0470134E4B2211EF8
S1131120B142E8DB1CBC90469946A246F0BDC046DD
S1131130F50E000019350000FF01000010B584B061
S113114001AC552323700B4B1B7863700A4A127849
S1131150A2700122E27057322271637104216B463E
S1131160D81D064B9847A07107212000044B9847CF
S113117004B010BD010F00205C0F0020AD10000072
S1131180D110000010B537210148024B984710BD1B
S1131190AC000020D1100000F0B5474680B45B4C91
S11311A0552323705A4B1B7863705A4B1B78A370DA
S11311B03126E670D5232371574B1B786371574B47
S11311C01A88A2711A88120AE2715A6822725A683D
S11311D0121262729A8CA2729B8C1B0AE372504B9D
S11311E000229A5EE123DB005A43D3175B045B0CB5
S11311F09B18DB1323731B1263734A4B002018568E
S1131200494B1B785BB2C018484B1B785BB2C018C3
S1131210474F0321B847A073464B1B88E373464BE3
S11312201B88237400256574A574444B1888444BAB
S113123058434449B847E074000A2075424B188863
S11312403223FF33984658433E49B8476075000A35
S1131250A0753E4B1888434658433A49B847E07551
S1131260000A20763A4B1888434658433549B84714
S11312706076000AA076374B1B68E3761A0A227759
S11312801A0C62771B0EA377334B1B68E377190A9A
S11312902022A154190C0132A1541B0E0132A35473
S11312A02E4B1B680132A354190A0132A154190CA4
S11312B00132A1541B0E0132A3542723E5540133F8
S11312C0E5540133E5540133E5540133E554013366
S11312D0E5540133E5540133E5540133E554013356
S11312E0E554A5550233E5540133E5544F32013337
S11312F0E254683A0133E254E01C3421184B984715
S11313003623E05404BC9046F0BDC046AC00002037
S1131310010F00205C0F0020080F00200C0F00209C
S1131320660F00203A0F0020020F0020000F00205B
S1131330D5620000480E0020CC100020380F002099
S1131340D817000010270000040F0020060F00200B
S1131350400F0020600F00203C0F0020540F00209D
S1131360AD10000030B5C3B0444B1A68444B1B6841
S11313709A4200D180E05522424B1A7001216B46FB
S1131380D81D414B98476B4607331B78552B73D1B7
S113139001216B46D81D3C4B98476B4607331B789D
S11313A0002B32D101216B46D81D374B98476B4631
S11313B007331B78002B5FD101216B46D81D324BBC
S11313C098476B4607331B78002B55D101216B4698
S11313D0D81D2D4B98476B4607331B78012B4BD1F7
S11313E001216B46D81D284B98476B4607331B7861
S11313F0FF2B41D12548264B9847BFF34F8F254AF1
S1131400254BDA60BFF34F8FFEE7244A12789A42E5
S113141001D0FF2B30D1012121481B4CA0470121D1
S113142002A8A04702AB1978042925D80231092063
S11314306844154B984702AD2C78E11CC9B22800CA
S1131440184B98472C19A378834215D102AB5B78CB
S1131450DAB2C52A0BD0CE2A02D0482B0CD109E02F
S113146002AB9A78104B1A70104B984704E0104B5B
S1131470984701E00F4B984743B030BDA8000020C7
S1131480F0000020CC0F00204110000000FD0300FC
S1131490954300000400FA0500ED00E0010F002070
S11314A05C0F0020AD100000080F0020991100000F
S11314B0851100003D11000000B583B000236A4689
S11314C01370074A5268D206120F69468A70CB70AD
S11314D00B714B714B706846024B984703B000BDCB
S11314E0004000410D41000070B50500024C280089
S11314F0A0470528FBD070BD95430000F8B5060051
S11315000D001400034F220029003000B8470528BD
S1131510F9D0F8BD55420000F8B506000D001400DE
S1131520034F220029003000B8470528F9D0F8BD40
S11315301D430000344A5178344B9974997CC9B2E4
S11315401975997CC9B2597511799984998C0902D4
S113155089B29984988C5179014399849179D98479
S1131560D98C090289B2D984D88CD1790143D98420
S1131570117A1985198D090289B21985188D517A44
S113158001431985D17A224B1980117B214B198093
S11315901988090289B219801888517B014319807E
S11315A0917B59805988090289B259805888D17B26
S11315B00143598010215156197111215156597105
S11315C0917CD980D98849B20902D980D98809B2D5
S11315D0D07C0143D980117D1981198949B209024E
S11315E01981198909B2507D01431981917D59816D
S11315F05989090289B259815889D17D0143598198
S1131600127E52B21A737047DC1000200C0F0020B7
S1131610C80F0020B80F0020F8B52E4BB3221A7063
S11316202D490A88120A9A700A88DA702B4A918C1A
S1131630090A1971918C5971D18C090A9971D18C4B
S1131640D971118D090A1972128D5A72244A12889D
S1131650110A9972DA72234A1188090A19731188D6
S113166059735188090A99735188D9731179197476
S113167051795974D188090A9974D188D974118916
S1131680090A1975118959755189090A9975518978
S1131690D975127B52B212121A761A001933190034
S11316A0002310781B18DBB201328A42F9D1094CAD
S11316B063760D4D28000D4FB8470D4E3000B847E6
S11316C01A22210028000B4DA8471A2221003000BD
S11316D0A847F8BDDC100020420F00200C0F0020AA
S11316E0C80F0020B80F002000FE0300E91400001A
S11316F000FF0300FD14000010B5104C1A22210055
S11317000F48104B98472378B32B13D10B4A100082
S11317101930002311785B18DBB201328242F9D10F
S1131720064A527E9A4202D1074B984704E0074B7F
S1131730984701E0054B984710BDC046DC100020D7
S113174000FF0300191500003515000019160000EC
S113175010B5104C1A2221000F48104B98472378DB
S1131760B32B13D10B4A10001930002311785B18E6
S1131770DBB201328242F9D1064A527E9A4202D148
S1131780074B984704E0074B984701E0054B9847FF
S113179010BDC046DC10002000FE03001915000037
S11317A035150000F9160000F0B5474680B482B044
S11317B001AC012767700026A6702770210029203C
S11317C0134DA8478223DB0598468033802292007C
S11317D09A61277021000520A8472023424693617F
S11317E0277021000B20A84780231B0142469361E8
S11317F0267021000420A847267021000620A8474F
S1131800267021002420A84702B004BC9046F0BDF5
S11318101944000070B5012A1BD11A4B0A0A1A5444
S1131820181841701923013BDBB2002BFBD1164C75
S11318302000164EB047164D2800B047114E1A220C
S113184031002000134CA0471A2231002800A04781
S113185017E00C4B19541923013BDBB2002BFBD1CD
S1131860094C2000094EB047094D2800B047054EE9
S11318701A2231002000074CA0471A223100280008
S1131880A04770BDDC10002000FE0300E914000036
S113189000FF0300FD14000010B57F4B1B889BB2B2
S11318A07E4A11888B4210D97D4B1B780133DBB201
S11318B00A2B02D87A4A13700AE00022784B1A7075
S11318C001320C20774B984702E00022744B1A70C7
S11318D0714B5B889BB2744A11888B4210D2734B54
S11318E01B780133DBB20A2B02D8704A13700AE06A
S11318F000226E4B1A7001320E206A4B984702E0A8
S113190000226A4B1A706A4B1988634B1B795BB2CD
S113191099420FDA674B1B780133DBB20A2B02D8EA
S1131920644A137009E00022624B1A7010205D4B68
S1131930984702E000225F4B1A705F4B1988564BA0
S11319405B795BB299420FDD5C4B1B780133DBB2F0
S11319500A2B02D8594A137009E00022574B1A7017
S11319601120504B984702E00022544B1A704A4B06
S1131970DB881BB2524A0021515E8B4213DD0029E1
S113198011DA504B1B780133DBB20A2B02D84D4AD3
S113199013700BE000224B4B1A7089B201321220F3
S11319A0404B984702E00022464B1A703A4B1B8981
S11319B01BB2434A0021515E8B4213DA002911DD28
S11319C0414B1B780133DBB20A2B02D83E4A137019
S11319D00BE000223C4B1A7089B201321420314BC7
S11319E0984702E00022384B1A70384B1B882A4A69
S11319F052899BB2934213D9354B1B780133DBB226
S1131A000A2B02D8324A13700DE00022304B1A70B0
S1131A102E4B198889B201321620224B984702E0D6
S1131A2000222B4B1A702B4B19881B4B1B7B5BB270
S1131A30994210DD284B1B780133DBB20A2B02D804
S1131A40254A13700AE00022234B1A700132182031
S1131A50144B984702E000221F4B1A701F4B198841
S1131A601F4B1B888B4212D01E4B1B780133DBB2F9
S1131A700A2B02D81B4A13700CE00022194B1A706F
S1131A80174B198001320A20064B984702E00022C6
S1131A90144B1A7010BDC046B80F0020060F00206A
S1131AA00602002015180000400F0020FA01002053
S1131AB0480E002004020020CC100020F901002070
S1131AC0660F0020F8010020050200200C0F002002
S1131AD0FB010020D8100020FE010020C80F0020C8
S1131AE0FC010020FF010020F0B557464E46454654
S1131AF0E0B482B08246022902D0032903D005E073
S1131B00574B984604E0574B984601E0564B98468D
S1131B1043465F1CFF37082269463800534B9847F9
S1131B206B461B78FF2B30D10024504EE3B299460C
S1131B30E5004544082269462800B0476B461B78F7
S1131B40FF2B1ED100236A46137053705246120EA7
S1131B5069468A705246120CCA705246120A0A71B9
S1131B606A46514651719371D3710822694628001F
S1131B703F4B98474B46102B6BD138003D4B984751
S1131B8067E00134402CD1D163E000260024374BB8
S1131B909946F500ED19082269462800C8476B46A6
S1131BA01B78FF2B1DD100236A46137053705246D5
S1131BB0120E69468A705246120CCA705246120AB4
S1131BC00A716A46514651719371D371082269466C
S1131BD02800274B9847102C09D14046254B98479D
S1131BE037E00134E4B20136202CD2D101E0202CBC
S1131BF02FD100251D4EEBB29946EC004444082237
S1131C0069462000B0476B461B78FF2B1ED100238A
S1131C106A46137053705246120E69468A705246D1
S1131C20120CCA705246120A0A716A465146517120
S1131C309371D3710822694620000D4B98474B4697
S1131C40102B06D138000B4B984702E00135202DAC
S1131C50D1D102B01CBC90469946A246F0BDC04604
S1131C6000F9030000FB030000F70300191500004E
S1131C70FD140000E9140000F0B5474680B484B0B8
S1131C8004000822002102A8374B9847022C02D0F6
S1131C90032C02D003E0354E02E0354E00E0354E11
S1131CA0082202A93000344B984702AB1B78002469
S1131CB0FF2B30D10136FF36082202A930002E4B0B
S1131CC0984702AB1B78FF2B3AD02B4B9846E7B2D0
S1131CD00194E500AD19082202A92800C04702AB0F
S1131CE01B78FF2B02D01F2C11D101E01F2F05D12F
S1131CF0082202A92800204B984721E001980138C6
S1131D00C0008019082202A91B4B984718E001342F
S1131D10202CDCD114E0184FE0008019082202A91D
S1131D20B84702AB1B78FF2B07D1601EC000801997
S1131D30082202A9104B984702E00134402CEBD151
S1131D4002AB98780006DB781B04184302AB5B797E
S1131D50184302AB1B791B021843431C00D100201B
S1131D6004B004BC9046F0BD6365000000F90300B4
S1131D7000FB030000F703001915000010B50E4B1B
S1131D801B680133032B02DC0B4A136012E00022B0
S1131D90094B1A60094B1A68501C1860084B1B68E1
S1131DA0C31A3B2B06D90321064B9847034B1A68E9
S1131DB0034B1A6010BDC04600020020540F0020DF
S1131DC0FC0E0020E91A0000F0B557464E46454681
S1131DD0E0B48224E4058023636180263605A6618D
S1131DE080256D05A561FA204000344B9847666153
S1131DF06561334E002400253480324F3C80324BE1
S1131E001C80324B1C80324B1C80324A324B1A806D
S1131E10324B1C80324B1C80324B1C80324B1C805A
S1131E20324B1C80324B1D70324B1D70324B1D7077
S1131E30324B1D70FF22324B1A700120314B9846F1
S1131E409847314B9A4618600220C0472F4B994659
S1131E5018600320C0472E4B186053461A682D4B58
S1131E601A604B461A682C4B1A602C4B18607A780F
S1131E70402313437B702A4B1D76327801210A4399
S1131E8032703A7801208243013082433A7072788A
S1131E90114371701C629C84DD759D76214B5D71CC
S1131EA064221A711C81DC801D735C815C80653A3C
S1131EB01A801CBC90469946A246F0BD45350000E8
S1131EC0680F0020F8100020D4100020D01000204B
S1131ED0C80F002018F6FFFF420F0020660F0020F5
S1131EE0480F0020500F0020D6100020040F0020BF
S1131EF0FB100020FA100020D2100020080F002050
S1131F00010F0020791C0000600F00203C0F00200E
S1131F10540F00204C0F0020440F0020FC0E002022
S1131F200C0F0020B80F002010B5264B1B785B0760
S1131F3014D4254B984700280AD1224A1178042347
S1131F400B431370214A13787F210B40137005E073
S1131F501E4A1378802149420B4313701C4B984747
S1131F601A4B1B8884229200134205D019490A781F
S1131F70022082430A7004E01649087802220243D0
S1131F800A70B0225200134210D0124A1378012171
S1131F908B4313700D4A517820230B435370DB0796
S1131FA00ED5517810230B43537009E0074A537838
S1131FB020218B435370074A117801230B4313707C
S1131FC010BDC046680F00202D060000D41000206C
S1131FD0B90A0000F8100020784B5B78DB075AD46C
S1131FE0764B1B789B077AD5754B1B88322B13D9FC
S1131FF0744B1B780133DBB2082B02D8714A13707F
S11320006DE000226F4B1A706C494A780123134328
S1132010042213434B7062E000226A4B1A706A4B2D
S113202000229B5E002B30DD142B25DD674A934292
S113203017DD674B1B780133DBB2042B02D8644AEB
S1132040137011E00023624A1370624A13805B4BE1
S1132050197810220A431A70597801220A435A70D7
S113206002E000225A4B1A7054490A78042313439D
S1132070F72213400B7032E00022554B1A704F4A7E
S1132080137804218B43137029E04C4A13780421FC
S11320908B43137023E0494B1B78DB0610D54D4B63
S11320A01B88142B1BD900224A4B1A80434B1A78E5
S11320B010218A431A705A780F398A435A700EE0F5
S11320C03F4B1B88272B0AD8434B1B88052B06D96B
S11320D03A4A537801218B4303318B435370374B76
S11320E05B789B0748D4354B1B78DB0764D5344BAE
S11320F01B88412B13D9394B1B780133DBB2082BD6
S113210002D8364A137057E00022344B1A702B4918
S11321104A7802231343082213434B704CE00022F5
S11321202E4B1A70284B00229B5E002B1EDA23498B
S11321300A7808231343FB2213400B70284B1B78A7
S11321400133DBB2042B02D8254A137034E0002398
S1132150234A1370234A1380184B197820220A4308
S11321601A70597802220A435A7025E0134A1378E8
S113217008218B4313701FE0104B1B789B0610D56E
S1132180184B1B88142B17D90022164B1A800B4BA3
S11321905A7802218A435A701A781E318A431A7077
S11321A00AE0074B1B88362B06D8044A53780221D1
S11321B08B4306318B4353707047C046F8100020A0
S11321C0CC1000201A020020660F0020E913000042
S11321D00C02002010020020480E00200E020020F5
S11321E00F0200201E02002010B53C4B1A883C4B05
S11321F01B88D01A3B49884202DD3B49098803E029
S1132200394908883949088039498B420DD83649FB
S1132210098838480088091A89B2782909D93648C2
S1132220047802212143017003E02F4908883149D1
S1132230088032498A420DD92B49098830480088E0
S1132240091A89B2782909D92B4804780221214333
S1132250017003E0244908882949088029498B42F0
S113226002D82149098803E01F49088826490880C3
S113227026498B420DD81C4B1B88254909885B1ABB
S11322809BB2082B0ED923490878402303430B70D3
S113229008E0154B19881E4B19801E490B78402005
S11322A083430B701C4B9A420ED90F4B1B88184A60
S11322B012889B1A9BB2082B0FD9164A13788021D7
S11322C049420B43137008E0124A13787F210B40F4
S11322D01370054B1A880E4B1A8010BD400F002056
S11322E0060F0020660600000A02002012020020E9
S11322F0321300001C020020C80F00200A3700001F
S1132300080200206F1D000018020020652600004E
S113231016020020680F00202436000010B5304B50
S11323201B88304A934209D92F4A12889A1AA42A40
S113233004DD2E494878402202434A702C4A9342D5
S113234008D9294A12889B1A512B03DD294B1B7883
S11323501B0704D5254A537840218B435370234BE4
S11323605B785B0639D5244A13780133DBB21370EA
S11323701378DBB2182B09D8204B98471E4B1B78D7
S1132380DBB2142B2BD91E4B984728E01A4B1B7831
S1132390DBB24A2B08D81B4B1A881B4B13401B4A31
S11323A013801B4B98471AE0134B1B78DBB2502B5E
S11323B010D9144B1A88174B1340144A1380144B2A
S11323C098470D4B1B78DBB2822B08D900220A4BAD
S11323D01A7004E0094B984701E0084B984710BD78
S11323E0400F0020EB310000060F0020D410002025
S11323F0A2300000F81000200D0200205D0800004B
S1132400DD0C0000500F002055550000480F00203F
S1132410910D0000AAAAFFFF124B1B886E2B11D945
S1132420114B1B780133DBB2082B02D80E4A137010
S113243017E009220C4B1A700C4A517820230B43E5
S113244053700EE0542B0CD8074B1B78002B03D091
S1132450013B054A137004E0044A537820218B435E
S113246053707047D810002015020020F810002087
S113247010B5054B9847054B9847054B9847054BB6
S11324809847054B984710BD291F0000D91F00002D
S1132490E92100001D2300001924000070B52B4B16
S11324A000229A5E2A4B53432A4C226ADB139B1860
S11324B02362206AE1218901274B98470500226A9B
S11324C0264B43439B182362002810DB244B1A68D5
S11324D080181860234B1B68C31A632B17D9022179
S11324E0214B98471E4B1A681E4B1A600FE01F4B76
S11324F01A68101A18601E4B1B68C31A632B06D97E
S11325000121194B9847194B1A68194B1A602B0073
S11325101D3303DB0F4A5368ED1855600D4B5B68A0
S1132520002B03DD00220B4BDA600DE0094B5968E8
S1132530DA688A18DA6000225A60DA680D4B9A4227
S113254002DA1A00034BDA6070BDC046660F002041
S113255020BF02000C0F0020D5620000C0C7FFFF9F
S11325603C0F0020440F0020E91A0000600F0020F7
S11325704C0F002050FBFFFF10B5294A138801338C
S11325809BB21380274A137801331370264B984764
S1132590264B1B789A0605D525490A780132D2B212
S11325A00A7006E0224A12782D2A02D00021204A1D
S11325B011705A0605D51F490A780132D2B20A7041
S11325C006E01C4A12782D2A02D00021194A117003
S11325D0DB0605D5184A13780133DBB2137006E025
S11325E0154B1B782D2B02D00022134B1A70134B62
S11325F01B789A0604D512490A8801320A8002E03F
S113260000210F4A1180DB0604D50E4A13880133DA
S1132610138002E000220B4B1A800B4B984710BD2D
S11326200A020020140200209D240000D41000207F
S1132630FB100020FA100020D2100020F810002017
S11326401E0200201002002045580000F0B5041EB0
S1132650104B9C421AD03220652100220E4EFF25D9
S11326600CE05318D80FC3185B10D8B22B405B0092
S11326709B5BA3420DD08F1A012F09D09C4201D33A
S1132680020000E001009142EBD802E0322000E0B9
S11326901000F0BD660E0000B46E000070B5BC4BB7
S11326A01B88B5339BB2B522520093425BD8B94A1A
S11326B0537810218B4353700022B74B1A70B74BD9
S11326C01B88002B2CD1B64B1888B64B18800132CE
S11326D0B24B1A80B44B5843800BB44B9847B44B5D
S11326E09B7CDBB2984205D9B14B9B7CC01AB14BA1
S11326F0188004E0AE4B9B7C181AAE4B1880AD4B8F
S11327001988002908D0494389B296200001AA4BB0
S11327109847A84B188039E07822A64B1A8035E0F8
S113272001339BB29D4A1380A24A12889A422DD249
S11327309B4B1A889B4B1B889A4202D9D31A9BB293
S113274001E09B1A9BB2F422FF32934207D8914ACC
S1132750517802230B4353700122984B1A700022C4
S11327608E4B1A8012E08C4B1B780133DBB2032BA7
S113277002D8894A137009E00023874A1370874AF4
S11327801380844A517810230B4353708C4B1B885D
S11327900A2B00D89DE07E4B1C888A4BE3189BB221
S11327A09F22D20093424FD8874B1B78002B07D12E
S11327B07B4B1A88854B1A800122834B1A7046E0A2
S11327C00133DBB2804A1370282B40D97F4B1B881E
S11327D0734A1288934233D99B1A9BB2F421FF3176
S11327E08B422DD8704D6A43950BA8B26F4B984716
S11327F0774B9D4212D86E4B9B7C053B98421FD26F
S11328006B4B9B7CDBB2052B1AD9624A51780223AD
S11328100B4353700522694B1A7011E0644B9B7C87
S11328200F3B98420CD2624B9B7CDBB20F2B07D937
S1132830584A517802230B4353700F225F4B1A708E
S11328400022614B1A7002E000225F4B1A70B73C01
S1132850A4B29F23DB009C4238D85E4B1B78002B2C
S113286007D14F4B1A88594B1A800122594B1A70C1
S11328702FE00133DBB2574A1370282B29D9534B6D
S11328801B88474A128893421CD2D31A9BB2F42164
S1132890FF318B4216D844485043800B434B984732
S11328A0434B9B7C0F3B98420CD2414B9B7CDBB24D
S11328B00F2B07D9374A517802230B4353700F2249
S11328C03E4B1A700022434B1A7002E00022414B27
S11328D01A70304B5B789B0758D5314B1888324BB4
S11328E05843800B314B984702002A494C781023F7
S11328F023434B702E4B9B7C30490978C31A8B427F
S11329001ADD2B4B9B7CDBB2984215D9284B9B7C60
S1132910C31A9B0805D01F4D6C781026B4436C7005
S113292000E00123224DEC7DDBB2E41A64B2EC75C5
S1132930AC7CE318DBB2AB741D4B9B7C1B1A994235
S11329401FDA1B4B9B7CDBB29A421AD2184B9B7C3E
S1132950181A800805D00F4A537810218B435370FE
S113296005E00C4A517810230B4353700120104AA0
S1132970D37DC0B21B185BB2D375937C181AC0B256
S11329809074044A537802218B43537070BDC0463F
S1132990660F0020680F002032020020240200206D
S11329A0040F002028020020881300004D26000098
S11329B00C0F0020940D0020D5620000220200209C
S11329C0480E0020AF05000026020020300200203F
S11329D07F0C00002102002010B5574B00229B5EA3
S11329E01A00B6323ADA554B1B88272B27D8544B9A
S11329F01B880A2B23D90022524B1A70524B5B7846
S1132A00DB0600D497E0514B1B78002B0ED101322A
S1132A104E4B1A7000234E4A13704E4A13704E4B9D
S1132A205A689A609A7CD2B2DA7484E0484B1B7874
S1132A30012B00D07FE00022444B1A707BE0414B15
S1132A401B780133DBB2032B02D83E4A137072E0C9
S1132A5000233C4A13703D4A13706CE0B52B65DCCF
S1132A603A4B1B78012B66D10122394B1A70364B35
S1132A705B78DB065FD538490A888B684968D208D9
S1132A805B1A9A4243D20022304B1A70334B5B7864
S1132A90DB0706D4304B5968314A11609A7C314BBC
S1132AA01A702D4CA268E0682D4B1B68D31A1B1AB0
S1132AB064205843E37C2B4A1178591A2A4B9847CF
S1132AC023889BB2984210D92388C31A274A934279
S1132AD008D880B22080218889B201220220244BA8
S1132AE0984714E01C4B1B8811E01B4B1B881B1AD6
S1132AF01E4A934209D880B2174B1880198889B2AC
S1132B00012202201A4B984701E0134B1B88114BFA
S1132B101B780133DBB2142B02D80E4A13700AE07F
S1132B2000230C4A1370094A137004E00023074A77
S1132B301370074A137010BD660F0020CC100020DC
S1132B40480E00202F020020680F002020020020E1
S1132B50230200202A0200200C0F0020D4100020A1
S1132B60340200202E020020C1610000AF040000E6
S1132B701518000010B5214A937C127DDBB29342F4
S1132B801AD91E4A937C127D9B1A002B14DD1C4B10
S1132B901B780133DBB20A2B02D8194A13700BE0FD
S1132BA00022174B1A70154B9A7CD2B21A75997C75
S1132BB000220120134B9847104A937C127DDBB20C
S1132BC093421AD20D4A137D927C9B1A002B14DD7A
S1132BD00B4B1B780133DBB20A2B02D8084A137063
S1132BE00BE00022064B1A70044B9A7CD2B21A7581
S1132BF0997C00220120034B984710BD0C0F002044
S1132C00270200201518000010B5864B1B7E002BF0
S1132C1031D1844A937D927CDBB2934204D2814ABF
S1132C20937CDBB2937529E07E49887D8B7CCA7DD9
S1132C3052B2D31AC3185BB2CB758B7CDBB28B75E3
S1132C40CB7D5BB2062B19DDCB7D5BB2642B01DD42
S1132C500022CA75734CA38C01339BB2A384002356
S1132C60E375A18C89B2012204206F4B9847A37CA1
S1132C70DBB2237602E000226A4B9A756B4B00228A
S1132C809B5EB62B11DD674B1B7E002B0DD0684A73
S1132C90138801339BB2138096221201934204D904
S1132CA00023604A1376624A13805E4A537E927C04
S1132CB0DBB2934203D25B4A937CDBB2537659492D
S1132CC04A7E887C8B7E9B181B1ADBB28B768B7EAC
S1132CD0DBB2322B0BD9CB8C01339BB2CB840023D8
S1132CE08B76C98C89B2012206204F4B9847514BF1
S1132CF01B88514A934221D84A4BDB7EDBB2C72B57
S1132D0004D8484AD37E0133DBB2D376454BDB7E0D
S1132D10DBB2322B21D9434BDB7EDBB2632B1CD8D5
S1132D20404AC823D376D38C01339BB2D384D18C4D
S1132D3089B2012206203C4B98470EE03F4A934259
S1132D4003D90022374BDA7607E0364BDB7EDBB261
S1132D50C72B02D80022334BDA76344B00229B5E19
S1132D60B62B22DD2F4A137F927CDBB2934203D928
S1132D702C4A937CDBB213772A498A7C087F4B7FE9
S1132D809B181B1ADBB24B774B7FDBB2322B11D96A
S1132D900B8D01339BB20B8500234B77098D89B2D0
S1132DA001220820204B984704E01E4B64221A7726
S1132DB000225A77224B1B88224A934221D9194B6D
S1132DC09B7FDBB2C72B04D8164A937F0133DBB257
S1132DD09377144B9B7FDBB2322B21D9114B9B7F12
S1132DE0DBB2632B1CD80F4AC8239377138D0133AE
S1132DF09BB21385118D89B2012208200A4B984792
S1132E000EE0114A934203D80022064B9A7707E05A
S1132E10044B9B7FDBB2C72B02D80022014B9A776D
S1132E2010BDC0460C0F002015180000660F0020CE
S1132E302C020020060F002065260000C92C00008B
S1132E40400F0020793400005B2F000070B5474B21
S1132E501B88474A93422AD9464A1278002A26D127
S1132E60454A5278D20722D4444A1278D20711D460
S1132E7043485843800B434B9847434CA074A17C70
S1132E8000220120414B9847A37CDBB22375A37C2D
S1132E90DBB263753C4CA07C2388584364213C4BD3
S1132EA0984760600023E3600122324B1A70394B6B
S1132EB09847394B98472D4B1A882D4B9A423CD949
S1132EC0314B5A681B889BB29A4203DD2E4A138801
S1132ED09BB25360284B5B78DB070BD52A4B5968B0
S1132EE02E4A116000225A609A7CD2B25A759A7C9A
S1132EF02B4B1A70244D6868298889B2AC7CE4B2E3
S1132F0064235843224B9847C0B26B7DE41A0419DA
S1132F10E4B2AC746875AB7CDBB2C82B02D86B68C6
S1132F20002B02D10022184B9A74174B9B7CDBB206
S1132F30642B02D96422144B9A74134B1B7E002B0E
S1132F400ED0114A137E927CDBB2934208D20E4A11
S1132F50937C127E9B1A072B02DD00220A4B1A7601
S1132F60104B9847104B984770BDC046040F002083
S1132F709919000033020020D4100020D010002042
S1132F80881300004D2600000C0F002015180000C7
S1132F90C16100009D260000D929000034020020F0
S1132FA02E020020752B0000092C0000024A5178E3
S1132FB001230B4353707047680F002010B50A00BB
S1132FC001000248024B984710BDC046980D0020EE
S1132FD0214E000010B50A00002301000148024CF4
S1132FE0A04710BD980D0020354C000010B50122FB
S1132FF002490348034B984710BDC046A40D002066
S1133000980D00202D4D0000F0B5474680B492B0D5
S1133010454C1123237000236370A3700122694679
S11330204A708B700A701120404B98472378DA0954
S11330300021002A05D15909C9018222D2059446EA
S113304061441F2213401E3A10009840886104AC6A
S113305022700023059323746374A274E2742375AD
S11330602332A354183A00210AA8314B9847314B14
S1133070A36180235B05A36080235B02E3602E4B86
S1133080A36201235B42E3622C4B23632C4B6363F7
S11330902C4D22002C4928002C4B98472A68D369D0
S11330A0002BFCD1116802330B431360284B984763
S11330B003AC00252570A5706570210030201B4BE2
S11330C0984698470127277021000720C047822689
S11330D0F6058023B361277021000A20C0478023AE
S11330E0DB00B361277021003120C0478036802384
S11330F09B0273616846174B98470D230093019513
S11331006B461D72DF7269460D20134B98470022EF
S11331100D211248124B984700210D20114B98475E
S113312012B004BC9046F0BDA40D00201944000068
S113313063650000A0860100020010000200120076
S113314002001300980D0020000800420D49000001
S1133150ED2F00007140000085400000AD2F0000FD
S1133160F93E0000253F000010B500220249034843
S1133170034B984710BDC046A40D0020980D0020B5
S11331802D4D000082B06B460022DA7107331B78A4
S1133190DBB2072B09D86B46DA1D13780133DBB297
S11331A013701378DBB2072BF7D902B07047C0460F
S11331B010B500280DD00B000138C0B20130091839
S11331C00020054C1A785040205C01338B42F9D121
S11331D000E0002010BDC046806F0000F0B55F46DF
S11331E056464D464446F0B483B0914640001E27EF
S11331F038404B009846130A9B460926254B9A46AD
S1133200254D3E3F07430197D0476B461B792B70F2
S113321043466B705B46AB704B46EB702900042051
S11332201E4B98472871052128001D4B98471D4BBC
S11332301C6A1B6AE403E40FDB030ED41A4B194A1D
S1133240012080214902146A240C0440176A0F42A9
S113325003D1013B9BB2002BF5D16420134B98475B
S1133260012C03D1124B984700200BE064200F4B34
S113327098470F4B98470F4B9847013EF6B2002EE4
S1133280C2D1012003B03CBC90469946A246AB464D
S1133290F0BDC0466931000038020020B1310000A1
S11332A0BD2F0000800000410F27000019350000E9
S11332B0ED2F000085310000F0B557464E464546D7
S11332C0E0B482B0019240001E2738404B0098467B
S11332D009262C4B9A462C4C3D3F0743B946D04710
S11332E04B4623704346637021000220274B9847C6
S11332F0A07003212000264B9847264B1A6A1B6AAC
S1133300D203D50FDB030FD4234B2249012780209E
S113331040020A6A120C3A4015000A6A024203D1BA
S1133320013B9BB2002BF4D164201C4B9847012D28
S113333018D11B4C032120001A4B98471A4B98476D
S113334021000220114B98470300A27802209A42E0
S113335011D1134A13781B025278D318019A13809F
S1133360002008E0104B9847104B9847013EF6B2F6
S1133370002EB4D1012002B01CBC90469946A2464E
S1133380F0BDC0466931000038020020B1310000B0
S1133390BD2F0000800000410F27000019350000F8
S11333A040020020D52F0000ED2F000085310000E1
S11333B0F8B55F4656464D464446F0B49146400043
S11333C01E2630404B009B460925364B9846364C0A
S11333D03D3E0643B246C0475346237001235A4636
S11333E0134363707F234A461340A37021000320D4
S11333F02E4B9847E070042120002D4B98472D4B0D
S11334001A6A1B6AD203D60FDB030FD42A4B29494D
S11334100127802040020A6A120C3A4016000A6A08
S1133420024203D1013B9BB2002BF4D16420234B15
S11334309847012E29D1224CAD212000214B9847D9
S1133440214B9847214B9847E3783B2B09D1002225
S11334501F4B1A701F4A117801230B43137000206D
S11334601AE01B4B1B780133DBB2082B03D0184A3C
S11334701370002010E00022154B1A70154A1378BF
S113348001218B431370002006E00F4B9847013D48
S1133490EDB2002D9FD101203CBC90469946A24636
S11334A0AB46F8BD6931000038020020B13100009C
S11334B0BD2F0000800000410F27000019350000D7
S11334C04E0E0020D52F0000ED2F000085310000A6
S11334D03D020020680F002070B50020084B98477B
S11334E00500084CFA218900A047074B18600749DA
S11334F02800A047064B18600522064B1A6070BDD1
S1133500C55D0000C16100000400002040420F00BE
S11335100000002010E000E030B5084B1C68084AA9
S113352000258021490206E0002C04D054609560F7
S113353013680B42FCD00138F6D230BD00000020E5
S113354010E000E030B5084B1C68084A00258021D3
S1133550490206E0002C04D05460956013680B42C5
S1133560FCD00138F6D230BD0400002010E000E0A9
S113357010B582B06A46084B12CB12C2009B984227
S113358005D00023019A824203D1013300E00023D5
S1133590DBB2180002B010BD5471000010B5002356
S11335A00022037043708370C3700021038303629D
S11335B0C36101240471C0246401C4800172427295
S11335C08272C27202732A24025542738273C273D6
S11335D003610275063C0255C3840385417510BD21
S11335E0F0B55F4656464D464446F0B49DB00500DE
S11335F00E0017000800C64B9847040000902E6088
S1133600C44AD1698000C44BC3580B43D361337897
S11336100520DB0700D535E22A68138C9BB2002B0A
S1133620FBD133781C209B0700D52BE27B782B71D0
S1133630002B04D1B94AD16904330B43D3612B68FD
S11336409A463B7802AA1370B54B1E5D11003000F8
S1133650B44B98473000B44B98473B79984604AE36
S1133660B24B9C461A000832310049CA49C149CAC2
S113367049C149CA49C149CA49C110A96346383335
S11336800A0043CB43C243CB43C243CB43C243CBE5
S113369043C2009B002B03D010A9012B03D001E0EF
S11336A004A900E00021A300A14A9B58994698452B
S11336B00CD843469800405803A900234B70CB70A4
S11336C08B7001330B70C0B29A4B9847FB889846B5
S11336D004AE964B9C461A000832310049CA49C1CF
S11336E049CA49C149CA49C149CA49C110A963461D
S11336F038330A0043CB43C243CB43C243CB43C218
S113370043CB43C2009A002A03D010AB012A03D052
S113371001E004AB00E00023C84500D9ACE1424617
S11337209000C05803A900234B70CB708B700133F9
S11337300B70C0B27F4B98479EE15B464246934074
S11337403A691A4230D004A8784B0833020043CBBC
S113375043C243CB43C243CB43C243CB43C210A86F
S1133760724B3833020043CB43C243CB43C243CBF7
S113377043C243CB43C2009A002A03D010AB012AB0
S113378003D001E004AB00E00023019A4A450BD8C2
S11337909100C85803A900234B70CB708B705B4613
S11337A00B70C0B2634B984746460136F3B2984655
S11337B001934B45C1D97B7B9A01BB7BDB0113434E
S11337C0DBB2524613703B7DDB017A781343DBB2E4
S11337D052469370FB78342B00D94BE19B00564A38
S11337E0D3589F460420102102221AE07A7A387AAC
S11337F0102116E006201021012212E008201021D9
S113380000220EE00020302100220AE000202021C6
S1133810002206E000200021002202E00220102104
S113382001221201702313400343524613732A6882
S1133830138C9BB2002BFBD17B7D17203F2B00D92F
S113384020E1FA7BD2011343DBB2524653732A6858
S1133850138C9BB2002BFBD1BB78524653702423AC
S1133860FA5CD2003B7B9B001343FA7A1A43BB7A7F
S11338705B0013430B43524653812A68138C9BB25B
S1133880002BFBD13B8B002B00D191E0102975D08C
S113389002D8002954D08BE020291AD0302900D036
S11338A086E0FA7A002A0AD0FA6980321720FF2AC1
S11338B000D9E7E03A6A8032FF2A00D9E2E0172013
S11338C0FA69FF2A00DDDDE03A6AFF2A00DDD9E06B
S11338D06EE0FA7A002A0FD0FA69802189008C46BA
S11338E06244172015498A4200D9CBE03A6A6244FF
S11338F012498A4200D9C5E01720104AF969914259
S113390000DDBFE0396A914200DDBBE050E0C04613
S11339107135000000080040C0710000001800402C
S1133920CC710000A15E0000315E00005471000003
S1133930D07100009D5F000080700000FF03000054
S1133940FA7A002A0FD0FA69802109018C46624470
S1133950172050498A4200D994E03A6A62444D499A
S11339608A4200D98EE017204A4AF969914200DD63
S113397088E0396A914200DD84E019E0FA7A002A8D
S11339800ED0FA69802109028C466244172042490C
S11339908A4200D976E03A6A62443F498A4271D841
S11339A017203D4AF96991426CDC396A914269DC1D
S11339B0524652891343524653812A68138C9BB250
S11339C0002BFBD1BB8B5246D3812A68138C9BB24C
S11339D0002BFBD13B8C524613822A68138C9BB27A
S11339E0002BFBD13A79FB881343524613812A6892
S11339F0138C9BB2002BFBD12A33FB5C5246D37051
S1133A00072313711D33FB5C002B1BD0FB8C172089
S1133A10204A934236D8524653822A68138C9BB26A
S1133A20002BFBD13A8D80231B01D3189BB21720A6
S1133A3018498B4226D853469A822A68138C9BB223
S1133A40002BFBD1A200154BD3581549095D1B6807
S1133A50CB401B02E021C9001940124BD358124A33
S1133A60125D1B68D340072213400B4352469385D3
S1133A70002007E0172005E0002301939846013356
S1133A809B465AE61DB03CBC90469946A246AB46BE
S1133A90F0BDC046FF0F0000FFFF0000E071000012
S1133AA0BC710000D8710000C871000003680A4AA4
S1133AB0934206D1094A1369802149000B431361DB
S1133AC008E0074A934205D1044A1369802189001A
S1133AD00B4313617047C046001C004200080040BD
S1133AE000200042F8B50C0015000160A64B984771
S1133AF0A64B00221A702A781A70A54B9C423CD11E
S1133B00A2491A20A34B98471A20A34B9847A04BCD
S1133B10996902220A439A61A04A1204120C80276E
S1133B20BF033A4384215A509D480004000C802668
S1133B3076033043882298509A490904090C394382
S1133B4018329950984A1204120C3243B0215A5038
S1133B50964A1204120C04395A50954A1204120C53
S1133B6094490A43C0215A50934A1204120C8021EA
S1133B7009030A43F0215A503FE0904B9C4200D085
S1133B80FCE082491B20834B98471B20824B9847BB
S1133B908A4B996902220A439A61894A1204120CD7
S1133BA0802189030A4384215A5086490904090C57
S1133BB08020400301438822995083490904090C59
S1133BC0014318329950814A1204120C0243B02165
S1133BD05A507F4A1204120C04395A507D4A120476
S1133BE0120C74490A43C0215A507B4A1204120C25
S1133BF0802109030A43F0215A500023BC22A35018
S1133C000C32A350754BE361754BE360AB7B002B27
S1133C1004D0E368802212041343E3606B78002B22
S1133C2003D0A26840231343A3606369AA781343B3
S1133C306361EB78002B04D0A3698022D201134383
S1133C40A3612B79002B04D0A36980229201134332
S1133C50A3616B79002B04D0A36980225201134322
S1133C60A361AB79002B03D1A26940331343A36151
S1133C70EB79002B03D0A26910231343A3612B7AA1
S1133C80002B03D0A26908231343A3616B7A1B049E
S1133C90F022120313400122134323622A7B6B7B1D
S1133CA013436A8912041343A362EB7B1B02FE22B3
S1133CB0D201134019002A7C7F231A400B001343BE
S1133CC0A3646B7C1B0130211940AA7C92000C2355
S1133CD013400B438022A350EB7C002B03D0A1584C
S1133CE002230B43A3502B7D002B04D08022A15828
S1133CF001230B43A3509023AA69E2502B7F002B8E
S1133D0005D0A022A358802109060B43A350A0206C
S1133D1022586B7F1B06FE21C9050B401343235019
S1133D20AB7F002B05D0B022A358802109060B439A
S1133D30A350B0202258EB7F1B06FE21C9050B407F
S1133D40134323502023EB5C002B05D0C022A3583F
S1133D508021C9050B43A350F02022582123EB5C9A
S1133D601B06FC2189050B40134323500323E36501
S1133D70043BE022A3500432A35004E0A2690223CE
S1133D801343A36139E7F8BDAD3A0000A80D002044
S1133D90001C0042A15E0000315E0000C406002049
S1133DA0C4050020C40A0020440200204409002065
S1133DB0C407002000000404840A002000200042FC
S1133DC0440600204405002044030020440400204D
S1133DD04408002044070020440A0020030A030684
S1133DE0330A03000268936901218B4393610168DC
S1133DF001228B691A42FCD17047C04610B5036892
S1133E000948834205D109689200084BD15000202B
S1133E1008E01720064CA34204D109689200054B20
S1133E20D150002010BDC046001C0042C406002032
S1133E30002000424406002070B50D0003680C4CBD
S1133E40A34208D112010B498918102228000A4BF9
S1133E50984700200BE01720084CA34207D1120119
S1133E600749891810222800034B9847002070BD89
S1133E70001C0042C40A00205165000000200042DA
S1133E804403002010B503681748834213D10B681C
S1133E90164C100103514A6823185A600B0008336A
S1133EA008302218103118781070013301328B4217
S1133EB0F9D1002017E017200D4CA34213D10B6851
S1133EC00C4C100103514A6823185A600B00083344
S1133ED002000832A2181031187810700133013230
S1133EE08B42F9D1002010BD001C0042C407002001
S1133EF000200042440700201723002A0DD18B0024
S1133F00074A9B58002B03D189008850002304E002
S1133F10834201D01D2300E0002318007047C046EF
S1133F20AC0D00201723002907D100221F2800D838
S1133F30034A012383401361002318007047C046DD
S1133F400028004070B50022154B1A7000231F256D
S1133F50144E134C1F2B19D90FE0002100E0124915
S1133F604A619B009B59002B00D09847237801336A
S1133F70DBB223700F2BEDD911E029001940012287
S1133F808A40002149691142E7D1EFE7290019402D
S1133F9001228A40044949691142E0D1E6E770BD33
S1133FA0A90D0020AC0D002000280040064A11781D
S1133FB002230B4313700221012053681942FCD1E0
S1133FC053681842F9D1704700280040064A137814
S1133FD002218B431370012053681942FCD15368AA
S1133FE01842F9D17047C0460028004000B583B09C
S1133FF0184A53698021C9000B43536101A9002366
S11340000B700220144B98470220144B9847144A13
S1134010117801230B4313700221012053681942C4
S1134020FCD15368184209D0F8E704C38B42FCD191
S113403008220C4B1A600C4B984709E0084A137885
S113404010218B431370094B190040310022ECE717
S113405003B000BD00080040A15E0000315E000016
S11340600028004000E100E0AD3F0000AC0D00205E
S11340700023036043600122027283720132C27220
S113408043727047F0B583B005000C001B4B984792
S113409001A900234B70CB7023790B70237A8B70AA
S11340A02078174B984700201F2D00D8154807216A
S11340B029408900E27AA37A002B01D008231A430D
S11340C0EB089B00C318DE690F278F40BE438A406C
S11340D03243DA61637A002B05D082690123AB4055
S11340E01343836106E083690122AA401B041B0C6D
S11340F093438361044B984703B0F0BDCD3F000068
S11341009D5F000000280040AD3F000010B51F4A2D
S1134110916904230B4393611D4B2022FF321A83C0
S11341201A7D0523D2072ED503790224002B00D053
S1134130C47803781B02C022920013404278D20153
S1134140FF210A4013431900827852001E231A40AB
S11341500B00134342791204C02189020A4013431D
S1134160A40423430A4A536093685B035B0F094921
S113417008249C400C8093684B8043780B71138B0C
S1134180DB05DB0F1B01180010BDC0460008004012
S113419000400041C40C002030B50400264A1088B9
S11341A0538843438B420BD280229201234BCB187A
S11341B0934205D91820224A224BCB18934239D86E
S11341C0214A5568214B2B408020C0020343536091
S11341D02023FF331383137DDB0702D455600520AE
S11341E028E0452C15D8A300194AD3589F46164BEE
S11341F01B8BDB0503D5144B5D6010201AE0890886
S11342004900114BD96108E0890849000E4BD96176
S113421003E00D4B5D6017200CE0A5200002044371
S1134220094B1C80190001220B7D1342FCD0064B64
S11342305D60002030BDC046C40C002000C07FFF7C
S1134240FF1F00000000C0FF00400041FFFFF3FF1C
S1134250E8710000F8B52B4B1C885B8863438342EC
S113426007D21823284E294D45190127B54201D9F3
S113427046E000271723944242D3254B1C7D052397
S1134280E4073DD5234C224B1C801D0001242B7DCB
S11342902342FCD02024FF341D4B1C834608002AF3
S11342A029D076000023541EA446CD5C634501DB6F
S11342B0ACB203E0CC18647824022C43348002337B
S11342C09BB202369A42F0D80E4B1979002300298A
S11342D016D13F2A14D8002F06D0002201001C203A
S11342E00D4B984703000BE00022010004200A4B09
S11342F09847030004E0034B1A790023002AEAD00C
S11343001800F8BDC40C0020FF1F00000000C0FF0F
S11343100040004144A5FFFF9941000070B5194BCE
S11343201C885B886343834205D21823164E174DBD
S11343304519B54223D81723944220D3144B1C7D2E
S11343400523E4071BD52024FF34114B1C834008AC
S1134350002A13D040000025561E2B181C88A4B236
S11343602B041B0CCC54B34202DACB18240A5C7025
S11343700235ABB29A42F0D8002300E000231800C3
S113438070BDC046C40C0020FF1F00000000C0FF29
S11343900040004110B51A4A138852885A43824299
S11343A007D21822174C18494118A14226D80121D6
S11343B000E000219B00013B182218421ED1134B40
S11343C01B7D133ADB0719D5104B2022FF321A83C9
S11343D080084000D861002901D10D4A00E00D4A4F
S11343E00A4B1A80190001220B7D1342FCD0074BA3
S11343F01A8B1C231A40501E82419200100010BDDB
S1134400C40C0020FF1F00000000C0FF004000415A
S113441002A500001AA5000000B583B001AB8022FC
S11344201A700A785A704A789A708A78DA70190081
S1134430014B984703B000BD9D5F000010B54908CB
S113444040230024814201D20AE01C00091A631CA3
S11344509BB28842F9D94023FF2C01D81480002351
S1134460180010BDF0B55F4656464D464446F0B4BC
S113447089B00C00059212AA117802004A43402523
S1134480A24200D9C6E0002B51D10200080000214D
S1134490644DA84783462600002700230024009388
S11344A00194002200233F2020218C461F390296CC
S11344B0039720246442041903D40D00A540A846A0
S11344C004E06446241A0D00E540A8460C0084402C
S11344D0A14614001D00A4185D4122002B0046468D
S11344E05F463E4203D00E00264332002B00029C5E
S11344F0039D9D420FD801D194420CD8029C039D88
S1134500121BAB414D46009E019F35433C0046467D
S11345103443009501940138CBD200220123009842
S11345200199121A8B41120C1B041A436FE00022EA
S1134530012B6CD1630F0493E30098460A00002317
S11345400021384CA04704000D0000239C4606932C
S113455020339B46012663460793002302930022DF
S113456000233F21009401950F002021494279182E
S113457003D430008840844604E05946C91B300007
S1134580C84084463100B94089461000190080189B
S1134590594102000B0044464D462C40A246644655
S11345A0049D2C40A446544665462C4303D0340055
S11345B0044322000B000098019999420AD801D1C2
S11345C0904207D800980199121A8B4102994846E3
S11345D001430291013FC8D2009C019D0299079AB0
S11345E08B1ADB0810498B420BD9069B0133DBB2D3
S11345F0190006931300013307930829ADD1402510
S113460008E04025069A082A04D052031A43059B61
S11346101A800025280009B03CBC90469946A24661
S1134620AB46F0BDAD640000FF1F000010B582B0C2
S113463004000E4B1B78002B01D000290DD001A9DA
S11346400C7012200A4B984712200A4B9847074BCC
S11346505C7001221A70002006E0044B5B788342F0
S113466001D01D2000E0002002B010BDCC0C0020C1
S1134670A15E0000315E0000444B984233D006D85E
S1134680434B98420DD0434B98421BD06FE0424BB2
S113469098424AD0414B984258D0414B984266D1F7
S11346A032E0012906D0002963D0022906D003296B
S11346B006D001E03B4867E0002065E03A4863E04B
S11346C03A4861E0012906D0002954D0022906D0D5
S11346D0032906D001E0364856E0002054E035486E
S11346E052E0354850E0012906D0002945D002297E
S11346F006D0032906D001E0304845E0002043E01D
S11347002F4841E02F483FE0012906D0002936D048
S1134710022906D0032906D001E02B4834E000200A
S113472032E02A4830E02A482EE0012906D0002948
S113473027D0022906D0032906D001E0254823E02A
S1134740002021E024481FE024481DE0012906D070
S1134750002918D0022906D0032906D001E02048F8
S113476012E0002010E01F480EE01F480CE000207B
S11347700AE01E4808E01E4806E01E4804E01E4801
S113478002E01E4800E01E487047C046000C00428C
S113479000040042000800420014004200180042D5
S11347A00010004203000500030006000300070098
S11347B002001100020012000200130002000D00AA
S11347C002000E0002000F00020017000200180091
S11347D0020019000300290003002A0003002B0033
S11347E00300230003002000030021000300040051
S11347F00200100002000C00020016000300280052
S11348000300220030B587B00C4B6A4632CB32C26B
S113481032CB32C2009B834206D001239A00694600
S11348205258824203D100E00023D8B203E001339E
S1134830062BF3D1002007B030BDC0460073000042
S11348407047C046F0B50A4B1B78002B0CD1094FBA
S1134850094E0A4D0024DE515A1914600433182BF2
S1134860F9D10122024B1A708000024BC150F0BDF5
S1134870CE0C0020D00C002041480000EC0D00209C
S113488010B582B00400062205496846054B9847D6
S11348902000054B98476B46185602B010BDC04621
S11348A018730000516500000548000010B5024B64
S11348B01B680020984710BDD00C002010B5024B97
S11348C05B680120984710BDD00C002010B5024B46
S11348D09B680220984710BDD00C002010B5024BF5
S11348E0DB680320984710BDD00C002010B5024BA4
S11348F01B690420984710BDD00C002010B5024B52
S11349005B690520984710BDD00C0020F0B55746D0
S11349104E464546E0B488B080460E0014000300BD
S113492019600B689B0700D4A7E0936A0393D36ACA
S11349300493136B0593536B069300271F23994627
S1134940F9B2BB0003AA9858002802D13000AF4B3B
S11349509847431C28D00204130C9C46000CC1B297
S11349600025030604D44B09DB018222D2059D18DD
S11349704B460B40E818403000788246802052466F
S1134980D2070AD55B08EB1830331878C0B2CB07CE
S113499001D5000901E00F231840844504D0002309
S11349A0424613601C202BE10137042FC8D112208A
S11349B0974B984723780027012B12D102AA0100B4
S11349C0A069944B984703001720002B00D017E1EF
S11349D0337BDBB202AA127805309A4200D00FE191
S11349E00C372578002D14D13268E37F1B04A17F96
S11349F00B431C20934200D002E1A169A38B202227
S1134A00A25C002A01D04022134308220A43174320
S1134A1000E000236268A1680A43E1680A433A435C
S1134A20217C0B43617C002901D080210A43A17CB5
S1134A30002902D0802189020B43E17C002902D0A5
S1134A40802189000B43217D002902D08021890126
S1134A500B43306802210A43824209D172689A42A8
S1134A6006D143465D71237C424693710020C7E022
S1134A700023424613601C20C2E00B680520DB07BC
S1134A8000D5BDE00800644B9847052802D0451CBA
S1134A90133001E0192006256049CA690123AB409F
S1134AA01343CB6107A92427E35D0B70C5B228002B
S1134AB05B4B984728005B4B9847E05D00215A4BBD
S1134AC098472378012B03D132680B3313433360A7
S1134AD02378002B03D132680833134333604346F1
S1134AE01E6802AB80221A7000225A70012199704C
S1134AF0DA702378002B01D102AB9A70A36A039376
S1134B00E36A0493236B0593636B0693002702AD5A
S1134B10F9B2BB0003AA9858002802D130003B4BDD
S1134B209847431C05D02870000CC0B229003F4BA5
S1134B3098470137042FEBD1237842465371237CE5
S1134B409371A37CD371237D137200226B46DA80A8
S1134B502378012B15D1434618682F4B98471330FF
S1134B60C0B22B4B984701006B469A1DA069294B94
S1134B70984703001720002B42D16B4606331B785D
S1134B8033732378002B0FD1A769A38B706AE17F5D
S1134B900904A57F2943014371622022A25C002AF3
S1134BA004D040210B4301E0002300276268A16880
S1134BB00A43E1680A433A43217C0B43617C0029A0
S1134BC003D11B498978890701D580210A43A17C37
S1134BD0002902D0802189020B43E17C002902D004
S1134BE0802189000B43217D002902D08021890185
S1134BF00B4331680A4332607268134373600020C8
S1134C0008B01CBC90469946A246F0BD7946000007
S1134C10C55E00003D440000054800000008004057
S1134C20A15E0000315E00002D4600009D5F000083
S1134C3000200041F0B55F464E464546E0B4894643
S1134C401724002A6AD0C1790534002966D0417935
S1134C50002905D101680C7EA40701D502240C7635
S1134C600026042502218C460139DB05DB0D98461C
S1134C704479012C08D103681C7E0C42FCD01C7EB4
S1134C800C421AD044469C624479002C15D1036826
S1134C901C7E2C4206D1244C1F7E2F4202D1013CA3
S1134CA0002CF9D11C7E67463C4203D002221A76BE
S1134CB0042433E01C7E2C422DD003681C7E2C423D
S1134CC0FCD01C7E2C4228D05C8BA34600245F467B
S1134CD02F4201D05D831E348779012F03D19B6A53
S1134CE0DB05DB0D01E09B6ADBB2002C16D1741CE2
S1134CF0A4B24F46BB558779012F05D10236B6B20F
S1134D001B0A4F463B5500E02600013A92B2002AA6
S1134D10AED1002402E0122400E0102420001CBCC8
S1134D2090469946A346F0BD1027000010B544797B
S1134D301523012C72D1047A0023002C6ED1002A91
S1134D405BD04B78002B46D003681B7EDB0711D465
S1134D500B78D9090022002905D15A09D2018221F0
S1134D60C9058C4662441F210B401E39994091614C
S1134D70052353E00B78DC090022002C05D15A09E5
S1134D80D2018224E405A44662441F2423401E3C2D
S1134D909C40546103681A7ED20701D58A789A62CE
S1134DA0C2790023002A39D102680421137E0B4200
S1134DB0FCD0117E0023490730D5538B5B0701D506
S1134DC0042353838379012B02D1936A002325E0C2
S1134DD0936A002322E00B78D9090022002905D127
S1134DE05A09D2018221C9058C4662441F210B4015
S1134DF01E3999405161002310E00B78D909002233
S1134E00002905D15A09D2018221C9058C46624480
S1134E101F210B401E39994091610023180010BDD9
S1134E20F0B55F4656464D464446F0B483B09346CB
S1134E301723002A00D1E5E04379002B05D103684C
S1134E401C7EA20701D502241C765D4600240123A2
S1134E5002229446023290468CE04279002A16D10E
S1134E600268167E1E4206D16A4E177E1F4202D188
S1134E70013E002EF9D1167E61460E4203D0022374
S1134E8013760233BEE0127E1A4200D1B1E0066806
S1134E90327E1A42FCD0621C97B25246125D81796E
S1134EA0012902D092B23C0005E00234A4B251467A
S1134EB0CF5D3F023A43377E1F4202D0D205D20D66
S1134EC0B2626A1E92B2C679002E57D05146427918
S1134ED0002A39D1504A0191002D20D00668377E2E
S1134EE01F421CD0671CB9B289460199095D009123
S1134EF08179012903D069460F884C4607E00234C2
S1134F00A4B24946019F795C0902009F0F43317E98
S1134F10194202D0FF05FF0DB762013DADB206682C
S1134F20377E41460F4202D1013A002AD4D1019979
S1134F30327E67463A4203D002233376023361E07D
S1134F40327E4646324256D00668327E47463A4260
S1134F50FBD0327E3A4209D0728B3A4200D077833A
S1134F608279012A01D1B26A00E0B26A5A46013A52
S1134F7092B29346013DADB28A4600E01500274A3D
S1134F80954200D069E74379012B06D101680222DA
S1134F900B7E1342FCD0002334E0002B2DD1C179C9
S1134FA000292FD004255B465C46002B1BD129E049
S1134FB00A7E2A4202D1013B002BF9D10B7E2B42FF
S1134FC01DD00B7E2B4209D04B8B2B4200D04D833E
S1134FD08379012B01D18B6A00E08B6A013CA4B276
S1134FE0002C0ED0FFE701680B7E2B42E6D1094B63
S1134FF0DEE7122306E0122304E0002302E012237A
S113500000E00023180003B03CBC90469946A24639
S1135010AB46F0BD1027000011270000FFFF000081
S1135020F0B55F4656464D464446F0B491B005008F
S11350300C00160029600800CF4B9847052802D0C1
S11350400700133700E0192722680523D20700D58B
S11350508AE122681733920700D585E1C749CA69F6
S113506001301B3B83401343CB610FA93523984682
S1135070F35C0B70FFB23800C14B98473800C14B4A
S113508098474346F05C0021BF4B9847F37A6B7115
S11350902C23F35CAB712D23F35CEB71F37E2B7249
S11350A02423F35C6B722B6802931800B24B98476D
S11350B0133000220E2306A98C4663441A80338AD7
S11350C099468023DB01994519D004D880239B019C
S11350D099450AD029E1C023DB0199450AD08023F0
S11350E01B02994500D125E11FE1102306930F3BD4
S11350F0079323E108230693073B07931EE13368D4
S11351000593F3689B4673690393337E04932E23BC
S1135110F35C984673689A46002B15D080235B0590
S11351209A4536D12F23F35C002B36D1B36A1F0086
S1135130C0B2964B984701000E2206AB9C466244CF
S11351403800934B984725E00823069300230793E0
S11351502F23F35C002B0BD0069B0093079B0E229E
S113516006A98C466244316BB06A8A4FB84711E095
S1135170B36A1F00C0B2854B98470100069B009399
S1135180079B0E2206A8844662443800814FB84724
S113519000E00020031E00D0E6E0737E002B02D066
S11351A0B37E029A93732A68029FD369002BFCD1C1
S11351B002970E3306A98C4663441B88BB81059B6A
S11351C05A461343039A1343524613434A4613431E
S11351D0049A100203434246500718432F23F35CFA
S11351E0002B01D104331843717E89022423F35C1C
S11351F05B0219432623F35C1B0219432C23F35C43
S11352005B0419432D23F25C12041143F37A19430E
S11352103389FF2B04D0802252041043194305E044
S1135220F37E002B02D08023DB041843029FBB686B
S113523007221340328C1343728C1343BB60F26910
S1135240002A02D0544B184010433423F35C002B43
S113525003D1524B9B789B0701D5802318432A68BE
S1135260029FD369002BFCD179602A68D369002B93
S1135270FCD138603A68F0231B051340E022D204C5
S113528093423FD0BB6807229343BB60BA6825238F
S1135290F35C07210B401343BB6033E0F9B2BB005E
S11352A00AAA9858002802D120003D4B9847431C75
S11352B005D03070000CC0B231003A4B984701372A
S11352C0042FEBD10023EB602B616B61AB61EB61CD
S11352D02B62AB626B620022EB85AB853033EA5400
S11352E00133EA540133EA540133EA542868224B67
S11352F0984704002C492D4B9847A4002C4BE550AB
S1135300002331E00EAB80221A7000225A70DA704A
S11353109A70B36B0A93F36B0B93336C0C93736CAB
S113532002930D9300270EAEB8E7102306930023D3
S1135330079303E00323069300230793336805933D
S1135340F3689B4673690393337E04932E23F35CC3
S1135350984673689A46002B00D1F9E680235B05D2
S11353609A4500D1DEE618E7180011B03CBC90461F
S11353709946A246AB46F0BD05480000000800402F
S1135380A15E0000315E00002D460000C55E0000F5
S11353903D44000065440000FFFFFFF00020004191
S11353A0794600009D5F0000095500004548000053
S11353B0EC0D0020C2791C23002A0ED0C28D92B2BB
S11353C0173B002A09D10368DA69002AFCD1198540
S11353D002211A7E0A42FCD0002318007047C046FE
S11353E082791C23002A30D0828D92B2173B002A86
S11353F02BD10268107E400727D5D369002BFCD13E
S1135400538BDBB258061DD0980703D50223538370
S113541018331AE0580703D5042353831A3314E0CE
S1135420D80703D50123538312330EE0D80603D5DE
S113543010235383323308E09B0603D52023538380
S1135440213302E0138D0B80002318007047C046FF
S1135450F0B54F4680B482B0040001911720002AB1
S113546049D0E3790530002B45D02768FB69002B30
S1135470FCD191460025012620E03A7E324204D137
S1135480012B2AD0013B002BF7D16A1C92B2019B5D
S11354905B5D6179012902D099B2150005E0A91C70
S11354A08DB20199895C090219432000144B984775
S11354B04A46013A93B29946002B16D03B7E3342BA
S11354C0E3D1104BD9E73A7E0A4208D1012B08D028
S11354D0013B002BF7D100200DE012200BE000204F
S11354E009E0122007E0002005E03B7E9B07FAD488
S11354F0044B0221E7E702B004BC9146F0BDC0466C
S1135500B5530000FFFF0000F8B58000614BC5589B
S11355102C68E369002BFCD1237EA67D1E4030233A
S1135520EB5C3122AF5C1F40F30722D5EB8D9BB2BD
S1135530002B1CD0AA6A1378DBB2511CA9626979CA
S1135540012901D09BB204E0517809020B430232D5
S1135550AA62DB05DB0D2385EB8D013B9BB2EB855A
S1135560002B06D1013323750133A37501E0012318
S11355702375B30709D50223237500223133EA5476
S1135580FB0702D52800EB689847730763D5AB8DFA
S11355909BB2002B5DD0638BDBB21A0702D47F224F
S11355A0134001E0772213405A0601D54022934369
S11355B0002B2CD09A0705D51A223223EA54303B0B
S11355C063831EE05A0705D51E223223EA542E3B7C
S11355D0638316E0DA0705D513223223EA54313BFC
S11355E063830EE0DA0605D542223223EA54223BD5
S11355F0638306E09B0604D541223223EA54123B1E
S113560063837B0727D528006B69984723E0238DA4
S1135610DB05DB0DDAB2696A0A706A6A511C6962D9
S11356206979012904D11B0A53706B6A01336B62D7
S1135630AB8D013B9BB2AB85002B0CD1043323759E
S113564000222E33EA54BB0705D528002B6998475E
S113565001E004232375F30607D51023237523766D
S1135660FB0602D52800EB699847B30607D520232B
S1135670237523763B0702D52800AB699847330787
S113568007D5082323752376BB0602D52B6A280089
S11356909847F8BDEC0D0020F0B5474680B40C00E7
S11356A0904600280DD1002A0EDD8F18084E094DB2
S11356B0306821002B6898470134A742F8D140464E
S11356C003E00120404200E0002004BC9046F0BD0D
S11356D00C0E0020040E0020F0B5474680B40E00E6
S11356E015000138022811D8002A12D000240C4BCE
S11356F098460C4F43461868315D3B68984700282C
S113570009DB0134A542F5D1200006E00120404226
S113571003E0002001E00120404204BC9046F0BDBB
S11357200C0E0020080E0020F0B583B001AC01255A
S113573065700023A370257021001B20074FB84714
S11357408226F60580231B057361257021001C2029
S1135750B84780235B05736103B0F0BD19440000B2
S1135760114A13780133DBB21370082B10D9092BBB
S113577008D900220C4B1A70802212058223DB0503
S11357805A610AE0802212058223DB059A6104E053
S1135790802212058223DB055A618022520582236E
S11357A0DB055A617047C046100E0020114A137879
S11357B00133DBB21370042B10D9052B08D9002256
S11357C00C4B1A70802252058223DB055A610AE0D1
S11357D0802252058223DB059A6104E0802252056F
S11357E08223DB055A61802212058223DB055A617C
S11357F07047C046100E0020114A13780133DBB203
S11358001370082B10D9092B08D900220C4B1A70DD
S1135810802252058223DB055A610AE08022520568
S11358208223DB059A6104E0802252058223DB0592
S11358305A61802212058223DB055A617047C046F3
S1135840100E002010B5234B5B785A0608D582232E
S1135850DB05802212055A61802252055A6137E025
S11358601D4A1288002A08D08223DB0580221205F3
S11358709A61802252055A612AE0184A52789206A7
S113588001D49B0702D5164B984721E0154B9B7C0E
S1135890DBB25F2B08D98223DB05802212055A6113
S11358A0802252059A6113E00A4B1B785A0702D5ED
S11358B00D4B98470CE01B0708D58223DB0580229B
S11358C012059A61802252059A6101E0074B9847BC
S11358D010BDC046F8100020C80F0020D4100020CE
S11358E0615700000C0F0020AD570000F95700006D
S11358F070B582B005000E0000226B46DA80064CBB
S11359006B46991D2800A0470028F9D16B46063341
S11359101B88337002B070BDE153000070B5050000
S11359208CB2034E21002800B0470028FAD170BD84
S1135930B5530000F0B593B08023DB05009300233A
S11359400193FF2269460A818B72CB7201242C22B7
S11359508C5401328C5401328B5401328B540C938D
S113596005328B5401328B54059300220B82CA7684
S113597007930B844B840A762423CA544A76132350
S11359808B761333CA54013BCA549623DB010A9322
S113599080235B030393194B0E93194B0F9301233D
S11359A05B4210931193174D174B1D60174A184B08
S11359B01A60184A184B1A606A4618492800184B8E
S11359C09847184F3B6898680021174EB0473B68CA
S11359D058680021B0472E683000144B98471F23A5
S11359E018408440124B1C602A68D369002BFCD1F8
S11359F0326802331343336013B0F0BD0200160063
S1135A0002001700140E00200C0E00201D59000087
S1135A10080E0020F1580000040E0020001000427F
S1135A20215000006C0000207365000081480000D4
S1135A3000E100E010B50A0001000248024B98475B
S1135A4010BDC046140E002051540000F0B50500EE
S1135A500231022919DD022400200F27FF267601D6
S1135A60030A0002184383B2285D434018113840EA
S1135A705840020392B2030053405801304058404A
S1135A800134E4B28C42EBDB00E00020F0BDC04600
S1135A9010B5264B9847264CFE2323706370CD3BEC
S1135AA0A3703D21E170234B1B881A0A2271637194
S1135AB0214B1B881A0AA271E371204B9A8C120A9B
S1135AC022729A8C62729A7C37220020A054987CAD
S1135AD00132A0545A6812123920225458683A22CA
S1135AE0A0541A88120A3B20225418883C22A0543D
S1135AF0DA8C62541A8D3E23E254114B1B88190A26
S1135B003F22A1540132A3543F2120000D4B98475A
S1135B10020A4123E2540133E054BB220133E2542C
S1135B2044212000084B984710BDC046650700007B
S1135B306C0F0020D4100020F81000200C0F00205F
S1135B40C80F00204D5A0000355A00007047C04667
S1135B500C4B1B68002B10D1EFF31083002B09D1E1
S1135B6072B6BFF35F8F0022074B1A700132074BE6
S1135B701A7002E00022054B1A70024A13680133BE
S1135B8013607047E80C002008000020EC0C002093
S1135B90084B1A68013A1A601B68002B09D1064B9E
S1135BA01B78002B05D00122044B1A70BFF35F8FC2
S1135BB062B67047E80C0020EC0C002008000020BE
S1135BC010B5072803D880000F4B1B589F460020B0
S1135BD018E00E4B586815E00D4B597D0907090F65
S1135BE001310C480C4B98470CE0084B986809E0CD
S1135BF0074B1B7F00209B0704D5044B186801E06A
S1135C008020000210BDC04620730000F00C00206C
S1135C1000100040006CDC02C1610000F0B54F468A
S1135C204646C0B485B003221B4B9A601B4A536896
S1135C301E218B4353601A4B197D80220A431A7527
S1135C4002225A751A009369002BFCD1154B984710
S1135C5001AC01260296002565700623994623703F
S1135C6025726572210008200F4B9846984708203A
S1135C700E4FB8470E4B1E71666065704B4623701D
S1135C802572657221000020C0470020B84705B086
S1135C900CBC90469946F0BD0018004000400041FD
S1135CA000100040B55C0000D95C0000855D000078
S1135CB000080040064A516980230B4353610122C6
S1135CC0044B1A7019000B781342FCD17047C0467C
S1135CD000080040001C004070B505000C784B78AB
S1135CE0002B02D08023DB001C434B7A002B02D014
