:0B300000636F6E7374206461746100E4
:104000008831002085A5000081A5000081A5000061
:1040100000000000000000000000000000000000A0
:1040200000000000000000000000000081A500006A
:10403000000000000000000081A5000081A5000034
:1040400081A50000ED44000081A500003D90000026
:1040500081A5000081A5000081A5000081A50000C8
:1040600081A50000719700008197000091970000E2
:10407000A1970000B1970000C1970000AD5100006A
:1040800081A5000081A5000081A5000081A5000098
:10409000A9410000B9410000C9410000D941000018
:1040A000E941000081A5000081A5000081A5000074
:1040B00081A5000081A5000081A5000010B5064C77
:1040C0002378002B07D1054B002B02D0044800E0D9
:1040D00000BF0123237010BD0C0000200000000071
:1040E000D4B10000084B10B5002B03D00749084895
:1040F00000E000BF07480368002B00D110BD064B4D
:10410000002BFBD09847F9E70000000010000020CA
:10411000D4B10000D4B1000000000000931C9B004B
:104120001950022A04D1027E1023134303760BE0B8
:10413000032A04D1027E20231343037604E00123E3
:104140009340027E134303760020704770B58000D1
:10415000144BC5582B689C7A2B7E1C406B7E1C40F0
:10416000E30705D52800AB68984701232A689372B6
:10417000A30705D52800EB68984702232A689372A5
:10418000E30605D528002B69984710232A68937207
:10419000A30605D528006B6998472B6820229A72E0
:1041A00070BDC046280D002010B50020014B984777
:1041B00010BDC0464D41000010B50120014B98478D
:1041C00010BDC0464D41000010B50220014B98477C
:1041D00010BDC0464D41000010B50320014B98476B
:1041E00010BDC0464D41000010B50420014B98475A
:1041F00010BDC0464D41000030B587B001A90C4B41
:104200000A0032CB32C212CB12C2019B984206D0B6
:1042100001239A0001A95258824203D100E00023F1
:10422000D8B203E00133052BF3D1002007B030BD35
:1042300018AB0000F0B5474680B48EB005000E0004
:1042400017000800A14B98478046A14C210014316B
:1042500005220CA89F4B984702A923001C330A0093
:1042600013CB13C213CB13C213CB13C21B6813603F
:104270000023AB60EB602B616B612B766B76434662
:104280009A00954BD5502E603423FB5CAB76FB78BF
:10429000082B04D117204246D20700D511E12B711B
:1042A00033680520DB0700D50BE1F37A17309B0755
:1042B00000D506E133689B0700D502E13B7C002B6B
:1042C0000AD001A901238B700022CA703A7E0A70BD
:1042D0004B70387D814B98473B7F002B0BD001A959
:1042E00001238B700022CA707A6A0A704B703B6A95
:1042F000D8B27A4B98474346590002AA4B1C9B0000
:1043000098584346DB009A58D3B2012B09D0002BB2
:1043100002D0022B0AD00DE0714A53691843506154
:1043200008E06F4A93691843906103E06C4AD369CF
:104330001843D061FB78082B20D143460133042B6E
:104340001CDC02AACB1C9B0098588B1C9B009B5822
:10435000DAB2012A09D0002A02D0022A0AD00DE0DE
:104360005F4A53690343536108E05D4A936903431D
:10437000936103E05A4AD3690343D3613B786A46A9
:1043800013700CAB42469C5C69462000554B984725
:104390002000554B9847FA78FB791343BA881343AA
:1043A0007A7A002A02D0802252021343BA7A002A73
:1043B00002D0802292021343FA7A002A02D080228D
:1043C000520313433A7B002A02D080229203134304
:1043D00079788901BA78D201114319432A6813699F
:1043E000002BFCD131602A681369002BFCD1BB790A
:1043F0003373797B4B1E99418900BB7B002B01D025
:10440000012319432A681369002BFCD1FF33337150
:10441000002904D02A681369002BFCD171713B7A02
:1044200073732A681369002BFCD12B79042B05D0F8
:10443000082B33D01720002B43D11CE01369002B2D
:10444000FCD12833FB5C33752A681369002BFCD13F
:104450002933FB5CF3762A681369002BFCD12A33DD
:10446000FB5C33772A681369002BFCD12B33FB5C90
:104470007377002025E01369002BFCD13B8DB382BC
:104480002A681369002BFCD17B8DB3832A681369DA
:10449000002BFCD1BB8DF383002012E01369002BAD
:1044A000FCD1BB6A73612A681369002BFCD1FB6ADB
:1044B000F3612A681369002BFCD13B6B3362002047
:1044C000FFE70EB004BC9046F0BDC046F9410000C5
:1044D00018AB0000F5AA0000280D002025A500005B
:1044E0000008004029A40000B9A3000010B5012273
:1044F000034B9A71034B1B68002B00D0984710BDEB
:10450000002000403C0D002010B58CB00BA9012309
:104510004B7000248C700B702620134B9847402260
:10452000124B5A616846124B984703236A465370F0
:104530001471072393700F4C0F4920000F4B9847BD
:104540002268138C9BB2002BFBD10733137193713C
:104550001178053B0B431370064B1A68138C9BB202
:10456000002BFBD10CB010BD119500008000004164
:1045700095860000400D002000440042D9860000CE
:10458000094B98420BD8094A023201231188814213
:1045900006D90133DBB202328D2BF7D100E00023C4
:1045A000034AD0567047C046983B00005CAB000001
:1045B00078AC000070B5254C8823E05C0002013324
:1045C000E35C181880B2224DA847224B18708A234A
:1045D000E05C00020133E35C181880B2A8471E4B70
:1045E00018708C23E05C00020133E35C181880B281
:1045F000A8471A4B18708E23E05C00020133E35C7D
:10460000181880B2A847164B18709023E05C00027F
:104610000133E35C181880B2A847124B18709A2334
:10462000E35C1B029B22A25CD3180F4A13808623F3
:10463000E35C1B028722A25CD3189BB20B4A138057
:104640000B4A13800B4A138070BDC046A80E002091
:1046500081450000A50E0020650F0020960F002068
:104660005E0F00205C0F0020CA0F0020940F002076
:104670002E0000202A000020F0B589B04D4B1B7899
:10468000002B16D101224B4B1A704B4A4B490800A4
:10469000403015002035002413889B080B800B84C4
:1046A000038003841480023202310230AA42F3D123
:1046B0000FE0434B18784001404BC01800233E4D9B
:1046C000002459190A889208C2520C800233202B08
:1046D000F7D13B4B1B780133DBB2032B02D8384AAE
:1046E000137002E00022364B1A7034480021070094
:1046F000314ECA19048C0388E3188D192C881B19B4
:104700001400403424881B19603212889B189BB215
:104710002B806A468B52023102302029E9D10F27C3
:1047200014E051006846085A511C4D006C462D5B40
:10473000A84203D952001553490008530133DBB294
:104740001A1EB242EDDB013F002F05D03E000022D1
:104750000023002FE5DCF6E76B46063308A90020AE
:104760001A88801802339942FAD10D21154B9847C7
:10477000154B18806B46DA8B144B1A806B46DA881F
:10478000134B1A80134B00229B5E002B10DA124A47
:1047900012780132D2B2032A02D80F490A7002E01D
:1047A00000210D4A11700C4A127852000B495352E5
:1047B00009B0F0BD2800002068110020480D00203D
:1047C0002D000020BDA70000600F00209C0F0020DE
:1047D000620F0020CA0F00202C00002018100020BB
:1047E000204B00229A56204B1B785BB29A4202DD86
:1047F0001E4B1A7001E01D4A13701D4B1B785BB2F3
:104800001C4A127852B293420ADD1B49097849B218
:104810008B4202DD19490B700CE01848017009E069
:104820001549097849B28A4202DD14490A7001E04B
:104830001248017093420ADA0F4A127852B2934238
:1048400002DA0F4A13700CE00D4B1A7009E00A4BA4
:104850001B785BB29A4202DA094B1A7001E0084AEF
:1048600013707047A50E0020650F00204011002036
:10487000960F00205E0F00205C0F002034110020F6
:10488000A40E002010B50A4A0A49140020341378F7
:104890001B025078C3180B8002320231A242F6D1BB
:1048A000054B9847054B9847054B984710BDC046A8
:1048B0000E0F00206811002079460000E14700003B
:1048C000715E000070B52E4A2E4914002034137812
:1048D0001B025078C3180B8002320231A242F6D17B
:1048E000294C8823E05C00020133E35C181880B295
:1048F000264DA847264B18708A23E05C000201333E
:10490000E35C181880B2A847224B18708C23E05C37
:1049100000020133E35C181880B2A8471E4B1870E0
:104920008E23E05C00020133E35C181880B2A847D4
:104930001A4B18709023E05C00020133E35C1818F6
:1049400080B2A847164B18709A23E35C1B029B2287
:10495000A25CD318134A13808623E35C1B028722D0
:10496000A25CD3189BB2104A1380104A1380104ADD
:104970001380104B9847104B9847104B984770BDC9
:104980000E0F002068110020A80E002081450000B5
:10499000A50E0020650F0020960F00205E0F00205E
:1049A0005C0F0020CA0F0020940F00202E00002072
:1049B0002A00002079460000E1470000715E0000F7
:1049C00070B5424A0B21E020414CA0470F22112133
:1049D000E020A0473F4A1721E020A0473E4A12218D
:1049E000E020A047F022FF321321E020A0473B4AFD
:1049F0000621E020A047C02292000721E020A04726
:104A0000374A0421E020A047E0256D002A00082154
:104A1000E020A0472A000921E020A04780221202BE
:104A20000321E020A0472F4D2A000121E0202E4E37
:104A3000B0472B88D22292001A432C4B1A800121B6
:104A4000E020A04700220B21E020A0476420284B53
:104A500098472A000321E020B047002805D1214BC8
:104A600000229B5E0130002B2EDA1E4A1121E0202D
:104A70001D4B9847002804D11A4B1B8801301B0797
:104A800022D0184A0121E020174B9847002806D170
:104A9000144B1A880130D2239B001A4214D0D22220
:104AA0009200124B1A800F4A0621E0200E4B9847C5
:104AB00003000120002B07D10A4B18880D4B9C46A0
:104AC0006044431E9841C0B270BDC046B5E30000CB
:104AD000D582000042240000430C00002D2E00006F
:104AE0003FFE0000BC0F0020B18300003E110020FB
:104AF00011860000D3D1FFFF70B58224E405802524
:104B00002D056561A5611C4A0B21E0201B4B9847D0
:104B10001B4B18706561002822D1F82252010F2129
:104B2000E030164B9847164B1870002823D1154AD1
:104B30000521E030114B9847114B187000281AD10D
:104B4000114A0C21E0300D4B98470D4B187000288E
:104B500011D10E4A1A21E030084B9847084B1870C3
:104B6000074B1B78002B06D100220B21E020034BC2
:104B70009847034B187070BDB5E30000D582000064
:104B800014100020FF0F0000030700003210000087
:104B900070B5124A0B21E020114CA047114A0A219E
:104BA000E020A04700221521E020A0470122142187
:104BB000E020A047E0256D002A000821E020A04762
:104BC0002A000921E020A047074A1821E020A04739
:104BD00000220B21E020A04770BDC046B5E30000D5
:104BE000D58200000740000011070000F8B5C82476
:104BF000124D134E134F2A003021E020B0472B886E
:104C0000DB0713D501223021E0200F4CA0470F4ACB
:104C10000A21E020A0470A200A4B9847074C2200AF
:104C20004A21E020064B9847208806E00120B8473B
:104C3000013CE4B2002CDED10020F8BDBC0F002006
:104C4000B18300003D860000D582000001400000D5
:104C500070B5494B5B78DB0700D48CE0474B984735
:104C6000454B5A7801218A435A701A788A431A7040
:104C70008022D2008223DB055A61414B98470320F2
:104C8000404B9847404A13780133DBB213703F4BD7
:104C90005B785B0633D53E4A0A21E0203D4DA847AC
:104CA0003D4B98473D4C22003021E0203C4B98473B
:104CB00007223021E020A84764203A4B98472388F8
:104CC00005221340052B06D151320121E020364B3D
:104CD0009847364B9847C820324B98470120294BBC
:104CE0009847334B98472D4B1B88DB0725D5562219
:104CF0000121E0202C4B98472E4B98471DE02E4A6F
:104D00000A21E020234DA847244C22003021E02036
:104D1000234B984707223021E020A8476420214BED
:104D20009847238805221340052B06D151320121D3
:104D3000E0201D4B9847214B9847214B9847214B2A
:104D40009847124B5B785B0605D51F4A1821E02077
:104D5000104B984704E01D4A1821E0200D4B98475E
:104D60001B4B98470320074B98471A4B98471A4B01
:104D700098471A4B984770BDCC0F00206163000024
:104D8000618200003D860000C80F00203C11002019
:104D900007410000D5820000914B0000BC0F0020AD
:104DA000B183000011860000A9840000B545000011
:104DB000ED4B00008548000007400000C54800009A
:104DC000F94A0000AD74000001070000110700005F
:104DD000E5800000457F0000A5690000F56A00003D
:104DE00010B5014B984710BD514C000070B57C4A7E
:104DF000537804218B4353707A4A2C31E0207A4B4C
:104E00009847002823D1764C764B1988DC239B00E9
:104E100019402388754A13400B43238000225221F6
:104E2000E030734DA84700225321E020A847637863
:104E30009B0700D1CCE06F4A517808230B43537095
:104E40000AE06C4A537808218B43537004E0644AAB
:104E5000517804230B435370614B1B8870221A4214
:104E600000D180E0644B1B78DBB2282B25D9634B43
:104E70001B78DBB2052B1DD8604A13780133DBB2F7
:104E8000137000225C4B1A70A02212020321E02052
:104E9000574CA047DC2292003021E020A04780251B
:104EA0002D022A000321E020A0472A000321E02050
:104EB000A04702E02922504B1A70514B1B78DBB2FD
:104EC000502B25D94F4B1B78DBB2052B1DD84D4AF3
:104ED00013780133DBB213700022494B1A70A02201
:104EE00012020321E020424CA047DC229200302134
:104EF000E020A04780252D022A000321E020A047C2
:104F00002A000321E020A04702E029223C4B1A702E
:104F10003D4B1B78DBB2282B25D93C4B1B78DBB2F1
:104F2000052B1DD8394A13780133DBB213700022E8
:104F3000354B1A70A02212020321E0202C4CA0470E
:104F4000DC2292003021E020A04780252D022A009B
:104F50000321E020A0472A000321E020A04702E02F
:104F60002922294B1A701F4A0321E0201E4B984723
:104F7000002815D11B4B1B889B0405D4184A537875
:104F80007F210B4053700BE0154A53788021494232
:104F90000B435370802212028331E020144B984758
:104FA000104A5521E020104B984700280AD10C499F
:104FB0000C4B1B881B079B0F0A880330824313434B
:104FC0000B800BE0064A517804230B43537005E035
:104FD000084B5B781B0700D533E73DE770BDC04643
:104FE0003C110020BC0F0020B18300008FFCFFFFAC
:104FF000D5820000CC0F0020661100203200002076
:1050000062110020310000203A1100203000002001
:10501000F0B5474680B48AB009AE0024747001250B
:10502000B570F47006239846337031001820204F75
:10503000B8474346337031001920B84708236A4601
:10504000137054709470D570157155719571D47139
:105050001472547201235B4253811473547394731A
:10506000D4731474022353749374D5741575114B4F
:105070000693157754779577D4772023D45401334A
:10508000D4540D4C0D4920000D4B984720000D4B7A
:105090009847802212020C4B1A602268536DC0217F
:1050A00049050B4353650AB004BC9046F0BDC046A9
:1050B00025A50000FFFFFF1F0C010020001C00427F
:1050C000DD8B0000DD8E000000E100E010B582B055
:1050D0000A4B0193019A0A4B134080225202134358
:1050E0000193084C012201A92000074B9847226830
:1050F000516D01230B43536502B010BDFF070088BB
:10510000FFFF00F80C010020F58E000010B584B000
:105110000023009388231B040193009B8004124CFE
:10512000204018430090019C0F20104000040F4BBA
:10513000234003430193002A07D002AB8A18087862
:105140001870013101339142F9D1094C00226946AE
:105150002000084B984723689A69920702D40121DE
:10516000D022995004B010BD0000FC1FFFFFF0FFDB
:105170000C0100207D8F00000023024A1360024AC8
:10518000136070474400002010010020054B1A688E
:10519000511C1960044988541A68FF210A401A609A
:1051A0007047C046100100201401002030B583B0C4
:1051B000244B1B681A6D0192019AD2072FD5012248
:1051C0001A65214C22681F4D20492800204B984722
:1051D000236829683F22134069328B5023680133CA
:1051E00023602368202B02D10022174B1A60002372
:1051F0000093164B5B681B031B0F009A93420ED95A
:10520000124C144D009BE318187AA847009B0133F9
:10521000009363681B031B0F009A9342F2D8019B13
:105220001B0102D4019BDB0009D5064B1B68C02281
:1052300052051A65802212058223DB05DA6103B06C
:1052400030BDC0460C0100201402002034000020B4
:10525000318F00008D510000F0B557464646C0B46E
:1052600083B001908A4600239846164F164D13E0EE
:105270003A682B689A4212D0124B1A68511C196076
:1052800012498A5C019940460A541A68FF210A4073
:105290001A6001239C46E044C24506D10CE001207F
:1052A000B047013C002CE3D106E00120084B9847B1
:1052B000FA24A400064EDBE703B00CBC90469A46E5
:1052C000F0BDC04644000020100100201401002061
:1052D0001186000010B50139002909DD00220023E4
:1052E000C45C1219D2B20133DBB28B42F8DB00E0AE
:1052F00000225042C0B210BDF0B557464E4645465A
:10530000E0B407000D004E1EF6100136002E1DDD24
:1053100000210024104B9A469946104B9846082DC0
:1053200007D9C900791808220120C847083DEDB205
:1053300004E0C90079182A000120D047FA20400073
:10534000C0470134E4B2211EB142E8DB1CBC9046E8
:105350009946A246F0BDC0460D51000011860000DE
:1053600010B584B001AC552323700B4B1B786370D0
:105370000A4A1278A2700122E270573222716371D8
:1053800004216B46D81D064B9847A07107212000C9
:10539000044B984704B010BD5D0F0020C00F0020E3
:1053A000D5520000F952000070B5594C55212170BA
:1053B000584B1B786370584B1B78A3705A22E270CD
:1053C000D6232371C93B63710C3BA3719B33E371FB
:1053D000843B2372A8336372AE3BA3722D20E0722C
:1053E000E433237300236373A373E373237463743D
:1053F000A374E37423756375A375E37523766376ED
:10540000A376E37623776377A377E3772025635545
:1054100001356355013563550135635501356355D4
:1054200001356355013563550135635501356355C4
:1054300001356355013563550135635501356355B4
:1054400023540130235401302354013023540130BC
:1054500023540130235401302354013023540130AC
:10546000235401302354013023540130235401309C
:10547000235401302354013023540130235401308C
:10548000235401302354013023540130235401307C
:10549000235401302354013023540130235401306C
:1054A000235401302354013023540130235401305C
:1054B000235401302354013023540130235401304C
:1054C000235401302354013023540130235401303C
:1054D00023540130235401302354013023546354A6
:1054E0000131635401316354013163540131635418
:1054F000A3540132A3540132A3540132A354013204
:10550000A354E01C0431054B98475F23E05470BD61
:10551000480000205D0F0020C00F0020D552000081
:1055200010B537210148024B984710BDCC00002030
:10553000F952000010B584B001AC552323700C4B18
:105540001B7863700B4B1B78A3700123E3705733F8
:105550002371094B1B78637104216B46D81D074BDF
:105560009847A07107212000054B984704B010BD53
:105570005D0F0020C00F0020640F0020D5520000F6
:10558000F9520000F0B5474680B4614C55232370B2
:10559000604B1B786370604B1B78A3703126E670FC
:1055A000D52323715D4B1B7863715D4B1A88A27103
:1055B0001A88120AE2715A6822725A6812126272CA
:1055C0009A8CA2729B8C1B0AE372564B00229A5E45
:1055D000E123DB005A43D3175B045B0C9B18DB13FE
:1055E00023731B126373504B002018564F4B1B78CC
:1055F0005BB2C0184E4B1B785BB2C0184D4F0321F5
:10560000B847A0734C4B1B78E3734C4B1B78237447
:1056100000256574A5744A4B18884A4B58434A497B
:10562000B847E074000A2075484B18883223FF33CE
:10563000984658434449B8476075000AA075444BE2
:105640001888434658434049B847E075000A207619
:10565000404B1888434658433B49B8476076000A98
:10566000A0763D4B18683D4FFA218900B847E07697
:10567000030A2377030C6377000EA077384B186872
:10568000FA218900B847E077020A2023E254020C8D
:105690000133E254000E0133E054324B1B682322E5
:1056A000A354190A0132A154190C0132A1541B0E42
:1056B0000132A3542723E5540133E5540133E55463
:1056C0000133E5540133E5540133E5540133E55426
:1056D000254B1B680832A354190A0132A1541B0C34
:1056E0000132A354214B1B78A3553223E5540133D7
:1056F000E55445320133E254683A0133E254E01C88
:1057000034211B4B98473623E05404BC9046F0BD2F
:10571000CC0000205D0F0020C00F0020640F00208F
:10572000680F0020CA0F0020960F00205E0F002097
:105730005C0F0020D1A80000A40E0020341100202E
:10574000940F0020D817000010270000600F0020E1
:10575000620F00209C0F0020C40F0020BDA7000096
:10576000980F0020B80F0020AC0F0020641100201B
:10577000D552000070B5C2B06B4B1A686B4B1B68FA
:105780009A4200D1CDE05522694B1A7001216B4637
:10579000D81D684B98476B4607331B78552B00D0B4
:1057A000BFE001216B46D81D624B98476B46DC7900
:1057B000002C36D101216B46D81D5E4B98476B46B5
:1057C00007331B78002B00D0ABE001216B46D81DBE
:1057D000584B98476B4607331B78002B00D0A0E04E
:1057E00001216B46D81D534B98476B4607331B78F6
:1057F000012B00D095E001216B46D81D4D4B9847F9
:105800006B4607331B78FF2B00D08AE04A484B4B8E
:105810009847BFF34F8F4A4A4A4BDA60BFF34F8F26
:10582000FEE7494B1B78A34201D0FF2C79D101211F
:105830004648404DA847012102A8A84702AB197865
:1058400009296ED80231092068443A4B984702AEC4
:105850003578E91CC9B230003D4B98477519AB78D3
:1058600083425ED12300FF3B5A425341DAB202AB7E
:105870005B78582B44D0D9B2582904D8382B4DD056
:10588000482B36D04DE0D9B2C62929D0CE2902D036
:10589000C52946D112E02F4B1B78002B41D102AB1A
:1058A0009A78531EDBB2FD2B3BD82B4B1A702B4B37
:1058B0009847FF2C35D02A4B984732E0254B1B7870
:1058C00013432ED102AB9A78234B1B789A4204D013
:1058D000FF22214B1A70214B9847224B984720E01A
:1058E0001C4B1B7813431CD160211F481F4B98474A
:1058F00017E0184B1B78134313D11D4B984710E04A
:1059000002AB9A78104B1B789A420AD1114B1B7844
:10591000012B06D10122174B1A7002E002A8164B88
:10592000984742B070BDC0464400002010010020DE
:10593000341000205952000000FD03008D94000037
:105940000400FA0500ED00E05D0F0020C00F00200C
:10595000D552000065110020640F0020855500001D
:10596000355500002155000048000020F952000084
:105970006153000018020020C975000010B584B002
:1059800001AC552323700A4B1B7863700023A3706E
:10599000E3704833237103216B46D81D054B9847AC
:1059A000607106212000044B984704B010BDC0462A
:1059B0005D0F0020D5520000F9520000F8B54F46A7
:1059C0004646C0B48223DB051B6A5B060DD4012268
:1059D000284B1A700022284B1A708223DB052032D4
:1059E0009A61802212015A6140E08221C905102289
:1059F0000B6A1A42FCD00A20204B98478221C90525
:105A000010220B6A1A42FCD001221A4B1A701A4F4C
:105A10001B4B99461B4B984625E0C847002342463E
:105A20001360194A1370194E164C144DB047236871
:105A3000013323600120A8472368312B07D90022B6
:105A40000D4B1A7020328223DB059A610BE00E4B5E
:105A50001B78002BEAD0084B1B78012B03D1054A99
:105A60001378013313703B78012BD6D00CBC9046D1
:105A70009946F8BD5D0F0020651100203D860000AD
:105A80007D590000C8000020180200207557000052
:105A900000B583B000236A461370074A5268D206E5
:105AA000120F69468A70CB700B714B714B70684650
:105AB000024B984703B000BD004000410592000032
:105AC00070B50500024C2800A0470528FBD070BD2A
:105AD0008D940000F8B506000D001400034F22005D
:105AE00029003000B8470528F9D0F8BD4D930000D3
:105AF000F8B506000D001400034F22002900300005
:105B0000B8470528F9D0F8BD15940000344A5178FB
:105B1000344B9974997CC9B21975997CC9B259757D
:105B200011799984998C090289B29984988C517958
:105B3000014399849179D984D98C090289B2D98495
:105B4000D88CD1790143D984117A1985198D09022C
:105B500089B21985188D517A01431985D17A224B62
:105B60001980117B214B19801988090289B219808B
:105B70001888517B01431980917B5980598809020B
:105B800089B259805888D17B0143598010215156E0
:105B90001971112151565971917CD980D98849B216
:105BA0000902D980D98809B2D07C0143D980117DFE
:105BB0001981198949B209021981198909B2507DDF
:105BC00001431981917D59815989090289B259810D
:105BD0005889D17D01435981127E52B21A737047A0
:105BE00044110020680F00203010002020100020F9
:105BF000F8B52E4BB3221A702D490A88120A9A70F2
:105C00000A88DA702B4A918C090A1971918C5971A2
:105C1000D18C090A9971D18CD971118D090A197227
:105C2000128D5A72244A1288110A9972DA72234A22
:105C30001188090A1973118859735188090A9973CF
:105C40005188D9731179197451795974D188090A15
:105C50009974D188D9741189090A197511895975EE
:105C60005189090A99755189D975127B52B212125C
:105C70001A761A0019331900002310781B18DBB2AA
:105C800001328A42F9D1094C63760D4D28000D4F3F
:105C9000B8470D4E3000B8471A22210028000B4D9E
:105CA000A8471A2221003000A847F8BD441100205F
:105CB000A00F0020680F00203010002020100020CE
:105CC00000FE0300C15A000000FF0300D55A000087
:105CD00010B5104C1A2221000F48104B984723781A
:105CE000B32B13D10B4A10001930002311785B1825
:105CF000DBB201328242F9D1064A527E9A4202D187
:105D0000074B984704E0074B984701E0054B98473D
:105D100010BDC0464411002000FF0300F15A0000EE
:105D20000D5B0000F15B000010B5104C1A22210041
:105D30000F48104B98472378B32B13D10B4A100010
:105D40001930002311785B18DBB201328242F9D19D
:105D5000064A527E9A4202D1074B984704E0074B0D
:105D6000984701E0054B984710BDC04644110020FC
:105D700000FE0300F15A00000D5B0000D15C000042
:105D8000F0B5474680B482B001AC012767700026A9
:105D9000A670277021002920134DA8478223DB0518
:105DA00098468033802292005A6127702100052096
:105DB000A847202342465361277021000B20A847A3
:105DC00080231B0142465361267021000420A8470E
:105DD000267021000620A847267021002420A8470D
:105DE00002B004BC9046F0BD1195000070B5012AC8
:105DF0001BD11A4B0A0A1A54181841701923013B77
:105E0000DBB2002BFBD1164C2000164EB047164DCE
:105E10002800B047114E1A2231002000134CA04731
:105E20001A2231002800A04717E00C4B19541923FF
:105E3000013BDBB2002BFBD1094C2000094EB047DF
:105E4000094D2800B047054E1A2231002000074CAA
:105E5000A0471A2231002800A04770BD441100203D
:105E600000FE0300C15A000000FF0300D55A0000E5
:105E700010B5824B1B889BB2814A11888B4210D986
:105E8000804B1B780133DBB20A2B02D87D4A13709A
:105E90000AE000227B4B1A7001320C207A4B9847A3
:105EA00002E00022774B1A70744B5B889BB2774AF2
:105EB00011888B4210D2764B1B780133DBB20A2B50
:105EC00002D8734A13700AE00022714B1A70013233
:105ED0000E206D4B984702E000226D4B1A70674B05
:105EE0001B795BB26B4A002151568B4210DD6A4B25
:105EF0001B780133DBB20A2B02D8674A13700AE021
:105F00000022654B1A7089B210205F4B984702E05F
:105F10000022614B1A70594B5B795BB25F4A0021DA
:105F200051568B4210DA5E4B1B780133DBB20A2BE1
:105F300002D85B4A13700AE00022594B1A7089B2EA
:105F40001120514B984702E00022554B1A704B4BE1
:105F5000DB881BB2534A0021515E8B4213DD0029BE
:105F600011DA514B1B780133DBB20A2B02D84E4AAF
:105F700013700BE000224C4B1A7089B201321220D0
:105F8000414B984702E00022474B1A703B4B1B895C
:105F90001BB2444A0021515E8B4213DA002911DD05
:105FA000424B1B780133DBB20A2B02D83F4A1370F5
:105FB0000BE000223D4B1A7089B201321420324BA3
:105FC000984702E00022394B1A70394B1B882B4A44
:105FD00052899BB2934213D9364B1B780133DBB203
:105FE0000A2B02D8334A13700DE00022314B1A708D
:105FF0002F4B198889B201321620234B984702E0B3
:1060000000222C4B1A701D4B1B7B5BB22A4A0021CD
:1060100051568B4211DA294B1B780133DBB20A2B24
:1060200002D8264A13700BE00022244B1A7089B262
:1060300001321820144B984702E000221F4B1A70BF
:106040001F4B19881F4B1B888B4212D01E4B1B788D
:106050000133DBB20A2B02D81B4A13700CE000227A
:10606000194B1A70174B198001320A20064B9847BA
:1060700002E00022144B1A7010BDC0462010002010
:10608000620F002025020020ED5D00009C0F002023
:106090001B020020A40E0020230200203411002047
:1060A0001A020020CA0F002019020020240200203A
:1060B000680F00201C020020401100202002002058
:1060C000301000201E02002021020020F0B55746AB
:1060D0004E464546E0B482B08246022902D00329EA
:1060E00003D005E0574B984604E0574B984601E033
:1060F000564B984643465F1CFF37082269463800D6
:10610000534B98476B461B78FF2B30D10024504EE1
:10611000E3B29946E5004544082269462800B047A5
:106120006B461B78FF2B1ED100236A4613705370F9
:106130005246120E69468A705246120CCA70524676
:10614000120A0A716A46514651719371D37108223D
:10615000694628003F4B98474B46102B6BD13800BF
:106160003D4B984767E00134402CD1D163E00026D5
:106170000024374B9946F500ED190822694628009E
:10618000C8476B461B78FF2B1DD100236A4613704E
:1061900053705246120E69468A705246120CCA70EB
:1061A0005246120A0A716A46514651719371D3716F
:1061B000082269462800274B9847102C09D14046F1
:1061C000254B984737E00134E4B20136202CD2D178
:1061D00001E0202C2FD100251D4EEBB29946EC009A
:1061E0004444082269462000B0476B461B78FF2BC9
:1061F0001ED100236A46137053705246120E694630
:106200008A705246120CCA705246120A0A716A46C5
:10621000514651719371D3710822694620000D4B8C
:1062200098474B46102B06D138000B4B984702E09D
:106230000135202DD1D102B01CBC90469946A24612
:10624000F0BDC04600F9030000FB030000F70300A7
:10625000F15A0000D55A0000C15A0000F0B54F466F
:1062600080B484B004000822002102A8374B98476C
:10627000022C02D0032C02D003E0354E02E0354E52
:1062800000E0354E082202A93000344B984702AB9B
:106290001B780024FF2B2FD1751CFF35082202A983
:1062A00028002E4B984702AB1B78FF2B39D00027D4
:1062B0002A4B99460197F8004019082202A9C847BD
:1062C00002AB1B78FF2B0AD101980138C00040199E
:1062D000082202A9214B9847202C22D104E0013446
:1062E000E4B20137202CE5D13000F930FF3008222C
:1062F00002A91A4B984714E0184FE00080190822B1
:1063000002A9B84702AB1B78FF2B07D1601EC00063
:106310008019082202A9114B984702E00134402C51
:10632000EBD102AB98780006DB781B04184302AB74
:106330005B79184302AB1B791B021843431C00D145
:10634000002004B004BC9146F0BDC04607AB00007D
:1063500000F9030000FB030000F70300F15A0000FE
:1063600010B50E4B1B780133DBB2032B02D80B4A5E
:10637000137012E00022094B1A70094B1A68501C66
:106380001860084B1B68C31A3B2B06D90321064B28
:106390009847034B1A68034B1A6010BD2202002075
:1063A000B80F0020580F0020CD600000F0B5574610
:1063B0004E464546E0B48224E4058023636180268E
:1063C0003605A66180256D05A561FA204000344B95
:1063D000984766616561334E002400253480324F52
:1063E0003C80324B1C80324B1C80324B1C80324A2A
:1063F000324B1A80324B1C80324B1C80324B1C803B
:10640000324B1C80324B1C80324B1D70324B1D7046
:10641000324B1D70324B1D70FF22324B1A7001201F
:10642000314B98469847314B9A4618600220C04736
:106430002F4B994618600320C0472E4B18605346D7
:106440001A682D4B1A604B461A682C4B1A602C4B5D
:1064500018607A78402313437B702A4B1D7632787C
:1064600001210A4332703A7801208243013082438D
:106470003A707278114371701C629C84DD759D7650
:10648000214B5D7164221A711C81DC801D735C815B
:106490005C80653A1A801CBC90469946A246F0BDC5
:1064A0003D860000CC0F0020601100203C11002030
:1064B000381100203010002018F6FFFFA00F002038
:1064C000CA0F0020A80F0020B40F00203E110020AA
:1064D000600F002066110020621100203A11002098
:1064E000640F00205D0F00205D620000C40F0020DB
:1064F000980F0020B80F0020B00F0020A40F00203C
:10650000580F0020680F00202010002010B5264BE7
:106510001B785B0714D4254B984700280AD1224AE0
:10652000117804230B431370214A13787F210B4009
:10653000137005E01E4A1378802149420B43137003
:106540001C4B98471A4B1B8884229200134205D09B
:1065500019490A78022082430A7004E01649087833
:10656000022202430A70B0225200134210D0124A93
:10657000137801218B4313700D4A517820230B436C
:106580005370DB070ED5517810230B43537009E08D
:10659000074A537820218B435370074A117801230F
:1065A0000B43137010BDC046CC0F0020C149000042
:1065B0003C110020ED4D00006011002000B59B4B08
:1065C0005B78DB0761D4994B1B789B0700D490E084
:1065D000974B1B785BB22D2B04DC964B1B785BB280
:1065E0000A3313DA944B1B780133DBB20C2B02D83D
:1065F000914A13707DE000228F4B1A708B494A78C4
:1066000001231343042213434B7072E000228A4B90
:106610001A708A4B00229B5E002B30DD142B25DD87
:10662000874A934217DD874B1B780133DBB2042B7B
:1066300002D8844A137011E00023824A1370824A00
:1066400013807A4B197810220A431A705978012264
:106650000A435A7002E000227A4B1A7073490A7892
:1066600004231343F72213400B7042E00022754BC2
:106670001A706E4A137804218B43137039E06B4A09
:10668000137804218B43137033E0684B1B78DB06CF
:1066900012D500226D4B1A706B4B1B88142B28D916
:1066A000694B1A80614B1A7810218A431A705A7804
:1066B0000F398A435A701CE05D4B1B785BB22C2B60
:1066C00017DC5C4B1B785BB2093312DB574A5378FB
:1066D00001218B4303318B4353705C4B1B78013397
:1066E000DBB20C2B02D8594A137002E00022574B40
:1066F0001A704E4B5B789B0762D44C4B1B78DB07C0
:1067000000D491E04A4B1B785BB22D2B04DC494B43
:106710001B785BB20A3313DA4D4B1B780133DBB2C3
:106720000C2B02D84A4A13707EE00022484B1A70A4
:106730003E494A7802231343082213434B7073E007
:106740000022434B1A703D4B00229B5E002B31DA36
:106750001A00143225DA3548017808220A43FB2151
:106760000A4002703B4A934217DA3B4B1B780133D5
:10677000DBB2042B02D8384A137055E00023364AA6
:106780001370364A1380294B197820220A431A7055
:10679000597802220A435A7046E000222E4B1A70A2
:1067A00042E000222C4B1A70204A137808218B43B8
:1067B000137039E01D4A137808218B43137033E0BE
:1067C0001A4B1B789B0612D50022254B1A70234BBF
:1067D0001B88142B28D9214B1A80144B5A7802217C
:1067E0008A435A701A781E318A431A701CE0104B83
:1067F0001B785BB22C2B17DC0E4B1B785BB209337A
:1068000012DB0A4A537802218B4306318B435370C3
:10681000134B1B780133DBB20C2B02D8104A1370D8
:1068200002E000220E4B1A7000BDC046601100202D
:1068300034110020A40E002037020020CA0F0020CF
:10684000E91300002A0200202E0200202D02002061
:106850002C0200208EE3FFFF2B0200203C020020D0
:1068600036020020134B1B785BB26E2B11DD124BEE
:106870001B780133DBB2082B02D80F4A137017E0E4
:1068800009220D4B1A700D4A517820230B43537087
:106890000EE0542B0CDC084B1B78002B03D0013B83
:1068A000054A137004E0054A537820218B43537046
:1068B0007047C046401100203302002060110020C4
:1068C00070B52C4B00229A5E2B4B53432B4C226A03
:1068D000DB139B182362206AE1218901284B98472A
:1068E0000500226A274B43439B182362002811DBD3
:1068F000254B1A6880181860244B1B68C31A244A59
:10690000934218D90221234B98471F4B1A681F4BFB
:106910001A6010E0204B1A68101A18601F4B1B6891
:10692000C31A1B4A934206D901211A4B98471A4BA6
:106930001A681A4B1A602B001D3303DB0F4A536889
:10694000ED1855600D4B5B68002B03DD00220B4BEF
:10695000DA600DE0094B5968DA688A18DA600022BB
:106960005A60DA680E4B9A4202DA1A00034BDA6078
:1069700070BDC046CA0F002020BF0200680F002073
:10698000D1A80000C0C7FFFF980F0020A40F00206F
:10699000E7030000CD600000C40F0020B00F00200E
:1069A00050FBFFFF10B5284A138801339BB21380B8
:1069B000264A137801331370254B9847254B1B78D3
:1069C0009A0605D524490A780132D2B20A7006E047
:1069D000214A12782D2A02D000211F4A11705A062E
:1069E00005D51E490A780132D2B20A7006E01B4A68
:1069F00012782D2A02D00021184A1170DB0605D525
:106A0000174A13780133DBB2137006E0144B1B787E
:106A10002D2B02D00022124B1A70124B1B789A06B3
:106A200004D511490A8801320A8002E000210E4A89
:106A30001180DB0604D50D4A13880133138002E070
:106A400000220A4B1A8010BD2602002032020020CC
:106A5000C16800003C110020661100206211002076
:106A60003A110020601100203C0200202E0200207C
:106A70001E4B9B7CDBB2612B07D91D490B780C2286
:106A80009343042213430B702EE0184B9B7C002B86
:106A900007D117490B780C229343082213430B703C
:106AA00022E0134B1B780C221340042B0AD10F4B0E
:106AB0009B7CDBB25C2B17D80D4A13780C218B43DF
:106AC000137011E0082B0AD1084B9B7CDBB2052B1D
:106AD0000AD9074A13780C218B43137004E0044A47
:106AE00013780C218B4313707047C046680F002049
:106AF0006411002010B5014B984710BD716A000069
:106B00003A4B1B883A4A93420FD93A4A12883A497B
:106B10000988521A92B239490A80082A09D9384993
:106B20000878012202430A7003E0324A1188324A8F
:106B30001180344A93420FD82E4A1288324909886C
:106B4000521A92B22D490A800C2A09D92C490A7886
:106B5000012082430A7003E0264A11882A4A1180E4
:106B60002A4A93420FD9234A128829490988521A7E
:106B700092B228490A80082A09D9214908780222B4
:106B800002430A7003E01B4A1188214A1180224AFD
:106B900093420FD8174A128820490988521A92B294
:106BA0001C490A800C2A09D915490A780220824317
:106BB0000A7003E00F4A1188184A1180184A93425C
:106BC0000FD90C4B1B88174A12889B1A9BB2164A86
:106BD0001380082B09D90A4A117804230B43137038
:106BE00003E0044B1A880F4B1A8070479C0F00205B
:106BF0003F350000260200200C0E0020D80D00209A
:106C0000AC0F0020BB340000EC0D00206636000005
:106C1000CE0D0020080E0020C2350000D40D00204B
:106C20000A3700002C0E00200A0E00203A4B1B8869
:106C30003A4A93420FD83A4A12883A490988521A76
:106C400092B239490A80082A09D9384908780822B5
:106C500002430A7003E0324A1188324A1180344AF2
:106C600093420FD92E4A128832490988521A92B299
:106C70002D490A800C2A09D92C490A780820824318
:106C80000A7003E0264A11882A4A11802A4A934250
:106C90000FD8234A128829490988521A92B22849E2
:106CA0000A80082A09D921490878102202430A706B
:106CB00003E01B4A1188214A11801D4A93420FD9D3
:106CC000174A12881F490988521A92B21C490A8031
:106CD0000C2A09D915490A78102082430A7003E06A
:106CE0000F4A1188174A1180174A93420FD80C4B4C
:106CF0001B88164A12889B1A9BB2154A1380082BD0
:106D000009D90A4A117820230B43137003E0044B7E
:106D10001A880E4B1A807047620F0020652600000B
:106D200026020020D00D0020DE0D0020AC0F002038
:106D3000F6280000DC0D0020D62300000E0E0020F7
:106D4000F60D0020240E0020FF1F0000100E002072
:106D5000DA0D002070B5514B00229A56504B1B782B
:106D60005BB2D318DA0FD3185B105BB20A2B03DCCB
:106D7000002B03DC4B4802E04B4800E04B484C4BF7
:106D800000255D5F04004300181880000A21494B6C
:106D90009847060085420FDD474B1B88474A1288FB
:106DA0009B1A9BB2464A1380082B09D9454A117891
:106DB00040230B43137003E03F4B1A883F4B1A806C
:106DC000A0000019400000190A213A4B984785425B
:106DD0000FDC394B1B883C4A12889B1A9BB2384AFD
:106DE00013800C2B09D9374A137840218B43137039
:106DF00003E0314B1A88344B1A8060000019800080
:106E000000190A212B4B9847854210DD2A4B1B881D
:106E10002E4A12889B1A9BB22D4A1380082B0AD93E
:106E2000284A1378802149420B43137003E0224B18
:106E30001A88264B1A80B5420FDC1F4B1B88254A47
:106E400012889B1A9BB2224A13800C2B09D91D4A27
:106E500013787F210B40137003E0174B1A881D4BEA
:106E60001A802001001B0A21124B984785420FDD32
:106E7000114B1B88184A12889B1A9BB2174A138021
:106E8000082B09D90F4A517801230B43537003E0B3
:106E9000094B1A88104B1A8070BDC046341100206F
:106EA000A40E00201C07000054150000AA0A0000D0
:106EB000CA0F0020D1A8000026020020C80D002023
:106EC000F20D0020AC0F0020120E0020CC0D00208F
:106ED0001A0E0020040E0020E60D0020D60D002022
:106EE0003B4B00229B5E3B4A93420FDA3A4A1288A0
:106EF0003A490988521A92B239490A800C2A09D9AA
:106F000038494878022202434A7003E0324A118825
:106F1000324A1180344A93420FDB2F4A1288334998
:106F20000988521A92B22E490A800C2A09D92D4991
:106F30004A78022082434A7003E0274A11882B4A8C
:106F400011802B4A93420FDA234A12882949098873
:106F5000521A92B228490A800C2A09D92149487844
:106F6000042202434A7003E01B4A1188214A11801F
:106F7000224A93420FDB184A128821490988521A83
:106F800092B21D490A800C2A09D916494A78042070
:106F900082434A7003E0104A1188194A1180194A45
:106FA00093420FDA0C4B1B88174A12889B1A9BB22C
:106FB000164A13800C2B09D90A4A517808230B432F
:106FC000537003E0044B1A880F4B1A807047C04679
:106FD000CA0F002068E6FFFF26020020220E0020D4
:106FE000260E0020AC0F00208BE8FFFFE40D0020F0
:106FF00046E4FFFFEE0D0020020E002069E6FFFFD1
:10700000060E002002E0FFFFE80D0020F00D00203A
:10701000384B1B785BB22D2B0FDD374A128837496E
:107020000988521A92B236490A800C2A09D9354980
:107030004878102202434A7003E02F4A11882F4AF1
:107040001180292B0FDC2C4A12882F490988521AEB
:1070500092B22B490A800C2A09D92A494A78102071
:1070600082434A7003E0244A1188274A1180322B58
:107070000FDD214A128825490988521A92B2244903
:107080000A800C2A09D91F494878202202434A70F5
:1070900003E0194A11881D4A11802C2B0FDC164A77
:1070A00012881C490988521A92B219490A800C2A7E
:1070B00009D914494A78202082434A7003E00E4AD5
:1070C0001188144A1180372B0FDD0B4B1B88124A95
:1070D00012889B1A9BB2114A1380142B09D9094AB2
:1070E000517840230B43537003E0034B1A880A4B3B
:1070F0001A8070473411002026020020FC0D002069
:107100001E0E0020AC0F0020180E0020160E0020CE
:10711000EA0D0020FE0D0020FA0D0020F80D0020E1
:107120002A4B1B882A4A13420AD080229200294BFC
:107130009A61264A5378802149420B43537044E0B8
:10714000254A0021525E002A11DD24490B4203D159
:1071500023490978C9060AD5802292001D4B9A61FD
:107160001A4A5378802149420B4353702DE0002A7C
:107170000EDA1649097809070AD580229200154BC4
:107180009A61124A5378802149420B4353701CE0A4
:107190005B3211DA134A134203D1114B1B789B0661
:1071A0000AD5802292000B4B9A61084A53788021BD
:1071B00049420B43537008E080229200054B5A610C
:1071C000024A53787F210B4053707047AC0F002068
:1071D000B66D000080000041CA0F00204110000081
:1071E0006411002008100000374B00229A562D2A07
:1071F00004DC364B1B785BB20A330FDA344B1B8846
:10720000344909885B1A9BB233490B800C2B09D98E
:1072100032490878102303430B7003E02C4B198884
:107220002C4B1980272A14DC284B1B785BB20433C3
:107230000FDB274B1B882A4909885B1A9BB226491A
:107240000B800C2B09D925490B78102083430B7038
:1072500003E01F4B1988224B19802D2A04DC1B4B9D
:107260001B785BB20A330FDA194B1B881D4909885A
:107270005B1A9BB21C490B800C2B09D91749087863
:10728000202303430B7003E0114B1988154B198021
:10729000272A14DC0D4B1B785BB204330FDB0C4B3D
:1072A0001B88124A12889B1A9BB20F4A13800C2B20
:1072B00009D90A4A137820218B43137003E0044B49
:1072C0001A88074B1A80704734110020A40E002042
:1072D00026020020000E0020F40D00206411002082
:1072E0001C0E0020200E0020E00D0020E20D0020EA
:1072F0000E4B00229B5E142B07DD0D490B780322F9
:107300009343022213430B700EE0143305DA084A4C
:10731000117803230B43137006E005490B78032211
:107320009343012213430B707047C046CA0F0020DD
:107330006411002010B5084B9847084B9847084B3C
:107340009847084B9847084B9847084B9847084B75
:107350009847084B984710BD016B00002D6C00004A
:10736000556D0000E16E00001170000021710000F9
:10737000E9710000F172000010B53B4B1A883B4BDD
:107380001B88D01A3A49884202DD3A49098803E04D
:10739000384908883849088038498B420DD8354922
:1073A000098837480088091A89B2782909D93548E7
:1073B000047802212143017003E02E4908883049F6
:1073C000088031498A420DD92A4909882F48008806
:1073D000091A89B2782909D92A4804780221214357
:1073E000017003E0234908882849088028498B4216
:1073F00002D82049098803E01E49088825490880E9
:1074000025498B420DD81B4B1B88244909885B1AE0
:107410009BB2082B0ED922490878402303430B70F6
:1074200008E0144B19881D4B19801D490B7840202A
:1074300083430B701B4B9A420ED90E4B1B88174A85
:1074400012889B1A9BB2082B0BD9154A13788021FE
:1074500049420B43137004E0114A13787F210B401B
:107460001370114B984710BD9C0F0020620F002035
:1074700066060000260200203002002032130000C1
:1074800038020020301000200A3700003A020020A5
:107490006F1D000028020020652600003402002035
:1074A000CC0F0020243600003573000010B5044BCB
:1074B0009847044B9847044B9847044B984710BD96
:1074C0000D650000BD65000079730000656800006F
:1074D00010B5074B98470122064B1A708223DB0533
:1074E00080221205DA6180225205DA6110BDC046A1
:1074F000A56900009E0F002010B50C4C00220C491D
:1075000020000C4B984720680B4B98470B4B1B5C9B
:107510001F2213401E3A11009940094B1960617EE9
:1075200001230B43637623685A7210BD300E00208E
:10753000D17400001D410000F941000008AD0000B9
:1075400000E100E000B58FB000236A469371D3716B
:1075500053709370137253729372D3721373937345
:107560005373137405930693137708930993138544
:1075700053859385343300226946CA54303BCB701F
:10758000033B0B70C023DB008B801F222923CA54CE
:107590006A4604490448054B9847054B98470FB085
:1075A00000BDC04600300042300E002035420000D1
:1075B000F974000010B5024B9847024B984710BD74
:1075C00035730000F56A000070B504008078000291
:1075D000E3781843144D0521A8478003FA21890058
:1075E000A847124B188020790002637918430521BF
:1075F000A8478003FA218900A8470D4B1880A3797A
:107600001B02E07903431BB2B62058436421A8470C
:10761000084B1880227A084B1A70627A074B1A704E
:10762000A27A074B9A7470BDD1A800009C0F00206D
:10763000620F0020CA0F002034110020A40E002089
:10764000680F002010B5264B1B78012B10D1254B5D
:107650001B78002B39D1244B1A681369002BFCD1FD
:10766000116802330B43136001221E4B1A7014E0A1
:10767000002B2AD11B4B1B78012B2AD11A4B1A68DD
:107680001369002BFCD133331372937213680221F8
:107690008B4313600022134B1A70144B5B78DB078B
:1076A00013D40F4B1B78002B0FD1114C23680133DF
:1076B000236001200F4B98472268FA239B009A42CF
:1076C0000CD90122064B1A7008E00022084B1A6000
:1076D00004E0064B5B78DB07F7D4E6E710BDC04655
:1076E0001410002044020020300E0020CC0F002097
:1076F000400200203D860000F0B5041E104B9C4265
:107700001AD03220652100220E4EFF250CE05318BE
:10771000D80FC3185B10D8B22B405B009B5BA34211
:107720000DD08F1A012F09D09C4201D3020000E036
:1077300001009142EBD802E0322000E01000F0BDE1
:10774000660E000010AD000070B5BC4B1B88B53351
:107750009BB2B522520093425BD8B94A53781021AC
:107760008B4353700022B74B1A70B74B1B88002B0A
:107770002CD1B64B1888B64B18800132B24B1A8008
:10778000B44B5843800BB44B9847B44B9B7CDBB253
:10779000984205D9B14B9B7CC01AB14B188004E0CC
:1077A000AE4B9B7C181AAE4B1880AD4B1988002944
:1077B00008D0494389B296200001AA4B9847A84BAC
:1077C000188039E07822A64B1A8035E001339BB24D
:1077D0009D4A1380A24A12889A422DD29B4B1A8846
:1077E0009B4B1B889A4202D9D31A9BB201E09B1A89
:1077F0009BB2F422FF32934207D8914A5178022378
:107800000B4353700122984B1A7000228E4B1A8042
:1078100012E08C4B1B780133DBB2032B02D8894A70
:10782000137009E00023874A1370874A1380844A43
:10783000517810230B4353708C4B1B785BB20A2B8F
:1078400000DC9DE07D4B1C88894BE3189BB29F2296
:10785000D20093424FD8874B1B78002B07D17B4B2C
:107860001A88854B1A800122824B1A7046E0013338
:10787000DBB2804A1370282B40D97F4B1B88734A98
:107880001288934233D99B1A9BB2F421FF318B4269
:107890002DD8704D6A43950BA8B26F4B9847774B24
:1078A0009D4212D86D4B9B7C053B98421FD26B4B7F
:1078B0009B7CDBB2052B1AD9614A517802230B431A
:1078C00053700522684B1A7011E0644B9B7C0F3B90
:1078D00098420CD2614B9B7CDBB20F2B07D9584AE4
:1078E000517802230B4353700F225F4B1A70002212
:1078F000604B1A7002E000225E4B1A70B73CA4B2D3
:107900009F23DB009C4238D85D4B1B78002B07D1AE
:107910004E4B1A88584B1A800122594B1A702FE08F
:107920000133DBB2564A1370282B29D9524B1B88DE
:10793000464A128893421CD2D31A9BB2F421FF31DB
:107940008B4216D843485043800B434B9847434BD8
:107950009B7C0F3B98420CD2404B9B7CDBB20F2BA5
:1079600007D9374A517802230B4353700F223E4BFD
:107970001A700022424B1A7002E00022404B1A702B
:107980002F4B5B789B0758D5304B1888314B5843A9
:10799000800B314B9847020029494C781023234330
:1079A0004B702E4B9B7C30490978C31A8B421ADDF1
:1079B0002A4B9B7CDBB2984215D9284B9B7CC31A7F
:1079C0009B0805D01E4D6C781026B4436C7000E007
:1079D0000123224DEC7DDBB2E41A64B2EC75AC7C81
:1079E000E318DBB2AB741D4B9B7C1B1A99421FDA68
:1079F0001A4B9B7CDBB29A421AD2184B9B7C181A0A
:107A0000800805D00E4A537810218B43537005E04F
:107A10000B4A517810230B43537001200F4AD37D3A
:107A2000C0B21B185BB2D375937C181AC0B29074A5
:107A3000034A537802218B43537070BDCA0F002054
:107A4000CC0F0020580200204A020020600F0020C6
:107A50004E02002088130000F9760000680F002015
:107A60004C0E0020D1A8000048020020A40E0020E7
:107A7000AF0500004C020020560200207F0C0000E1
:107A80004602002010B5584B00229B5E1A00B63209
:107A90003CDA564B1B785BB2272B28DC544B1B7807
:107AA0005BB20A2B23DD0022524B1A70524B5B78DB
:107AB000DB0600D497E0514B1B78002B0ED101322E
:107AC0004E4B1A7000234E4A13704E4A13704E4BA1
:107AD0005A689A609A7CD2B2DA7484E0484B1B7878
:107AE000012B00D07FE00022444B1A707BE0414B19
:107AF0001B780133DBB2032B02D83E4A137072E0CD
:107B000000233C4A13703D4A13706CE0B52B65DCD2
:107B10003A4B1B78012B66D10122394B1A70364B38
:107B20005B78DB065FD538490A888B684968D208DC
:107B30005B1A9A4243D20022304B1A70334B5B7867
:107B4000DB0706D4304B5968314A11609A7C314BBF
:107B50001A702D4CA268E0682D4B1B68D31A1B1AB3
:107B600064205843E37C2B4A1178591A2A4B9847D2
:107B700023889BB2984210D92388C31A274A93427C
:107B800008D880B22080218889B201220220244BAB
:107B9000984714E01C4B1B8811E01B4B1B881B1AD9
:107BA0001E4A934209D880B2174B1880198889B2AF
:107BB000012202201A4B984701E0134B1B88114BFE
:107BC0001B780133DBB2142B02D80E4A13700AE083
:107BD00000230C4A1370094A137004E00023074A7B
:107BE0001370074A137010BDCA0F00203411002013
:107BF000A40E002055020020CC0F002045020020DA
:107C00004902002050020020680F00203C11002093
:107C10005C02002054020020BDA70000AF04000059
:107C2000ED5D000010B5214A937C127DDBB29342DA
:107C30001AD91E4A937C127D9B1A002B14DD1C4B13
:107C40001B780133DBB20A2B02D8194A13700BE000
:107C50000022174B1A70154B9A7CD2B21A75997C78
:107C600000220120134B9847104A937C127DDBB20F
:107C700093421AD20D4A137D927C9B1A002B14DD7D
:107C80000B4B1B780133DBB20A2B02D8084A137066
:107C90000BE00022064B1A70044B9A7CD2B21A7584
:107CA000997C00220120034B984710BD680F0020EB
:107CB0004D020020ED5D000010B5984B00229B5E48
:107CC0005B3336DA964B1B7E002B32D1944A937D80
:107CD000927CDBB2934204D2914A937CDBB29375DF
:107CE00014E18F49887D8B7CCA7D52B2D31AC318A8
:107CF0005BB2CB758B7CDBB28B75CB7D5BB2062B1D
:107D000000DC03E1CB7D5BB2642B01DD0022CA7590
:107D1000834CA38C01339BB2A3840023E375A18C15
:107D200089B2012204207F4B9847A37CDBB22376E3
:107D300002E000227A4B9A75784B00229B5EB62BAC
:107D400000DCE0E0764A127E002A00D1D3E07649DA
:107D50000A88013292B20A80962109018A4200D82B
:107D6000C9E000226E490A766F490A80C3E06C4A76
:107D7000537E927CDBB2934203D2694A937CDBB29E
:107D8000537667494A7E887C8B7E9B181B1ADBB230
:107D90008B768B7EDBB2322B0BD9CB8C01339BB233
:107DA000CB8400238B76C98C89B2012206205D4BDF
:107DB00098475E4B1B885E4A934221D8584BDB7E26
:107DC000DBB2C72B04D8564AD37E0133DBB2D3765D
:107DD000534BDB7EDBB2322B21D9514BDB7EDBB246
:107DE000632B1CD84E4AC823D376D38C01339BB265
:107DF000D384D18C89B2012206204A4B98470EE0E9
:107E00004C4A934203D90022454BDA7607E0444BB3
:107E1000DB7EDBB2C72B02D80022414BDA763F4B28
:107E200000229B5EB62B22DD3D4A137F927CDBB2A3
:107E3000934203D93A4A937CDBB2137738498A7C60
:107E4000087F4B7F9B181B1ADBB24B774B7FDBB253
:107E5000322B14D90B8D01339BB20B8500234B774A
:107E6000098D89B2012208202E4B984707E0642132
:107E70002B4A11775B3302DA0022294B5A772E4BBB
:107E80001B882E4A934221D9254B9B7FDBB2C72BFF
:107E900004D8234A937F0133DBB29377204B9B7F37
:107EA000DBB2322B39D91E4B9B7FDBB2632B34D82C
:107EB0001B4AC8239377138D01339BB21385118D11
:107EC00089B201220820174B984726E01C4A9342AA
:107ED00003D80022124B9A771FE0114B9B7FDBB235
:107EE000C72B1AD800220E4B9A7716E00C4B0022B3
:107EF0005A769A765DE75B3300DA38E7F6E70022D8
:107F0000074B5A7655E75B33F9DA30E7034B00222B
:107F10009B5EB62B00DD15E729E710BDCA0F0020D8
:107F2000680F0020ED5D000052020020620F00206B
:107F300065260000C92C00009C0F00207934000049
:107F40005B2F000070B5474B1B88474A93422AD9E4
:107F5000464A1278002A26D1454A5278D20722D4BE
:107F6000444A1278D20711D443485843800B434BFC
:107F70009847434CA074A17C00220120414B9847B4
:107F8000A37CDBB22375A37CDBB263753C4CA07C85
:107F90002388584364213C4B984760600023E3608A
:107FA0000122324B1A70394B9847394B98472D4B69
:107FB0001A882D4B9A423CD9314B5A681B889BB288
:107FC0009A4203DD2E4A13889BB25360284B5B789C
:107FD000DB070BD52A4B59682E4A116000225A60E4
:107FE0009A7CD2B25A759A7C2B4B1A70244D6868D1
:107FF000298889B2AC7CE4B264235843224B984769
:10800000C0B26B7DE41A0419E4B2AC746875AB7C41
:10801000DBB2C82B02D86B68002B02D10022184BB0
:108020009A74174B9B7CDBB2642B02D96422144BED
:108030009A74134B1B7E002B0ED0114A137E927C38
:10804000DBB2934208D20E4A937C127E9B1A072B16
:1080500002DD00220A4B1A76104B9847104B9847C6
:1080600070BDC046600F0020991900004702002033
:108070003C1100203811002088130000F976000020
:10808000680F0020ED5D0000BDA7000049770000EB
:10809000857A00005C02002054020020257C00004C
:1080A000B97C0000024A517801230B43537070479A
:1080B000CC0F002010B50A0001000248024B98477F
:1080C00010BDC046500E0020E59C000010B50A000F
:1080D000002301000148024CA04710BD500E0020B3
:1080E000F99A000010B5012202490348034B984752
:1080F00010BDC0465C0E0020500E0020F19B000019
:10810000F0B5474680B492B0454C1123237000234C
:108110006370A370012269464A708B700A70112047
:10812000404B98472378DA090021002A05D15909E4
:10813000C9018222D205944661441F2213401E3A8F
:1081400010009840886104AC2270002305932374CA
:108150006374A274E27423752332A354183A002185
:108160000AA8314B9847314BA36180235B05A3607C
:1081700080235B02E3602E4BA36201235B42E36238
:108180002C4B23632C4B63632C4D22002C4928007D
:108190002C4B98472A68D369002BFCD11168023315
:1081A0000B431360284B984703AC00252570A5703E
:1081B0006570210030201B4B984698470127277097
:1081C00021000720C0478226F6058023B36127706F
:1081D00021000A20C0478023DB00B3612770210003
:1081E0003120C047803680239B0273616846174B5D
:1081F00098470D23009301956B461D72DF72694607
:108200000D20134B984700220D211248124B98471E
:1082100000210D20114B984712B004BC9046F0BDD0
:108220005C0E00201195000007AB0000A086010045
:10823000020010000200120002001300500E002085
:1082400000080042D1970000E5800000699100001D
:108250007D910000A5800000F18F00001D900000BE
:1082600010B5002202490348034B984710BDC04691
:108270005C0E0020500E0020F19B000082B06B4687
:108280000022DA7107331B78DBB2072B09D86B4663
:10829000DA1D13780133DBB213701378DBB2072BCE
:1082A000F7D902B07047C04610B500280DD00B00BA
:1082B0000138C0B2013009180020054C1A7850402E
:1082C000205C01338B42F9D100E0002010BDC04694
:1082D000DCAD0000F0B55F4656464D464446F0B46E
:1082E00083B0914640001E2738404B009846130A41
:1082F0009B460326254B9A46254D3E3F0743019753
:10830000D0476B461B792B7043466B705B46AB7056
:108310004B46EB70290004201E4B9847287105211D
:1083200028001D4B98471D4B1C6A1B6AE403E40F91
:10833000DB030ED41A4B194A012080214902146A2A
:10834000240C0440176A0F4203D1013B9BB2002B5F
:10835000F5D16420134B9847012C03D1124B984759
:1083600000200BE064200F4B98470F4B98470F4BB2
:108370009847013EF6B2002EC2D1012003B03CBCAA
:1083800090469946A246AB46F0BDC04661820000C9
:1083900060020020A9820000B5800000800000413A
:1083A0000F27000011860000E58000007D8200009C
:1083B000F0B557464E464546E0B482B001924000C3
:1083C0001E2738404B00984603262C4B9A462C4CCF
:1083D0003D3F0743B946D0474B4623704346637041
:1083E00021000220274B9847A07003212000264B34
:1083F0009847264B1A6A1B6AD203D50FDB030FD4AA
:10840000234B22490127802040020A6A120C3A407D
:1084100015000A6A024203D1013B9BB2002BF4D142
:1084200064201C4B9847012D18D11B4C03212000C0
:108430001A4B98471A4B984721000220114B984736
:108440000300A27802209A4211D1134A13781B022A
:108450005278D318019A1380002008E0104B9847F7
:10846000104B9847013EF6B2002EB4D1012002B065
:108470001CBC90469946A246F0BDC04661820000F1
:1084800060020020A9820000B58000008000004149
:108490000F2700001186000068020020CD80000038
:1084A000E58000007D820000F8B55F4656464D46E7
:1084B0004446F0B4914640001E2630404B009B4697
:1084C0000325364B9846364C3D3E0643B246C047E0
:1084D0005346237001235A46134363707F234A4651
:1084E0001340A370210003202E4B9847E070042115
:1084F00020002D4B98472D4B1A6A1B6AD203D60FCA
:10850000DB030FD42A4B29490127802040020A6A45
:10851000120C3A4016000A6A024203D1013B9BB298
:10852000002BF4D16420234B9847012E29D1224CF3
:10853000AD212000214B9847214B9847214B98476C
:10854000E3783B2B09D100221F4B1A701F4A117888
:1085500001230B43137000201AE01B4B1B780133DF
:10856000DBB2082B03D0184A1370002010E0002261
:10857000154B1A70154A137801218B431370002094
:1085800006E00F4B9847013DEDB2002D9FD1012031
:108590003CBC90469946A246AB46F8BD61820000BD
:1085A00060020020A9820000B58000008000004128
:1085B0000F27000011860000AA0E0020CD800000C9
:1085C000E58000007D82000065020020CC0F0020C5
:1085D00070B50020084B98470500084CFA21890027
:1085E000A047074B186007492800A047064B1860B2
:1085F0000522064B1A6070BD4DA30000BDA7000008
:108600000400002040420F000000002010E000E0C5
:1086100030B5084B1C68084A00258021490206E055
:10862000002C04D05460956013680B42FCD00138D4
:10863000F6D230BD0000002010E000E030B5084B5D
:108640001C68084A00258021490206E0002C04D05D
:108650005460956013680B42FCD00138F6D230BDEF
:108660000400002010E000E010B582B06A46084B1C
:1086700012CB12C2009B984205D00023019A82427D
:1086800003D1013300E00023DBB2180002B010BDBB
:10869000B0AF000010B50023002203704370837058
:1086A000C370002103830362C36101240471C024E9
:1086B0006401C480017242728272C27202732A24FF
:1086C000025542738273C27303610275063C025500
:1086D000C3840385417510BDF0B55F4656464D46CF
:1086E0004446F0B49DB005000E0017000800C64BCC
:1086F0009847040000902E60C44AD1698000C44BA2
:10870000C3580B43D36133780520DB0700D535E22E
:108710002A68138C9BB2002BFBD133781C209B075B
:1087200000D52BE27B782B71002B04D1B94AD1699B
:1087300004330B43D3612B689A463B7802AA13702B
:10874000B54B1E5D11003000B44B98473000B44B60
:1087500098473B79984604AEB24B9C461A000832C3
:10876000310049CA49C149CA49C149CA49C149CA6E
:1087700049C110A9634638330A0043CB43C243CBF7
:1087800043C243CB43C243CB43C2009B002B03D025
:1087900010A9012B03D001E004A900E00021A300EF
:1087A000A14A9B58994698450CD843469800405892
:1087B00003A900234B70CB708B7001330B70C0B2D8
:1087C0009A4B9847FB88984604AE964B9C461A00F5
:1087D0000832310049CA49C149CA49C149CA49C1D7
:1087E00049CA49C110A9634638330A0043CB43C282
:1087F00043CB43C243CB43C243CB43C2009A002A7C
:1088000003D010AB012A03D001E004AB00E0002349
:10881000C84500D9ACE142469000C05803A90023E6
:108820004B70CB708B7001330B70C0B27F4B98478D
:108830009EE15B46424693403A691A4230D004A812
:10884000784B0833020043CB43C243CB43C243CBF4
:1088500043C243CB43C210A8724B3833020043CB10
:1088600043C243CB43C243CB43C243CB43C2009A30
:10887000002A03D010AB012A03D001E004AB00E0D2
:108880000023019A4A450BD89100C85803A9002338
:108890004B70CB708B705B460B70C0B2634B9847CC
:1088A00046460136F3B2984601934B45C1D97B7BCE
:1088B0009A01BB7BDB011343DBB2524613703B7D55
:1088C000DB017A781343DBB252469370FB78342B8A
:1088D00000D94BE19B00564AD3589F4604201021F3
:1088E00002221AE07A7A387A102116E00620102146
:1088F000012212E00820102100220EE00020302189
:1089000000220AE000202021002206E000200021B1
:10891000002202E0022010210122120170231340E4
:108920000343524613732A68138C9BB2002BFBD16E
:108930007B7D17203F2B00D920E1FA7BD201134326
:10894000DBB2524653732A68138C9BB2002BFBD1C7
:10895000BB78524653702423FA5CD2003B7B9B00C9
:108960001343FA7A1A43BB7A5B0013430B43524614
:1089700053812A68138C9BB2002BFBD13B8B002BBD
:1089800000D191E0102975D002D8002954D08BE095
:1089900020291AD0302900D086E0FA7A002A0AD09D
:1089A000FA6980321720FF2A00D9E7E03A6A80325C
:1089B000FF2A00D9E2E01720FA69FF2A00DDDDE096
:1089C0003A6AFF2A00DDD9E06EE0FA7A002A0FD079
:1089D000FA69802189008C466244172015498A4231
:1089E00000D9CBE03A6A624412498A4200D9C5E014
:1089F0001720104AF969914200DDBFE0396A9142BF
:108A000000DDBBE050E0C046698600000008004081
:108A10001CB000000018004028B0000029A400008D
:108A2000B9A30000B0AF00002CB0000025A50000E5
:108A3000DCAE0000FF030000FA7A002A0FD0FA69CA
:108A4000802109018C466244172050498A4200D98E
:108A500094E03A6A62444D498A4200D98EE0172078
:108A60004A4AF969914200DD88E0396A914200DDA5
:108A700084E019E0FA7A002A0ED0FA69802109020E
:108A80008C466244172042498A4200D976E03A6A0D
:108A900062443F498A4271D817203D4AF9699142A0
:108AA0006CDC396A914269DC524652891343524662
:108AB00053812A68138C9BB2002BFBD1BB8B52468F
:108AC000D3812A68138C9BB2002BFBD13B8C52467E
:108AD00013822A68138C9BB2002BFBD13A79FB8856
:108AE0001343524613812A68138C9BB2002BFBD18F
:108AF0002A33FB5C5246D370072313711D33FB5C92
:108B0000002B1BD0FB8C1720204A934236D85246AC
:108B100053822A68138C9BB2002BFBD13A8D8023A1
:108B20001B01D3189BB2172018498B4226D85346F5
:108B30009A822A68138C9BB2002BFBD1A200154BA2
:108B4000D3581549095D1B68CB401B02E021C900C1
:108B50001940124BD358124A125D1B68D3400722AA
:108B600013400B4352469385002007E0172005E091
:108B700000230193984601339B465AE61DB03CBC46
:108B800090469946A246AB46F0BDC046FF0F000096
:108B9000FFFF00003CB0000018B0000034B000003F
:108BA00024B0000003680A4A934206D1094A1369B7
:108BB000802149000B43136108E0074A934205D125
:108BC000044A1369802189000B4313617047C04632
:108BD000001C00420008004000200042F8B50C00D4
:108BE00015000160A64B9847A64B00221A702A7800
:108BF0001A70A54B9C423CD1A2491A20A34B98471E
:108C00001A20A34B9847A04B996902220A439A6104
:108C1000A04A1204120C8027BF033A4384215A5001
:108C20009D480004000C802676033043882298502B
:108C30009A490904090C394318329950984A120488
:108C4000120C3243B0215A50964A1204120C0439C5
:108C50005A50954A1204120C94490A43C0215A50A2
:108C6000934A1204120C802109030A43F0215A503E
:108C70003FE0904B9C4200D0FCE082491B20834B9C
:108C800098471B20824B98478A4B996902220A43D6
:108C90009A61894A1204120C802189030A438421B3
:108CA0005A5086490904090C802040030143882258
:108CB000995083490904090C014318329950814A9B
:108CC0001204120C0243B0215A507F4A1204120CB3
:108CD00004395A507D4A1204120C74490A43C021C7
:108CE0005A507B4A1204120C802109030A43F021D6
:108CF0005A500023BC22A3500C32A350754BE361A1
:108D0000754BE360AB7B002B04D0E3688022120438
:108D10001343E3606B78002B03D0A2684023134316
:108D2000A3606369AA7813436361EB78002B04D0D6
:108D3000A3698022D2011343A3612B79002B04D0B5
:108D4000A369802292011343A3616B79002B04D0A5
:108D5000A369802252011343A361AB79002B03D195
:108D6000A26940331343A361EB79002B03D0A269BE
:108D700010231343A3612B7A002B03D0A26908238D
:108D80001343A3616B7A1B04F022120313400122E8
:108D9000134323622A7B6B7B13436A8912041343B8
:108DA000A362EB7B1B02FE22D201134019002A7C36
:108DB0007F231A400B001343A3646B7C1B013021FB
:108DC0001940AA7C92000C2313400B438022A3502D
:108DD000EB7C002B03D0A15802230B43A3502B7D27
:108DE000002B04D08022A15801230B43A3509023D1
:108DF000AA69E2502B7F002B05D0A022A358802126
:108E000009060B43A350A02022586B7F1B06FE21AE
:108E1000C9050B4013432350AB7F002B05D0B02274
:108E2000A358802109060B43A350B0202258EB7FA2
:108E30001B06FE21C9050B40134323502023EB5C86
:108E4000002B05D0C022A3588021C9050B43A35095
:108E5000F02022582123EB5C1B06FC2189050B40E6
:108E6000134323500323E365043BE022A350043261
:108E7000A35004E0A26902231343A36139E7F8BDBC
:108E8000A58B0000600E0020001C004229A40000F9
:108E9000B9A30000EC060020EC050020EC0A00203D
:108EA0006C0200206C090020EC0700200000040484
:108EB000AC0A0020002000426C0600206C05002057
:108EC0006C0300206C0400206C0800206C0700205C
:108ED0006C0A0020030A0306330A03000268936940
:108EE00001218B439361016801228B691A42FCD1F5
:108EF0007047C04610B503680948834205D1096828
:108F00009200084BD150002008E01720064CA342E5
:108F100004D109689200054BD150002010BDC04615
:108F2000001C0042EC060020002000426C060020DD
:108F300070B50D0003680C4CA34208D112010B4917
:108F40008918102228000A4B984700200BE01720B0
:108F5000084CA34207D112010749891810222800A2
:108F6000034B9847002070BD001C0042EC0A002013
:108F7000F5AA0000002000426C03002010B5036831
:108F80001748834213D10B68164C100103514A68ED
:108F900023185A600B000833083022181031187853
:108FA0001070013301328B42F9D1002017E01720F5
:108FB0000D4CA34213D10B680C4C100103514A68AD
:108FC00023185A600B00083302000832A21810312F
:108FD00018781070013301328B42F9D1002010BD96
:108FE000001C0042EC070020002000426C0700201B
:108FF0001723002A0DD18B00074A9B58002B03D161
:1090000089008850002304E0834201D01D2300E042
:10901000002318007047C046640E00201723002963
:1090200007D100221F2800D8034A0123834013617F
:10903000002318007047C0460028004070B5002289
:10904000154B1A7000231F25144E134C1F2B19D9D2
:109050000FE0002100E012494A619B009B59002B60
:1090600000D0984723780133DBB223700F2BEDD962
:1090700011E02900194001228A400021496911426A
:10908000E7D1EFE72900194001228A4004494969E4
:109090001142E0D1E6E770BD610E0020640E0020B1
:1090A00000280040064A117802230B431370022166
:1090B000012053681942FCD153681842F9D1704716
:1090C00000280040064A137802218B4313700120C8
:1090D00053681942FCD153681842F9D17047C04611
:1090E0000028004000B583B0184A53698021C900A8
:1090F0000B43536101A900230B700220144B9847C6
:109100000220144B9847144A117801230B43137023
:109110000221012053681942FCD15368184209D03A
:10912000F8E704C38B42FCD108220C4B1A600C4BAD
:10913000984709E0084A137810218B431370094BB4
:10914000190040310022ECE703B000BD00080040E8
:1091500029A40000B9A300000028004000E100E0BD
:10916000A5900000640E00200023036043600122EC
:10917000027283720132C27243727047F0B583B0DB
:1091800005000C001B4B984701A900234B70CB70C6
:1091900023790B70237A8B702078174B9847002027
:1091A0001F2D00D81548072129408900E27AA37AAB
:1091B000002B01D008231A43EB089B00C318DE697B
:1091C0000F278F40BE438A403243DA61637A002B17
:1091D00005D082690123AB401343836106E08369B4
:1091E0000122AA401B041B0C93438361044B984744
:1091F00003B0F0BDC590000025A500000028004088
:10920000A590000010B51F4A916904230B43936198
:109210001D4B2022FF321A831A7D0523D2072ED53B
:1092200003790224002B00D0C47803781B02C022EB
:10923000920013404278D201FF210A4013431900E3
:10924000827852001E231A400B0013434279120405
:10925000C02189020A401343A40423430A4A5360ED
:1092600093685B035B0F094908249C400C8093685A
:109270004B8043780B71138BDB05DB0F1B01180050
:1092800010BDC0460008004000400041EC0C00202A
:1092900030B50400264A1088538843438B420BD2D2
:1092A00080229201234BCB18934205D91820224AE1
:1092B000224BCB18934239D8214A5568214B2B4079
:1092C0008020C002034353602023FF331383137DA8
:1092D000DB0702D45560052028E0452C15D8A300F3
:1092E000194AD3589F46164B1B8BDB0503D5144BED
:1092F0005D6010201AE089084900114BD96108E02F
:10930000890849000E4BD96103E00D4B5D601720C1
:109310000CE0A52000020443094B1C801900012227
:109320000B7D1342FCD0064B5D60002030BDC04673
:10933000EC0C002000C07FFFFF1F00000000C0FFFA
:1093400000400041FFFFF3FF44B00000F8B52B4B95
:109350001C885B886343834207D21823284E294D1B
:1093600045190127B54201D946E000271723944249
:1093700042D3254B1C7D0523E4073DD5234C224BCE
:109380001C801D0001242B7D2342FCD02024FF34AF
:109390001D4B1C834608002A29D076000023541E4A
:1093A000A446CD5C634501DBACB203E0CC18647825
:1093B00024022C43348002339BB202369A42F0D806
:1093C0000E4B19790023002916D13F2A14D8002FFB
:1093D00006D0002201001C200D4B984703000BE033
:1093E0000022010004200A4B9847030004E0034BCD
:1093F0001A790023002AEAD01800F8BDEC0C0020EE
:10940000FF1F00000000C0FF0040004144A5FFFF17
:109410009192000070B5194B1C885B8863438342AE
:1094200005D21823164E174D4519B54223D81723D8
:10943000944220D3144B1C7D0523E4071BD5202424
:10944000FF34114B1C834008002A13D04000002534
:10945000561E2B181C88A4B22B041B0CCC54B342F0
:1094600002DACB18240A5C700235ABB29A42F0D80B
:10947000002300E00023180070BDC046EC0C002063
:10948000FF1F00000000C0FF0040004110B51A4A55
:10949000138852885A43824207D21822174C18491F
:1094A0004118A14226D8012100E000219B00013B88
:1094B000182218421ED1134B1B7D133ADB0719D516
:1094C000104B2022FF321A8380084000D861002907
:1094D00001D10D4A00E00D4A0A4B1A801900012201
:1094E0000B7D1342FCD0074B1A8B1C231A40501ED5
:1094F00082419200100010BDEC0C0020FF1F000004
:109500000000C0FF0040004102A500001AA50000B5
:1095100000B583B001AB80221A700A785A704A787D
:109520009A708A78DA701900014B984703B000BD31
:1095300025A5000010B5490840230024814201D22E
:109540000AE01C00091A631C9BB28842F9D9402327
:10955000FF2C01D814800023180010BD10B582B074
:1095600004000E4B1B78002B01D000290DD001A95F
:109570000C7012200A4B984712200A4B9847074B51
:109580005C7001221A70002006E0044B5B78834275
:1095900001D01D2000E0002002B010BDF40C00201E
:1095A00029A40000B9A30000444B984233D006D848
:1095B000434B98420DD0434B98421BD06FE0424B37
:1095C00098424AD0414B984258D0414B984266D17C
:1095D00032E0012906D0002963D0022906D00329F0
:1095E00006D001E03B4867E0002065E03A4863E0D0
:1095F0003A4861E0012906D0002954D0022906D05A
:10960000032906D001E0364856E0002054E03548F2
:1096100052E0354850E0012906D0002945D0022902
:1096200006D0032906D001E0304845E0002043E0A1
:109630002F4841E02F483FE0012906D0002936D0CD
:10964000022906D0032906D001E02B4834E000208F
:1096500032E02A4830E02A482EE0012906D00029CD
:1096600027D0022906D0032906D001E0254823E0AF
:10967000002021E024481FE024481DE0012906D0F5
:10968000002918D0022906D0032906D001E020487D
:1096900012E0002010E01F480EE01F480CE0002000
:1096A0000AE01E4808E01E4806E01E4804E01E4886
:1096B00002E01E4800E01E487047C046000C004211
:1096C000000400420008004200140042001800425A
:1096D000001000420300050003000600030007001D
:1096E00002001100020012000200130002000D002F
:1096F00002000E0002000F00020017000200180016
:10970000020019000300290003002A0003002B00B7
:1097100003002300030020000300210003000400D5
:109720000200100002000C000200160003002800D6
:109730000300220030B587B00C4B6A4632CB32C2F0
:1097400032CB32C2009B834206D001239A00694685
:109750005258824203D100E00023D8B203E0013323
:10976000062BF3D1002007B030BDC0465CB100002D
:1097700010B5024B1B680020984710BDF80C002064
:1097800010B5024B5B680120984710BDF80C002013
:1097900010B5024B9B680220984710BDF80C0020C2
:1097A00010B5024BDB680320984710BDF80C002071
:1097B00010B5024B1B690420984710BDF80C00201F
:1097C00010B5024B5B690520984710BDF80C0020CE
:1097D000F0B557464E464546E0B488B080460E0088
:1097E0001400030019600B689B0700D4A7E0936A7C
:1097F0000393D36A0493136B0593536B069300276B
:109800001F239946F9B2BB0003AA9858002802D139
:109810003000AF4B9847431C28D00204130C9C46E1
:10982000000CC1B20025030604D44B09DB018222DF
:10983000D2059D184B460B40E81840300078824610
:1098400080205246D2070AD55B08EB1830331878CF
:10985000C0B2CB0701D5000901E00F2318408445B1
:1098600004D00023424613601C202BE10137042F53
:10987000C8D11220974B984723780027012B12D18B
:1098800002AA0100A069944B984703001720002BFF
:1098900000D017E1337BDBB202AA127805309A427E
:1098A00000D00FE10C372578002D14D13268E37F0A
:1098B0001B04A17F0B431C20934200D002E1A1694D
:1098C000A38B2022A25C002A01D04022134308224D
:1098D0000A43174300E000236268A1680A43E16875
:1098E0000A433A43217C0B43617C002901D080214B
:1098F0000A43A17C002902D0802189020B43E17C2C
:10990000002902D0802189000B43217D002902D04B
:10991000802189010B43306802210A43824209D128
:1099200072689A4206D143465D71237C4246937128
:109930000020C7E00023424613601C20C2E00B68F1
:109940000520DB0700D5BDE00800644B98470528DB
:1099500002D0451C133001E0192006256049CA6970
:109960000123AB401343CB6107A92427E35D0B70B0
:10997000C5B228005B4B984728005B4B9847E05DD9
:1099800000215A4B98472378012B03D132680B33BF
:10999000134333602378002B03D132680833134319
:1099A000336043461E6802AB80221A7000225A7050
:1099B00001219970DA702378002B01D102AB9A70E3
:1099C000A36A0393E36A0493236B0593636B069383
:1099D000002702ADF9B2BB0003AA9858002802D1B3
:1099E00030003B4B9847431C05D02870000CC0B298
:1099F00029003F4B98470137042FEBD1237842468B
:109A00005371237C9371A37CD371237D1372002245
:109A10006B46DA802378012B15D1434618682F4B0B
:109A200098471330C0B22B4B984701006B469A1DE4
:109A3000A069294B984703001720002B42D16B46A1
:109A400006331B7833732378002B0FD1A769A38BC0
:109A5000706AE17F0904A57F2943014371622022D6
:109A6000A25C002A04D040210B4301E00023002720
:109A70006268A1680A43E1680A433A43217C0B43C8
:109A8000617C002903D11B498978890701D5802190
:109A90000A43A17C002902D0802189020B43E17C8A
:109AA000002902D0802189000B43217D002902D0AA
:109AB000802189010B4331680A4332607268134385
:109AC0007360002008B01CBC90469946A246F0BDC9
