:0B300000636F6E7374206461746100E4
:1040000050310020CD9D0000C99D0000C99D0000D9
:1040100000000000000000000000000000000000A0
:10402000000000000000000000000000C99D00002A
:104030000000000000000000C99D0000C99D0000B4
:10404000C99D00001D410000C99D0000AD88000011
:10405000C99D0000C99D0000C99D0000C99D0000C8
:10406000C99D0000E18F0000F18F00000190000069
:10407000119000002190000031900000D14D00000F
:10408000C99D0000C99D0000C99D0000C99D000098
:10409000C99D0000C99D0000C99D0000C99D000088
:1040A000C99D0000C99D0000C99D0000C99D000078
:1040B000C99D0000C99D0000C99D000010B5064CB7
:1040C0002378002B07D1054B002B02D0044800E0D9
:1040D00000BF0123237010BD10000020000000006D
:1040E0002CA90000084B10B5002B03D00749084845
:1040F00000E000BF07480368002B00D110BD064B4D
:10410000002BFBD09847F9E70000000014000020C6
:104110002CA900002CA900000000000010B501220D
:10412000034B9A71034B1B68002B00D0984710BDBE
:1041300000200040200D002010B58CB00BA90123F9
:104140004B7000248C700B702620134B9847402234
:10415000124B5A616846124B984703236A465370C4
:104160001471072393700F4C0F4920000F4B984791
:104170002268138C9BB2002BFBD107331371937110
:104180001178053B0B431370064B1A68138C9BB2D6
:10419000002BFBD10CB010BD818D000080000041D0
:1041A000057F0000240D002000440042497F0000EC
:1041B000094B98420BD8094A0232012311888142E7
:1041C00006D90133DBB202328D2BF7D100E0002398
:1041D000034AD0567047C046983B0000DCA200005E
:1041E000F8A3000070B5254C8823E05C0002013381
:1041F000E35C181880B2224DA847224B18708A231E
:10420000E05C00020133E35C181880B2A8471E4B43
:1042100018708C23E05C00020133E35C181880B254
:10422000A8471A4B18708E23E05C00020133E35C50
:10423000181880B2A847164B18709023E05C000253
:104240000133E35C181880B2A847124B18709A2308
:10425000E35C1B029B22A25CD3180F4A13808623C7
:10426000E35C1B028722A25CD3189BB20B4A13802B
:104270000B4A13800B4A138070BDC046700E00209D
:10428000B14100006D0E00202D0F00205E0F0020B8
:10429000260F0020240F00208E0F00205C0F00202E
:1042A000320000202C000020F0B589B04D4B1B7867
:1042B000002B16D101224B4B1A704B4A4B49080078
:1042C000403015002035002413889B080B800B8498
:1042D000038003841480023202310230AA42F3D1F7
:1042E0000FE0434B18784001404BC01800233E4D6F
:1042F000002459190A889208C2520C800233202BDC
:10430000F7D13B4B1B780133DBB2032B02D8384A81
:10431000137002E00022364B1A7034480021070067
:10432000314ECA19048C0388E3188D192C881B1987
:104330001400403424881B19603212889B189BB2E9
:104340002B806A468B52023102302029E9D10F2797
:1043500014E051006846085A511C4D006C462D5B14
:10436000A84203D952001553490008530133DBB268
:104370001A1EB242EDDB013F002F05D03E000022A5
:104380000023002FE5DCF6E76B46063308A9002082
:104390001A88801802339942FAD10D21154B98479B
:1043A000154B18806B46DA8B144B1A806B46DA88F3
:1043B000134B1A80134B00229B5E002B10DA124A1B
:1043C00012780132D2B2032A02D80F490A7002E0F1
:1043D00000210D4A11700C4A127852000B495352B9
:1043E00009B0F0BD300000202C1100202C0D002061
:1043F0002F000020819F0000280F0020640F002064
:104400002A0F00208E0F00202E000020DC0F00203D
:10441000204B00229A56204B1B785BB29A4202DD59
:104420001E4B1A7001E01D4A13701D4B1B785BB2C6
:104430001C4A127852B293420ADD1B49097849B2EC
:104440008B4202DD19490B700CE01848017009E03D
:104450001549097849B28A4202DD14490A7001E01F
:104460001248017093420ADA0F4A127852B293420C
:1044700002DA0F4A13700CE00D4B1A7009E00A4B78
:104480001B785BB29A4202DA094B1A7001E0084AC3
:10449000137070476D0E00202D0F002004110020B6
:1044A0005E0F0020260F0020240F0020F8100020AF
:1044B0006C0E002010B50A4A0A4914002034137803
:1044C0001B025078C3180B8002320231A242F6D18F
:1044D000054B9847054B9847054B984710BDC0467C
:1044E000D60E00202C110020A9420000114400002B
:1044F000755A000070B52E4A2E49140020341378E6
:104500001B025078C3180B8002320231A242F6D14E
:10451000294C8823E05C00020133E35C181880B268
:10452000264DA847264B18708A23E05C0002013311
:10453000E35C181880B2A847224B18708C23E05C0B
:1045400000020133E35C181880B2A8471E4B1870B4
:104550008E23E05C00020133E35C181880B2A847A8
:104560001A4B18709023E05C00020133E35C1818CA
:1045700080B2A847164B18709A23E35C1B029B225B
:10458000A25CD318134A13808623E35C1B028722A4
:10459000A25CD3189BB2104A1380104A1380104AB1
:1045A0001380104B9847104B9847104B984770BD9D
:1045B000D60E00202C110020700E0020B14100000A
:1045C0006D0E00202D0F00205E0F0020260F002012
:1045D000240F00208E0F00205C0F002032000020EE
:1045E0002C000020A942000011440000755A000070
:1045F00070B5424A0B21E020414CA0470F22112107
:10460000E020A0473F4A1721E020A0473E4A122160
:10461000E020A047F022FF321321E020A0473B4AD0
:104620000621E020A047C02292000721E020A047F9
:10463000374A0421E020A047E0256D002A00082128
:10464000E020A0472A000921E020A0478022120292
:104650000321E020A0472F4D2A000121E0202E4E0B
:10466000B0472B88D22292001A432C4B1A8001218A
:10467000E020A04700220B21E020A0476420284B27
:1046800098472A000321E020B047002805D1214B9C
:1046900000229B5E0130002B2EDA1E4A1121E02001
:1046A0001D4B9847002804D11A4B1B8801301B076B
:1046B00022D0184A0121E020174B9847002806D144
:1046C000144B1A880130D2239B001A4214D0D222F4
:1046D0009200124B1A800F4A0621E0200E4B984799
:1046E00003000120002B07D10A4B18880D4B9C4674
:1046F0006044431E9841C0B270BDC046B5E300009F
:10470000457B000042240000430C00002D2E0000D9
:104710003FFE0000800F0020217C000002110020DD
:10472000817E0000D3D1FFFF10B51C4A0B21E02091
:104730001B4B98471B4B1870002822D1F8225201BE
:104740000F21E030164B9847164B1870002823D1E4
:10475000154A0521E030124B9847124B187000287B
:104760001AD1124A0C21E0300D4B98470D4B1870AE
:10477000002811D10E4A1A21E030094B9847094B05
:104780001870084B1B78002B06D100220B21E0206B
:10479000034B9847034B187010BDC046B5E30000AB
:1047A000457B0000D80F0020FF0F0000030700002A
:1047B0003210000070B5124A0B21E020114CA047C6
:1047C000114A0A21E020A04700221521E020A0473D
:1047D00001221421E020A047E0256D002A000821D5
:1047E000E020A0472A000921E020A047074A18211D
:1047F000E020A04700220B21E020A04770BDC0466A
:10480000B5E30000457B00000740000011070000F1
:10481000F8B5C824124D134E134F2A003021E02062
:10482000B0472B88DB0713D501223021E0200F4C45
:10483000A0470F4A0A21E020A0470A200A4B9847C8
:10484000074C22004A21E020064B9847208806E0CA
:104850000120B847013CE4B2002CDED10020F8BDB5
:10486000800F0020217C0000AD7E0000457B000011
:104870000140000070B5494B5B78DB0700D48CE049
:10488000474B9847454B5A7801218A435A701A780A
:104890008A431A708022D2008223DB055A61414B81
:1048A00098470320404B9847404A13780133DBB2C6
:1048B00013703F4B5B785B0633D53E4A0A21E020FC
:1048C0003D4DA8473D4B98473D4C22003021E0200C
:1048D0003C4B984707223021E020A84764203A4B00
:1048E0009847238805221340052B06D15132012118
:1048F000E020364B9847364B9847C820324B9847B4
:104900000120294B9847334B98472D4B1B88DB07D9
:1049100025D556220121E0202C4B98472E4B984755
:104920001DE02E4A0A21E020234DA847244C2200F6
:104930003021E020234B984707223021E020A84770
:104940006420214B9847238805221340052B06D16C
:1049500051320121E0201D4B9847214B9847214BB4
:104960009847214B9847124B5B785B0605D51F4A49
:104970001821E020104B984704E01D4A1821E02040
:104980000D4B98471B4B98470320074B98471A4BF2
:1049900098471A4B98471A4B984770BD900F0020C4
:1049A000655F0000D17A0000AD7E00008C0F002012
:1049B0000011002007410000457B0000B5470000C2
:1049C000800F0020217C0000817E0000197D000006
:1049D000E541000011480000B54400000740000018
:1049E000F5440000294700008D6F0000010700001A
:1049F0001107000055790000B577000099650000A7
:104A0000F166000010B5014B984710BD75480000D5
:104A100070B57C4A537804218B4353707A4A2C3109
:104A2000E0207A4B9847002823D1764C764B1988A2
:104A3000DC239B0019402388754A13400B432380D5
:104A400000225221E030734DA84700225321E0207C
:104A5000A84763789B0700D1CCE06F4A51780823C0
:104A60000B4353700AE06C4A537808218B43537010
:104A700004E0644A517804230B435370614B1B8854
:104A800070221A4200D180E0644B1B78DBB2282BE5
:104A900025D9634B1B78DBB2052B1DD8604A1378F0
:104AA0000133DBB2137000225C4B1A70A022120299
:104AB0000321E020574CA047DC2292003021E02067
:104AC000A04780252D022A000321E020A0472A00CC
:104AD0000321E020A04702E02922504B1A70514BDD
:104AE0001B78DBB2502B25D94F4B1B78DBB2052B43
:104AF0001DD84D4A13780133DBB213700022494BA5
:104B00001A70A02212020321E020424CA047DC22AE
:104B100092003021E020A04780252D022A000321A9
:104B2000E020A0472A000321E020A04702E029223C
:104B30003C4B1A703D4B1B78DBB2282B25D93C4BE4
:104B40001B78DBB2052B1DD8394A13780133DBB251
:104B500013700022354B1A70A02212020321E020AC
:104B60002C4CA047DC2292003021E020A047802579
:104B70002D022A000321E020A0472A000321E02083
:104B8000A04702E02922294B1A701F4A0321E02086
:104B90001E4B9847002815D11B4B1B889B0405D43E
:104BA000184A53787F210B4053700BE0154A537815
:104BB000802149420B435370802212028331E0204E
:104BC000144B9847104A5521E020104B9847002875
:104BD0000AD10C490C4B1B881B079B0F0A8803301A
:104BE000824313430B800BE0064A517804230B43A6
:104BF000537005E0084B5B781B0700D533E73DE7B2
:104C000070BDC04600110020800F0020217C0000F4
:104C10008FFCFFFF457B0000900F00202911002032
:104C2000360000202611002035000020FE10002054
:104C300034000020F0B5474680B48AB009AE0024A5
:104C400074700125B570F4700623984633703100F6
:104C50001820204FB8474346337031001920B84719
:104C600008236A46137054709470D570157155718D
:104C70009571D4711472547201235B425381147381
:104C800054739473D4731474022353749374D5744B
:104C90001575114B0693157754779577D4772023A4
:104CA000D4540133D4540D4C0D4920000D4B98477A
:104CB00020000D4B9847802212020C4B1A6022688C
:104CC000536DC02149050B4353650AB004BC90469F
:104CD000F0BDC0466D9D0000FFFFFF1F10010020CA
:104CE000001C00424D8400004D87000000E100E000
:104CF00010B582B00A4B0193019A0A4B13408022EF
:104D0000520213430193084C012201A92000074BD2
:104D100098472268516D01230B43536502B010BDC3
:104D2000FF070088FFFF00F81001002065870000E2
:104D300010B584B00023009388231B040193009BCB
:104D40008004124C204018430090019C0F2010401A
:104D500000040F4B234003430193002A07D002AB0A
:104D60008A1808781870013101339142F9D1094C41
:104D7000002269462000084B984723689A699207E9
:104D800002D40121D022995004B010BD0000FC1FB4
:104D9000FFFFF0FF10010020ED8700000023024A12
:104DA0001360024A1360704748000020140100207D
:104DB000054B1A68511C1960044988541A68FF2170
:104DC0000A401A607047C0461401002018010020F4
:104DD00030B583B0244B1B681A6D0192019AD2073B
:104DE0002FD501221A65214C22681F4D2049280029
:104DF000204B9847236829683F22134069328B5023
:104E00002368013323602368202B02D10022174B33
:104E10001A6000230093164B5B681B031B0F009A5C
:104E200093420ED9124C144D009BE318187AA847F0
:104E3000009B0133009363681B031B0F009A93428E
:104E4000F2D8019B1B0102D4019BDB0009D5064B64
:104E50001B68C02252051A65802212058223DB05D9
:104E6000DA6103B030BDC0461001002018020020F6
:104E700038000020A1870000B14D0000F0B5574672
:104E80004E464546E0B48246002904D11EE0013C6E
:104E9000002C09D11AE0104C0023104F104E3A009C
:104EA00010488046FF20844638683568A8420BD0F9
:104EB0001568681C10604046455D5046C55415682D
:104EC00060460540156001338B42E0D11CBC904622
:104ED0009946A246F0BDC0460F27000048000020BA
:104EE000140100201801002010B50139002909DD46
:104EF00000220023C45C1219D2B20133DBB28B4210
:104F0000F8DB00E000225042C0B210BDF0B55746B9
:104F10004E464546E0B407000D004E1EF610013621
:104F2000002E1DDD00210024104B9A469946104B9F
:104F30009846082D07D9C900791808220120C847CA
:104F4000083DEDB204E0C90079182A000120D047DD
:104F5000FA204000C0470134E4B2211EB142E8DB30
:104F60001CBC90469946A246F0BDC046314D00009B
:104F7000817E000010B584B001AC552323700B4B2B
:104F80001B7863700A4A1278A2700122E2705732CD
:104F90002271637104216B46D81D064B9847A0719E
:104FA00007212000044B984704B010BD250F0020B6
:104FB000840F0020E94E00000D4F000070B55B4CDF
:104FC000552121705A4B1B7863705A4B1B78A37084
:104FD0005A22E270D6232371C93B63710C3BA37143
:104FE0009B33E371843B2372A8336372AE3BA3729D
:104FF0002D20E072E433237300236373A373E37300
:1050000023746374A374E37423756375A375E375E4
:1050100023766376A376E37623776377A377E377C4
:1050200020256355013563550135635501356355B9
:1050300001356355013563550135635501356355B8
:1050400001356355013563550135635501356355A8
:10505000013563552354013023540130235401306A
:1050600023540130235401302354013023540130A0
:105070002354013023540130235401302354013090
:105080002354013023540130235401302354013080
:105090002354013023540130235401302354013070
:1050A0002354013023540130235401302354013060
:1050B0002354013023540130235401302354013050
:1050C0002354013023540130235401302354013040
:1050D0002354013023540130235401302354013030
:1050E0002354013023540130235401302354013020
:1050F00023546354013163540131635401316354C7
:1051000001316354A3540132A3540132A354013238
:10511000A3540132A354E01C0431074B98475F238A
:10512000E05460212000054B984770BD4C000020E2
:10513000250F0020840F0020E94E00000D4F0000D5
:1051400010B537210148024B984710BDCC00002014
:105150000D4F000010B584B001AC552323700C4BEB
:105160001B7863700B4B1B78A3700123E3705733DC
:105170002371094B1B78637104216B46D81D074BC3
:105180009847A07107212000054B984704B010BD37
:10519000250F0020840F00202C0F0020E94E000076
:1051A0000D4F0000F0B5474680B4614C5523237085
:1051B000604B1B786370604B1B78A3703126E670E0
:1051C000D52323715D4B1B7863715D4B1A88A271E7
:1051D0001A88120AE2715A6822725A6812126272AE
:1051E0009A8CA2729B8C1B0AE372564B00229A5E29
:1051F000E123DB005A43D3175B045B0C9B18DB13E2
:1052000023731B126373504B002018564F4B1B78AF
:105210005BB2C0184E4B1B785BB2C0184D4F0321D8
:10522000B847A0734C4B1B78E3734C4B1B7823742B
:1052300000256574A5744A4B18884A4B58434A495F
:10524000B847E074000A2075484B18883223FF33B2
:10525000984658434449B8476075000AA075444BC6
:105260001888434658434049B847E075000A2076FD
:10527000404B1888434658433B49B8476076000A7C
:10528000A0763D4B18683D4FFA218900B847E0767B
:10529000030A2377030C6377000EA077384B186856
:1052A000FA218900B847E077020A2023E254020C71
:1052B0000133E254000E0133E054324B1B682322C9
:1052C000A354190A0132A154190C0132A1541B0E26
:1052D0000132A3542723E5540133E5540133E55447
:1052E0000133E5540133E5540133E5540133E5540A
:1052F000254B1B680832A354190A0132A1541B0C18
:105300000132A354214B1B78A3553223E5540133BA
:10531000E55445320133E254683A0133E254E01C6B
:1053200034211B4B98473623E05404BC9046F0BD13
:10533000CC000020250F0020840F00202C0F00201F
:10534000300F00208E0F00205E0F0020260F00205F
:10535000240F002095A000006C0E0020F810002003
:105360005C0F0020D817000010270000280F002035
:105370002A0F0020640F0020880F0020819F00006A
:10538000600F00207C0F0020700F002028110020EB
:10539000E94E000070B5C2B0664B1A68664B1B68D8
:1053A0009A4200D1C3E05522644B1A7001216B462A
:1053B000D81D634B98476B4607331B78552B00D09D
:1053C000B5E001216B46D81D5D4B98476B46DC79F3
:1053D000002C36D101216B46D81D594B98476B469E
:1053E00007331B78002B00D0A1E001216B46D81DAC
:1053F000534B98476B4607331B78002B00D096E041
:1054000001216B46D81D4E4B98476B4607331B78DE
:10541000012B00D08BE001216B46D81D484B9847EB
:105420006B4607331B78FF2B00D080E04548464B86
:105430009847BFF34F8F454A454BDA60BFF34F8F14
:10544000FEE7444B1B78A34201D0FF2C6FD1012112
:1054500041483B4DA847012102A8A84702AB197853
:10546000042964D8023109206844354B984702AEBC
:105470003578E91CC9B23000384B98477519AB78BC
:10548000834254D12300FF3B5A425341DBB202AA6C
:105490005278D1B2C5291DD004D8482A33D0582A11
:1054A00038D044E0D1B2C62926D0CE293FD12C4BEA
:1054B0001B78002B3BD102AB9A78531EDBB2FD2B3D
:1054C00035D8284B1A70284B9847FF2C2FD0274BE4
:1054D00098472CE0224A1278134328D102AB9A78DD
:1054E000204B1B789A4204D0FF221E4B1A701E4B91
:1054F00098471F4B98471AE0194A1278134316D160
:105500001C4B984713E0164A127813430FD11A4BDD
:1055100098470CE002AB9A780E4B1B789A4206D162
:105520000F4B1B78012B02D10122144B1A7042B091
:1055300070BDC0464800002014010020F80F002074
:105540007D4E000000FD0300FD8C00000400FA0504
:1055500000ED00E0250F0020840F0020E94E000040
:10556000000000202C0F0020A55100005551000024
:1055700041510000BD4F0000754F00001C0200208B
:1055800010B584B001AC552323700A4B1B786370AF
:105590000023A370E3704833237103216B46D81DA9
:1055A000054B9847607106212000044B984704B0D2
:1055B00010BDC046250F0020E94E00000D4F000031
:1055C000F8B54F464646C0B48223DB051B6A5B062E
:1055D0000DD40122284B1A700022284B1A70822306
:1055E000DB0520329A61802212015A6140E082215B
:1055F000C90510220B6A1A42FCD00A20204B98479A
:105600008221C90510220B6A1A42FCD001221A4BD2
:105610001A701A4F1B4B99461B4B984625E0C847FA
:10562000002342461360194A1370194E164C144D4C
:10563000B0472368013323600120A8472368312B3A
:1056400007D900220D4B1A7020328223DB059A61A4
:105650000BE00E4B1B78002BEAD0084B1B78012B7C
:1056600003D1054A1378013313703B78012BD6D050
:105670000CBC90469946F8BD250F00200000002084
:10568000AD7E0000815500000C0100201C020020AE
:105690009553000000B583B000236A461370074A93
:1056A0005268D206120F69468A70CB700B714B712B
:1056B0004B706846024B984703B000BD0040004164
:1056C000758A000070B50500024C2800A047052827
:1056D000FBD070BDFD8C0000F8B506000D00140075
:1056E000034F220029003000B8470528F9D0F8BD43
:1056F000BD8B0000F8B506000D001400034F22001A
:1057000029003000B8470528F9D0F8BD858C000085
:10571000344A5178344B9974997CC9B21975997C83
:10572000C9B2597511799984998C090289B2998401
:10573000988C5179014399849179D984D98C090243
:1057400089B2D984D88CD1790143D984117A198549
:10575000198D090289B21985188D517A014319856D
:10576000D17A224B1980117B214B198019880902AB
:1057700089B219801888517B01431980917B598027
:105780005988090289B259805888D17B01435980D0
:10579000102151561971112151565971917CD9809E
:1057A000D98849B20902D980D98809B2D07C01438D
:1057B000D980117D1981198949B209021981198984
:1057C00009B2507D01431981917D5981598909029E
:1057D00089B259815889D17D01435981127E52B2D3
:1057E0001A73704708110020300F0020F40F0020BA
:1057F000E40F0020F8B52E4BB3221A702D490A8809
:10580000120A9A700A88DA702B4A918C090A197167
:10581000918C5971D18C090A9971D18CD971118DE2
:10582000090A1972128D5A72244A1288110A997241
:10583000DA72234A1188090A197311885973518839
:10584000090A99735188D973117919745179597466
:10585000D188090A9974D188D9741189090A1975EE
:10586000118959755189090A99755189D975127B20
:1058700052B212121A761A00193319000023107846
:105880001B18DBB201328A42F9D1094C63760D4D07
:1058900028000D4FB8470D4E3000B8471A2221009E
:1058A00028000B4DA8471A2221003000A847F8BD58
:1058B00008110020660F0020300F0020F40F002098
:1058C000E40F002000FE0300C556000000FF0300A7
:1058D000D956000010B5104C1A2221000F48104B69
:1058E00098472378B32B13D10B4A100019300023AB
:1058F00011785B18DBB201328242F9D1064A527E3E
:105900009A4202D1074B984704E0074B984701E0C1
:10591000054B984710BDC0460811002000FF03004A
:10592000F556000011570000F557000010B5104C57
:105930001A2221000F48104B98472378B32B13D11C
:105940000B4A10001930002311785B18DBB20132CA
:105950008242F9D1064A527E9A4202D1074B9847B9
:1059600004E0074B984701E0054B984710BDC0463F
:105970000811002000FE0300F5560000115700003A
:10598000D5580000F0B5474680B482B001AC01277D
:1059900067700026A670277021002920134DA847A4
:1059A0008223DB0598468033802292009A6127701B
:1059B00021000520A847202342465361277021007B
:1059C0000B20A84780231B0142465361267021000B
:1059D0000420A847267021000620A8472670210031
:1059E0002420A84702B004BC9046F0BD818D000081
:1059F00070B5012A1BD11A4B0A0A1A5418184170A3
:105A00001923013BDBB2002BFBD1164C2000164EB4
:105A1000B047164D2800B047114E1A223100200021
:105A2000134CA0471A2231002800A04717E00C4B66
:105A300019541923013BDBB2002BFBD1094C200088
:105A4000094EB047094D2800B047054E1A223100D3
:105A50002000074CA0471A2231002800A04770BD43
:105A60000811002000FE0300C556000000FF0300DF
:105A7000D956000010B5824B1B889BB2814A118811
:105A80008B4210D9804B1B780133DBB20A2B02D832
:105A90007D4A13700AE000227B4B1A7001320C2001
:105AA0007A4B984702E00022774B1A70744B5B8860
:105AB0009BB2774A11888B4210D2764B1B78013308
:105AC000DBB20A2B02D8734A13700AE00022714B32
:105AD0001A7001320E206D4B984702E000226D4B88
:105AE0001A70674B1B795BB26B4A002151568B428F
:105AF00010DD6A4B1B780133DBB20A2B02D8674AF0
:105B000013700AE00022654B1A7089B210205F4BB7
:105B1000984702E00022614B1A70594B5B795BB2E7
:105B20005F4A002151568B4210DA5E4B1B780133DD
:105B3000DBB20A2B02D85B4A13700AE00022594BF1
:105B40001A7089B21120514B984702E00022554B40
:105B50001A704B4BDB881BB2534A0021515E8B42BB
:105B600013DD002911DA514B1B780133DBB20A2B0C
:105B700002D84E4A13700BE000224C4B1A7089B2C7
:105B800001321220414B984702E00022474B1A7025
:105B90003B4B1B891BB2444A0021515E8B4213DAF6
:105BA000002911DD424B1B780133DBB20A2B02D8EE
:105BB0003F4A13700BE000223D4B1A7089B201324C
:105BC0001420324B984702E00022394B1A70394BAF
:105BD0001B882B4A52899BB2934213D9364B1B78B0
:105BE0000133DBB20A2B02D8334A13700DE00022D6
:105BF000314B1A702F4B198889B201321620234B72
:105C0000984702E000222C4B1A701D4B1B7B5BB2A5
:105C10002A4A002151568B4211DA294B1B78013355
:105C2000DBB20A2B02D8264A13700BE00022244B69
:105C30001A7089B201321820144B984702E00022F2
:105C40001F4B1A701F4B19881F4B1B888B4212D099
:105C50001E4B1B780133DBB20A2B02D81B4A137090
:105C60000CE00022194B1A70174B198001320A20E0
:105C7000064B984702E00022144B1A7010BDC04634
:105C8000E40F00202A0F002028020020F159000014
:105C9000640F0020200200206C0E0020260200204D
:105CA000F81000201F0200208E0F00201D0200208F
:105CB00027020020300F00202102002004110020C4
:105CC00024020020F40F00202202002025020020E0
:105CD000F0B557464E464546E0B482B082460229AA
:105CE00002D0032903D005E0574B984604E0574BF8
:105CF000984601E0564B984643465F1CFF37082202
:105D000069463800534B98476B461B78FF2B30D1C0
:105D10000024504EE3B29946E50045440822694606
:105D20002800B0476B461B78FF2B1ED100236A4624
:105D3000137053705246120E69468A705246120C06
:105D4000CA705246120A0A716A46514651719371DD
:105D5000D3710822694628003F4B98474B46102BC9
:105D60006BD138003D4B984767E00134402CD1D1CE
:105D700063E000260024374B9946F500ED19082210
:105D800069462800C8476B461B78FF2B1DD10023AE
:105D90006A46137053705246120E69468A70524614
:105DA000120CCA705246120A0A716A465146517163
:105DB0009371D371082269462800274B9847102C0D
:105DC00009D14046254B984737E00134E4B201360B
:105DD000202CD2D101E0202C2FD100251D4EEBB27A
:105DE0009946EC004444082269462000B0476B46BF
:105DF0001B78FF2B1ED100236A4613705370524646
:105E0000120E69468A705246120CCA705246120A25
:105E10000A716A46514651719371D37108226946DD
:105E200020000D4B98474B46102B06D138000B4BEA
:105E3000984702E00135202DD1D102B01CBC90461C
:105E40009946A246F0BDC04600F9030000FB0300DE
:105E500000F70300F5560000D9560000C5560000B3
:105E6000F0B54F4680B484B004000822002102A897
:105E7000374B9847022C02D0032C02D003E0354E5A
:105E800002E0354E00E0354E082202A93000344BC6
:105E9000984702AB1B780024FF2B2FD1751CFF35D0
:105EA000082202A928002E4B984702AB1B78FF2B33
:105EB00039D000272A4B99460197F800401908224B
:105EC00002A9C84702AB1B78FF2B0AD10198013801
:105ED000C0004019082202A9214B9847202C22D14A
:105EE00004E00134E4B20137202CE5D13000F93070
:105EF000FF30082202A91A4B984714E0184FE0001F
:105F00008019082202A9B84702AB1B78FF2B07D1E2
:105F1000601EC0008019082202A9114B984702E0B8
:105F20000134402CEBD102AB98780006DB781B04DF
:105F3000184302AB5B79184302AB1B791B02184371
:105F4000431C00D1002004B004BC9146F0BDC04603
:105F5000CBA2000000F9030000FB030000F70300E0
:105F6000F556000010B50E4B1B780133DBB2032B46
:105F700002D80B4A137012E00022094B1A70094B29
:105F80001A68501C1860084B1B68C31A3B2B06D9B3
:105F90000321064B9847034B1A68034B1A6010BD48
:105FA0001E0200207C0F0020200F0020D15C00008A
:105FB000F0B557464E464546E0B48224E4058023BA
:105FC000636180263605A66180256D05A561FA20EE
:105FD0004000344B984766616561334E00240025CC
:105FE0003480324F3C80324B1C80324B1C80324B11
:105FF0001C80324A324B1A80324B1C80324B1C8040
:10600000324B1C80324B1C80324B1C80324B1D703B
:10601000324B1D70324B1D70324B1D70FF22324BC4
:106020001A700120314B98469847314B9A461860B8
:106030000220C0472F4B994618600320C0472E4BC3
:10604000186053461A682D4B1A604B461A682C4B41
:106050001A602C4B18607A78402313437B702A4BCC
:106060001D76327801210A4332703A78012082434A
:10607000013082433A707278114371701C629C84C3
:10608000DD759D76214B5D7164221A711C81DC8067
:106090001D735C815C80653A1A801CBC90469946F1
:1060A000A246F0BDAD7E0000900F0020241100201C
:1060B00000110020FC100020F40F002018F6FFFF54
:1060C000660F00208E0F00206C0F0020780F00203C
:1060D00002110020280F0020291100202611002085
:1060E000FE1000202C0F0020250F0020615E000014
:1060F000880F0020600F00207C0F0020740F00200C
:10610000680F0020200F0020300F0020E40F002037
:1061100010B5264B1B785B0714D4254B98470028F5
:106120000AD1224A117804230B431370214A1378B1
:106130007F210B40137005E01E4A137880214942ED
:106140000B4313701C4B98471A4B1B8884229200F8
:10615000134205D019490A78022082430A7004E0EC
:1061600016490878022202430A70B02252001342F4
:1061700010D0124A137801218B4313700D4A5178C5
:1061800020230B435370DB070ED5517810230B43AC
:10619000537009E0074A537820218B435370074A14
:1061A000117801230B43137010BDC046900F0020DF
:1061B000F145000000110020114A000024110020C8
:1061C00000B5914B5B78DB0761D48F4B1B789B0745
:1061D00000D490E08D4B1B785BB22D2B04DC8C4BF4
:1061E0001B785BB20A3313DA8A4B1B780133DBB2BC
:1061F0000C2B02D8874A13707DE00022854B1A7061
:1062000081494A7801231343042213434B7072E0FF
:106210000022804B1A70804B00229B5E002B30DDE9
:10622000142B25DD7D4A934217DD7D4B1B7801330E
:10623000DBB2042B02D87A4A137011E00023784AAB
:106240001370784A1380704B197810220A431A7021
:10625000597801220A435A7002E00022704B1A70EA
:1062600069490A7804231343F72213400B7042E074
:1062700000226B4B1A70644A137804218B4313700D
:1062800039E0614A137804218B43137033E05E4B8D
:106290001B78DB0612D50022634B1A70614B1B88FA
:1062A000142B28D95F4B1A80574B1A7810218A4338
:1062B0001A705A780F398A435A701CE0534B1B7876
:1062C0005BB22C2B17DC524B1B785BB2093312DB11
:1062D0004D4A537801218B4303318B435370524B0A
:1062E0001B780133DBB20C2B02D84F4A137002E04B
:1062F00000224D4B1A70444B5B789B074ED4424BA7
:106300001B78DB077ED5414B1B785BB22D2B04DC61
:106310003F4B1B785BB20A3313DA444B1B780133D3
:10632000DBB20C2B02D8414A13706BE000223F4BCA
:106330001A7035494A7802231343082213434B70DD
:1063400060E00022394B1A70334B00229B5E002B19
:106350001EDA2D490A7808231343FB2213400B70E1
:10636000334B1B780133DBB2042B02D8304A137055
:1063700048E000232E4A13702E4A1380224B1978CE
:1063800020220A431A70597802220A435A7039E0CF
:106390001D4A137808218B43137033E01A4B1B7886
:1063A0009B0612D50022244B1A70224B1B88142BFB
:1063B00028D9204B1A80144B5A7802218A435A70EC
:1063C0001A781E318A431A701CE0104B1B785BB29E
:1063D0002C2B17DC0E4B1B785BB2093312DB0A4AFD
:1063E000537802218B4306318B435370124B1B7839
:1063F0000133DBB20C2B02D80F4A137002E00022EB
:106400000D4B1A7000BDC04624110020F81000206A
:106410006C0E00203B0200208E0F0020E9130000CC
:106420002E02002032020020310200203002002023
:106430002F020020400200203A020020134B1B785C
:106440005BB26E2B11DD124B1B780133DBB2082BD4
:1064500002D80F4A137017E009220D4B1A700D4A2B
:10646000517820230B4353700EE0542B0CDC084B67
:106470001B78002B03D0013B054A137004E0054A4A
:10648000537820218B4353707047C046041100207D
:10649000370200202411002070B5324B00229A5E92
:1064A000314B5343314C226ADB139B182362206A21
:1064B000E12189012E4B98470500226A2D4B434369
:1064C0009B182362002818DB2B4B1A688018186071
:1064D0002A4B1B68C31A2A4A934206D90221294B28
:1064E0009847254B1A68254B1A6027490B780322D9
:1064F0009343022213430B7015E0244B1A68101AC1
:106500001860234B1B68C31A1D4A934206D9012108
:106510001C4B98471D4B1A681D4B1A601A4A11787C
:1065200003230B4313702B001D3303DB0F4A536807
:10653000ED1855600D4B5B68002B03DD00220B4B03
:10654000DA600DE0094B5968DA688A18DA600022CF
:106550005A60DA680F4B9A4202DA1A00034BDA608B
:1065600070BDC0468E0F002020BF0200300F0020FB
:1065700095A00000C0C7FFFF600F0020680F00203B
:10658000E7030000D15C000028110020880F0020E4
:10659000740F002050FBFFFF10B5294A1388013308
:1065A0009BB21380274A137801331370264B984708
:1065B000264B1B789A0605D525490A780132D2B2B6
:1065C0000A7006E0224A12782D2A02D00021204AC1
:1065D00011705A0605D51F490A780132D2B20A70E5
:1065E00006E01C4A12782D2A02D00021194A1170A7
:1065F000DB0605D5184A13780133DBB2137006E0C9
:10660000154B1B782D2B02D00022134B1A70134B05
:106610001B789A0604D512490A8801320A8002E0E2
:1066200000210F4A1180DB0604D50E4A138801337E
:10663000138002E000220B4B1A800B4B984710BDD1
:106640002A02002036020020996400000011002078
:106650002911002026110020FE1000202411002006
:106660004002002032020020719800001E4B9B7CEB
:10667000DBB2612B07D91D490B780C22934304220E
:1066800013430B702EE0184B9B7C002B07D117494E
:106690000B780C229343082213430B7022E0134B18
:1066A0001B780C221340042B0AD10F4B9B7CDBB2CE
:1066B0005C2B17D80D4A13780C218B43137011E013
:1066C000082B0AD1084B9B7CDBB2052B0AD9074A61
:1066D00013780C218B43137004E0044A13780C21C7
:1066E0008B4313707047C046300F002028110020E4
:1066F00010B5014B984710BD6D6600003A4B1B88E2
:106700003A4A93420FD93A4A12883A490988521AAA
:1067100092B239490A80082A09D9384908780122F1
:1067200002430A7003E0324A1188324A1180344A27
:1067300093420FD82E4A128832490988521A92B2CF
:106740002D490A800C2A09D92C490A780120824354
:106750000A7003E0264A11882A4A11802A4A934285
:106760000FD9234A128829490988521A92B2284916
:106770000A80082A09D921490878022202430A70AE
:1067800003E01B4A1188214A1180224A93420FD804
:10679000174A128820490988521A92B21C490A8065
:1067A0000C2A09D915490A78022082430A7003E0AD
:1067B0000F4A1188184A1180184A93420FD90C4B7E
:1067C0001B88174A12889B1A9BB2164A1380082B03
:1067D00009D90A4A117804230B43137003E0044BD0
:1067E0001A880F4B1A807047640F00203F35000055
:1067F0002A020020F00D0020BC0D0020700F0020A8
:10680000BB340000D00D002066360000B20D002021
:10681000EC0D0020C2350000B80D00200A37000042
:10682000100E0020EE0D00203A4B1B883A4A93428E
:106830000FD83A4A12883A490988521A92B239490D
:106840000A80082A09D938490878082202430A70C0
:1068500003E0324A1188324A1180344A93420FD9F8
:106860002E4A128832490988521A92B22D490A805A
:106870000C2A09D92C490A78082082430A7003E0BF
:10688000264A11882A4A11802A4A93420FD8234A5D
:10689000128829490988521A92B228490A80082A7E
:1068A00009D921490878102202430A7003E01B4AE3
:1068B0001188214A11801D4A93420FD9174A128824
:1068C0001F490988521A92B21C490A800C2A09D918
:1068D00015490A78102082430A7003E00F4A118894
:1068E000174A1180174A93420FD80C4B1B88164A3F
:1068F00012889B1A9BB2154A1380082B09D90A4AA1
:10690000117820230B43137003E0044B1A880E4BBD
:106910001A8070472A0F0020652600002A020020F6
:10692000B40D0020C20D0020700F0020F6280000DA
:10693000C00D0020D6230000F20D0020DA0D00204B
:10694000080E0020FF1F0000F40D0020BE0D0020E7
:1069500070B5534B00201856524B1B785BB2C018D1
:10696000514B1B785BB2C0180321504B984740B283
:106970000A2803DC002803DC4D4802E04D4800E013
:106980004D484E4B00255D5F040043001818800001
:106990000A21464B9847060085420FDD484B1B886D
:1069A000484A12889B1A9BB2474A1380082B09D980
:1069B000464A117840230B43137003E0404B1A887A
:1069C000404B1A80A0000019400000190A21374BE3
:1069D000984785420FDC3A4B1B883D4A12889B1A28
:1069E0009BB2394A13800C2B09D9384A13784021BD
:1069F0008B43137003E0324B1A88354B1A806000CA
:106A00000019800000190A21284B9847854210DDA3
:106A10002B4B1B882F4A12889B1A9BB22E4A13803D
:106A2000082B0AD9294A1378802149420B43137055
:106A300003E0234B1A88274B1A80B5420FDC204B0A
:106A40001B88264A12889B1A9BB2234A13800C2B60
:106A500009D91E4A13787F210B40137003E0184BAD
:106A60001A881E4B1A802001001B0A210F4B9847E1
:106A700085420FDD124B1B88194A12889B1A9BB264
:106A8000184A1380082B09D9104A517801230B4367
:106A9000537003E00A4B1A88114B1A8070BDC04630
:106AA0005E0F0020260F0020240F002095A000007C
:106AB0001C07000054150000AA0A00008E0F0020D9
:106AC0002A020020AC0D0020D60D0020700F0020FF
:106AD000F60D0020B00D0020FE0D0020E80D002076
:106AE000CA0D0020BA0D0020194B1B88194A1288C4
:106AF0009B1A9BB2184A13800C2B04D9174A517861
:106B000002230B435370124B1988154A11801B88BE
:106B1000144A12889B1A9BB2134A13800C2B04D977
:106B20000E4A517804230B435370094B19880F4ABE
:106B300011801B880E4A12889B1A9BB20D4A138043
:106B40000C2B04D9054A517808230B435370704726
:106B50002A020020060E00200A0E0020700F0020DE
:106B6000C80D0020D20D0020E60D0020EA0D002007
:106B7000CC0D0020D40D0020384B1B785BB22D2BA0
:106B80000FDD374A128837490988521A92B23649BE
:106B90000A800C2A09D935494878102202434A70E4
:106BA00003E02F4A11882F4A1180292B0FDC2C4A31
:106BB00012882F490988521A92B22B490A800C2A4E
:106BC00009D92A494A78102082434A7003E0244AAE
:106BD0001188274A1180322B0FDD214A128825495E
:106BE0000988521A92B224490A800C2A09D91F49ED
:106BF0004878202202434A7003E0194A11881D4A4E
:106C000011802C2B0FDC164A12881C490988521A55
:106C100092B219490A800C2A09D914494A782020CD
:106C200082434A7003E00E4A1188144A1180372BC0
:106C30000FDD0B4B1B88124A12889B1A9BB2114A1C
:106C40001380142B09D9094A517840230B43537000
:106C500003E0034B1A880A4B1A807047F810002093
:106C60002A020020E00D0020020E0020700F0020FC
:106C7000FC0D0020FA0D0020CE0D0020E20D0020BA
:106C8000DE0D0020DC0D00201B4B1B881B4A13422D
:106C900004D0802292001A4B5A612BE0194A00213D
:106CA000525E002A0BDD18490B4203D117490978BF
:106CB000C90604D580229200114B5A611AE0002ABD
:106CC00008DA0D4A1278120704D5802292000C4B84
:106CD0005A610FE00E4A134203D10C4B1B789B06FE
:106CE00004D580229200064B5A6103E08022920074
:106CF000034B9A617047C046700F0020B66D0000CC
:106D0000800000418E0F002041100000281100205B
:106D100008100000374B00229A562D2A04DC364B0F
:106D20001B785BB20A330FDA344B1B88344909886D
:106D30005B1A9BB233490B800C2B09D93249087876
:106D4000102303430B7003E02C4B19882C4B198044
:106D5000272A14DC284B1B785BB204330FDB274B4C
:106D60001B882A4909885B1A9BB226490B800C2B89
:106D700009D925490B78102083430B7003E01F4B82
:106D80001988224B19802D2A04DC1B4B1B785BB21F
:106D90000A330FDA194B1B881D4909885B1A9BB20D
:106DA0001C490B800C2B09D9174908782023034371
:106DB0000B7003E0114B1988154B1980272A14DC3E
:106DC0000D4B1B785BB204330FDB0C4B1B88124A54
:106DD00012889B1A9BB20F4A13800C2B09D90A4ABE
:106DE000137820218B43137003E0044B1A88074B60
:106DF0001A807047F81000206C0E00202A02002034
:106E0000E40D0020D80D002028110020000E0020E5
:106E1000040E0020C40D0020C60D002010B5074B45
:106E20009847074B9847074B9847074B9847074B9E
:106E30009847074B9847074B984710BDFD660000E1
:106E40002968000051690000E96A0000796B0000C0
:106E5000896C0000156D000010B53B4B1A883B4B48
:106E60001B88D01A3A49884202DD3A49098803E072
:106E7000384908883849088038498B420DD8354947
:106E8000098837480088091A89B2782909D935480C
:106E9000047802212143017003E02E49088830491B
:106EA000088031498A420DD92A4909882F4800882B
:106EB000091A89B2782909D92A480478022121437C
:106EC000017003E0234908882849088028498B423B
:106ED00002D82049098803E01E490888254908800E
:106EE00025498B420DD81B4B1B88244909885B1A06
:106EF0009BB2082B0ED922490878402303430B701C
:106F000008E0144B19881D4B19801D490B7840204F
:106F100083430B701B4B9A420ED90E4B1B88174AAA
:106F200012889B1A9BB2082B0BD9154A1378802123
:106F300049420B43137004E0114A13787F210B4040
:106F40001370114B984710BD640F00202A0F0020CA
:106F5000660600002A0200203402002032130000DE
:106F60003C020020F40F00200A3700003E020020FF
:106F70006F1D00002C020020652600003802002052
:106F8000900F0020243600001D6E000010B5044B49
:106F90009847044B9847044B9847044B984710BDBB
:106FA00011610000C1610000596E00003D640000E5
:106FB000F0B5041E104B9C421AD0322065210022ED
:106FC0000E4EFF250CE05318D80FC3185B10D8B233
:106FD0002B405B009B5BA3420DD08F1A012F09D081
:106FE0009C4201D3020000E001009142EBD802E094
:106FF000322000E01000F0BD660E000088A4000002
:1070000070B5BC4B1B88B5339BB2B522520093427E
:107010005BD8B94A537810218B4353700022B74B89
:107020001A70B74B1B88002B2CD1B64B1888B64B67
:1070300018800132B24B1A80B44B5843800BB44BCA
:107040009847B44B9B7CDBB2984205D9B14B9B7CF3
:10705000C01AB14B188004E0AE4B9B7C181AAE4BA3
:107060001880AD4B1988002908D0494389B2962071
:107070000001AA4B9847A84B188039E07822A64B0C
:107080001A8035E001339BB29D4A1380A24A1288D0
:107090009A422DD29B4B1A889B4B1B889A4202D94D
:1070A000D31A9BB201E09B1A9BB2F422FF329342A7
:1070B00007D8914A517802230B4353700122984B11
:1070C0001A7000228E4B1A8012E08C4B1B78013311
:1070D000DBB2032B02D8894A137009E00023874AE8
:1070E0001370874A1380844A517810230B435370DE
:1070F0008C4B1B785BB20A2B00DC9DE07D4B1C881F
:10710000894BE3189BB29F22D20093424FD8874B02
:107110001B78002B07D17B4B1A88854B1A800122E4
:10712000824B1A7046E00133DBB2804A1370282B81
:1071300040D97F4B1B88734A1288934233D99B1ADC
:107140009BB2F421FF318B422DD8704D6A43950BD1
:10715000A8B26F4B9847774B9D4212D86D4B9B7CE2
:10716000053B98421FD26B4B9B7CDBB2052B1AD997
:10717000614A517802230B4353700522684B1A7001
:1071800011E0644B9B7C0F3B98420CD2614B9B7C83
:10719000DBB20F2B07D9584A517802230B435370A7
:1071A0000F225F4B1A700022604B1A7002E000221F
:1071B0005E4B1A70B73CA4B29F23DB009C4238D8C8
:1071C0005D4B1B78002B07D14E4B1A88584B1A8009
:1071D0000122594B1A702FE00133DBB2564A13706B
:1071E000282B29D9524B1B88464A128893421CD21D
:1071F000D31A9BB2F421FF318B4216D84348504337
:10720000800B434B9847434B9B7C0F3B98420CD2DF
:10721000404B9B7CDBB20F2B07D9374A51780223B6
:107220000B4353700F223E4B1A700022424B1A70D0
:1072300002E00022404B1A702F4B5B789B0758D519
:10724000304B1888314B5843800B314B9847020024
:1072500029494C78102323434B702E4B9B7C30499B
:107260000978C31A8B421ADD2A4B9B7CDBB2984209
:1072700015D9284B9B7CC31A9B0805D01E4D6C78F2
:107280001026B4436C7000E00123224DEC7DDBB28C
:10729000E41A64B2EC75AC7CE318DBB2AB741D4B42
:1072A0009B7C1B1A99421FDA1A4B9B7CDBB29A42D9
:1072B0001AD2184B9B7C181A800805D00E4A5378B6
:1072C00010218B43537005E00B4A517810230B4378
:1072D000537001200F4AD37DC0B21B185BB2D37527
:1072E000937C181AC0B29074034A537802218B43DE
:1072F000537070BD8E0F0020900F002056020020AA
:1073000046020020280F00204A02002088130000B7
:10731000B16F0000300F0020120E002095A0000079
:10732000440200206C0E0020AF050000480200203F
:10733000540200207F0C00004302002010B5584B7F
:1073400000229B5E1A00B6323CDA564B1B785BB2C9
:10735000272B28DC544B1B785BB20A2B23DD002241
:10736000524B1A70524B5B78DB0600D497E0514BBE
:107370001B78002B0ED101324E4B1A7000234E4A5F
:1073800013704E4A13704E4B5A689A609A7CD2B270
:10739000DA7484E0484B1B78012B00D07FE0002298
:1073A000444B1A707BE0414B1B780133DBB2032B5B
:1073B00002D83E4A137072E000233C4A13703D4AE3
:1073C00013706CE0B52B65DC3A4B1B78012B66D152
:1073D0000122394B1A70364B5B78DB065FD5384992
:1073E0000A888B684968D2085B1A9A4243D2002205
:1073F000304B1A70334B5B78DB0706D4304B59683F
:10740000314A11609A7C314B1A702D4CA268E068A9
:107410002D4B1B68D31A1B1A64205843E37C2B4A5C
:107420001178591A2A4B984723889BB2984210D951
:107430002388C31A274A934208D880B22080218823
:1074400089B201220220244B984714E01C4B1B8870
:1074500011E01B4B1B881B1A1E4A934209D880B2AD
:10746000174B1880198889B2012202201A4B9847BD
:1074700001E0134B1B88114B1B780133DBB2142B3B
:1074800002D80E4A13700AE000230C4A1370094A0E
:10749000137004E00023074A1370074A137010BDED
:1074A0008E0F0020F81000206C0E002051020020EA
:1074B000900F002042020020450200204C020020D4
:1074C000300F002000110020580200205002002040
:1074D000819F0000AF040000F159000010B5214A5F
:1074E000937C127DDBB293421AD91E4A937C127DA3
:1074F0009B1A002B14DD1C4B1B780133DBB20A2BCB
:1075000002D8194A13700BE00022174B1A70154B62
:107510009A7CD2B21A75997C00220120134B9847AD
:10752000104A937C127DDBB293421AD20D4A137D2E
:10753000927C9B1A002B14DD0B4B1B780133DBB2C2
:107540000A2B02D8084A13700BE00022064B1A706F
:10755000044B9A7CD2B21A75997C00220120034B0D
:10756000984710BD300F002049020020F15900005B
:1075700010B5864B1B7E002B31D1844A937D927CC3
:10758000DBB2934204D2814A937CDBB2937529E04B
:107590007E49887D8B7CCA7D52B2D31AC3185BB2F8
:1075A000CB758B7CDBB28B75CB7D5BB2062B19DD8B
:1075B000CB7D5BB2642B01DD0022CA75734CA38CBA
:1075C00001339BB2A3840023E375A18C89B201220D
:1075D00004206F4B9847A37CDBB2237602E00022A5
:1075E0006A4B9A756B4B00229B5EB62B11DD674B85
:1075F0001B7E002B0DD0684A138801339BB2138089
:1076000096221201934204D90023604A1376624AFB
:1076100013805E4A537E927CDBB2934203D25B4A74
:10762000937CDBB2537659494A7E887C8B7E9B18CB
:107630001B1ADBB28B768B7EDBB2322B0BD9CB8C59
:1076400001339BB2CB8400238B76C98C89B2012293
:1076500006204F4B9847514B1B88514A934221D8E3
:107660004A4BDB7EDBB2C72B04D8484AD37E0133BA
:10767000DBB2D376454BDB7EDBB2322B21D9434BD9
:10768000DB7EDBB2632B1CD8404AC823D376D38C75
:1076900001339BB2D384D18C89B2012206203C4BAA
:1076A00098470EE03F4A934203D90022374BDA76DF
:1076B00007E0364BDB7EDBB2C72B02D80022334B10
:1076C000DA76344B00229B5EB62B22DD2F4A137FE5
:1076D000927CDBB2934203D92C4A937CDBB21377C2
:1076E0002A498A7C087F4B7F9B181B1ADBB24B7799
:1076F0004B7FDBB2322B11D90B8D01339BB20B8543
:1077000000234B77098D89B201220820204B98472E
:1077100004E01E4B64221A7700225A77224B1B8802
:10772000224A934221D9194B9B7FDBB2C72B04D845
:10773000164A937F0133DBB29377144B9B7FDBB206
:10774000322B21D9114B9B7FDBB2632B1CD80F4A04
:10775000C8239377138D01339BB21385118D89B2A2
:10776000012208200A4B98470EE0114A934203D8A1
:107770000022064B9A7707E0044B9B7FDBB2C72BB6
:1077800002D80022014B9A7710BDC046300F00206E
:10779000F15900008E0F00204E0200202A0F002019
:1077A00065260000C92C0000640F00207934000019
:1077B0005B2F000070B5474B1B88474A93422AD97C
:1077C000464A1278002A26D1454A5278D20722D456
:1077D000444A1278D20711D443485843800B434B94
:1077E0009847434CA074A17C00220120414B98474C
:1077F000A37CDBB22375A37CDBB263753C4CA07C1D
:107800002388584364213C4B984760600023E36021
:107810000122324B1A70394B9847394B98472D4B00
:107820001A882D4B9A423CD9314B5A681B889BB21F
:107830009A4203DD2E4A13889BB25360284B5B7833
:10784000DB070BD52A4B59682E4A116000225A607B
:107850009A7CD2B25A759A7C2B4B1A70244D686868
:10786000298889B2AC7CE4B264235843224B984700
:10787000C0B26B7DE41A0419E4B2AC746875AB7CD9
:10788000DBB2C82B02D86B68002B02D10022184B48
:107890009A74174B9B7CDBB2642B02D96422144B85
:1078A0009A74134B1B7E002B0ED0114A137E927CD0
:1078B000DBB2934208D20E4A937C127E9B1A072BAE
:1078C00002DD00220A4B1A76104B9847104B98475E
:1078D00070BDC046280F00209919000052020020F8
:1078E00000110020FC10002088130000B16F000080
:1078F000300F0020F1590000819F0000017000004E
:107900003D7300005802002050020020DD7400008A
:1079100071750000024A517801230B435370704780
:10792000900F002010B50A0001000248024B984752
:1079300010BDC046140E00205595000010B50A0079
:10794000002301000148024CA04710BD140E002086
:107950006993000010B5012202490348034B984780
:1079600010BDC046200E0020140E002061940000BF
:10797000F0B5474680B492B0454C112323700023E4
:107980006370A370012269464A708B700A701120DF
:10799000404B98472378DA090021002A05D159097C
:1079A000C9018222D205944661441F2213401E3A27
:1079B00010009840886104AC227000230593237462
:1079C0006374A274E27423752332A354183A00211D
:1079D0000AA8314B9847314BA36180235B05A36014
:1079E00080235B02E3602E4BA36201235B42E362D0
:1079F0002C4B23632C4B63632C4D22002C49280015
:107A00002C4B98472A68D369002BFCD111680233AC
:107A10000B431360284B984703AC00252570A570D5
:107A20006570210030201B4B98469847012727702E
:107A300021000720C0478226F6058023B361277006
:107A400021000A20C0478023DB00B361277021009A
:107A50003120C047803680239B0273616846174BF4
:107A600098470D23009301956B461D72DF7269469E
:107A70000D20134B984700220D211248124B9847B6
:107A800000210D20114B984712B004BC9046F0BD68
:107A9000200E0020818D0000CBA20000A0860100F6
:107AA000020010000200120002001300140E002059
:107AB000000800424190000055790000D98900007B
:107AC000ED89000015790000618800008D880000B4
:107AD00010B5002202490348034B984710BDC04629
:107AE000200E0020140E00206194000082B06B462E
:107AF0000022DA7107331B78DBB2072B09D86B46FB
:107B0000DA1D13780133DBB213701378DBB2072B65
:107B1000F7D902B07047C04610B500280DD00B0051
:107B20000138C0B2013009180020054C1A785040C5
:107B3000205C01338B42F9D100E0002010BDC0462B
:107B400054A50000F0B55F4656464D464446F0B495
:107B500083B0914640001E2738404B009846130AD8
:107B60009B460326254B9A46254D3E3F07430197EA
:107B7000D0476B461B792B7043466B705B46AB70EE
:107B80004B46EB70290004201E4B984728710521B5
:107B900028001D4B98471D4B1C6A1B6AE403E40F29
:107BA000DB030ED41A4B194A012080214902146AC2
:107BB000240C0440176A0F4203D1013B9BB2002BF7
:107BC000F5D16420134B9847012C03D1124B9847F1
:107BD00000200BE064200F4B98470F4B98470F4B4A
:107BE0009847013EF6B2002EC2D1012003B03CBC42
:107BF00090469946A246AB46F0BDC046D17A0000F9
:107C00005C020020197B0000257900008000004103
:107C10000F270000817E000055790000ED7A0000FA
:107C2000F0B557464E464546E0B482B0019240005A
:107C30001E2738404B00984603262C4B9A462C4C66
:107C40003D3F0743B946D0474B46237043466370D8
:107C500021000220274B9847A07003212000264BCB
:107C60009847264B1A6A1B6AD203D50FDB030FD441
:107C7000234B22490127802040020A6A120C3A4015
:107C800015000A6A024203D1013B9BB2002BF4D1DA
:107C900064201C4B9847012D18D11B4C0321200058
:107CA0001A4B98471A4B984721000220114B9847CE
:107CB0000300A27802209A4211D1134A13781B02C2
:107CC0005278D318019A1380002008E0104B98478F
:107CD000104B9847013EF6B2002EB4D1012002B0FD
:107CE0001CBC90469946A246F0BDC046D17A000021
:107CF0005C020020197B0000257900008000004113
:107D00000F270000817E0000640200203D79000002
:107D100055790000ED7A0000F8B55F4656464D46AD
:107D20004446F0B4914640001E2630404B009B462E
:107D30000325364B9846364C3D3E0643B246C04777
:107D40005346237001235A46134363707F234A46E8
:107D50001340A370210003202E4B9847E0700421AC
:107D600020002D4B98472D4B1A6A1B6AD203D60F61
:107D7000DB030FD42A4B29490127802040020A6ADD
:107D8000120C3A4016000A6A024203D1013B9BB230
:107D9000002BF4D16420234B9847012E29D1224C8B
:107DA000AD212000214B9847214B9847214B984704
:107DB000E3783B2B09D100221F4B1A701F4A117820
:107DC00001230B43137000201AE01B4B1B78013377
:107DD000DBB2082B03D0184A1370002010E00022F9
:107DE000154B1A70154A137801218B43137000202C
:107DF00006E00F4B9847013DEDB2002D9FD10120C9
:107E00003CBC90469946A246AB46F8BDD17A0000EC
:107E10005C020020197B00002579000080000041F1
:107E20000F270000817E0000720E00203D790000C7
:107E300055790000ED7A000061020020900F0020CB
:107E400070B50020084B98470500084CFA218900BE
:107E5000A047074B186007492800A047064B186049
:107E60000522064B1A6070BD959B0000819F0000A3
:107E70000800002040420F000400002010E000E055
:107E800030B5084B1C68084A00258021490206E0ED
:107E9000002C04D05460956013680B42FCD001386C
:107EA000F6D230BD0400002010E000E030B5084BF1
:107EB0001C68084A00258021490206E0002C04D0F5
:107EC0005460956013680B42FCD00138F6D230BD87
:107ED0000800002010E000E010B582B06A46084BB0
:107EE00012CB12C2009B984205D00023019A824215
:107EF00003D1013300E00023DBB2180002B010BD53
:107F000028A7000010B5002300220370437083707F
:107F1000C370002103830362C36101240471C02480
:107F20006401C480017242728272C27202732A2496
:107F3000025542738273C27303610275063C025597
:107F4000C3840385417510BDF0B55F4656464D4666
:107F50004446F0B49DB005000E0017000800C64B63
:107F60009847040000902E60C44AD1698000C44B39
:107F7000C3580B43D36133780520DB0700D535E2C6
:107F80002A68138C9BB2002BFBD133781C209B07F3
:107F900000D52BE27B782B71002B04D1B94AD16933
:107FA00004330B43D3612B689A463B7802AA1370C3
:107FB000B54B1E5D11003000B44B98473000B44BF8
:107FC00098473B79984604AEB24B9C461A0008325B
:107FD000310049CA49C149CA49C149CA49C149CA06
:107FE00049C110A9634638330A0043CB43C243CB8F
:107FF00043C243CB43C243CB43C2009B002B03D0BD
:1080000010A9012B03D001E004A900E00021A30086
:10801000A14A9B58994698450CD843469800405829
:1080200003A900234B70CB708B7001330B70C0B26F
:108030009A4B9847FB88984604AE964B9C461A008C
:108040000832310049CA49C149CA49C149CA49C16E
:1080500049CA49C110A9634638330A0043CB43C219
:1080600043CB43C243CB43C243CB43C2009A002A13
:1080700003D010AB012A03D001E004AB00E00023E1
:10808000C84500D9ACE142469000C05803A900237E
:108090004B70CB708B7001330B70C0B27F4B984725
:1080A0009EE15B46424693403A691A4230D004A8AA
:1080B000784B0833020043CB43C243CB43C243CB8C
:1080C00043C243CB43C210A8724B3833020043CBA8
:1080D00043C243CB43C243CB43C243CB43C2009AC8
:1080E000002A03D010AB012A03D001E004AB00E06A
:1080F0000023019A4A450BD89100C85803A90023D0
:108100004B70CB708B705B460B70C0B2634B984763
:1081100046460136F3B2984601934B45C1D97B7B65
:108120009A01BB7BDB011343DBB2524613703B7DEC
:10813000DB017A781343DBB252469370FB78342B21
:1081400000D94BE19B00564AD3589F46042010218A
:1081500002221AE07A7A387A102116E006201021DD
:10816000012212E00820102100220EE00020302120
:1081700000220AE000202021002206E00020002149
:10818000002202E00220102101221201702313407C
:108190000343524613732A68138C9BB2002BFBD106
:1081A0007B7D17203F2B00D920E1FA7BD2011343BE
:1081B000DBB2524653732A68138C9BB2002BFBD15F
:1081C000BB78524653702423FA5CD2003B7B9B0061
:1081D0001343FA7A1A43BB7A5B0013430B435246AC
:1081E00053812A68138C9BB2002BFBD13B8B002B55
:1081F00000D191E0102975D002D8002954D08BE02D
:1082000020291AD0302900D086E0FA7A002A0AD034
:10821000FA6980321720FF2A00D9E7E03A6A8032F3
:10822000FF2A00D9E2E01720FA69FF2A00DDDDE02D
:108230003A6AFF2A00DDD9E06EE0FA7A002A0FD010
:10824000FA69802189008C466244172015498A42C8
:1082500000D9CBE03A6A624412498A4200D9C5E0AB
:108260001720104AF969914200DDBFE0396A914256
:1082700000DDBBE050E0C046D97E000000080040B1
:1082800094A7000000180040A0A70000719C000007
:10829000019C000028A70000A4A700006D9D00001D
:1082A00054A60000FF030000FA7A002A0FD0FA69F2
:1082B000802109018C466244172050498A4200D926
:1082C00094E03A6A62444D498A4200D98EE0172010
:1082D0004A4AF969914200DD88E0396A914200DD3D
:1082E00084E019E0FA7A002A0ED0FA6980210902A6
:1082F0008C466244172042498A4200D976E03A6AA5
:1083000062443F498A4271D817203D4AF969914237
:108310006CDC396A914269DC5246528913435246F9
:1083200053812A68138C9BB2002BFBD1BB8B524626
:10833000D3812A68138C9BB2002BFBD13B8C524615
:1083400013822A68138C9BB2002BFBD13A79FB88ED
:108350001343524613812A68138C9BB2002BFBD126
:108360002A33FB5C5246D370072313711D33FB5C29
:10837000002B1BD0FB8C1720204A934236D8524644
:1083800053822A68138C9BB2002BFBD13A8D802339
:108390001B01D3189BB2172018498B4226D853468D
:1083A0009A822A68138C9BB2002BFBD1A200154B3A
:1083B000D3581549095D1B68CB401B02E021C90059
:1083C0001940124BD358124A125D1B68D340072242
:1083D00013400B4352469385002007E0172005E029
:1083E00000230193984601339B465AE61DB03CBCDE
:1083F00090469946A246AB46F0BDC046FF0F00002E
:10840000FFFF0000B4A7000090A70000ACA7000089
:108410009CA7000003680A4A934206D1094A1369DF
:10842000802149000B43136108E0074A934205D1BC
:10843000044A1369802189000B4313617047C046C9
:10844000001C00420008004000200042F8B50C006B
:1084500015000160A64B9847A64B00221A702A7897
:108460001A70A54B9C423CD1A2491A20A34B9847B5
:108470001A20A34B9847A04B996902220A439A619C
:10848000A04A1204120C8027BF033A4384215A5099
:108490009D480004000C80267603304388229850C3
:1084A0009A490904090C394318329950984A120420
:1084B000120C3243B0215A50964A1204120C04395D
:1084C0005A50954A1204120C94490A43C0215A503A
:1084D000934A1204120C802109030A43F0215A50D6
:1084E0003FE0904B9C4200D0FCE082491B20834B34
:1084F00098471B20824B98478A4B996902220A436E
:108500009A61894A1204120C802189030A4384214A
:108510005A5086490904090C8020400301438822EF
:10852000995083490904090C014318329950814A32
:108530001204120C0243B0215A507F4A1204120C4A
:1085400004395A507D4A1204120C74490A43C0215E
:108550005A507B4A1204120C802109030A43F0216D
:108560005A500023BC22A3500C32A350754BE36138
:10857000754BE360AB7B002B04D0E36880221204D0
:108580001343E3606B78002B03D0A26840231343AE
:10859000A3606369AA7813436361EB78002B04D06E
:1085A000A3698022D2011343A3612B79002B04D04D
:1085B000A369802292011343A3616B79002B04D03D
:1085C000A369802252011343A361AB79002B03D12D
:1085D000A26940331343A361EB79002B03D0A26956
:1085E00010231343A3612B7A002B03D0A269082325
:1085F0001343A3616B7A1B04F02212031340012280
:10860000134323622A7B6B7B13436A89120413434F
:10861000A362EB7B1B02FE22D201134019002A7CCD
:108620007F231A400B001343A3646B7C1B01302192
:108630001940AA7C92000C2313400B438022A350C4
:10864000EB7C002B03D0A15802230B43A3502B7DBE
:10865000002B04D08022A15801230B43A350902368
:10866000AA69E2502B7F002B05D0A022A3588021BD
:1086700009060B43A350A02022586B7F1B06FE2146
:10868000C9050B4013432350AB7F002B05D0B0220C
:10869000A358802109060B43A350B0202258EB7F3A
:1086A0001B06FE21C9050B40134323502023EB5C1E
:1086B000002B05D0C022A3588021C9050B43A3502D
:1086C000F02022582123EB5C1B06FC2189050B407E
:1086D000134323500323E365043BE022A3500432F9
:1086E000A35004E0A26902231343A36139E7F8BD54
:1086F00015840000240E0020001C0042719C000024
:10870000019C0000E8060020E8050020E80A00209F
:108710006802002068090020E80700200000040427
:10872000A80A0020002000426806002068050020FA
:108730006803002068040020680800206807002003
:10874000680A0020030A0306330A030002689369DB
:1087500001218B439361016801228B691A42FCD18C
:108760007047C04610B503680948834205D10968BF
:108770009200084BD150002008E01720064CA3427D
:1087800004D109689200054BD150002010BDC046AD
:10879000001C0042E806002000200042680600207D
:1087A00070B50D0003680C4CA34208D112010B49AF
:1087B0008918102228000A4B984700200BE0172048
:1087C000084CA34207D1120107498918102228003A
:1087D000034B9847002070BD001C0042E80A0020AF
:1087E000B9A20000002000426803002010B5036811
:1087F0001748834213D10B68164C100103514A6885
:1088000023185A600B0008330830221810311878EA
:108810001070013301328B42F9D1002017E017208C
:108820000D4CA34213D10B680C4C100103514A6844
:1088300023185A600B00083302000832A2181031C6
:1088400018781070013301328B42F9D1002010BD2D
:10885000001C0042E80700200020004268070020BA
:108860001723002A0DD18B00074A9B58002B03D1F8
:1088700089008850002304E0834201D01D2300E0DA
:10888000002318007047C046280E00201723002937
:1088900007D100221F2800D8034A01238340136117
:1088A000002318007047C0460028004070B5002221
:1088B000154B1A7000231F25144E134C1F2B19D96A
:1088C0000FE0002100E012494A619B009B59002BF8
:1088D00000D0984723780133DBB223700F2BEDD9FA
:1088E00011E02900194001228A4000214969114202
:1088F000E7D1EFE72900194001228A40044949697C
:108900001142E0D1E6E770BD250E0020280E0020C0
:1089100000280040064A117802230B4313700221FD
:10892000012053681942FCD153681842F9D17047AD
:1089300000280040064A137802218B43137001205F
:1089400053681942FCD153681842F9D17047C046A8
:108950000028004000B583B0184A53698021C9003F
:108960000B43536101A900230B700220144B98475D
:108970000220144B9847144A117801230B431370BB
:108980000221012053681942FCD15368184209D0D2
:10899000F8E704C38B42FCD108220C4B1A600C4B45
:1089A000984709E0084A137810218B431370094B4C
:1089B000190040310022ECE703B000BD0008004080
:1089C000719C0000019C00000028004000E100E0D4
:1089D00015890000280E0020002303604360012257
:1089E000027283720132C27243727047F0B583B073
:1089F00005000C001B4B984701A900234B70CB705E
:108A000023790B70237A8B702078174B98470020BE
:108A10001F2D00D81548072129408900E27AA37A42
:108A2000002B01D008231A43EB089B00C318DE6912
:108A30000F278F40BE438A403243DA61637A002BAE
:108A400005D082690123AB401343836106E083694B
:108A50000122AA401B041B0C93438361044B9847DB
:108A600003B0F0BD358900006D9D00000028004076
:108A70001589000010B51F4A916904230B439361C7
:108A80001D4B2022FF321A831A7D0523D2072ED5D3
:108A900003790224002B00D0C47803781B02C02283
:108AA000920013404278D201FF210A40134319007B
:108AB000827852001E231A400B001343427912049D
:108AC000C02189020A401343A40423430A4A536085
:108AD00093685B035B0F094908249C400C809368F2
:108AE0004B8043780B71138BDB05DB0F1B011800E8
:108AF00010BDC0460008004000400041E80C0020C6
:108B000030B50400264A1088538843438B420BD269
:108B100080229201234BCB18934205D91820224A78
:108B2000224BCB18934239D8214A5568214B2B4010
:108B30008020C002034353602023FF331383137D3F
:108B4000DB0702D45560052028E0452C15D8A3008A
:108B5000194AD3589F46164B1B8BDB0503D5144B84
:108B60005D6010201AE089084900114BD96108E0C6
:108B7000890849000E4BD96103E00D4B5D60172059
:108B80000CE0A52000020443094B1C8019000122BF
:108B90000B7D1342FCD0064B5D60002030BDC0460B
:108BA000E80C002000C07FFFFF1F00000000C0FF96
:108BB00000400041FFFFF3FFBCA70000F8B52B4BBE
:108BC0001C885B886343834207D21823284E294DB3
:108BD00045190127B54201D946E0002717239442E1
:108BE00042D3254B1C7D0523E4073DD5234C224B66
:108BF0001C801D0001242B7D2342FCD02024FF3447
:108C00001D4B1C834608002A29D076000023541EE1
:108C1000A446CD5C634501DBACB203E0CC186478BC
:108C200024022C43348002339BB202369A42F0D89D
:108C30000E4B19790023002916D13F2A14D8002F92
:108C400006D0002201001C200D4B984703000BE0CA
:108C50000022010004200A4B9847030004E0034B64
:108C60001A790023002AEAD01800F8BDE80C002089
:108C7000FF1F00000000C0FF0040004144A5FFFFAF
:108C8000018B000070B5194B1C885B8863438342DD
:108C900005D21823164E174D4519B54223D8172370
:108CA000944220D3144B1C7D0523E4071BD52024BC
:108CB000FF34114B1C834008002A13D040000025CC
:108CC000561E2B181C88A4B22B041B0CCC54B34288
:108CD00002DACB18240A5C700235ABB29A42F0D8A3
:108CE000002300E00023180070BDC046E80C0020FF
:108CF000FF1F00000000C0FF0040004110B51A4AED
:108D0000138852885A43824207D21822174C1849B6
:108D10004118A14226D8012100E000219B00013B1F
:108D2000182218421ED1134B1B7D133ADB0719D5AD
:108D3000104B2022FF321A8380084000D86100299E
:108D400001D10D4A00E00D4A0A4B1A801900012298
:108D50000B7D1342FCD0074B1A8B1C231A40501E6C
:108D600082419200100010BDE80C0020FF1F00009F
:108D70000000C0FF0040004102A500001AA500004D
:108D800000B583B001AB80221A700A785A704A7815
:108D90009A708A78DA701900014B984703B000BDC9
:108DA0006D9D000010B5490840230024814201D286
:108DB0000AE01C00091A631C9BB28842F9D94023BF
:108DC000FF2C01D814800023180010BD10B582B00C
:108DD00004000E4B1B78002B01D000290DD001A9F7
:108DE0000C7012200A4B984712200A4B9847074BE9
:108DF0005C7001221A70002006E0044B5B7883420D
:108E000001D01D2000E0002002B010BDF00C0020B9
:108E1000719C0000019C0000444B984233D006D85E
:108E2000434B98420DD0434B98421BD06FE0424BCE
:108E300098424AD0414B984258D0414B984266D113
:108E400032E0012906D0002963D0022906D0032987
:108E500006D001E03B4867E0002065E03A4863E067
:108E60003A4861E0012906D0002954D0022906D0F1
:108E7000032906D001E0364856E0002054E035488A
:108E800052E0354850E0012906D0002945D002299A
:108E900006D0032906D001E0304845E0002043E039
:108EA0002F4841E02F483FE0012906D0002936D065
:108EB000022906D0032906D001E02B4834E0002027
:108EC00032E02A4830E02A482EE0012906D0002965
:108ED00027D0022906D0032906D001E0254823E047
:108EE000002021E024481FE024481DE0012906D08D
:108EF000002918D0022906D0032906D001E0204815
:108F000012E0002010E01F480EE01F480CE0002097
:108F10000AE01E4808E01E4806E01E4804E01E481D
:108F200002E01E4800E01E487047C046000C0042A8
:108F300000040042000800420014004200180042F1
:108F400000100042030005000300060003000700B4
:108F500002001100020012000200130002000D00C6
:108F600002000E0002000F000200170002001800AD
:108F7000020019000300290003002A0003002B004F
:108F8000030023000300200003002100030004006D
:108F90000200100002000C0002001600030028006E
:108FA0000300220030B587B00C4B6A4632CB32C288
:108FB00032CB32C2009B834206D001239A0069461D
:108FC0005258824203D100E00023D8B203E00133BB
:108FD000062BF3D1002007B030BDC046D4A8000056
:108FE00010B5024B1B680020984710BDF40C002000
:108FF00010B5024B5B680120984710BDF40C0020AF
:1090000010B5024B9B680220984710BDF40C00205D
:1090100010B5024BDB680320984710BDF40C00200C
:1090200010B5024B1B690420984710BDF40C0020BA
:1090300010B5024B5B690520984710BDF40C002069
:10904000F0B557464E464546E0B488B080460E001F
:109050001400030019600B689B0700D4A7E0936A13
:109060000393D36A0493136B0593536B0693002702
:109070001F239946F9B2BB0003AA9858002802D1D1
:109080003000AF4B9847431C28D00204130C9C4679
:10909000000CC1B20025030604D44B09DB01822277
:1090A000D2059D184B460B40E818403000788246A8
:1090B00080205246D2070AD55B08EB183033187867
:1090C000C0B2CB0701D5000901E00F231840844549
:1090D00004D00023424613601C202BE10137042FEB
:1090E000C8D11220974B984723780027012B12D123
:1090F00002AA0100A069944B984703001720002B97
:1091000000D017E1337BDBB202AA127805309A4215
:1091100000D00FE10C372578002D14D13268E37FA1
:109120001B04A17F0B431C20934200D002E1A169E4
:10913000A38B2022A25C002A01D0402213430822E4
:109140000A43174300E000236268A1680A43E1680C
:109150000A433A43217C0B43617C002901D08021E2
:109160000A43A17C002902D0802189020B43E17CC3
:10917000002902D0802189000B43217D002902D0E3
:10918000802189010B43306802210A43824209D1C0
:1091900072689A4206D143465D71237C42469371C0
:1091A0000020C7E00023424613601C20C2E00B6889
:1091B0000520DB0700D5BDE00800644B9847052873
:1091C00002D0451C133001E0192006256049CA6908
:1091D0000123AB401343CB6107A92427E35D0B7048
:1091E000C5B228005B4B984728005B4B9847E05D71
:1091F00000215A4B98472378012B03D132680B3357
:10920000134333602378002B03D1326808331343B0
:10921000336043461E6802AB80221A7000225A70E7
:1092200001219970DA702378002B01D102AB9A707A
:10923000A36A0393E36A0493236B0593636B06931A
:10924000002702ADF9B2BB0003AA9858002802D14A
:1092500030003B4B9847431C05D02870000CC0B22F
:1092600029003F4B98470137042FEBD12378424622
:109270005371237C9371A37CD371237D13720022DD
:109280006B46DA802378012B15D1434618682F4BA3
:1092900098471330C0B22B4B984701006B469A1D7C
:1092A000A069294B984703001720002B42D16B4639
:1092B00006331B7833732378002B0FD1A769A38B58
:1092C000706AE17F0904A57F29430143716220226E
:1092D000A25C002A04D040210B4301E000230027B8
:1092E0006268A1680A43E1680A433A43217C0B4360
:1092F000617C002903D11B498978890701D5802128
:109300000A43A17C002902D0802189020B43E17C21
:10931000002902D0802189000B43217D002902D041
:10932000802189010B4331680A433260726813431C
:109330007360002008B01CBC90469946A246F0BD60
:10934000198E0000959C0000A58D0000A58F0000DF
:1093500000080040719C0000019C0000CD8D0000C1
:109360006D9D000000200041F0B55F464E46454629
:10937000E0B489461724002A6AD0C179053400294F
:1093800066D04179002905D101680C7EA40701D57A
:1093900002240C760026042502218C460139DB05C7
:1093A000DB0D98464479012C08D103681C7E0C42E1
:1093B000FCD01C7E0C421AD044469C624479002C9E
:1093C00015D103681C7E2C4206D1244C1F7E2F42EF
:1093D00002D1013C002CF9D11C7E67463C4203D0EF
:1093E00002221A76042433E01C7E2C422DD003681E
:1093F0001C7E2C42FCD01C7E2C4228D05C8BA346C9
:1094000000245F462F4201D05D831E348779012FEF
:1094100003D19B6ADB05DB0D01E09B6ADBB2002C0C
:1094200016D1741CA4B24F46BB558779012F05D1C4
:109430000236B6B21B0A4F463B5500E02600013A01
:1094400092B2002AAED1002402E0122400E01024DF
:1094500020001CBC90469946A346F0BD1027000092
:1094600010B544791523012C72D1047A0023002C05
:109470006ED1002A5BD04B78002B46D003681B7E50
:10948000DB0711D40B78D9090022002905D15A092C
:10949000D2018221C9058C4662441F210B401E392E
:1094A00099409161052353E00B78DC090022002CE0
:1094B00005D15A09D2018224E405A44662441F243E
:1094C00023401E3C9C40546103681A7ED20701D59C
:1094D0008A789A62C2790023002A39D1026804216D
:1094E000137E0B42FCD0117E0023490730D5538BED
:1094F0005B0701D5042353838379012B02D1936A3F
:10950000002325E0936A002322E00B78D90900228A
:10951000002905D15A09D2018221C9058C4662442D
:109520001F210B401E3999405161002310E00B7838
:10953000D9090022002905D15A09D2018221C90581
:109540008C4662441F210B401E39994091610023D3
:10955000180010BDF0B55F4656464D464446F0B47F
:1095600083B093461723002A00D1E5E04379002B0E
:1095700005D103681C7EA20701D502241C765D4636
:109580000024012302229446023290468CE0427964
:10959000002A16D10268167E1E4206D16A4E177E38
:1095A0001F4202D1013E002EF9D1167E61460E42C5
:1095B00003D0022313760233BEE0127E1A4200D19A
:1095C000B1E00668327E1A42FCD0621C97B2524665
:1095D000125D8179012902D092B23C0005E002348B
:1095E000A4B25146CF5D3F023A43377E1F4202D0BC
:1095F000D205D20DB2626A1E92B2C679002E57D041
:1096000051464279002A39D1504A0191002D20D08B
:109610000668377E1F421CD0671CB9B28946019983
:10962000095D00918179012903D069460F884C4674
:1096300007E00234A4B24946019F795C0902009F09
:109640000F43317E194202D0FF05FF0DB762013D85
:10965000ADB20668377E41460F4202D1013A002A78
:10966000D4D10199327E67463A4203D00223337641
:10967000023361E0327E4646324256D00668327E80
:1096800047463A42FBD0327E3A4209D0728B3A4288
:1096900000D077838279012A01D1B26A00E0B26AF0
:1096A0005A46013A92B29346013DADB28A4600E075
:1096B0001500274A954200D069E74379012B06D16E
:1096C000016802220B7E1342FCD0002334E0002B01
:1096D0002DD1C17900292FD004255B465C46002B93
:1096E0001BD129E00A7E2A4202D1013B002BF9D18D
:1096F0000B7E2B421DD00B7E2B4209D04B8B2B4275
:1097000000D04D838379012B01D18B6A00E08B6AF5
:10971000013CA4B2002C0ED0FFE701680B7E2B4267
:10972000E6D1094BDEE7122306E0122304E0002312
:1097300002E0122300E00023180003B03CBC904676
:109740009946A246AB46F0BD102700001127000045
:10975000FFFF0000F0B583B001AC01256570002368
:10976000A370257021001B20074FB8478226F605FD
:1097700080231B057361257021001C20B8478023BE
:109780005B05736103B0F0BD818D0000114A137851
:109790000133DBB21370082B10D9092B08D9002232
:1097A0000C4B1A70802212058223DB055A610AE0F5
:1097B000802212058223DB059A6104E080221205D3
:1097C0008223DB055A61802252058223DB055A6120
:1097D0007047C046680E0020114A13780133DBB28F
:1097E0001370042B10D9052B08D900220C4B1A70CA
:1097F000802252058223DB055A610AE0802252054D
:109800008223DB059A6104E0802252058223DB0576
:109810005A61802212058223DB055A617047C046D7
:10982000680E0020114A13780133DBB21370082B45
:1098300010D9092B08D900220C4B1A70802252052E
:109840008223DB055A610AE0802252058223DB0570
:109850009A6104E0802252058223DB055A6180224E
:1098600012058223DB055A617047C046680E00204E
:1098700010B5234B5B785A0608D58223DB0580227E
:1098800012055A61802252055A6137E01D4A12883A
:10989000002A08D08223DB05802212059A618022EB
:1098A00052055A612AE0184A5278920601D49B0761
:1098B00002D5164B984721E0154B9B7CDBB25F2B02
:1098C00008D98223DB05802212055A6180225205C5
:1098D0009A6113E00A4B1B785A0702D50D4B984743
:1098E0000CE01B0708D58223DB05802212059A6154
:1098F000802252059A6101E0074B984710BDC0468F
:1099000024110020F40F0020001100208D9700008A
:10991000300F0020D9970000259800007047C046FE
:109920000C4B1B68002B10D1EFF31083002B09D1D7
:1099300072B6BFF35F8F0022074B1A700132074BDC
:109940001A7002E00022054B1A70024A13680133B4
:10995000136070470C0D00200C000020100D00203B
:10996000084B1A68013A1A601B68002B09D1064B94
:109970001B78002B05D00122044B1A70BFF35F8FB8
:1099800062B670470C0D0020100D00200C00002066
:1099900010B5072803D880000F4B1B589F460020A6
:1099A00018E00E4B586815E00D4B597D0907090F5B
:1099B00001310C480C4B98470CE0084B986809E0C3
:1099C000074B1B7F00209B0704D5044B186801E060
:1099D0008020000210BDC046ECA80000140D00203D
:1099E00000100040006CDC02819F0000F0B54F4683
:1099F0004646C0B485B003221B4B9A601B4A53688D
:109A00001E218B4353601A4B197D80220A431A751D
:109A100002225A751A009369002BFCD1154B984706
:109A200001AC012602960025657006239946237035
:109A300025726572210008200F4B98469847082030
:109A40000E4FB8470E4B1E71666065704B46237013
:109A50002572657221000020C0470020B84705B07C
:109A60000CBC90469946F0BD0018004000400041F3
:109A700000100040859A0000A99A0000559B000044
:109A800000080040064A516980230B4353610122BC
:109A9000044B1A7019000B781342FCD17047C04672
:109AA00000080040001C004070B505000C784B78A1
:109AB000002B02D08023DB001C434B7A002B02D00A
:109AC00080231B011C434A68012A17D9531E1A42DE
